{
	"Lossless_create2-main/contracts/utils/LERC20.sol": {
		"LERC20": {
			"abi": [
				{
					"inputs": [
						{
							"internalType": "uint256",
							"name": "totalSupply_",
							"type": "uint256"
						},
						{
							"internalType": "string",
							"name": "name_",
							"type": "string"
						},
						{
							"internalType": "string",
							"name": "symbol_",
							"type": "string"
						},
						{
							"internalType": "address",
							"name": "admin_",
							"type": "address"
						},
						{
							"internalType": "address",
							"name": "recoveryAdmin_",
							"type": "address"
						},
						{
							"internalType": "uint256",
							"name": "timelockPeriod_",
							"type": "uint256"
						},
						{
							"internalType": "address",
							"name": "lossless_",
							"type": "address"
						}
					],
					"stateMutability": "nonpayable",
					"type": "constructor"
				},
				{
					"anonymous": false,
					"inputs": [
						{
							"indexed": true,
							"internalType": "address",
							"name": "_owner",
							"type": "address"
						},
						{
							"indexed": true,
							"internalType": "address",
							"name": "_spender",
							"type": "address"
						},
						{
							"indexed": false,
							"internalType": "uint256",
							"name": "_value",
							"type": "uint256"
						}
					],
					"name": "Approval",
					"type": "event"
				},
				{
					"anonymous": false,
					"inputs": [],
					"name": "LosslessOff",
					"type": "event"
				},
				{
					"anonymous": false,
					"inputs": [],
					"name": "LosslessOn",
					"type": "event"
				},
				{
					"anonymous": false,
					"inputs": [
						{
							"indexed": false,
							"internalType": "uint256",
							"name": "_turnOffDate",
							"type": "uint256"
						}
					],
					"name": "LosslessTurnOffProposal",
					"type": "event"
				},
				{
					"anonymous": false,
					"inputs": [
						{
							"indexed": true,
							"internalType": "address",
							"name": "_newAdmin",
							"type": "address"
						}
					],
					"name": "NewAdmin",
					"type": "event"
				},
				{
					"anonymous": false,
					"inputs": [
						{
							"indexed": true,
							"internalType": "address",
							"name": "_newAdmin",
							"type": "address"
						}
					],
					"name": "NewRecoveryAdmin",
					"type": "event"
				},
				{
					"anonymous": false,
					"inputs": [
						{
							"indexed": true,
							"internalType": "address",
							"name": "_candidate",
							"type": "address"
						}
					],
					"name": "NewRecoveryAdminProposal",
					"type": "event"
				},
				{
					"anonymous": false,
					"inputs": [
						{
							"indexed": true,
							"internalType": "address",
							"name": "_from",
							"type": "address"
						},
						{
							"indexed": true,
							"internalType": "address",
							"name": "_to",
							"type": "address"
						},
						{
							"indexed": false,
							"internalType": "uint256",
							"name": "_value",
							"type": "uint256"
						}
					],
					"name": "Transfer",
					"type": "event"
				},
				{
					"inputs": [
						{
							"internalType": "bytes",
							"name": "key",
							"type": "bytes"
						}
					],
					"name": "acceptRecoveryAdminOwnership",
					"outputs": [],
					"stateMutability": "nonpayable",
					"type": "function"
				},
				{
					"inputs": [],
					"name": "admin",
					"outputs": [
						{
							"internalType": "address",
							"name": "",
							"type": "address"
						}
					],
					"stateMutability": "view",
					"type": "function"
				},
				{
					"inputs": [
						{
							"internalType": "address",
							"name": "owner",
							"type": "address"
						},
						{
							"internalType": "address",
							"name": "spender",
							"type": "address"
						}
					],
					"name": "allowance",
					"outputs": [
						{
							"internalType": "uint256",
							"name": "",
							"type": "uint256"
						}
					],
					"stateMutability": "view",
					"type": "function"
				},
				{
					"inputs": [
						{
							"internalType": "address",
							"name": "spender",
							"type": "address"
						},
						{
							"internalType": "uint256",
							"name": "amount",
							"type": "uint256"
						}
					],
					"name": "approve",
					"outputs": [
						{
							"internalType": "bool",
							"name": "",
							"type": "bool"
						}
					],
					"stateMutability": "nonpayable",
					"type": "function"
				},
				{
					"inputs": [
						{
							"internalType": "address",
							"name": "account",
							"type": "address"
						}
					],
					"name": "balanceOf",
					"outputs": [
						{
							"internalType": "uint256",
							"name": "",
							"type": "uint256"
						}
					],
					"stateMutability": "view",
					"type": "function"
				},
				{
					"inputs": [],
					"name": "decimals",
					"outputs": [
						{
							"internalType": "uint8",
							"name": "",
							"type": "uint8"
						}
					],
					"stateMutability": "view",
					"type": "function"
				},
				{
					"inputs": [
						{
							"internalType": "address",
							"name": "spender",
							"type": "address"
						},
						{
							"internalType": "uint256",
							"name": "subtractedValue",
							"type": "uint256"
						}
					],
					"name": "decreaseAllowance",
					"outputs": [
						{
							"internalType": "bool",
							"name": "",
							"type": "bool"
						}
					],
					"stateMutability": "nonpayable",
					"type": "function"
				},
				{
					"inputs": [],
					"name": "executeLosslessTurnOff",
					"outputs": [],
					"stateMutability": "nonpayable",
					"type": "function"
				},
				{
					"inputs": [],
					"name": "executeLosslessTurnOn",
					"outputs": [],
					"stateMutability": "nonpayable",
					"type": "function"
				},
				{
					"inputs": [],
					"name": "getAdmin",
					"outputs": [
						{
							"internalType": "address",
							"name": "",
							"type": "address"
						}
					],
					"stateMutability": "view",
					"type": "function"
				},
				{
					"inputs": [
						{
							"internalType": "address",
							"name": "spender",
							"type": "address"
						},
						{
							"internalType": "uint256",
							"name": "addedValue",
							"type": "uint256"
						}
					],
					"name": "increaseAllowance",
					"outputs": [
						{
							"internalType": "bool",
							"name": "",
							"type": "bool"
						}
					],
					"stateMutability": "nonpayable",
					"type": "function"
				},
				{
					"inputs": [],
					"name": "isLosslessOn",
					"outputs": [
						{
							"internalType": "bool",
							"name": "",
							"type": "bool"
						}
					],
					"stateMutability": "view",
					"type": "function"
				},
				{
					"inputs": [],
					"name": "lossless",
					"outputs": [
						{
							"internalType": "contract ILssController",
							"name": "",
							"type": "address"
						}
					],
					"stateMutability": "view",
					"type": "function"
				},
				{
					"inputs": [],
					"name": "losslessTurnOffTimestamp",
					"outputs": [
						{
							"internalType": "uint256",
							"name": "",
							"type": "uint256"
						}
					],
					"stateMutability": "view",
					"type": "function"
				},
				{
					"inputs": [],
					"name": "name",
					"outputs": [
						{
							"internalType": "string",
							"name": "",
							"type": "string"
						}
					],
					"stateMutability": "view",
					"type": "function"
				},
				{
					"inputs": [],
					"name": "proposeLosslessTurnOff",
					"outputs": [],
					"stateMutability": "nonpayable",
					"type": "function"
				},
				{
					"inputs": [],
					"name": "recoveryAdmin",
					"outputs": [
						{
							"internalType": "address",
							"name": "",
							"type": "address"
						}
					],
					"stateMutability": "view",
					"type": "function"
				},
				{
					"inputs": [
						{
							"internalType": "address",
							"name": "newAdmin",
							"type": "address"
						}
					],
					"name": "setLosslessAdmin",
					"outputs": [],
					"stateMutability": "nonpayable",
					"type": "function"
				},
				{
					"inputs": [],
					"name": "symbol",
					"outputs": [
						{
							"internalType": "string",
							"name": "",
							"type": "string"
						}
					],
					"stateMutability": "view",
					"type": "function"
				},
				{
					"inputs": [],
					"name": "timelockPeriod",
					"outputs": [
						{
							"internalType": "uint256",
							"name": "",
							"type": "uint256"
						}
					],
					"stateMutability": "view",
					"type": "function"
				},
				{
					"inputs": [],
					"name": "totalSupply",
					"outputs": [
						{
							"internalType": "uint256",
							"name": "",
							"type": "uint256"
						}
					],
					"stateMutability": "view",
					"type": "function"
				},
				{
					"inputs": [
						{
							"internalType": "address",
							"name": "recipient",
							"type": "address"
						},
						{
							"internalType": "uint256",
							"name": "amount",
							"type": "uint256"
						}
					],
					"name": "transfer",
					"outputs": [
						{
							"internalType": "bool",
							"name": "",
							"type": "bool"
						}
					],
					"stateMutability": "nonpayable",
					"type": "function"
				},
				{
					"inputs": [
						{
							"internalType": "address",
							"name": "sender",
							"type": "address"
						},
						{
							"internalType": "address",
							"name": "recipient",
							"type": "address"
						},
						{
							"internalType": "uint256",
							"name": "amount",
							"type": "uint256"
						}
					],
					"name": "transferFrom",
					"outputs": [
						{
							"internalType": "bool",
							"name": "",
							"type": "bool"
						}
					],
					"stateMutability": "nonpayable",
					"type": "function"
				},
				{
					"inputs": [
						{
							"internalType": "address[]",
							"name": "from",
							"type": "address[]"
						}
					],
					"name": "transferOutBlacklistedFunds",
					"outputs": [],
					"stateMutability": "nonpayable",
					"type": "function"
				},
				{
					"inputs": [
						{
							"internalType": "address",
							"name": "candidate",
							"type": "address"
						},
						{
							"internalType": "bytes32",
							"name": "keyHash",
							"type": "bytes32"
						}
					],
					"name": "transferRecoveryAdminOwnership",
					"outputs": [],
					"stateMutability": "nonpayable",
					"type": "function"
				}
			],
			"devdoc": {
				"kind": "dev",
				"methods": {},
				"version": 1
			},
			"evm": {
				"assembly": "    /* \"Lossless_create2-main/contracts/utils/LERC20.sol\":179:8945  contract LERC20 is Context, ILERC20 {... */\n  mstore(0x40, 0x80)\n    /* \"Lossless_create2-main/contracts/utils/LERC20.sol\":699:703  true */\n  0x01\n    /* \"Lossless_create2-main/contracts/utils/LERC20.sol\":672:703  bool public isLosslessOn = true */\n  0x0b\n  exp(0x0100, 0x00)\n  dup2\n  sload\n  dup2\n  0xff\n  mul\n  not\n  and\n  swap1\n  dup4\n  iszero\n  iszero\n  mul\n  or\n  swap1\n  sstore\n  pop\n    /* \"Lossless_create2-main/contracts/utils/LERC20.sol\":746:1278  constructor(uint256 totalSupply_, string memory name_, string memory symbol_, address admin_, address recoveryAdmin_, uint256 timelockPeriod_, address lossless_) {... */\n  callvalue\n  dup1\n  iszero\n  tag_1\n  jumpi\n  0x00\n  dup1\n  revert\ntag_1:\n  pop\n  mload(0x40)\n  sub(codesize, bytecodeSize)\n  dup1\n  bytecodeSize\n  dup4\n  codecopy\n  dup2\n  dup2\n  add\n  0x40\n  mstore\n  dup2\n  add\n  swap1\n  tag_2\n  swap2\n  swap1\n  tag_3\n  jump\t// in\ntag_2:\n    /* \"Lossless_create2-main/contracts/utils/LERC20.sol\":918:951  _mint(_msgSender(), totalSupply_) */\n  tag_6\n    /* \"Lossless_create2-main/contracts/utils/LERC20.sol\":924:936  _msgSender() */\n  tag_7\n    /* \"Lossless_create2-main/contracts/utils/LERC20.sol\":924:934  _msgSender */\n  shl(0x20, tag_8)\n    /* \"Lossless_create2-main/contracts/utils/LERC20.sol\":924:936  _msgSender() */\n  0x20\n  shr\n  jump\t// in\ntag_7:\n    /* \"Lossless_create2-main/contracts/utils/LERC20.sol\":938:950  totalSupply_ */\n  dup9\n    /* \"Lossless_create2-main/contracts/utils/LERC20.sol\":918:923  _mint */\n  shl(0x20, tag_9)\n    /* \"Lossless_create2-main/contracts/utils/LERC20.sol\":918:951  _mint(_msgSender(), totalSupply_) */\n  0x20\n  shr\n  jump\t// in\ntag_6:\n    /* \"Lossless_create2-main/contracts/utils/LERC20.sol\":969:974  name_ */\n  dup6\n    /* \"Lossless_create2-main/contracts/utils/LERC20.sol\":961:966  _name */\n  0x03\n    /* \"Lossless_create2-main/contracts/utils/LERC20.sol\":961:974  _name = name_ */\n  swap1\n  dup1\n  mload\n  swap1\n  0x20\n  add\n  swap1\n  tag_10\n  swap3\n  swap2\n  swap1\n  tag_11\n  jump\t// in\ntag_10:\n  pop\n    /* \"Lossless_create2-main/contracts/utils/LERC20.sol\":994:1001  symbol_ */\n  dup5\n    /* \"Lossless_create2-main/contracts/utils/LERC20.sol\":984:991  _symbol */\n  0x04\n    /* \"Lossless_create2-main/contracts/utils/LERC20.sol\":984:1001  _symbol = symbol_ */\n  swap1\n  dup1\n  mload\n  swap1\n  0x20\n  add\n  swap1\n  tag_12\n  swap3\n  swap2\n  swap1\n  tag_11\n  jump\t// in\ntag_12:\n  pop\n    /* \"Lossless_create2-main/contracts/utils/LERC20.sol\":1019:1025  admin_ */\n  dup4\n    /* \"Lossless_create2-main/contracts/utils/LERC20.sol\":1011:1016  admin */\n  0x08\n  0x00\n    /* \"Lossless_create2-main/contracts/utils/LERC20.sol\":1011:1025  admin = admin_ */\n  0x0100\n  exp\n  dup2\n  sload\n  dup2\n  0xffffffffffffffffffffffffffffffffffffffff\n  mul\n  not\n  and\n  swap1\n  dup4\n  0xffffffffffffffffffffffffffffffffffffffff\n  and\n  mul\n  or\n  swap1\n  sstore\n  pop\n    /* \"Lossless_create2-main/contracts/utils/LERC20.sol\":1051:1065  recoveryAdmin_ */\n  dup3\n    /* \"Lossless_create2-main/contracts/utils/LERC20.sol\":1035:1048  recoveryAdmin */\n  0x05\n  0x00\n    /* \"Lossless_create2-main/contracts/utils/LERC20.sol\":1035:1065  recoveryAdmin = recoveryAdmin_ */\n  0x0100\n  exp\n  dup2\n  sload\n  dup2\n  0xffffffffffffffffffffffffffffffffffffffff\n  mul\n  not\n  and\n  swap1\n  dup4\n  0xffffffffffffffffffffffffffffffffffffffff\n  and\n  mul\n  or\n  swap1\n  sstore\n  pop\n    /* \"Lossless_create2-main/contracts/utils/LERC20.sol\":1108:1109  0 */\n  0x00\n    /* \"Lossless_create2-main/contracts/utils/LERC20.sol\":1075:1097  recoveryAdminCandidate */\n  0x06\n  0x00\n    /* \"Lossless_create2-main/contracts/utils/LERC20.sol\":1075:1110  recoveryAdminCandidate = address(0) */\n  0x0100\n  exp\n  dup2\n  sload\n  dup2\n  0xffffffffffffffffffffffffffffffffffffffff\n  mul\n  not\n  and\n  swap1\n  dup4\n  0xffffffffffffffffffffffffffffffffffffffff\n  and\n  mul\n  or\n  swap1\n  sstore\n  pop\n    /* \"Lossless_create2-main/contracts/utils/LERC20.sol\":1120:1145  recoveryAdminKeyHash = \"\" */\n  0x00\n    /* \"Lossless_create2-main/contracts/utils/LERC20.sol\":1120:1140  recoveryAdminKeyHash */\n  0x07\n    /* \"Lossless_create2-main/contracts/utils/LERC20.sol\":1120:1145  recoveryAdminKeyHash = \"\" */\n  dup2\n  swap1\n  sstore\n  pop\n    /* \"Lossless_create2-main/contracts/utils/LERC20.sol\":1172:1187  timelockPeriod_ */\n  dup2\n    /* \"Lossless_create2-main/contracts/utils/LERC20.sol\":1155:1169  timelockPeriod */\n  0x09\n    /* \"Lossless_create2-main/contracts/utils/LERC20.sol\":1155:1187  timelockPeriod = timelockPeriod_ */\n  dup2\n  swap1\n  sstore\n  pop\n    /* \"Lossless_create2-main/contracts/utils/LERC20.sol\":1224:1225  0 */\n  0x00\n    /* \"Lossless_create2-main/contracts/utils/LERC20.sol\":1197:1221  losslessTurnOffTimestamp */\n  0x0a\n    /* \"Lossless_create2-main/contracts/utils/LERC20.sol\":1197:1225  losslessTurnOffTimestamp = 0 */\n  dup2\n  swap1\n  sstore\n  pop\n    /* \"Lossless_create2-main/contracts/utils/LERC20.sol\":1261:1270  lossless_ */\n  dup1\n    /* \"Lossless_create2-main/contracts/utils/LERC20.sol\":1235:1243  lossless */\n  0x0b\n  0x01\n    /* \"Lossless_create2-main/contracts/utils/LERC20.sol\":1235:1271  lossless = ILssController(lossless_) */\n  0x0100\n  exp\n  dup2\n  sload\n  dup2\n  0xffffffffffffffffffffffffffffffffffffffff\n  mul\n  not\n  and\n  swap1\n  dup4\n  0xffffffffffffffffffffffffffffffffffffffff\n  and\n  mul\n  or\n  swap1\n  sstore\n  pop\n    /* \"Lossless_create2-main/contracts/utils/LERC20.sol\":746:1278  constructor(uint256 totalSupply_, string memory name_, string memory symbol_, address admin_, address recoveryAdmin_, uint256 timelockPeriod_, address lossless_) {... */\n  pop\n  pop\n  pop\n  pop\n  pop\n  pop\n  pop\n    /* \"Lossless_create2-main/contracts/utils/LERC20.sol\":179:8945  contract LERC20 is Context, ILERC20 {... */\n  jump(tag_13)\n    /* \"Lossless_create2-main/contracts/utils/Context.sol\":93:189  function _msgSender() internal view virtual returns (address) {... */\ntag_8:\n    /* \"Lossless_create2-main/contracts/utils/Context.sol\":146:153  address */\n  0x00\n    /* \"Lossless_create2-main/contracts/utils/Context.sol\":172:182  msg.sender */\n  caller\n    /* \"Lossless_create2-main/contracts/utils/Context.sol\":165:182  return msg.sender */\n  swap1\n  pop\n    /* \"Lossless_create2-main/contracts/utils/Context.sol\":93:189  function _msgSender() internal view virtual returns (address) {... */\n  swap1\n  jump\t// out\n    /* \"Lossless_create2-main/contracts/utils/LERC20.sol\":7869:8291  function _mint(address account, uint256 amount) internal virtual {... */\ntag_9:\n    /* \"Lossless_create2-main/contracts/utils/LERC20.sol\":7971:7972  0 */\n  0x00\n    /* \"Lossless_create2-main/contracts/utils/LERC20.sol\":7952:7973  account != address(0) */\n  0xffffffffffffffffffffffffffffffffffffffff\n  and\n    /* \"Lossless_create2-main/contracts/utils/LERC20.sol\":7952:7959  account */\n  dup3\n    /* \"Lossless_create2-main/contracts/utils/LERC20.sol\":7952:7973  account != address(0) */\n  0xffffffffffffffffffffffffffffffffffffffff\n  and\n  eq\n  iszero\n    /* \"Lossless_create2-main/contracts/utils/LERC20.sol\":7944:8010  require(account != address(0), \"LERC20: mint to the zero address\") */\n  tag_16\n  jumpi\n  mload(0x40)\n  0x08c379a000000000000000000000000000000000000000000000000000000000\n  dup2\n  mstore\n  0x04\n  add\n  tag_17\n  swap1\n  tag_18\n  jump\t// in\ntag_17:\n  mload(0x40)\n  dup1\n  swap2\n  sub\n  swap1\n  revert\ntag_16:\n    /* \"Lossless_create2-main/contracts/utils/LERC20.sol\":8041:8047  amount */\n  dup1\n    /* \"Lossless_create2-main/contracts/utils/LERC20.sol\":8025:8037  _totalSupply */\n  0x02\n  0x00\n    /* \"Lossless_create2-main/contracts/utils/LERC20.sol\":8025:8047  _totalSupply += amount */\n  dup3\n  dup3\n  sload\n  tag_19\n  swap2\n  swap1\n  tag_20\n  jump\t// in\ntag_19:\n  swap3\n  pop\n  pop\n  dup2\n  swap1\n  sstore\n  pop\n    /* \"Lossless_create2-main/contracts/utils/LERC20.sol\":8216:8222  amount */\n  dup1\n    /* \"Lossless_create2-main/contracts/utils/LERC20.sol\":8194:8203  _balances */\n  0x00\n    /* \"Lossless_create2-main/contracts/utils/LERC20.sol\":8194:8212  _balances[account] */\n  dup1\n    /* \"Lossless_create2-main/contracts/utils/LERC20.sol\":8204:8211  account */\n  dup5\n    /* \"Lossless_create2-main/contracts/utils/LERC20.sol\":8194:8212  _balances[account] */\n  0xffffffffffffffffffffffffffffffffffffffff\n  and\n  0xffffffffffffffffffffffffffffffffffffffff\n  and\n  dup2\n  mstore\n  0x20\n  add\n  swap1\n  dup2\n  mstore\n  0x20\n  add\n  0x00\n  keccak256\n  0x00\n    /* \"Lossless_create2-main/contracts/utils/LERC20.sol\":8194:8222  _balances[account] += amount */\n  dup3\n  dup3\n  sload\n  add\n  swap3\n  pop\n  pop\n  dup2\n  swap1\n  sstore\n  pop\n    /* \"Lossless_create2-main/contracts/utils/LERC20.sol\":8268:8275  account */\n  dup2\n    /* \"Lossless_create2-main/contracts/utils/LERC20.sol\":8247:8284  Transfer(address(0), account, amount) */\n  0xffffffffffffffffffffffffffffffffffffffff\n  and\n    /* \"Lossless_create2-main/contracts/utils/LERC20.sol\":8264:8265  0 */\n  0x00\n    /* \"Lossless_create2-main/contracts/utils/LERC20.sol\":8247:8284  Transfer(address(0), account, amount) */\n  0xffffffffffffffffffffffffffffffffffffffff\n  and\n  0xddf252ad1be2c89b69c2b068fc378daa952ba7f163c4a11628f55a4df523b3ef\n    /* \"Lossless_create2-main/contracts/utils/LERC20.sol\":8277:8283  amount */\n  dup4\n    /* \"Lossless_create2-main/contracts/utils/LERC20.sol\":8247:8284  Transfer(address(0), account, amount) */\n  mload(0x40)\n  tag_21\n  swap2\n  swap1\n  tag_22\n  jump\t// in\ntag_21:\n  mload(0x40)\n  dup1\n  swap2\n  sub\n  swap1\n  log3\n    /* \"Lossless_create2-main/contracts/utils/LERC20.sol\":7869:8291  function _mint(address account, uint256 amount) internal virtual {... */\n  pop\n  pop\n  jump\t// out\n    /* \"Lossless_create2-main/contracts/utils/LERC20.sol\":179:8945  contract LERC20 is Context, ILERC20 {... */\ntag_11:\n  dup3\n  dup1\n  sload\n  tag_23\n  swap1\n  tag_24\n  jump\t// in\ntag_23:\n  swap1\n  0x00\n  mstore\n  keccak256(0x00, 0x20)\n  swap1\n  0x1f\n  add\n  0x20\n  swap1\n  div\n  dup2\n  add\n  swap3\n  dup3\n  tag_26\n  jumpi\n  0x00\n  dup6\n  sstore\n  jump(tag_25)\ntag_26:\n  dup3\n  0x1f\n  lt\n  tag_27\n  jumpi\n  dup1\n  mload\n  not(0xff)\n  and\n  dup4\n  dup1\n  add\n  or\n  dup6\n  sstore\n  jump(tag_25)\ntag_27:\n  dup3\n  dup1\n  add\n  0x01\n  add\n  dup6\n  sstore\n  dup3\n  iszero\n  tag_25\n  jumpi\n  swap2\n  dup3\n  add\ntag_28:\n  dup3\n  dup2\n  gt\n  iszero\n  tag_29\n  jumpi\n  dup3\n  mload\n  dup3\n  sstore\n  swap2\n  0x20\n  add\n  swap2\n  swap1\n  0x01\n  add\n  swap1\n  jump(tag_28)\ntag_29:\ntag_25:\n  pop\n  swap1\n  pop\n  tag_30\n  swap2\n  swap1\n  tag_31\n  jump\t// in\ntag_30:\n  pop\n  swap1\n  jump\t// out\ntag_31:\ntag_32:\n  dup1\n  dup3\n  gt\n  iszero\n  tag_33\n  jumpi\n  0x00\n  dup2\n  0x00\n  swap1\n  sstore\n  pop\n  0x01\n  add\n  jump(tag_32)\ntag_33:\n  pop\n  swap1\n  jump\t// out\n    /* \"#utility.yul\":7:361   */\ntag_35:\n    /* \"#utility.yul\":96:101   */\n  0x00\n    /* \"#utility.yul\":121:187   */\n  tag_37\n    /* \"#utility.yul\":137:186   */\n  tag_38\n    /* \"#utility.yul\":179:185   */\n  dup5\n    /* \"#utility.yul\":137:186   */\n  tag_39\n  jump\t// in\ntag_38:\n    /* \"#utility.yul\":121:187   */\n  tag_40\n  jump\t// in\ntag_37:\n    /* \"#utility.yul\":112:187   */\n  swap1\n  pop\n    /* \"#utility.yul\":210:216   */\n  dup3\n    /* \"#utility.yul\":203:208   */\n  dup2\n    /* \"#utility.yul\":196:217   */\n  mstore\n    /* \"#utility.yul\":248:252   */\n  0x20\n    /* \"#utility.yul\":241:246   */\n  dup2\n    /* \"#utility.yul\":237:253   */\n  add\n    /* \"#utility.yul\":286:289   */\n  dup5\n    /* \"#utility.yul\":277:283   */\n  dup5\n    /* \"#utility.yul\":272:275   */\n  dup5\n    /* \"#utility.yul\":268:284   */\n  add\n    /* \"#utility.yul\":265:290   */\n  gt\n    /* \"#utility.yul\":262:264   */\n  iszero\n  tag_41\n  jumpi\n    /* \"#utility.yul\":303:304   */\n  0x00\n    /* \"#utility.yul\":300:301   */\n  dup1\n    /* \"#utility.yul\":293:305   */\n  revert\n    /* \"#utility.yul\":262:264   */\ntag_41:\n    /* \"#utility.yul\":316:355   */\n  tag_42\n    /* \"#utility.yul\":348:354   */\n  dup5\n    /* \"#utility.yul\":343:346   */\n  dup3\n    /* \"#utility.yul\":338:341   */\n  dup6\n    /* \"#utility.yul\":316:355   */\n  tag_43\n  jump\t// in\ntag_42:\n    /* \"#utility.yul\":102:361   */\n  pop\n  swap4\n  swap3\n  pop\n  pop\n  pop\n  jump\t// out\n    /* \"#utility.yul\":367:510   */\ntag_44:\n    /* \"#utility.yul\":424:429   */\n  0x00\n    /* \"#utility.yul\":455:461   */\n  dup2\n    /* \"#utility.yul\":449:462   */\n  mload\n    /* \"#utility.yul\":440:462   */\n  swap1\n  pop\n    /* \"#utility.yul\":471:504   */\n  tag_46\n    /* \"#utility.yul\":498:503   */\n  dup2\n    /* \"#utility.yul\":471:504   */\n  tag_47\n  jump\t// in\ntag_46:\n    /* \"#utility.yul\":430:510   */\n  swap3\n  swap2\n  pop\n  pop\n  jump\t// out\n    /* \"#utility.yul\":530:818   */\ntag_48:\n    /* \"#utility.yul\":597:602   */\n  0x00\n    /* \"#utility.yul\":646:649   */\n  dup3\n    /* \"#utility.yul\":639:643   */\n  0x1f\n    /* \"#utility.yul\":631:637   */\n  dup4\n    /* \"#utility.yul\":627:644   */\n  add\n    /* \"#utility.yul\":623:650   */\n  slt\n    /* \"#utility.yul\":613:615   */\n  tag_50\n  jumpi\n    /* \"#utility.yul\":664:665   */\n  0x00\n    /* \"#utility.yul\":661:662   */\n  dup1\n    /* \"#utility.yul\":654:666   */\n  revert\n    /* \"#utility.yul\":613:615   */\ntag_50:\n    /* \"#utility.yul\":697:703   */\n  dup2\n    /* \"#utility.yul\":691:704   */\n  mload\n    /* \"#utility.yul\":722:812   */\n  tag_51\n    /* \"#utility.yul\":808:811   */\n  dup5\n    /* \"#utility.yul\":800:806   */\n  dup3\n    /* \"#utility.yul\":793:797   */\n  0x20\n    /* \"#utility.yul\":785:791   */\n  dup7\n    /* \"#utility.yul\":781:798   */\n  add\n    /* \"#utility.yul\":722:812   */\n  tag_35\n  jump\t// in\ntag_51:\n    /* \"#utility.yul\":713:812   */\n  swap2\n  pop\n    /* \"#utility.yul\":603:818   */\n  pop\n  swap3\n  swap2\n  pop\n  pop\n  jump\t// out\n    /* \"#utility.yul\":824:967   */\ntag_52:\n    /* \"#utility.yul\":881:886   */\n  0x00\n    /* \"#utility.yul\":912:918   */\n  dup2\n    /* \"#utility.yul\":906:919   */\n  mload\n    /* \"#utility.yul\":897:919   */\n  swap1\n  pop\n    /* \"#utility.yul\":928:961   */\n  tag_54\n    /* \"#utility.yul\":955:960   */\n  dup2\n    /* \"#utility.yul\":928:961   */\n  tag_55\n  jump\t// in\ntag_54:\n    /* \"#utility.yul\":887:967   */\n  swap3\n  swap2\n  pop\n  pop\n  jump\t// out\n    /* \"#utility.yul\":973:2409   */\ntag_3:\n    /* \"#utility.yul\":1117:1123   */\n  0x00\n    /* \"#utility.yul\":1125:1131   */\n  dup1\n    /* \"#utility.yul\":1133:1139   */\n  0x00\n    /* \"#utility.yul\":1141:1147   */\n  dup1\n    /* \"#utility.yul\":1149:1155   */\n  0x00\n    /* \"#utility.yul\":1157:1163   */\n  dup1\n    /* \"#utility.yul\":1165:1171   */\n  0x00\n    /* \"#utility.yul\":1214:1217   */\n  0xe0\n    /* \"#utility.yul\":1202:1211   */\n  dup9\n    /* \"#utility.yul\":1193:1200   */\n  dup11\n    /* \"#utility.yul\":1189:1212   */\n  sub\n    /* \"#utility.yul\":1185:1218   */\n  slt\n    /* \"#utility.yul\":1182:1184   */\n  iszero\n  tag_57\n  jumpi\n    /* \"#utility.yul\":1231:1232   */\n  0x00\n    /* \"#utility.yul\":1228:1229   */\n  dup1\n    /* \"#utility.yul\":1221:1233   */\n  revert\n    /* \"#utility.yul\":1182:1184   */\ntag_57:\n    /* \"#utility.yul\":1274:1275   */\n  0x00\n    /* \"#utility.yul\":1299:1363   */\n  tag_58\n    /* \"#utility.yul\":1355:1362   */\n  dup11\n    /* \"#utility.yul\":1346:1352   */\n  dup3\n    /* \"#utility.yul\":1335:1344   */\n  dup12\n    /* \"#utility.yul\":1331:1353   */\n  add\n    /* \"#utility.yul\":1299:1363   */\n  tag_52\n  jump\t// in\ntag_58:\n    /* \"#utility.yul\":1289:1363   */\n  swap8\n  pop\n    /* \"#utility.yul\":1245:1373   */\n  pop\n    /* \"#utility.yul\":1433:1435   */\n  0x20\n    /* \"#utility.yul\":1422:1431   */\n  dup9\n    /* \"#utility.yul\":1418:1436   */\n  add\n    /* \"#utility.yul\":1412:1437   */\n  mload\n    /* \"#utility.yul\":1464:1482   */\n  0xffffffffffffffff\n    /* \"#utility.yul\":1456:1462   */\n  dup2\n    /* \"#utility.yul\":1453:1483   */\n  gt\n    /* \"#utility.yul\":1450:1452   */\n  iszero\n  tag_59\n  jumpi\n    /* \"#utility.yul\":1496:1497   */\n  0x00\n    /* \"#utility.yul\":1493:1494   */\n  dup1\n    /* \"#utility.yul\":1486:1498   */\n  revert\n    /* \"#utility.yul\":1450:1452   */\ntag_59:\n    /* \"#utility.yul\":1524:1598   */\n  tag_60\n    /* \"#utility.yul\":1590:1597   */\n  dup11\n    /* \"#utility.yul\":1581:1587   */\n  dup3\n    /* \"#utility.yul\":1570:1579   */\n  dup12\n    /* \"#utility.yul\":1566:1588   */\n  add\n    /* \"#utility.yul\":1524:1598   */\n  tag_48\n  jump\t// in\ntag_60:\n    /* \"#utility.yul\":1514:1598   */\n  swap7\n  pop\n    /* \"#utility.yul\":1383:1608   */\n  pop\n    /* \"#utility.yul\":1668:1670   */\n  0x40\n    /* \"#utility.yul\":1657:1666   */\n  dup9\n    /* \"#utility.yul\":1653:1671   */\n  add\n    /* \"#utility.yul\":1647:1672   */\n  mload\n    /* \"#utility.yul\":1699:1717   */\n  0xffffffffffffffff\n    /* \"#utility.yul\":1691:1697   */\n  dup2\n    /* \"#utility.yul\":1688:1718   */\n  gt\n    /* \"#utility.yul\":1685:1687   */\n  iszero\n  tag_61\n  jumpi\n    /* \"#utility.yul\":1731:1732   */\n  0x00\n    /* \"#utility.yul\":1728:1729   */\n  dup1\n    /* \"#utility.yul\":1721:1733   */\n  revert\n    /* \"#utility.yul\":1685:1687   */\ntag_61:\n    /* \"#utility.yul\":1759:1833   */\n  tag_62\n    /* \"#utility.yul\":1825:1832   */\n  dup11\n    /* \"#utility.yul\":1816:1822   */\n  dup3\n    /* \"#utility.yul\":1805:1814   */\n  dup12\n    /* \"#utility.yul\":1801:1823   */\n  add\n    /* \"#utility.yul\":1759:1833   */\n  tag_48\n  jump\t// in\ntag_62:\n    /* \"#utility.yul\":1749:1833   */\n  swap6\n  pop\n    /* \"#utility.yul\":1618:1843   */\n  pop\n    /* \"#utility.yul\":1882:1884   */\n  0x60\n    /* \"#utility.yul\":1908:1972   */\n  tag_63\n    /* \"#utility.yul\":1964:1971   */\n  dup11\n    /* \"#utility.yul\":1955:1961   */\n  dup3\n    /* \"#utility.yul\":1944:1953   */\n  dup12\n    /* \"#utility.yul\":1940:1962   */\n  add\n    /* \"#utility.yul\":1908:1972   */\n  tag_44\n  jump\t// in\ntag_63:\n    /* \"#utility.yul\":1898:1972   */\n  swap5\n  pop\n    /* \"#utility.yul\":1853:1982   */\n  pop\n    /* \"#utility.yul\":2021:2024   */\n  0x80\n    /* \"#utility.yul\":2048:2112   */\n  tag_64\n    /* \"#utility.yul\":2104:2111   */\n  dup11\n    /* \"#utility.yul\":2095:2101   */\n  dup3\n    /* \"#utility.yul\":2084:2093   */\n  dup12\n    /* \"#utility.yul\":2080:2102   */\n  add\n    /* \"#utility.yul\":2048:2112   */\n  tag_44\n  jump\t// in\ntag_64:\n    /* \"#utility.yul\":2038:2112   */\n  swap4\n  pop\n    /* \"#utility.yul\":1992:2122   */\n  pop\n    /* \"#utility.yul\":2161:2164   */\n  0xa0\n    /* \"#utility.yul\":2188:2252   */\n  tag_65\n    /* \"#utility.yul\":2244:2251   */\n  dup11\n    /* \"#utility.yul\":2235:2241   */\n  dup3\n    /* \"#utility.yul\":2224:2233   */\n  dup12\n    /* \"#utility.yul\":2220:2242   */\n  add\n    /* \"#utility.yul\":2188:2252   */\n  tag_52\n  jump\t// in\ntag_65:\n    /* \"#utility.yul\":2178:2252   */\n  swap3\n  pop\n    /* \"#utility.yul\":2132:2262   */\n  pop\n    /* \"#utility.yul\":2301:2304   */\n  0xc0\n    /* \"#utility.yul\":2328:2392   */\n  tag_66\n    /* \"#utility.yul\":2384:2391   */\n  dup11\n    /* \"#utility.yul\":2375:2381   */\n  dup3\n    /* \"#utility.yul\":2364:2373   */\n  dup12\n    /* \"#utility.yul\":2360:2382   */\n  add\n    /* \"#utility.yul\":2328:2392   */\n  tag_44\n  jump\t// in\ntag_66:\n    /* \"#utility.yul\":2318:2392   */\n  swap2\n  pop\n    /* \"#utility.yul\":2272:2402   */\n  pop\n    /* \"#utility.yul\":1172:2409   */\n  swap3\n  swap6\n  swap9\n  swap2\n  swap5\n  swap8\n  pop\n  swap3\n  swap6\n  pop\n  jump\t// out\n    /* \"#utility.yul\":2415:2781   */\ntag_67:\n    /* \"#utility.yul\":2557:2560   */\n  0x00\n    /* \"#utility.yul\":2578:2645   */\n  tag_69\n    /* \"#utility.yul\":2642:2644   */\n  0x20\n    /* \"#utility.yul\":2637:2640   */\n  dup4\n    /* \"#utility.yul\":2578:2645   */\n  tag_70\n  jump\t// in\ntag_69:\n    /* \"#utility.yul\":2571:2645   */\n  swap2\n  pop\n    /* \"#utility.yul\":2654:2747   */\n  tag_71\n    /* \"#utility.yul\":2743:2746   */\n  dup3\n    /* \"#utility.yul\":2654:2747   */\n  tag_72\n  jump\t// in\ntag_71:\n    /* \"#utility.yul\":2772:2774   */\n  0x20\n    /* \"#utility.yul\":2767:2770   */\n  dup3\n    /* \"#utility.yul\":2763:2775   */\n  add\n    /* \"#utility.yul\":2756:2775   */\n  swap1\n  pop\n    /* \"#utility.yul\":2561:2781   */\n  swap2\n  swap1\n  pop\n  jump\t// out\n    /* \"#utility.yul\":2787:2905   */\ntag_73:\n    /* \"#utility.yul\":2874:2898   */\n  tag_75\n    /* \"#utility.yul\":2892:2897   */\n  dup2\n    /* \"#utility.yul\":2874:2898   */\n  tag_76\n  jump\t// in\ntag_75:\n    /* \"#utility.yul\":2869:2872   */\n  dup3\n    /* \"#utility.yul\":2862:2899   */\n  mstore\n    /* \"#utility.yul\":2852:2905   */\n  pop\n  pop\n  jump\t// out\n    /* \"#utility.yul\":2911:3330   */\ntag_18:\n    /* \"#utility.yul\":3077:3081   */\n  0x00\n    /* \"#utility.yul\":3115:3117   */\n  0x20\n    /* \"#utility.yul\":3104:3113   */\n  dup3\n    /* \"#utility.yul\":3100:3118   */\n  add\n    /* \"#utility.yul\":3092:3118   */\n  swap1\n  pop\n    /* \"#utility.yul\":3164:3173   */\n  dup2\n    /* \"#utility.yul\":3158:3162   */\n  dup2\n    /* \"#utility.yul\":3154:3174   */\n  sub\n    /* \"#utility.yul\":3150:3151   */\n  0x00\n    /* \"#utility.yul\":3139:3148   */\n  dup4\n    /* \"#utility.yul\":3135:3152   */\n  add\n    /* \"#utility.yul\":3128:3175   */\n  mstore\n    /* \"#utility.yul\":3192:3323   */\n  tag_78\n    /* \"#utility.yul\":3318:3322   */\n  dup2\n    /* \"#utility.yul\":3192:3323   */\n  tag_67\n  jump\t// in\ntag_78:\n    /* \"#utility.yul\":3184:3323   */\n  swap1\n  pop\n    /* \"#utility.yul\":3082:3330   */\n  swap2\n  swap1\n  pop\n  jump\t// out\n    /* \"#utility.yul\":3336:3558   */\ntag_22:\n    /* \"#utility.yul\":3429:3433   */\n  0x00\n    /* \"#utility.yul\":3467:3469   */\n  0x20\n    /* \"#utility.yul\":3456:3465   */\n  dup3\n    /* \"#utility.yul\":3452:3470   */\n  add\n    /* \"#utility.yul\":3444:3470   */\n  swap1\n  pop\n    /* \"#utility.yul\":3480:3551   */\n  tag_80\n    /* \"#utility.yul\":3548:3549   */\n  0x00\n    /* \"#utility.yul\":3537:3546   */\n  dup4\n    /* \"#utility.yul\":3533:3550   */\n  add\n    /* \"#utility.yul\":3524:3530   */\n  dup5\n    /* \"#utility.yul\":3480:3551   */\n  tag_73\n  jump\t// in\ntag_80:\n    /* \"#utility.yul\":3434:3558   */\n  swap3\n  swap2\n  pop\n  pop\n  jump\t// out\n    /* \"#utility.yul\":3564:3693   */\ntag_40:\n    /* \"#utility.yul\":3598:3604   */\n  0x00\n    /* \"#utility.yul\":3625:3645   */\n  tag_82\n  tag_83\n  jump\t// in\ntag_82:\n    /* \"#utility.yul\":3615:3645   */\n  swap1\n  pop\n    /* \"#utility.yul\":3654:3687   */\n  tag_84\n    /* \"#utility.yul\":3682:3686   */\n  dup3\n    /* \"#utility.yul\":3674:3680   */\n  dup3\n    /* \"#utility.yul\":3654:3687   */\n  tag_85\n  jump\t// in\ntag_84:\n    /* \"#utility.yul\":3605:3693   */\n  swap2\n  swap1\n  pop\n  jump\t// out\n    /* \"#utility.yul\":3699:3774   */\ntag_83:\n    /* \"#utility.yul\":3732:3738   */\n  0x00\n    /* \"#utility.yul\":3765:3767   */\n  0x40\n    /* \"#utility.yul\":3759:3768   */\n  mload\n    /* \"#utility.yul\":3749:3768   */\n  swap1\n  pop\n    /* \"#utility.yul\":3739:3774   */\n  swap1\n  jump\t// out\n    /* \"#utility.yul\":3780:4088   */\ntag_39:\n    /* \"#utility.yul\":3842:3846   */\n  0x00\n    /* \"#utility.yul\":3932:3950   */\n  0xffffffffffffffff\n    /* \"#utility.yul\":3924:3930   */\n  dup3\n    /* \"#utility.yul\":3921:3951   */\n  gt\n    /* \"#utility.yul\":3918:3920   */\n  iszero\n  tag_88\n  jumpi\n    /* \"#utility.yul\":3954:3972   */\n  tag_89\n  tag_90\n  jump\t// in\ntag_89:\n    /* \"#utility.yul\":3918:3920   */\ntag_88:\n    /* \"#utility.yul\":3992:4021   */\n  tag_91\n    /* \"#utility.yul\":4014:4020   */\n  dup3\n    /* \"#utility.yul\":3992:4021   */\n  tag_92\n  jump\t// in\ntag_91:\n    /* \"#utility.yul\":3984:4021   */\n  swap1\n  pop\n    /* \"#utility.yul\":4076:4080   */\n  0x20\n    /* \"#utility.yul\":4070:4074   */\n  dup2\n    /* \"#utility.yul\":4066:4081   */\n  add\n    /* \"#utility.yul\":4058:4081   */\n  swap1\n  pop\n    /* \"#utility.yul\":3847:4088   */\n  swap2\n  swap1\n  pop\n  jump\t// out\n    /* \"#utility.yul\":4094:4263   */\ntag_70:\n    /* \"#utility.yul\":4178:4189   */\n  0x00\n    /* \"#utility.yul\":4212:4218   */\n  dup3\n    /* \"#utility.yul\":4207:4210   */\n  dup3\n    /* \"#utility.yul\":4200:4219   */\n  mstore\n    /* \"#utility.yul\":4252:4256   */\n  0x20\n    /* \"#utility.yul\":4247:4250   */\n  dup3\n    /* \"#utility.yul\":4243:4257   */\n  add\n    /* \"#utility.yul\":4228:4257   */\n  swap1\n  pop\n    /* \"#utility.yul\":4190:4263   */\n  swap3\n  swap2\n  pop\n  pop\n  jump\t// out\n    /* \"#utility.yul\":4269:4574   */\ntag_20:\n    /* \"#utility.yul\":4309:4312   */\n  0x00\n    /* \"#utility.yul\":4328:4348   */\n  tag_95\n    /* \"#utility.yul\":4346:4347   */\n  dup3\n    /* \"#utility.yul\":4328:4348   */\n  tag_76\n  jump\t// in\ntag_95:\n    /* \"#utility.yul\":4323:4348   */\n  swap2\n  pop\n    /* \"#utility.yul\":4362:4382   */\n  tag_96\n    /* \"#utility.yul\":4380:4381   */\n  dup4\n    /* \"#utility.yul\":4362:4382   */\n  tag_76\n  jump\t// in\ntag_96:\n    /* \"#utility.yul\":4357:4382   */\n  swap3\n  pop\n    /* \"#utility.yul\":4516:4517   */\n  dup3\n    /* \"#utility.yul\":4448:4514   */\n  0xffffffffffffffffffffffffffffffffffffffffffffffffffffffffffffffff\n    /* \"#utility.yul\":4444:4518   */\n  sub\n    /* \"#utility.yul\":4441:4442   */\n  dup3\n    /* \"#utility.yul\":4438:4519   */\n  gt\n    /* \"#utility.yul\":4435:4437   */\n  iszero\n  tag_97\n  jumpi\n    /* \"#utility.yul\":4522:4540   */\n  tag_98\n  tag_99\n  jump\t// in\ntag_98:\n    /* \"#utility.yul\":4435:4437   */\ntag_97:\n    /* \"#utility.yul\":4566:4567   */\n  dup3\n    /* \"#utility.yul\":4563:4564   */\n  dup3\n    /* \"#utility.yul\":4559:4568   */\n  add\n    /* \"#utility.yul\":4552:4568   */\n  swap1\n  pop\n    /* \"#utility.yul\":4313:4574   */\n  swap3\n  swap2\n  pop\n  pop\n  jump\t// out\n    /* \"#utility.yul\":4580:4676   */\ntag_100:\n    /* \"#utility.yul\":4617:4624   */\n  0x00\n    /* \"#utility.yul\":4646:4670   */\n  tag_102\n    /* \"#utility.yul\":4664:4669   */\n  dup3\n    /* \"#utility.yul\":4646:4670   */\n  tag_103\n  jump\t// in\ntag_102:\n    /* \"#utility.yul\":4635:4670   */\n  swap1\n  pop\n    /* \"#utility.yul\":4625:4676   */\n  swap2\n  swap1\n  pop\n  jump\t// out\n    /* \"#utility.yul\":4682:4808   */\ntag_103:\n    /* \"#utility.yul\":4719:4726   */\n  0x00\n    /* \"#utility.yul\":4759:4801   */\n  0xffffffffffffffffffffffffffffffffffffffff\n    /* \"#utility.yul\":4752:4757   */\n  dup3\n    /* \"#utility.yul\":4748:4802   */\n  and\n    /* \"#utility.yul\":4737:4802   */\n  swap1\n  pop\n    /* \"#utility.yul\":4727:4808   */\n  swap2\n  swap1\n  pop\n  jump\t// out\n    /* \"#utility.yul\":4814:4891   */\ntag_76:\n    /* \"#utility.yul\":4851:4858   */\n  0x00\n    /* \"#utility.yul\":4880:4885   */\n  dup2\n    /* \"#utility.yul\":4869:4885   */\n  swap1\n  pop\n    /* \"#utility.yul\":4859:4891   */\n  swap2\n  swap1\n  pop\n  jump\t// out\n    /* \"#utility.yul\":4897:5204   */\ntag_43:\n    /* \"#utility.yul\":4965:4966   */\n  0x00\n    /* \"#utility.yul\":4975:5088   */\ntag_107:\n    /* \"#utility.yul\":4989:4995   */\n  dup4\n    /* \"#utility.yul\":4986:4987   */\n  dup2\n    /* \"#utility.yul\":4983:4996   */\n  lt\n    /* \"#utility.yul\":4975:5088   */\n  iszero\n  tag_109\n  jumpi\n    /* \"#utility.yul\":5074:5075   */\n  dup1\n    /* \"#utility.yul\":5069:5072   */\n  dup3\n    /* \"#utility.yul\":5065:5076   */\n  add\n    /* \"#utility.yul\":5059:5077   */\n  mload\n    /* \"#utility.yul\":5055:5056   */\n  dup2\n    /* \"#utility.yul\":5050:5053   */\n  dup5\n    /* \"#utility.yul\":5046:5057   */\n  add\n    /* \"#utility.yul\":5039:5078   */\n  mstore\n    /* \"#utility.yul\":5011:5013   */\n  0x20\n    /* \"#utility.yul\":5008:5009   */\n  dup2\n    /* \"#utility.yul\":5004:5014   */\n  add\n    /* \"#utility.yul\":4999:5014   */\n  swap1\n  pop\n    /* \"#utility.yul\":4975:5088   */\n  jump(tag_107)\ntag_109:\n    /* \"#utility.yul\":5106:5112   */\n  dup4\n    /* \"#utility.yul\":5103:5104   */\n  dup2\n    /* \"#utility.yul\":5100:5113   */\n  gt\n    /* \"#utility.yul\":5097:5099   */\n  iszero\n  tag_110\n  jumpi\n    /* \"#utility.yul\":5186:5187   */\n  0x00\n    /* \"#utility.yul\":5177:5183   */\n  dup5\n    /* \"#utility.yul\":5172:5175   */\n  dup5\n    /* \"#utility.yul\":5168:5184   */\n  add\n    /* \"#utility.yul\":5161:5188   */\n  mstore\n    /* \"#utility.yul\":5097:5099   */\ntag_110:\n    /* \"#utility.yul\":4946:5204   */\n  pop\n  pop\n  pop\n  pop\n  jump\t// out\n    /* \"#utility.yul\":5210:5530   */\ntag_24:\n    /* \"#utility.yul\":5254:5260   */\n  0x00\n    /* \"#utility.yul\":5291:5292   */\n  0x02\n    /* \"#utility.yul\":5285:5289   */\n  dup3\n    /* \"#utility.yul\":5281:5293   */\n  div\n    /* \"#utility.yul\":5271:5293   */\n  swap1\n  pop\n    /* \"#utility.yul\":5338:5339   */\n  0x01\n    /* \"#utility.yul\":5332:5336   */\n  dup3\n    /* \"#utility.yul\":5328:5340   */\n  and\n    /* \"#utility.yul\":5359:5377   */\n  dup1\n    /* \"#utility.yul\":5349:5351   */\n  tag_112\n  jumpi\n    /* \"#utility.yul\":5415:5419   */\n  0x7f\n    /* \"#utility.yul\":5407:5413   */\n  dup3\n    /* \"#utility.yul\":5403:5420   */\n  and\n    /* \"#utility.yul\":5393:5420   */\n  swap2\n  pop\n    /* \"#utility.yul\":5349:5351   */\ntag_112:\n    /* \"#utility.yul\":5477:5479   */\n  0x20\n    /* \"#utility.yul\":5469:5475   */\n  dup3\n    /* \"#utility.yul\":5466:5480   */\n  lt\n    /* \"#utility.yul\":5446:5464   */\n  dup2\n    /* \"#utility.yul\":5443:5481   */\n  eq\n    /* \"#utility.yul\":5440:5442   */\n  iszero\n  tag_113\n  jumpi\n    /* \"#utility.yul\":5496:5514   */\n  tag_114\n  tag_115\n  jump\t// in\ntag_114:\n    /* \"#utility.yul\":5440:5442   */\ntag_113:\n    /* \"#utility.yul\":5261:5530   */\n  pop\n  swap2\n  swap1\n  pop\n  jump\t// out\n    /* \"#utility.yul\":5536:5817   */\ntag_85:\n    /* \"#utility.yul\":5619:5646   */\n  tag_117\n    /* \"#utility.yul\":5641:5645   */\n  dup3\n    /* \"#utility.yul\":5619:5646   */\n  tag_92\n  jump\t// in\ntag_117:\n    /* \"#utility.yul\":5611:5617   */\n  dup2\n    /* \"#utility.yul\":5607:5647   */\n  add\n    /* \"#utility.yul\":5749:5755   */\n  dup2\n    /* \"#utility.yul\":5737:5747   */\n  dup2\n    /* \"#utility.yul\":5734:5756   */\n  lt\n    /* \"#utility.yul\":5713:5731   */\n  0xffffffffffffffff\n    /* \"#utility.yul\":5701:5711   */\n  dup3\n    /* \"#utility.yul\":5698:5732   */\n  gt\n    /* \"#utility.yul\":5695:5757   */\n  or\n    /* \"#utility.yul\":5692:5694   */\n  iszero\n  tag_118\n  jumpi\n    /* \"#utility.yul\":5760:5778   */\n  tag_119\n  tag_90\n  jump\t// in\ntag_119:\n    /* \"#utility.yul\":5692:5694   */\ntag_118:\n    /* \"#utility.yul\":5800:5810   */\n  dup1\n    /* \"#utility.yul\":5796:5798   */\n  0x40\n    /* \"#utility.yul\":5789:5811   */\n  mstore\n    /* \"#utility.yul\":5579:5817   */\n  pop\n  pop\n  pop\n  jump\t// out\n    /* \"#utility.yul\":5823:6003   */\ntag_99:\n    /* \"#utility.yul\":5871:5948   */\n  0x4e487b7100000000000000000000000000000000000000000000000000000000\n    /* \"#utility.yul\":5868:5869   */\n  0x00\n    /* \"#utility.yul\":5861:5949   */\n  mstore\n    /* \"#utility.yul\":5968:5972   */\n  0x11\n    /* \"#utility.yul\":5965:5966   */\n  0x04\n    /* \"#utility.yul\":5958:5973   */\n  mstore\n    /* \"#utility.yul\":5992:5996   */\n  0x24\n    /* \"#utility.yul\":5989:5990   */\n  0x00\n    /* \"#utility.yul\":5982:5997   */\n  revert\n    /* \"#utility.yul\":6009:6189   */\ntag_115:\n    /* \"#utility.yul\":6057:6134   */\n  0x4e487b7100000000000000000000000000000000000000000000000000000000\n    /* \"#utility.yul\":6054:6055   */\n  0x00\n    /* \"#utility.yul\":6047:6135   */\n  mstore\n    /* \"#utility.yul\":6154:6158   */\n  0x22\n    /* \"#utility.yul\":6151:6152   */\n  0x04\n    /* \"#utility.yul\":6144:6159   */\n  mstore\n    /* \"#utility.yul\":6178:6182   */\n  0x24\n    /* \"#utility.yul\":6175:6176   */\n  0x00\n    /* \"#utility.yul\":6168:6183   */\n  revert\n    /* \"#utility.yul\":6195:6375   */\ntag_90:\n    /* \"#utility.yul\":6243:6320   */\n  0x4e487b7100000000000000000000000000000000000000000000000000000000\n    /* \"#utility.yul\":6240:6241   */\n  0x00\n    /* \"#utility.yul\":6233:6321   */\n  mstore\n    /* \"#utility.yul\":6340:6344   */\n  0x41\n    /* \"#utility.yul\":6337:6338   */\n  0x04\n    /* \"#utility.yul\":6330:6345   */\n  mstore\n    /* \"#utility.yul\":6364:6368   */\n  0x24\n    /* \"#utility.yul\":6361:6362   */\n  0x00\n    /* \"#utility.yul\":6354:6369   */\n  revert\n    /* \"#utility.yul\":6381:6483   */\ntag_92:\n    /* \"#utility.yul\":6422:6428   */\n  0x00\n    /* \"#utility.yul\":6473:6475   */\n  0x1f\n    /* \"#utility.yul\":6469:6476   */\n  not\n    /* \"#utility.yul\":6464:6466   */\n  0x1f\n    /* \"#utility.yul\":6457:6462   */\n  dup4\n    /* \"#utility.yul\":6453:6467   */\n  add\n    /* \"#utility.yul\":6449:6477   */\n  and\n    /* \"#utility.yul\":6439:6477   */\n  swap1\n  pop\n    /* \"#utility.yul\":6429:6483   */\n  swap2\n  swap1\n  pop\n  jump\t// out\n    /* \"#utility.yul\":6489:6671   */\ntag_72:\n    /* \"#utility.yul\":6629:6663   */\n  0x4c45524332303a206d696e7420746f20746865207a65726f2061646472657373\n    /* \"#utility.yul\":6625:6626   */\n  0x00\n    /* \"#utility.yul\":6617:6623   */\n  dup3\n    /* \"#utility.yul\":6613:6627   */\n  add\n    /* \"#utility.yul\":6606:6664   */\n  mstore\n    /* \"#utility.yul\":6595:6671   */\n  pop\n  jump\t// out\n    /* \"#utility.yul\":6677:6799   */\ntag_47:\n    /* \"#utility.yul\":6750:6774   */\n  tag_126\n    /* \"#utility.yul\":6768:6773   */\n  dup2\n    /* \"#utility.yul\":6750:6774   */\n  tag_100\n  jump\t// in\ntag_126:\n    /* \"#utility.yul\":6743:6748   */\n  dup2\n    /* \"#utility.yul\":6740:6775   */\n  eq\n    /* \"#utility.yul\":6730:6732   */\n  tag_127\n  jumpi\n    /* \"#utility.yul\":6789:6790   */\n  0x00\n    /* \"#utility.yul\":6786:6787   */\n  dup1\n    /* \"#utility.yul\":6779:6791   */\n  revert\n    /* \"#utility.yul\":6730:6732   */\ntag_127:\n    /* \"#utility.yul\":6720:6799   */\n  pop\n  jump\t// out\n    /* \"#utility.yul\":6805:6927   */\ntag_55:\n    /* \"#utility.yul\":6878:6902   */\n  tag_129\n    /* \"#utility.yul\":6896:6901   */\n  dup2\n    /* \"#utility.yul\":6878:6902   */\n  tag_76\n  jump\t// in\ntag_129:\n    /* \"#utility.yul\":6871:6876   */\n  dup2\n    /* \"#utility.yul\":6868:6903   */\n  eq\n    /* \"#utility.yul\":6858:6860   */\n  tag_130\n  jumpi\n    /* \"#utility.yul\":6917:6918   */\n  0x00\n    /* \"#utility.yul\":6914:6915   */\n  dup1\n    /* \"#utility.yul\":6907:6919   */\n  revert\n    /* \"#utility.yul\":6858:6860   */\ntag_130:\n    /* \"#utility.yul\":6848:6927   */\n  pop\n  jump\t// out\n    /* \"Lossless_create2-main/contracts/utils/LERC20.sol\":179:8945  contract LERC20 is Context, ILERC20 {... */\ntag_13:\n  dataSize(sub_0)\n  dup1\n  dataOffset(sub_0)\n  0x00\n  codecopy\n  0x00\n  return\nstop\n\nsub_0: assembly {\n        /* \"Lossless_create2-main/contracts/utils/LERC20.sol\":179:8945  contract LERC20 is Context, ILERC20 {... */\n      mstore(0x40, 0x80)\n      callvalue\n      dup1\n      iszero\n      tag_1\n      jumpi\n      0x00\n      dup1\n      revert\n    tag_1:\n      pop\n      jumpi(tag_2, lt(calldatasize, 0x04))\n      shr(0xe0, calldataload(0x00))\n      dup1\n      0x6e9960c3\n      gt\n      tag_28\n      jumpi\n      dup1\n      0xa9059cbb\n      gt\n      tag_29\n      jumpi\n      dup1\n      0xccfa214f\n      gt\n      tag_30\n      jumpi\n      dup1\n      0xccfa214f\n      eq\n      tag_24\n      jumpi\n      dup1\n      0xd6e242b8\n      eq\n      tag_25\n      jumpi\n      dup1\n      0xdd62ed3e\n      eq\n      tag_26\n      jumpi\n      dup1\n      0xf851a440\n      eq\n      tag_27\n      jumpi\n      jump(tag_2)\n    tag_30:\n      dup1\n      0xa9059cbb\n      eq\n      tag_21\n      jumpi\n      dup1\n      0xb38fe957\n      eq\n      tag_22\n      jumpi\n      dup1\n      0xb5c22877\n      eq\n      tag_23\n      jumpi\n      jump(tag_2)\n    tag_29:\n      dup1\n      0x6e9960c3\n      eq\n      tag_15\n      jumpi\n      dup1\n      0x70a08231\n      eq\n      tag_16\n      jumpi\n      dup1\n      0x93310ffe\n      eq\n      tag_17\n      jumpi\n      dup1\n      0x936af911\n      eq\n      tag_18\n      jumpi\n      dup1\n      0x95d89b41\n      eq\n      tag_19\n      jumpi\n      dup1\n      0xa457c2d7\n      eq\n      tag_20\n      jumpi\n      jump(tag_2)\n    tag_28:\n      dup1\n      0x313ce567\n      gt\n      tag_31\n      jumpi\n      dup1\n      0x313ce567\n      eq\n      tag_9\n      jumpi\n      dup1\n      0x34f6ebf5\n      eq\n      tag_10\n      jumpi\n      dup1\n      0x39509351\n      eq\n      tag_11\n      jumpi\n      dup1\n      0x5b8a194a\n      eq\n      tag_12\n      jumpi\n      dup1\n      0x5f6529a3\n      eq\n      tag_13\n      jumpi\n      dup1\n      0x61086b00\n      eq\n      tag_14\n      jumpi\n      jump(tag_2)\n    tag_31:\n      dup1\n      0x06fdde03\n      eq\n      tag_3\n      jumpi\n      dup1\n      0x095ea7b3\n      eq\n      tag_4\n      jumpi\n      dup1\n      0x18160ddd\n      eq\n      tag_5\n      jumpi\n      dup1\n      0x23b872dd\n      eq\n      tag_6\n      jumpi\n      dup1\n      0x2baa3c9e\n      eq\n      tag_7\n      jumpi\n      dup1\n      0x2ecaf675\n      eq\n      tag_8\n      jumpi\n    tag_2:\n      0x00\n      dup1\n      revert\n        /* \"Lossless_create2-main/contracts/utils/LERC20.sol\":5118:5216  function name() override public view virtual returns (string memory) {... */\n    tag_3:\n      tag_32\n      tag_33\n      jump\t// in\n    tag_32:\n      mload(0x40)\n      tag_34\n      swap2\n      swap1\n      tag_35\n      jump\t// in\n    tag_34:\n      mload(0x40)\n      dup1\n      swap2\n      sub\n      swap1\n      return\n        /* \"Lossless_create2-main/contracts/utils/LERC20.sol\":6034:6227  function approve(address spender, uint256 amount) public virtual override lssAprove(spender, amount) returns (bool) {... */\n    tag_4:\n      tag_36\n      0x04\n      dup1\n      calldatasize\n      sub\n      dup2\n      add\n      swap1\n      tag_37\n      swap2\n      swap1\n      tag_38\n      jump\t// in\n    tag_37:\n      tag_39\n      jump\t// in\n    tag_36:\n      mload(0x40)\n      tag_40\n      swap2\n      swap1\n      tag_41\n      jump\t// in\n    tag_40:\n      mload(0x40)\n      dup1\n      swap2\n      sub\n      swap1\n      return\n        /* \"Lossless_create2-main/contracts/utils/LERC20.sol\":5427:5533  function totalSupply() public view virtual override returns (uint256) {... */\n    tag_5:\n      tag_42\n      tag_43\n      jump\t// in\n    tag_42:\n      mload(0x40)\n      tag_44\n      swap2\n      swap1\n      tag_45\n      jump\t// in\n    tag_44:\n      mload(0x40)\n      dup1\n      swap2\n      sub\n      swap1\n      return\n        /* \"Lossless_create2-main/contracts/utils/LERC20.sol\":6233:6699  function transferFrom(address sender, address recipient, uint256 amount) public virtual override lssTransferFrom(sender, recipient, amount) returns (bool) {... */\n    tag_6:\n      tag_46\n      0x04\n      dup1\n      calldatasize\n      sub\n      dup2\n      add\n      swap1\n      tag_47\n      swap2\n      swap1\n      tag_48\n      jump\t// in\n    tag_47:\n      tag_49\n      jump\t// in\n    tag_46:\n      mload(0x40)\n      tag_50\n      swap2\n      swap1\n      tag_41\n      jump\t// in\n    tag_50:\n      mload(0x40)\n      dup1\n      swap2\n      sub\n      swap1\n      return\n        /* \"Lossless_create2-main/contracts/utils/LERC20.sol\":3146:3363  function setLosslessAdmin(address newAdmin) override external onlyRecoveryAdmin {... */\n    tag_7:\n      tag_51\n      0x04\n      dup1\n      calldatasize\n      sub\n      dup2\n      add\n      swap1\n      tag_52\n      swap2\n      swap1\n      tag_53\n      jump\t// in\n    tag_52:\n      tag_54\n      jump\t// in\n    tag_51:\n      stop\n        /* \"Lossless_create2-main/contracts/utils/LERC20.sol\":592:621  uint256 public timelockPeriod */\n    tag_8:\n      tag_55\n      tag_56\n      jump\t// in\n    tag_55:\n      mload(0x40)\n      tag_57\n      swap2\n      swap1\n      tag_45\n      jump\t// in\n    tag_57:\n      mload(0x40)\n      dup1\n      swap2\n      sub\n      swap1\n      return\n        /* \"Lossless_create2-main/contracts/utils/LERC20.sol\":5330:5421  function decimals() override public view virtual returns (uint8) {... */\n    tag_9:\n      tag_58\n      tag_59\n      jump\t// in\n    tag_58:\n      mload(0x40)\n      tag_60\n      swap2\n      swap1\n      tag_61\n      jump\t// in\n    tag_60:\n      mload(0x40)\n      dup1\n      swap2\n      sub\n      swap1\n      return\n        /* \"Lossless_create2-main/contracts/utils/LERC20.sol\":709:739  ILssController public lossless */\n    tag_10:\n      tag_62\n      tag_63\n      jump\t// in\n    tag_62:\n      mload(0x40)\n      tag_64\n      swap2\n      swap1\n      tag_65\n      jump\t// in\n    tag_64:\n      mload(0x40)\n      dup1\n      swap2\n      sub\n      swap1\n      return\n        /* \"Lossless_create2-main/contracts/utils/LERC20.sol\":6705:6968  function increaseAllowance(address spender, uint256 addedValue) override public virtual lssIncreaseAllowance(spender, addedValue) returns (bool) {... */\n    tag_11:\n      tag_66\n      0x04\n      dup1\n      calldatasize\n      sub\n      dup2\n      add\n      swap1\n      tag_67\n      swap2\n      swap1\n      tag_38\n      jump\t// in\n    tag_67:\n      tag_68\n      jump\t// in\n    tag_66:\n      mload(0x40)\n      tag_69\n      swap2\n      swap1\n      tag_41\n      jump\t// in\n    tag_69:\n      mload(0x40)\n      dup1\n      swap2\n      sub\n      swap1\n      return\n        /* \"Lossless_create2-main/contracts/utils/LERC20.sol\":4747:4980  function executeLosslessTurnOn() override external onlyRecoveryAdmin {... */\n    tag_12:\n      tag_70\n      tag_71\n      jump\t// in\n    tag_70:\n      stop\n        /* \"Lossless_create2-main/contracts/utils/LERC20.sol\":437:465  address public recoveryAdmin */\n    tag_13:\n      tag_72\n      tag_73\n      jump\t// in\n    tag_72:\n      mload(0x40)\n      tag_74\n      swap2\n      swap1\n      tag_75\n      jump\t// in\n    tag_74:\n      mload(0x40)\n      dup1\n      swap2\n      sub\n      swap1\n      return\n        /* \"Lossless_create2-main/contracts/utils/LERC20.sol\":627:666  uint256 public losslessTurnOffTimestamp */\n    tag_14:\n      tag_76\n      tag_77\n      jump\t// in\n    tag_76:\n      mload(0x40)\n      tag_78\n      swap2\n      swap1\n      tag_45\n      jump\t// in\n    tag_78:\n      mload(0x40)\n      dup1\n      swap2\n      sub\n      swap1\n      return\n        /* \"Lossless_create2-main/contracts/utils/LERC20.sol\":4986:5082  function getAdmin() override public view virtual returns (address) {... */\n    tag_15:\n      tag_79\n      tag_80\n      jump\t// in\n    tag_79:\n      mload(0x40)\n      tag_81\n      swap2\n      swap1\n      tag_75\n      jump\t// in\n    tag_81:\n      mload(0x40)\n      dup1\n      swap2\n      sub\n      swap1\n      return\n        /* \"Lossless_create2-main/contracts/utils/LERC20.sol\":5539:5664  function balanceOf(address account) public view virtual override returns (uint256) {... */\n    tag_16:\n      tag_82\n      0x04\n      dup1\n      calldatasize\n      sub\n      dup2\n      add\n      swap1\n      tag_83\n      swap2\n      swap1\n      tag_53\n      jump\t// in\n    tag_83:\n      tag_84\n      jump\t// in\n    tag_82:\n      mload(0x40)\n      tag_85\n      swap2\n      swap1\n      tag_45\n      jump\t// in\n    tag_85:\n      mload(0x40)\n      dup1\n      swap2\n      sub\n      swap1\n      return\n        /* \"Lossless_create2-main/contracts/utils/LERC20.sol\":3369:3623  function transferRecoveryAdminOwnership(address candidate, bytes32 keyHash) override  external onlyRecoveryAdmin {... */\n    tag_17:\n      tag_86\n      0x04\n      dup1\n      calldatasize\n      sub\n      dup2\n      add\n      swap1\n      tag_87\n      swap2\n      swap1\n      tag_88\n      jump\t// in\n    tag_87:\n      tag_89\n      jump\t// in\n    tag_86:\n      stop\n        /* \"Lossless_create2-main/contracts/utils/LERC20.sol\":2514:3140  function transferOutBlacklistedFunds(address[] calldata from) override external {... */\n    tag_18:\n      tag_90\n      0x04\n      dup1\n      calldatasize\n      sub\n      dup2\n      add\n      swap1\n      tag_91\n      swap2\n      swap1\n      tag_92\n      jump\t// in\n    tag_91:\n      tag_93\n      jump\t// in\n    tag_90:\n      stop\n        /* \"Lossless_create2-main/contracts/utils/LERC20.sol\":5222:5324  function symbol() override public view virtual returns (string memory) {... */\n    tag_19:\n      tag_94\n      tag_95\n      jump\t// in\n    tag_94:\n      mload(0x40)\n      tag_96\n      swap2\n      swap1\n      tag_35\n      jump\t// in\n    tag_96:\n      mload(0x40)\n      dup1\n      swap2\n      sub\n      swap1\n      return\n        /* \"Lossless_create2-main/contracts/utils/LERC20.sol\":6974:7402  function decreaseAllowance(address spender, uint256 subtractedValue) override public virtual lssDecreaseAllowance(spender, subtractedValue) returns (bool) {... */\n    tag_20:\n      tag_97\n      0x04\n      dup1\n      calldatasize\n      sub\n      dup2\n      add\n      swap1\n      tag_98\n      swap2\n      swap1\n      tag_38\n      jump\t// in\n    tag_98:\n      tag_99\n      jump\t// in\n    tag_97:\n      mload(0x40)\n      tag_100\n      swap2\n      swap1\n      tag_41\n      jump\t// in\n    tag_100:\n      mload(0x40)\n      dup1\n      swap2\n      sub\n      swap1\n      return\n        /* \"Lossless_create2-main/contracts/utils/LERC20.sol\":5670:5873  function transfer(address recipient, uint256 amount) public virtual override lssTransfer(recipient, amount) returns (bool) {... */\n    tag_21:\n      tag_101\n      0x04\n      dup1\n      calldatasize\n      sub\n      dup2\n      add\n      swap1\n      tag_102\n      swap2\n      swap1\n      tag_38\n      jump\t// in\n    tag_102:\n      tag_103\n      jump\t// in\n    tag_101:\n      mload(0x40)\n      tag_104\n      swap2\n      swap1\n      tag_41\n      jump\t// in\n    tag_104:\n      mload(0x40)\n      dup1\n      swap2\n      sub\n      swap1\n      return\n        /* \"Lossless_create2-main/contracts/utils/LERC20.sol\":4393:4741  function executeLosslessTurnOff() override external onlyRecoveryAdmin {... */\n    tag_22:\n      tag_105\n      tag_106\n      jump\t// in\n    tag_105:\n      stop\n        /* \"Lossless_create2-main/contracts/utils/LERC20.sol\":3629:4024  function acceptRecoveryAdminOwnership(bytes memory key) override external {... */\n    tag_23:\n      tag_107\n      0x04\n      dup1\n      calldatasize\n      sub\n      dup2\n      add\n      swap1\n      tag_108\n      swap2\n      swap1\n      tag_109\n      jump\t// in\n    tag_108:\n      tag_110\n      jump\t// in\n    tag_107:\n      stop\n        /* \"Lossless_create2-main/contracts/utils/LERC20.sol\":672:703  bool public isLosslessOn = true */\n    tag_24:\n      tag_111\n      tag_112\n      jump\t// in\n    tag_111:\n      mload(0x40)\n      tag_113\n      swap2\n      swap1\n      tag_41\n      jump\t// in\n    tag_113:\n      mload(0x40)\n      dup1\n      swap2\n      sub\n      swap1\n      return\n        /* \"Lossless_create2-main/contracts/utils/LERC20.sol\":4030:4387  function proposeLosslessTurnOff() override external onlyRecoveryAdmin {... */\n    tag_25:\n      tag_114\n      tag_115\n      jump\t// in\n    tag_114:\n      stop\n        /* \"Lossless_create2-main/contracts/utils/LERC20.sol\":5879:6028  function allowance(address owner, address spender) public view virtual override returns (uint256) {... */\n    tag_26:\n      tag_116\n      0x04\n      dup1\n      calldatasize\n      sub\n      dup2\n      add\n      swap1\n      tag_117\n      swap2\n      swap1\n      tag_118\n      jump\t// in\n    tag_117:\n      tag_119\n      jump\t// in\n    tag_116:\n      mload(0x40)\n      tag_120\n      swap2\n      swap1\n      tag_45\n      jump\t// in\n    tag_120:\n      mload(0x40)\n      dup1\n      swap2\n      sub\n      swap1\n      return\n        /* \"Lossless_create2-main/contracts/utils/LERC20.sol\":557:586  address override public admin */\n    tag_27:\n      tag_121\n      tag_122\n      jump\t// in\n    tag_121:\n      mload(0x40)\n      tag_123\n      swap2\n      swap1\n      tag_75\n      jump\t// in\n    tag_123:\n      mload(0x40)\n      dup1\n      swap2\n      sub\n      swap1\n      return\n        /* \"Lossless_create2-main/contracts/utils/LERC20.sol\":5118:5216  function name() override public view virtual returns (string memory) {... */\n    tag_33:\n        /* \"Lossless_create2-main/contracts/utils/LERC20.sol\":5172:5185  string memory */\n      0x60\n        /* \"Lossless_create2-main/contracts/utils/LERC20.sol\":5204:5209  _name */\n      0x03\n        /* \"Lossless_create2-main/contracts/utils/LERC20.sol\":5197:5209  return _name */\n      dup1\n      sload\n      tag_125\n      swap1\n      tag_126\n      jump\t// in\n    tag_125:\n      dup1\n      0x1f\n      add\n      0x20\n      dup1\n      swap2\n      div\n      mul\n      0x20\n      add\n      mload(0x40)\n      swap1\n      dup2\n      add\n      0x40\n      mstore\n      dup1\n      swap3\n      swap2\n      swap1\n      dup2\n      dup2\n      mstore\n      0x20\n      add\n      dup3\n      dup1\n      sload\n      tag_127\n      swap1\n      tag_126\n      jump\t// in\n    tag_127:\n      dup1\n      iszero\n      tag_128\n      jumpi\n      dup1\n      0x1f\n      lt\n      tag_129\n      jumpi\n      0x0100\n      dup1\n      dup4\n      sload\n      div\n      mul\n      dup4\n      mstore\n      swap2\n      0x20\n      add\n      swap2\n      jump(tag_128)\n    tag_129:\n      dup3\n      add\n      swap2\n      swap1\n      0x00\n      mstore\n      keccak256(0x00, 0x20)\n      swap1\n    tag_130:\n      dup2\n      sload\n      dup2\n      mstore\n      swap1\n      0x01\n      add\n      swap1\n      0x20\n      add\n      dup1\n      dup4\n      gt\n      tag_130\n      jumpi\n      dup3\n      swap1\n      sub\n      0x1f\n      and\n      dup3\n      add\n      swap2\n    tag_128:\n      pop\n      pop\n      pop\n      pop\n      pop\n      swap1\n      pop\n        /* \"Lossless_create2-main/contracts/utils/LERC20.sol\":5118:5216  function name() override public view virtual returns (string memory) {... */\n      swap1\n      jump\t// out\n        /* \"Lossless_create2-main/contracts/utils/LERC20.sol\":6034:6227  function approve(address spender, uint256 amount) public virtual override lssAprove(spender, amount) returns (bool) {... */\n    tag_39:\n        /* \"Lossless_create2-main/contracts/utils/LERC20.sol\":6144:6148  bool */\n      0x00\n        /* \"Lossless_create2-main/contracts/utils/LERC20.sol\":6118:6125  spender */\n      dup3\n        /* \"Lossless_create2-main/contracts/utils/LERC20.sol\":6127:6133  amount */\n      dup3\n        /* \"Lossless_create2-main/contracts/utils/LERC20.sol\":1390:1402  isLosslessOn */\n      0x0b\n      0x00\n      swap1\n      sload\n      swap1\n      0x0100\n      exp\n      swap1\n      div\n      0xff\n      and\n        /* \"Lossless_create2-main/contracts/utils/LERC20.sol\":1386:1482  if (isLosslessOn) {... */\n      iszero\n      tag_132\n      jumpi\n        /* \"Lossless_create2-main/contracts/utils/LERC20.sol\":1418:1426  lossless */\n      0x0b\n      0x01\n      swap1\n      sload\n      swap1\n      0x0100\n      exp\n      swap1\n      div\n      0xffffffffffffffffffffffffffffffffffffffff\n      and\n        /* \"Lossless_create2-main/contracts/utils/LERC20.sol\":1418:1440  lossless.beforeApprove */\n      0xffffffffffffffffffffffffffffffffffffffff\n      and\n      0x47abf3be\n        /* \"Lossless_create2-main/contracts/utils/LERC20.sol\":1441:1453  _msgSender() */\n      tag_133\n        /* \"Lossless_create2-main/contracts/utils/LERC20.sol\":1441:1451  _msgSender */\n      tag_134\n        /* \"Lossless_create2-main/contracts/utils/LERC20.sol\":1441:1453  _msgSender() */\n      jump\t// in\n    tag_133:\n        /* \"Lossless_create2-main/contracts/utils/LERC20.sol\":1455:1462  spender */\n      dup5\n        /* \"Lossless_create2-main/contracts/utils/LERC20.sol\":1464:1470  amount */\n      dup5\n        /* \"Lossless_create2-main/contracts/utils/LERC20.sol\":1418:1471  lossless.beforeApprove(_msgSender(), spender, amount) */\n      mload(0x40)\n      dup5\n      0xffffffff\n      and\n      0xe0\n      shl\n      dup2\n      mstore\n      0x04\n      add\n      tag_135\n      swap4\n      swap3\n      swap2\n      swap1\n      tag_136\n      jump\t// in\n    tag_135:\n      0x00\n      mload(0x40)\n      dup1\n      dup4\n      sub\n      dup2\n      0x00\n      dup8\n      dup1\n      extcodesize\n      iszero\n      dup1\n      iszero\n      tag_137\n      jumpi\n      0x00\n      dup1\n      revert\n    tag_137:\n      pop\n      gas\n      call\n      iszero\n      dup1\n      iszero\n      tag_139\n      jumpi\n      returndatasize\n      0x00\n      dup1\n      returndatacopy\n      revert(0x00, returndatasize)\n    tag_139:\n      pop\n      pop\n      pop\n      pop\n        /* \"Lossless_create2-main/contracts/utils/LERC20.sol\":1386:1482  if (isLosslessOn) {... */\n    tag_132:\n        /* \"Lossless_create2-main/contracts/utils/LERC20.sol\":6160:6199  _approve(_msgSender(), spender, amount) */\n      tag_141\n        /* \"Lossless_create2-main/contracts/utils/LERC20.sol\":6169:6181  _msgSender() */\n      tag_142\n        /* \"Lossless_create2-main/contracts/utils/LERC20.sol\":6169:6179  _msgSender */\n      tag_134\n        /* \"Lossless_create2-main/contracts/utils/LERC20.sol\":6169:6181  _msgSender() */\n      jump\t// in\n    tag_142:\n        /* \"Lossless_create2-main/contracts/utils/LERC20.sol\":6183:6190  spender */\n      dup7\n        /* \"Lossless_create2-main/contracts/utils/LERC20.sol\":6192:6198  amount */\n      dup7\n        /* \"Lossless_create2-main/contracts/utils/LERC20.sol\":6160:6168  _approve */\n      tag_143\n        /* \"Lossless_create2-main/contracts/utils/LERC20.sol\":6160:6199  _approve(_msgSender(), spender, amount) */\n      jump\t// in\n    tag_141:\n        /* \"Lossless_create2-main/contracts/utils/LERC20.sol\":6216:6220  true */\n      0x01\n        /* \"Lossless_create2-main/contracts/utils/LERC20.sol\":6209:6220  return true */\n      swap3\n      pop\n        /* \"Lossless_create2-main/contracts/utils/LERC20.sol\":6034:6227  function approve(address spender, uint256 amount) public virtual override lssAprove(spender, amount) returns (bool) {... */\n      pop\n      pop\n      swap3\n      swap2\n      pop\n      pop\n      jump\t// out\n        /* \"Lossless_create2-main/contracts/utils/LERC20.sol\":5427:5533  function totalSupply() public view virtual override returns (uint256) {... */\n    tag_43:\n        /* \"Lossless_create2-main/contracts/utils/LERC20.sol\":5488:5495  uint256 */\n      0x00\n        /* \"Lossless_create2-main/contracts/utils/LERC20.sol\":5514:5526  _totalSupply */\n      sload(0x02)\n        /* \"Lossless_create2-main/contracts/utils/LERC20.sol\":5507:5526  return _totalSupply */\n      swap1\n      pop\n        /* \"Lossless_create2-main/contracts/utils/LERC20.sol\":5427:5533  function totalSupply() public view virtual override returns (uint256) {... */\n      swap1\n      jump\t// out\n        /* \"Lossless_create2-main/contracts/utils/LERC20.sol\":6233:6699  function transferFrom(address sender, address recipient, uint256 amount) public virtual override lssTransferFrom(sender, recipient, amount) returns (bool) {... */\n    tag_49:\n        /* \"Lossless_create2-main/contracts/utils/LERC20.sol\":6382:6386  bool */\n      0x00\n        /* \"Lossless_create2-main/contracts/utils/LERC20.sol\":6346:6352  sender */\n      dup4\n        /* \"Lossless_create2-main/contracts/utils/LERC20.sol\":6354:6363  recipient */\n      dup4\n        /* \"Lossless_create2-main/contracts/utils/LERC20.sol\":6365:6371  amount */\n      dup4\n        /* \"Lossless_create2-main/contracts/utils/LERC20.sol\":1785:1797  isLosslessOn */\n      0x0b\n      0x00\n      swap1\n      sload\n      swap1\n      0x0100\n      exp\n      swap1\n      div\n      0xff\n      and\n        /* \"Lossless_create2-main/contracts/utils/LERC20.sol\":1781:1891  if (isLosslessOn) {... */\n      iszero\n      tag_146\n      jumpi\n        /* \"Lossless_create2-main/contracts/utils/LERC20.sol\":1813:1821  lossless */\n      0x0b\n      0x01\n      swap1\n      sload\n      swap1\n      0x0100\n      exp\n      swap1\n      div\n      0xffffffffffffffffffffffffffffffffffffffff\n      and\n        /* \"Lossless_create2-main/contracts/utils/LERC20.sol\":1813:1840  lossless.beforeTransferFrom */\n      0xffffffffffffffffffffffffffffffffffffffff\n      and\n      0x379f5c69\n        /* \"Lossless_create2-main/contracts/utils/LERC20.sol\":1841:1853  _msgSender() */\n      tag_147\n        /* \"Lossless_create2-main/contracts/utils/LERC20.sol\":1841:1851  _msgSender */\n      tag_134\n        /* \"Lossless_create2-main/contracts/utils/LERC20.sol\":1841:1853  _msgSender() */\n      jump\t// in\n    tag_147:\n        /* \"Lossless_create2-main/contracts/utils/LERC20.sol\":1854:1860  sender */\n      dup6\n        /* \"Lossless_create2-main/contracts/utils/LERC20.sol\":1862:1871  recipient */\n      dup6\n        /* \"Lossless_create2-main/contracts/utils/LERC20.sol\":1873:1879  amount */\n      dup6\n        /* \"Lossless_create2-main/contracts/utils/LERC20.sol\":1813:1880  lossless.beforeTransferFrom(_msgSender(),sender, recipient, amount) */\n      mload(0x40)\n      dup6\n      0xffffffff\n      and\n      0xe0\n      shl\n      dup2\n      mstore\n      0x04\n      add\n      tag_148\n      swap5\n      swap4\n      swap3\n      swap2\n      swap1\n      tag_149\n      jump\t// in\n    tag_148:\n      0x00\n      mload(0x40)\n      dup1\n      dup4\n      sub\n      dup2\n      0x00\n      dup8\n      dup1\n      extcodesize\n      iszero\n      dup1\n      iszero\n      tag_150\n      jumpi\n      0x00\n      dup1\n      revert\n    tag_150:\n      pop\n      gas\n      call\n      iszero\n      dup1\n      iszero\n      tag_152\n      jumpi\n      returndatasize\n      0x00\n      dup1\n      returndatacopy\n      revert(0x00, returndatasize)\n    tag_152:\n      pop\n      pop\n      pop\n      pop\n        /* \"Lossless_create2-main/contracts/utils/LERC20.sol\":1781:1891  if (isLosslessOn) {... */\n    tag_146:\n        /* \"Lossless_create2-main/contracts/utils/LERC20.sol\":6398:6422  uint256 currentAllowance */\n      0x00\n        /* \"Lossless_create2-main/contracts/utils/LERC20.sol\":6425:6436  _allowances */\n      0x01\n        /* \"Lossless_create2-main/contracts/utils/LERC20.sol\":6425:6444  _allowances[sender] */\n      0x00\n        /* \"Lossless_create2-main/contracts/utils/LERC20.sol\":6437:6443  sender */\n      dup10\n        /* \"Lossless_create2-main/contracts/utils/LERC20.sol\":6425:6444  _allowances[sender] */\n      0xffffffffffffffffffffffffffffffffffffffff\n      and\n      0xffffffffffffffffffffffffffffffffffffffff\n      and\n      dup2\n      mstore\n      0x20\n      add\n      swap1\n      dup2\n      mstore\n      0x20\n      add\n      0x00\n      keccak256\n        /* \"Lossless_create2-main/contracts/utils/LERC20.sol\":6425:6458  _allowances[sender][_msgSender()] */\n      0x00\n        /* \"Lossless_create2-main/contracts/utils/LERC20.sol\":6445:6457  _msgSender() */\n      tag_154\n        /* \"Lossless_create2-main/contracts/utils/LERC20.sol\":6445:6455  _msgSender */\n      tag_134\n        /* \"Lossless_create2-main/contracts/utils/LERC20.sol\":6445:6457  _msgSender() */\n      jump\t// in\n    tag_154:\n        /* \"Lossless_create2-main/contracts/utils/LERC20.sol\":6425:6458  _allowances[sender][_msgSender()] */\n      0xffffffffffffffffffffffffffffffffffffffff\n      and\n      0xffffffffffffffffffffffffffffffffffffffff\n      and\n      dup2\n      mstore\n      0x20\n      add\n      swap1\n      dup2\n      mstore\n      0x20\n      add\n      0x00\n      keccak256\n      sload\n        /* \"Lossless_create2-main/contracts/utils/LERC20.sol\":6398:6458  uint256 currentAllowance = _allowances[sender][_msgSender()] */\n      swap1\n      pop\n        /* \"Lossless_create2-main/contracts/utils/LERC20.sol\":6496:6502  amount */\n      dup6\n        /* \"Lossless_create2-main/contracts/utils/LERC20.sol\":6476:6492  currentAllowance */\n      dup2\n        /* \"Lossless_create2-main/contracts/utils/LERC20.sol\":6476:6502  currentAllowance >= amount */\n      lt\n      iszero\n        /* \"Lossless_create2-main/contracts/utils/LERC20.sol\":6468:6548  require(currentAllowance >= amount, \"LERC20: transfer amount exceeds allowance\") */\n      tag_155\n      jumpi\n      mload(0x40)\n      0x08c379a000000000000000000000000000000000000000000000000000000000\n      dup2\n      mstore\n      0x04\n      add\n      tag_156\n      swap1\n      tag_157\n      jump\t// in\n    tag_156:\n      mload(0x40)\n      dup1\n      swap2\n      sub\n      swap1\n      revert\n    tag_155:\n        /* \"Lossless_create2-main/contracts/utils/LERC20.sol\":6558:6594  _transfer(sender, recipient, amount) */\n      tag_158\n        /* \"Lossless_create2-main/contracts/utils/LERC20.sol\":6568:6574  sender */\n      dup9\n        /* \"Lossless_create2-main/contracts/utils/LERC20.sol\":6576:6585  recipient */\n      dup9\n        /* \"Lossless_create2-main/contracts/utils/LERC20.sol\":6587:6593  amount */\n      dup9\n        /* \"Lossless_create2-main/contracts/utils/LERC20.sol\":6558:6567  _transfer */\n      tag_159\n        /* \"Lossless_create2-main/contracts/utils/LERC20.sol\":6558:6594  _transfer(sender, recipient, amount) */\n      jump\t// in\n    tag_158:\n        /* \"Lossless_create2-main/contracts/utils/LERC20.sol\":6613:6670  _approve(sender, _msgSender(), currentAllowance - amount) */\n      tag_160\n        /* \"Lossless_create2-main/contracts/utils/LERC20.sol\":6622:6628  sender */\n      dup9\n        /* \"Lossless_create2-main/contracts/utils/LERC20.sol\":6630:6642  _msgSender() */\n      tag_161\n        /* \"Lossless_create2-main/contracts/utils/LERC20.sol\":6630:6640  _msgSender */\n      tag_134\n        /* \"Lossless_create2-main/contracts/utils/LERC20.sol\":6630:6642  _msgSender() */\n      jump\t// in\n    tag_161:\n        /* \"Lossless_create2-main/contracts/utils/LERC20.sol\":6663:6669  amount */\n      dup9\n        /* \"Lossless_create2-main/contracts/utils/LERC20.sol\":6644:6660  currentAllowance */\n      dup5\n        /* \"Lossless_create2-main/contracts/utils/LERC20.sol\":6644:6669  currentAllowance - amount */\n      tag_162\n      swap2\n      swap1\n      tag_163\n      jump\t// in\n    tag_162:\n        /* \"Lossless_create2-main/contracts/utils/LERC20.sol\":6613:6621  _approve */\n      tag_143\n        /* \"Lossless_create2-main/contracts/utils/LERC20.sol\":6613:6670  _approve(sender, _msgSender(), currentAllowance - amount) */\n      jump\t// in\n    tag_160:\n        /* \"Lossless_create2-main/contracts/utils/LERC20.sol\":6688:6692  true */\n      0x01\n        /* \"Lossless_create2-main/contracts/utils/LERC20.sol\":6681:6692  return true */\n      swap5\n      pop\n      pop\n        /* \"Lossless_create2-main/contracts/utils/LERC20.sol\":6233:6699  function transferFrom(address sender, address recipient, uint256 amount) public virtual override lssTransferFrom(sender, recipient, amount) returns (bool) {... */\n      pop\n      pop\n      pop\n      swap4\n      swap3\n      pop\n      pop\n      pop\n      jump\t// out\n        /* \"Lossless_create2-main/contracts/utils/LERC20.sol\":3146:3363  function setLosslessAdmin(address newAdmin) override external onlyRecoveryAdmin {... */\n    tag_54:\n        /* \"Lossless_create2-main/contracts/utils/LERC20.sol\":2407:2420  recoveryAdmin */\n      0x05\n      0x00\n      swap1\n      sload\n      swap1\n      0x0100\n      exp\n      swap1\n      div\n      0xffffffffffffffffffffffffffffffffffffffff\n      and\n        /* \"Lossless_create2-main/contracts/utils/LERC20.sol\":2391:2420  _msgSender() == recoveryAdmin */\n      0xffffffffffffffffffffffffffffffffffffffff\n      and\n        /* \"Lossless_create2-main/contracts/utils/LERC20.sol\":2391:2403  _msgSender() */\n      tag_165\n        /* \"Lossless_create2-main/contracts/utils/LERC20.sol\":2391:2401  _msgSender */\n      tag_134\n        /* \"Lossless_create2-main/contracts/utils/LERC20.sol\":2391:2403  _msgSender() */\n      jump\t// in\n    tag_165:\n        /* \"Lossless_create2-main/contracts/utils/LERC20.sol\":2391:2420  _msgSender() == recoveryAdmin */\n      0xffffffffffffffffffffffffffffffffffffffff\n      and\n      eq\n        /* \"Lossless_create2-main/contracts/utils/LERC20.sol\":2383:2455  require(_msgSender() == recoveryAdmin, \"LERC20: Must be recovery admin\") */\n      tag_166\n      jumpi\n      mload(0x40)\n      0x08c379a000000000000000000000000000000000000000000000000000000000\n      dup2\n      mstore\n      0x04\n      add\n      tag_167\n      swap1\n      tag_168\n      jump\t// in\n    tag_167:\n      mload(0x40)\n      dup1\n      swap2\n      sub\n      swap1\n      revert\n    tag_166:\n        /* \"Lossless_create2-main/contracts/utils/LERC20.sol\":3256:3261  admin */\n      0x08\n      0x00\n      swap1\n      sload\n      swap1\n      0x0100\n      exp\n      swap1\n      div\n      0xffffffffffffffffffffffffffffffffffffffff\n      and\n        /* \"Lossless_create2-main/contracts/utils/LERC20.sol\":3244:3261  newAdmin != admin */\n      0xffffffffffffffffffffffffffffffffffffffff\n      and\n        /* \"Lossless_create2-main/contracts/utils/LERC20.sol\":3244:3252  newAdmin */\n      dup2\n        /* \"Lossless_create2-main/contracts/utils/LERC20.sol\":3244:3261  newAdmin != admin */\n      0xffffffffffffffffffffffffffffffffffffffff\n      and\n      eq\n      iszero\n        /* \"Lossless_create2-main/contracts/utils/LERC20.sol\":3236:3297  require(newAdmin != admin, \"LERC20: Cannot set same address\") */\n      tag_170\n      jumpi\n      mload(0x40)\n      0x08c379a000000000000000000000000000000000000000000000000000000000\n      dup2\n      mstore\n      0x04\n      add\n      tag_171\n      swap1\n      tag_172\n      jump\t// in\n    tag_171:\n      mload(0x40)\n      dup1\n      swap2\n      sub\n      swap1\n      revert\n    tag_170:\n        /* \"Lossless_create2-main/contracts/utils/LERC20.sol\":3321:3329  newAdmin */\n      dup1\n        /* \"Lossless_create2-main/contracts/utils/LERC20.sol\":3312:3330  NewAdmin(newAdmin) */\n      0xffffffffffffffffffffffffffffffffffffffff\n      and\n      0x71614071b88dee5e0b2ae578a9dd7b2ebbe9ae832ba419dc0242cd065a290b6c\n      mload(0x40)\n      mload(0x40)\n      dup1\n      swap2\n      sub\n      swap1\n      log2\n        /* \"Lossless_create2-main/contracts/utils/LERC20.sol\":3348:3356  newAdmin */\n      dup1\n        /* \"Lossless_create2-main/contracts/utils/LERC20.sol\":3340:3345  admin */\n      0x08\n      0x00\n        /* \"Lossless_create2-main/contracts/utils/LERC20.sol\":3340:3356  admin = newAdmin */\n      0x0100\n      exp\n      dup2\n      sload\n      dup2\n      0xffffffffffffffffffffffffffffffffffffffff\n      mul\n      not\n      and\n      swap1\n      dup4\n      0xffffffffffffffffffffffffffffffffffffffff\n      and\n      mul\n      or\n      swap1\n      sstore\n      pop\n        /* \"Lossless_create2-main/contracts/utils/LERC20.sol\":3146:3363  function setLosslessAdmin(address newAdmin) override external onlyRecoveryAdmin {... */\n      pop\n      jump\t// out\n        /* \"Lossless_create2-main/contracts/utils/LERC20.sol\":592:621  uint256 public timelockPeriod */\n    tag_56:\n      sload(0x09)\n      dup2\n      jump\t// out\n        /* \"Lossless_create2-main/contracts/utils/LERC20.sol\":5330:5421  function decimals() override public view virtual returns (uint8) {... */\n    tag_59:\n        /* \"Lossless_create2-main/contracts/utils/LERC20.sol\":5388:5393  uint8 */\n      0x00\n        /* \"Lossless_create2-main/contracts/utils/LERC20.sol\":5412:5414  18 */\n      0x12\n        /* \"Lossless_create2-main/contracts/utils/LERC20.sol\":5405:5414  return 18 */\n      swap1\n      pop\n        /* \"Lossless_create2-main/contracts/utils/LERC20.sol\":5330:5421  function decimals() override public view virtual returns (uint8) {... */\n      swap1\n      jump\t// out\n        /* \"Lossless_create2-main/contracts/utils/LERC20.sol\":709:739  ILssController public lossless */\n    tag_63:\n      0x0b\n      0x01\n      swap1\n      sload\n      swap1\n      0x0100\n      exp\n      swap1\n      div\n      0xffffffffffffffffffffffffffffffffffffffff\n      and\n      dup2\n      jump\t// out\n        /* \"Lossless_create2-main/contracts/utils/LERC20.sol\":6705:6968  function increaseAllowance(address spender, uint256 addedValue) override public virtual lssIncreaseAllowance(spender, addedValue) returns (bool) {... */\n    tag_68:\n        /* \"Lossless_create2-main/contracts/utils/LERC20.sol\":6844:6848  bool */\n      0x00\n        /* \"Lossless_create2-main/contracts/utils/LERC20.sol\":6814:6821  spender */\n      dup3\n        /* \"Lossless_create2-main/contracts/utils/LERC20.sol\":6823:6833  addedValue */\n      dup3\n        /* \"Lossless_create2-main/contracts/utils/LERC20.sol\":1995:2007  isLosslessOn */\n      0x0b\n      0x00\n      swap1\n      sload\n      swap1\n      0x0100\n      exp\n      swap1\n      div\n      0xff\n      and\n        /* \"Lossless_create2-main/contracts/utils/LERC20.sol\":1991:2101  if (isLosslessOn) {... */\n      iszero\n      tag_175\n      jumpi\n        /* \"Lossless_create2-main/contracts/utils/LERC20.sol\":2023:2031  lossless */\n      0x0b\n      0x01\n      swap1\n      sload\n      swap1\n      0x0100\n      exp\n      swap1\n      div\n      0xffffffffffffffffffffffffffffffffffffffff\n      and\n        /* \"Lossless_create2-main/contracts/utils/LERC20.sol\":2023:2055  lossless.beforeIncreaseAllowance */\n      0xffffffffffffffffffffffffffffffffffffffff\n      and\n      0xcf5961bb\n        /* \"Lossless_create2-main/contracts/utils/LERC20.sol\":2056:2068  _msgSender() */\n      tag_176\n        /* \"Lossless_create2-main/contracts/utils/LERC20.sol\":2056:2066  _msgSender */\n      tag_134\n        /* \"Lossless_create2-main/contracts/utils/LERC20.sol\":2056:2068  _msgSender() */\n      jump\t// in\n    tag_176:\n        /* \"Lossless_create2-main/contracts/utils/LERC20.sol\":2070:2077  spender */\n      dup5\n        /* \"Lossless_create2-main/contracts/utils/LERC20.sol\":2079:2089  addedValue */\n      dup5\n        /* \"Lossless_create2-main/contracts/utils/LERC20.sol\":2023:2090  lossless.beforeIncreaseAllowance(_msgSender(), spender, addedValue) */\n      mload(0x40)\n      dup5\n      0xffffffff\n      and\n      0xe0\n      shl\n      dup2\n      mstore\n      0x04\n      add\n      tag_177\n      swap4\n      swap3\n      swap2\n      swap1\n      tag_136\n      jump\t// in\n    tag_177:\n      0x00\n      mload(0x40)\n      dup1\n      dup4\n      sub\n      dup2\n      0x00\n      dup8\n      dup1\n      extcodesize\n      iszero\n      dup1\n      iszero\n      tag_178\n      jumpi\n      0x00\n      dup1\n      revert\n    tag_178:\n      pop\n      gas\n      call\n      iszero\n      dup1\n      iszero\n      tag_180\n      jumpi\n      returndatasize\n      0x00\n      dup1\n      returndatacopy\n      revert(0x00, returndatasize)\n    tag_180:\n      pop\n      pop\n      pop\n      pop\n        /* \"Lossless_create2-main/contracts/utils/LERC20.sol\":1991:2101  if (isLosslessOn) {... */\n    tag_175:\n        /* \"Lossless_create2-main/contracts/utils/LERC20.sol\":6860:6940  _approve(_msgSender(), spender, _allowances[_msgSender()][spender] + addedValue) */\n      tag_182\n        /* \"Lossless_create2-main/contracts/utils/LERC20.sol\":6869:6881  _msgSender() */\n      tag_183\n        /* \"Lossless_create2-main/contracts/utils/LERC20.sol\":6869:6879  _msgSender */\n      tag_134\n        /* \"Lossless_create2-main/contracts/utils/LERC20.sol\":6869:6881  _msgSender() */\n      jump\t// in\n    tag_183:\n        /* \"Lossless_create2-main/contracts/utils/LERC20.sol\":6883:6890  spender */\n      dup7\n        /* \"Lossless_create2-main/contracts/utils/LERC20.sol\":6929:6939  addedValue */\n      dup7\n        /* \"Lossless_create2-main/contracts/utils/LERC20.sol\":6892:6903  _allowances */\n      0x01\n        /* \"Lossless_create2-main/contracts/utils/LERC20.sol\":6892:6917  _allowances[_msgSender()] */\n      0x00\n        /* \"Lossless_create2-main/contracts/utils/LERC20.sol\":6904:6916  _msgSender() */\n      tag_184\n        /* \"Lossless_create2-main/contracts/utils/LERC20.sol\":6904:6914  _msgSender */\n      tag_134\n        /* \"Lossless_create2-main/contracts/utils/LERC20.sol\":6904:6916  _msgSender() */\n      jump\t// in\n    tag_184:\n        /* \"Lossless_create2-main/contracts/utils/LERC20.sol\":6892:6917  _allowances[_msgSender()] */\n      0xffffffffffffffffffffffffffffffffffffffff\n      and\n      0xffffffffffffffffffffffffffffffffffffffff\n      and\n      dup2\n      mstore\n      0x20\n      add\n      swap1\n      dup2\n      mstore\n      0x20\n      add\n      0x00\n      keccak256\n        /* \"Lossless_create2-main/contracts/utils/LERC20.sol\":6892:6926  _allowances[_msgSender()][spender] */\n      0x00\n        /* \"Lossless_create2-main/contracts/utils/LERC20.sol\":6918:6925  spender */\n      dup11\n        /* \"Lossless_create2-main/contracts/utils/LERC20.sol\":6892:6926  _allowances[_msgSender()][spender] */\n      0xffffffffffffffffffffffffffffffffffffffff\n      and\n      0xffffffffffffffffffffffffffffffffffffffff\n      and\n      dup2\n      mstore\n      0x20\n      add\n      swap1\n      dup2\n      mstore\n      0x20\n      add\n      0x00\n      keccak256\n      sload\n        /* \"Lossless_create2-main/contracts/utils/LERC20.sol\":6892:6939  _allowances[_msgSender()][spender] + addedValue */\n      tag_185\n      swap2\n      swap1\n      tag_186\n      jump\t// in\n    tag_185:\n        /* \"Lossless_create2-main/contracts/utils/LERC20.sol\":6860:6868  _approve */\n      tag_143\n        /* \"Lossless_create2-main/contracts/utils/LERC20.sol\":6860:6940  _approve(_msgSender(), spender, _allowances[_msgSender()][spender] + addedValue) */\n      jump\t// in\n    tag_182:\n        /* \"Lossless_create2-main/contracts/utils/LERC20.sol\":6957:6961  true */\n      0x01\n        /* \"Lossless_create2-main/contracts/utils/LERC20.sol\":6950:6961  return true */\n      swap3\n      pop\n        /* \"Lossless_create2-main/contracts/utils/LERC20.sol\":6705:6968  function increaseAllowance(address spender, uint256 addedValue) override public virtual lssIncreaseAllowance(spender, addedValue) returns (bool) {... */\n      pop\n      pop\n      swap3\n      swap2\n      pop\n      pop\n      jump\t// out\n        /* \"Lossless_create2-main/contracts/utils/LERC20.sol\":4747:4980  function executeLosslessTurnOn() override external onlyRecoveryAdmin {... */\n    tag_71:\n        /* \"Lossless_create2-main/contracts/utils/LERC20.sol\":2407:2420  recoveryAdmin */\n      0x05\n      0x00\n      swap1\n      sload\n      swap1\n      0x0100\n      exp\n      swap1\n      div\n      0xffffffffffffffffffffffffffffffffffffffff\n      and\n        /* \"Lossless_create2-main/contracts/utils/LERC20.sol\":2391:2420  _msgSender() == recoveryAdmin */\n      0xffffffffffffffffffffffffffffffffffffffff\n      and\n        /* \"Lossless_create2-main/contracts/utils/LERC20.sol\":2391:2403  _msgSender() */\n      tag_188\n        /* \"Lossless_create2-main/contracts/utils/LERC20.sol\":2391:2401  _msgSender */\n      tag_134\n        /* \"Lossless_create2-main/contracts/utils/LERC20.sol\":2391:2403  _msgSender() */\n      jump\t// in\n    tag_188:\n        /* \"Lossless_create2-main/contracts/utils/LERC20.sol\":2391:2420  _msgSender() == recoveryAdmin */\n      0xffffffffffffffffffffffffffffffffffffffff\n      and\n      eq\n        /* \"Lossless_create2-main/contracts/utils/LERC20.sol\":2383:2455  require(_msgSender() == recoveryAdmin, \"LERC20: Must be recovery admin\") */\n      tag_189\n      jumpi\n      mload(0x40)\n      0x08c379a000000000000000000000000000000000000000000000000000000000\n      dup2\n      mstore\n      0x04\n      add\n      tag_190\n      swap1\n      tag_168\n      jump\t// in\n    tag_190:\n      mload(0x40)\n      dup1\n      swap2\n      sub\n      swap1\n      revert\n    tag_189:\n        /* \"Lossless_create2-main/contracts/utils/LERC20.sol\":4835:4847  isLosslessOn */\n      0x0b\n      0x00\n      swap1\n      sload\n      swap1\n      0x0100\n      exp\n      swap1\n      div\n      0xff\n      and\n        /* \"Lossless_create2-main/contracts/utils/LERC20.sol\":4834:4847  !isLosslessOn */\n      iszero\n        /* \"Lossless_create2-main/contracts/utils/LERC20.sol\":4826:4879  require(!isLosslessOn, \"LERC20: Lossless already on\") */\n      tag_192\n      jumpi\n      mload(0x40)\n      0x08c379a000000000000000000000000000000000000000000000000000000000\n      dup2\n      mstore\n      0x04\n      add\n      tag_193\n      swap1\n      tag_194\n      jump\t// in\n    tag_193:\n      mload(0x40)\n      dup1\n      swap2\n      sub\n      swap1\n      revert\n    tag_192:\n        /* \"Lossless_create2-main/contracts/utils/LERC20.sol\":4916:4917  0 */\n      0x00\n        /* \"Lossless_create2-main/contracts/utils/LERC20.sol\":4889:4913  losslessTurnOffTimestamp */\n      0x0a\n        /* \"Lossless_create2-main/contracts/utils/LERC20.sol\":4889:4917  losslessTurnOffTimestamp = 0 */\n      dup2\n      swap1\n      sstore\n      pop\n        /* \"Lossless_create2-main/contracts/utils/LERC20.sol\":4942:4946  true */\n      0x01\n        /* \"Lossless_create2-main/contracts/utils/LERC20.sol\":4927:4939  isLosslessOn */\n      0x0b\n      0x00\n        /* \"Lossless_create2-main/contracts/utils/LERC20.sol\":4927:4946  isLosslessOn = true */\n      0x0100\n      exp\n      dup2\n      sload\n      dup2\n      0xff\n      mul\n      not\n      and\n      swap1\n      dup4\n      iszero\n      iszero\n      mul\n      or\n      swap1\n      sstore\n      pop\n        /* \"Lossless_create2-main/contracts/utils/LERC20.sol\":4961:4973  LosslessOn() */\n      0x1ba3b66404043da8297d0b876fa6464f2cb127edfc6626308046d4503028322b\n      mload(0x40)\n      mload(0x40)\n      dup1\n      swap2\n      sub\n      swap1\n      log1\n        /* \"Lossless_create2-main/contracts/utils/LERC20.sol\":4747:4980  function executeLosslessTurnOn() override external onlyRecoveryAdmin {... */\n      jump\t// out\n        /* \"Lossless_create2-main/contracts/utils/LERC20.sol\":437:465  address public recoveryAdmin */\n    tag_73:\n      0x05\n      0x00\n      swap1\n      sload\n      swap1\n      0x0100\n      exp\n      swap1\n      div\n      0xffffffffffffffffffffffffffffffffffffffff\n      and\n      dup2\n      jump\t// out\n        /* \"Lossless_create2-main/contracts/utils/LERC20.sol\":627:666  uint256 public losslessTurnOffTimestamp */\n    tag_77:\n      sload(0x0a)\n      dup2\n      jump\t// out\n        /* \"Lossless_create2-main/contracts/utils/LERC20.sol\":4986:5082  function getAdmin() override public view virtual returns (address) {... */\n    tag_80:\n        /* \"Lossless_create2-main/contracts/utils/LERC20.sol\":5044:5051  address */\n      0x00\n        /* \"Lossless_create2-main/contracts/utils/LERC20.sol\":5070:5075  admin */\n      0x08\n      0x00\n      swap1\n      sload\n      swap1\n      0x0100\n      exp\n      swap1\n      div\n      0xffffffffffffffffffffffffffffffffffffffff\n      and\n        /* \"Lossless_create2-main/contracts/utils/LERC20.sol\":5063:5075  return admin */\n      swap1\n      pop\n        /* \"Lossless_create2-main/contracts/utils/LERC20.sol\":4986:5082  function getAdmin() override public view virtual returns (address) {... */\n      swap1\n      jump\t// out\n        /* \"Lossless_create2-main/contracts/utils/LERC20.sol\":5539:5664  function balanceOf(address account) public view virtual override returns (uint256) {... */\n    tag_84:\n        /* \"Lossless_create2-main/contracts/utils/LERC20.sol\":5613:5620  uint256 */\n      0x00\n        /* \"Lossless_create2-main/contracts/utils/LERC20.sol\":5639:5648  _balances */\n      dup1\n        /* \"Lossless_create2-main/contracts/utils/LERC20.sol\":5639:5657  _balances[account] */\n      0x00\n        /* \"Lossless_create2-main/contracts/utils/LERC20.sol\":5649:5656  account */\n      dup4\n        /* \"Lossless_create2-main/contracts/utils/LERC20.sol\":5639:5657  _balances[account] */\n      0xffffffffffffffffffffffffffffffffffffffff\n      and\n      0xffffffffffffffffffffffffffffffffffffffff\n      and\n      dup2\n      mstore\n      0x20\n      add\n      swap1\n      dup2\n      mstore\n      0x20\n      add\n      0x00\n      keccak256\n      sload\n        /* \"Lossless_create2-main/contracts/utils/LERC20.sol\":5632:5657  return _balances[account] */\n      swap1\n      pop\n        /* \"Lossless_create2-main/contracts/utils/LERC20.sol\":5539:5664  function balanceOf(address account) public view virtual override returns (uint256) {... */\n      swap2\n      swap1\n      pop\n      jump\t// out\n        /* \"Lossless_create2-main/contracts/utils/LERC20.sol\":3369:3623  function transferRecoveryAdminOwnership(address candidate, bytes32 keyHash) override  external onlyRecoveryAdmin {... */\n    tag_89:\n        /* \"Lossless_create2-main/contracts/utils/LERC20.sol\":2407:2420  recoveryAdmin */\n      0x05\n      0x00\n      swap1\n      sload\n      swap1\n      0x0100\n      exp\n      swap1\n      div\n      0xffffffffffffffffffffffffffffffffffffffff\n      and\n        /* \"Lossless_create2-main/contracts/utils/LERC20.sol\":2391:2420  _msgSender() == recoveryAdmin */\n      0xffffffffffffffffffffffffffffffffffffffff\n      and\n        /* \"Lossless_create2-main/contracts/utils/LERC20.sol\":2391:2403  _msgSender() */\n      tag_198\n        /* \"Lossless_create2-main/contracts/utils/LERC20.sol\":2391:2401  _msgSender */\n      tag_134\n        /* \"Lossless_create2-main/contracts/utils/LERC20.sol\":2391:2403  _msgSender() */\n      jump\t// in\n    tag_198:\n        /* \"Lossless_create2-main/contracts/utils/LERC20.sol\":2391:2420  _msgSender() == recoveryAdmin */\n      0xffffffffffffffffffffffffffffffffffffffff\n      and\n      eq\n        /* \"Lossless_create2-main/contracts/utils/LERC20.sol\":2383:2455  require(_msgSender() == recoveryAdmin, \"LERC20: Must be recovery admin\") */\n      tag_199\n      jumpi\n      mload(0x40)\n      0x08c379a000000000000000000000000000000000000000000000000000000000\n      dup2\n      mstore\n      0x04\n      add\n      tag_200\n      swap1\n      tag_168\n      jump\t// in\n    tag_200:\n      mload(0x40)\n      dup1\n      swap2\n      sub\n      swap1\n      revert\n    tag_199:\n        /* \"Lossless_create2-main/contracts/utils/LERC20.sol\":3517:3526  candidate */\n      dup2\n        /* \"Lossless_create2-main/contracts/utils/LERC20.sol\":3492:3514  recoveryAdminCandidate */\n      0x06\n      0x00\n        /* \"Lossless_create2-main/contracts/utils/LERC20.sol\":3492:3526  recoveryAdminCandidate = candidate */\n      0x0100\n      exp\n      dup2\n      sload\n      dup2\n      0xffffffffffffffffffffffffffffffffffffffff\n      mul\n      not\n      and\n      swap1\n      dup4\n      0xffffffffffffffffffffffffffffffffffffffff\n      and\n      mul\n      or\n      swap1\n      sstore\n      pop\n        /* \"Lossless_create2-main/contracts/utils/LERC20.sol\":3559:3566  keyHash */\n      dup1\n        /* \"Lossless_create2-main/contracts/utils/LERC20.sol\":3536:3556  recoveryAdminKeyHash */\n      0x07\n        /* \"Lossless_create2-main/contracts/utils/LERC20.sol\":3536:3566  recoveryAdminKeyHash = keyHash */\n      dup2\n      swap1\n      sstore\n      pop\n        /* \"Lossless_create2-main/contracts/utils/LERC20.sol\":3606:3615  candidate */\n      dup2\n        /* \"Lossless_create2-main/contracts/utils/LERC20.sol\":3581:3616  NewRecoveryAdminProposal(candidate) */\n      0xffffffffffffffffffffffffffffffffffffffff\n      and\n      0x6c591da8da2f6e69746d7d9ae61c27ee29fbe303798141b4942ae2aef54274b1\n      mload(0x40)\n      mload(0x40)\n      dup1\n      swap2\n      sub\n      swap1\n      log2\n        /* \"Lossless_create2-main/contracts/utils/LERC20.sol\":3369:3623  function transferRecoveryAdminOwnership(address candidate, bytes32 keyHash) override  external onlyRecoveryAdmin {... */\n      pop\n      pop\n      jump\t// out\n        /* \"Lossless_create2-main/contracts/utils/LERC20.sol\":2514:3140  function transferOutBlacklistedFunds(address[] calldata from) override external {... */\n    tag_93:\n        /* \"Lossless_create2-main/contracts/utils/LERC20.sol\":2636:2644  lossless */\n      0x0b\n      0x01\n      swap1\n      sload\n      swap1\n      0x0100\n      exp\n      swap1\n      div\n      0xffffffffffffffffffffffffffffffffffffffff\n      and\n        /* \"Lossless_create2-main/contracts/utils/LERC20.sol\":2612:2645  _msgSender() == address(lossless) */\n      0xffffffffffffffffffffffffffffffffffffffff\n      and\n        /* \"Lossless_create2-main/contracts/utils/LERC20.sol\":2612:2624  _msgSender() */\n      tag_203\n        /* \"Lossless_create2-main/contracts/utils/LERC20.sol\":2612:2622  _msgSender */\n      tag_134\n        /* \"Lossless_create2-main/contracts/utils/LERC20.sol\":2612:2624  _msgSender() */\n      jump\t// in\n    tag_203:\n        /* \"Lossless_create2-main/contracts/utils/LERC20.sol\":2612:2645  _msgSender() == address(lossless) */\n      0xffffffffffffffffffffffffffffffffffffffff\n      and\n      eq\n        /* \"Lossless_create2-main/contracts/utils/LERC20.sol\":2604:2680  require(_msgSender() == address(lossless), \"LERC20: Only lossless contract\") */\n      tag_204\n      jumpi\n      mload(0x40)\n      0x08c379a000000000000000000000000000000000000000000000000000000000\n      dup2\n      mstore\n      0x04\n      add\n      tag_205\n      swap1\n      tag_206\n      jump\t// in\n    tag_205:\n      mload(0x40)\n      dup1\n      swap2\n      sub\n      swap1\n      revert\n    tag_204:\n        /* \"Lossless_create2-main/contracts/utils/LERC20.sol\":2691:2709  uint256 fromLength */\n      0x00\n        /* \"Lossless_create2-main/contracts/utils/LERC20.sol\":2712:2716  from */\n      dup3\n      dup3\n        /* \"Lossless_create2-main/contracts/utils/LERC20.sol\":2712:2723  from.length */\n      swap1\n      pop\n        /* \"Lossless_create2-main/contracts/utils/LERC20.sol\":2691:2723  uint256 fromLength = from.length */\n      swap1\n      pop\n        /* \"Lossless_create2-main/contracts/utils/LERC20.sol\":2733:2752  uint256 totalAmount */\n      0x00\n        /* \"Lossless_create2-main/contracts/utils/LERC20.sol\":2780:2789  uint256 i */\n      dup1\n        /* \"Lossless_create2-main/contracts/utils/LERC20.sol\":2775:3080  for (uint256 i = 0; i < fromLength; i++) {... */\n    tag_207:\n        /* \"Lossless_create2-main/contracts/utils/LERC20.sol\":2799:2809  fromLength */\n      dup3\n        /* \"Lossless_create2-main/contracts/utils/LERC20.sol\":2795:2796  i */\n      dup2\n        /* \"Lossless_create2-main/contracts/utils/LERC20.sol\":2795:2809  i < fromLength */\n      lt\n        /* \"Lossless_create2-main/contracts/utils/LERC20.sol\":2775:3080  for (uint256 i = 0; i < fromLength; i++) {... */\n      iszero\n      tag_208\n      jumpi\n        /* \"Lossless_create2-main/contracts/utils/LERC20.sol\":2830:2849  address fromAddress */\n      0x00\n        /* \"Lossless_create2-main/contracts/utils/LERC20.sol\":2852:2856  from */\n      dup6\n      dup6\n        /* \"Lossless_create2-main/contracts/utils/LERC20.sol\":2857:2858  i */\n      dup4\n        /* \"Lossless_create2-main/contracts/utils/LERC20.sol\":2852:2859  from[i] */\n      dup2\n      dup2\n      lt\n      tag_210\n      jumpi\n      mstore(0x00, 0x4e487b7100000000000000000000000000000000000000000000000000000000)\n      mstore(0x04, 0x32)\n      revert(0x00, 0x24)\n    tag_210:\n      swap1\n      pop\n      0x20\n      mul\n      add\n      0x20\n      dup2\n      add\n      swap1\n      tag_211\n      swap2\n      swap1\n      tag_53\n      jump\t// in\n    tag_211:\n        /* \"Lossless_create2-main/contracts/utils/LERC20.sol\":2830:2859  address fromAddress = from[i] */\n      swap1\n      pop\n        /* \"Lossless_create2-main/contracts/utils/LERC20.sol\":2873:2892  uint256 fromBalance */\n      0x00\n        /* \"Lossless_create2-main/contracts/utils/LERC20.sol\":2895:2904  _balances */\n      dup1\n        /* \"Lossless_create2-main/contracts/utils/LERC20.sol\":2895:2917  _balances[fromAddress] */\n      0x00\n        /* \"Lossless_create2-main/contracts/utils/LERC20.sol\":2905:2916  fromAddress */\n      dup4\n        /* \"Lossless_create2-main/contracts/utils/LERC20.sol\":2895:2917  _balances[fromAddress] */\n      0xffffffffffffffffffffffffffffffffffffffff\n      and\n      0xffffffffffffffffffffffffffffffffffffffff\n      and\n      dup2\n      mstore\n      0x20\n      add\n      swap1\n      dup2\n      mstore\n      0x20\n      add\n      0x00\n      keccak256\n      sload\n        /* \"Lossless_create2-main/contracts/utils/LERC20.sol\":2873:2917  uint256 fromBalance = _balances[fromAddress] */\n      swap1\n      pop\n        /* \"Lossless_create2-main/contracts/utils/LERC20.sol\":2956:2957  0 */\n      0x00\n        /* \"Lossless_create2-main/contracts/utils/LERC20.sol\":2931:2940  _balances */\n      dup1\n        /* \"Lossless_create2-main/contracts/utils/LERC20.sol\":2931:2953  _balances[fromAddress] */\n      0x00\n        /* \"Lossless_create2-main/contracts/utils/LERC20.sol\":2941:2952  fromAddress */\n      dup5\n        /* \"Lossless_create2-main/contracts/utils/LERC20.sol\":2931:2953  _balances[fromAddress] */\n      0xffffffffffffffffffffffffffffffffffffffff\n      and\n      0xffffffffffffffffffffffffffffffffffffffff\n      and\n      dup2\n      mstore\n      0x20\n      add\n      swap1\n      dup2\n      mstore\n      0x20\n      add\n      0x00\n      keccak256\n        /* \"Lossless_create2-main/contracts/utils/LERC20.sol\":2931:2957  _balances[fromAddress] = 0 */\n      dup2\n      swap1\n      sstore\n      pop\n        /* \"Lossless_create2-main/contracts/utils/LERC20.sol\":2986:2997  fromBalance */\n      dup1\n        /* \"Lossless_create2-main/contracts/utils/LERC20.sol\":2971:2997  totalAmount += fromBalance */\n      dup5\n      tag_212\n      swap2\n      swap1\n      tag_186\n      jump\t// in\n    tag_212:\n      swap4\n      pop\n        /* \"Lossless_create2-main/contracts/utils/LERC20.sol\":3046:3054  lossless */\n      0x0b\n      0x01\n      swap1\n      sload\n      swap1\n      0x0100\n      exp\n      swap1\n      div\n      0xffffffffffffffffffffffffffffffffffffffff\n      and\n        /* \"Lossless_create2-main/contracts/utils/LERC20.sol\":3016:3069  Transfer(fromAddress, address(lossless), fromBalance) */\n      0xffffffffffffffffffffffffffffffffffffffff\n      and\n        /* \"Lossless_create2-main/contracts/utils/LERC20.sol\":3025:3036  fromAddress */\n      dup3\n        /* \"Lossless_create2-main/contracts/utils/LERC20.sol\":3016:3069  Transfer(fromAddress, address(lossless), fromBalance) */\n      0xffffffffffffffffffffffffffffffffffffffff\n      and\n      0xddf252ad1be2c89b69c2b068fc378daa952ba7f163c4a11628f55a4df523b3ef\n        /* \"Lossless_create2-main/contracts/utils/LERC20.sol\":3057:3068  fromBalance */\n      dup4\n        /* \"Lossless_create2-main/contracts/utils/LERC20.sol\":3016:3069  Transfer(fromAddress, address(lossless), fromBalance) */\n      mload(0x40)\n      tag_213\n      swap2\n      swap1\n      tag_45\n      jump\t// in\n    tag_213:\n      mload(0x40)\n      dup1\n      swap2\n      sub\n      swap1\n      log3\n        /* \"Lossless_create2-main/contracts/utils/LERC20.sol\":2775:3080  for (uint256 i = 0; i < fromLength; i++) {... */\n      pop\n      pop\n        /* \"Lossless_create2-main/contracts/utils/LERC20.sol\":2811:2814  i++ */\n      dup1\n      dup1\n      tag_214\n      swap1\n      tag_215\n      jump\t// in\n    tag_214:\n      swap2\n      pop\n      pop\n        /* \"Lossless_create2-main/contracts/utils/LERC20.sol\":2775:3080  for (uint256 i = 0; i < fromLength; i++) {... */\n      jump(tag_207)\n    tag_208:\n      pop\n        /* \"Lossless_create2-main/contracts/utils/LERC20.sol\":3122:3133  totalAmount */\n      dup1\n        /* \"Lossless_create2-main/contracts/utils/LERC20.sol\":3090:3099  _balances */\n      0x00\n        /* \"Lossless_create2-main/contracts/utils/LERC20.sol\":3090:3118  _balances[address(lossless)] */\n      dup1\n        /* \"Lossless_create2-main/contracts/utils/LERC20.sol\":3108:3116  lossless */\n      0x0b\n      0x01\n      swap1\n      sload\n      swap1\n      0x0100\n      exp\n      swap1\n      div\n      0xffffffffffffffffffffffffffffffffffffffff\n      and\n        /* \"Lossless_create2-main/contracts/utils/LERC20.sol\":3090:3118  _balances[address(lossless)] */\n      0xffffffffffffffffffffffffffffffffffffffff\n      and\n      0xffffffffffffffffffffffffffffffffffffffff\n      and\n      dup2\n      mstore\n      0x20\n      add\n      swap1\n      dup2\n      mstore\n      0x20\n      add\n      0x00\n      keccak256\n      0x00\n        /* \"Lossless_create2-main/contracts/utils/LERC20.sol\":3090:3133  _balances[address(lossless)] += totalAmount */\n      dup3\n      dup3\n      sload\n      tag_216\n      swap2\n      swap1\n      tag_186\n      jump\t// in\n    tag_216:\n      swap3\n      pop\n      pop\n      dup2\n      swap1\n      sstore\n      pop\n        /* \"Lossless_create2-main/contracts/utils/LERC20.sol\":2514:3140  function transferOutBlacklistedFunds(address[] calldata from) override external {... */\n      pop\n      pop\n      pop\n      pop\n      jump\t// out\n        /* \"Lossless_create2-main/contracts/utils/LERC20.sol\":5222:5324  function symbol() override public view virtual returns (string memory) {... */\n    tag_95:\n        /* \"Lossless_create2-main/contracts/utils/LERC20.sol\":5278:5291  string memory */\n      0x60\n        /* \"Lossless_create2-main/contracts/utils/LERC20.sol\":5310:5317  _symbol */\n      0x04\n        /* \"Lossless_create2-main/contracts/utils/LERC20.sol\":5303:5317  return _symbol */\n      dup1\n      sload\n      tag_218\n      swap1\n      tag_126\n      jump\t// in\n    tag_218:\n      dup1\n      0x1f\n      add\n      0x20\n      dup1\n      swap2\n      div\n      mul\n      0x20\n      add\n      mload(0x40)\n      swap1\n      dup2\n      add\n      0x40\n      mstore\n      dup1\n      swap3\n      swap2\n      swap1\n      dup2\n      dup2\n      mstore\n      0x20\n      add\n      dup3\n      dup1\n      sload\n      tag_219\n      swap1\n      tag_126\n      jump\t// in\n    tag_219:\n      dup1\n      iszero\n      tag_220\n      jumpi\n      dup1\n      0x1f\n      lt\n      tag_221\n      jumpi\n      0x0100\n      dup1\n      dup4\n      sload\n      div\n      mul\n      dup4\n      mstore\n      swap2\n      0x20\n      add\n      swap2\n      jump(tag_220)\n    tag_221:\n      dup3\n      add\n      swap2\n      swap1\n      0x00\n      mstore\n      keccak256(0x00, 0x20)\n      swap1\n    tag_222:\n      dup2\n      sload\n      dup2\n      mstore\n      swap1\n      0x01\n      add\n      swap1\n      0x20\n      add\n      dup1\n      dup4\n      gt\n      tag_222\n      jumpi\n      dup3\n      swap1\n      sub\n      0x1f\n      and\n      dup3\n      add\n      swap2\n    tag_220:\n      pop\n      pop\n      pop\n      pop\n      pop\n      swap1\n      pop\n        /* \"Lossless_create2-main/contracts/utils/LERC20.sol\":5222:5324  function symbol() override public view virtual returns (string memory) {... */\n      swap1\n      jump\t// out\n        /* \"Lossless_create2-main/contracts/utils/LERC20.sol\":6974:7402  function decreaseAllowance(address spender, uint256 subtractedValue) override public virtual lssDecreaseAllowance(spender, subtractedValue) returns (bool) {... */\n    tag_99:\n        /* \"Lossless_create2-main/contracts/utils/LERC20.sol\":7123:7127  bool */\n      0x00\n        /* \"Lossless_create2-main/contracts/utils/LERC20.sol\":7088:7095  spender */\n      dup3\n        /* \"Lossless_create2-main/contracts/utils/LERC20.sol\":7097:7112  subtractedValue */\n      dup3\n        /* \"Lossless_create2-main/contracts/utils/LERC20.sol\":2210:2222  isLosslessOn */\n      0x0b\n      0x00\n      swap1\n      sload\n      swap1\n      0x0100\n      exp\n      swap1\n      div\n      0xff\n      and\n        /* \"Lossless_create2-main/contracts/utils/LERC20.sol\":2206:2321  if (isLosslessOn) {... */\n      iszero\n      tag_224\n      jumpi\n        /* \"Lossless_create2-main/contracts/utils/LERC20.sol\":2238:2246  lossless */\n      0x0b\n      0x01\n      swap1\n      sload\n      swap1\n      0x0100\n      exp\n      swap1\n      div\n      0xffffffffffffffffffffffffffffffffffffffff\n      and\n        /* \"Lossless_create2-main/contracts/utils/LERC20.sol\":2238:2270  lossless.beforeDecreaseAllowance */\n      0xffffffffffffffffffffffffffffffffffffffff\n      and\n      0x568c75a9\n        /* \"Lossless_create2-main/contracts/utils/LERC20.sol\":2271:2283  _msgSender() */\n      tag_225\n        /* \"Lossless_create2-main/contracts/utils/LERC20.sol\":2271:2281  _msgSender */\n      tag_134\n        /* \"Lossless_create2-main/contracts/utils/LERC20.sol\":2271:2283  _msgSender() */\n      jump\t// in\n    tag_225:\n        /* \"Lossless_create2-main/contracts/utils/LERC20.sol\":2285:2292  spender */\n      dup5\n        /* \"Lossless_create2-main/contracts/utils/LERC20.sol\":2294:2309  subtractedValue */\n      dup5\n        /* \"Lossless_create2-main/contracts/utils/LERC20.sol\":2238:2310  lossless.beforeDecreaseAllowance(_msgSender(), spender, subtractedValue) */\n      mload(0x40)\n      dup5\n      0xffffffff\n      and\n      0xe0\n      shl\n      dup2\n      mstore\n      0x04\n      add\n      tag_226\n      swap4\n      swap3\n      swap2\n      swap1\n      tag_136\n      jump\t// in\n    tag_226:\n      0x00\n      mload(0x40)\n      dup1\n      dup4\n      sub\n      dup2\n      0x00\n      dup8\n      dup1\n      extcodesize\n      iszero\n      dup1\n      iszero\n      tag_227\n      jumpi\n      0x00\n      dup1\n      revert\n    tag_227:\n      pop\n      gas\n      call\n      iszero\n      dup1\n      iszero\n      tag_229\n      jumpi\n      returndatasize\n      0x00\n      dup1\n      returndatacopy\n      revert(0x00, returndatasize)\n    tag_229:\n      pop\n      pop\n      pop\n      pop\n        /* \"Lossless_create2-main/contracts/utils/LERC20.sol\":2206:2321  if (isLosslessOn) {... */\n    tag_224:\n        /* \"Lossless_create2-main/contracts/utils/LERC20.sol\":7139:7163  uint256 currentAllowance */\n      0x00\n        /* \"Lossless_create2-main/contracts/utils/LERC20.sol\":7166:7177  _allowances */\n      0x01\n        /* \"Lossless_create2-main/contracts/utils/LERC20.sol\":7166:7191  _allowances[_msgSender()] */\n      0x00\n        /* \"Lossless_create2-main/contracts/utils/LERC20.sol\":7178:7190  _msgSender() */\n      tag_231\n        /* \"Lossless_create2-main/contracts/utils/LERC20.sol\":7178:7188  _msgSender */\n      tag_134\n        /* \"Lossless_create2-main/contracts/utils/LERC20.sol\":7178:7190  _msgSender() */\n      jump\t// in\n    tag_231:\n        /* \"Lossless_create2-main/contracts/utils/LERC20.sol\":7166:7191  _allowances[_msgSender()] */\n      0xffffffffffffffffffffffffffffffffffffffff\n      and\n      0xffffffffffffffffffffffffffffffffffffffff\n      and\n      dup2\n      mstore\n      0x20\n      add\n      swap1\n      dup2\n      mstore\n      0x20\n      add\n      0x00\n      keccak256\n        /* \"Lossless_create2-main/contracts/utils/LERC20.sol\":7166:7200  _allowances[_msgSender()][spender] */\n      0x00\n        /* \"Lossless_create2-main/contracts/utils/LERC20.sol\":7192:7199  spender */\n      dup8\n        /* \"Lossless_create2-main/contracts/utils/LERC20.sol\":7166:7200  _allowances[_msgSender()][spender] */\n      0xffffffffffffffffffffffffffffffffffffffff\n      and\n      0xffffffffffffffffffffffffffffffffffffffff\n      and\n      dup2\n      mstore\n      0x20\n      add\n      swap1\n      dup2\n      mstore\n      0x20\n      add\n      0x00\n      keccak256\n      sload\n        /* \"Lossless_create2-main/contracts/utils/LERC20.sol\":7139:7200  uint256 currentAllowance = _allowances[_msgSender()][spender] */\n      swap1\n      pop\n        /* \"Lossless_create2-main/contracts/utils/LERC20.sol\":7238:7253  subtractedValue */\n      dup5\n        /* \"Lossless_create2-main/contracts/utils/LERC20.sol\":7218:7234  currentAllowance */\n      dup2\n        /* \"Lossless_create2-main/contracts/utils/LERC20.sol\":7218:7253  currentAllowance >= subtractedValue */\n      lt\n      iszero\n        /* \"Lossless_create2-main/contracts/utils/LERC20.sol\":7210:7296  require(currentAllowance >= subtractedValue, \"LERC20: decreased allowance below zero\") */\n      tag_232\n      jumpi\n      mload(0x40)\n      0x08c379a000000000000000000000000000000000000000000000000000000000\n      dup2\n      mstore\n      0x04\n      add\n      tag_233\n      swap1\n      tag_234\n      jump\t// in\n    tag_233:\n      mload(0x40)\n      dup1\n      swap2\n      sub\n      swap1\n      revert\n    tag_232:\n        /* \"Lossless_create2-main/contracts/utils/LERC20.sol\":7306:7373  _approve(_msgSender(), spender, currentAllowance - subtractedValue) */\n      tag_235\n        /* \"Lossless_create2-main/contracts/utils/LERC20.sol\":7315:7327  _msgSender() */\n      tag_236\n        /* \"Lossless_create2-main/contracts/utils/LERC20.sol\":7315:7325  _msgSender */\n      tag_134\n        /* \"Lossless_create2-main/contracts/utils/LERC20.sol\":7315:7327  _msgSender() */\n      jump\t// in\n    tag_236:\n        /* \"Lossless_create2-main/contracts/utils/LERC20.sol\":7329:7336  spender */\n      dup8\n        /* \"Lossless_create2-main/contracts/utils/LERC20.sol\":7357:7372  subtractedValue */\n      dup8\n        /* \"Lossless_create2-main/contracts/utils/LERC20.sol\":7338:7354  currentAllowance */\n      dup5\n        /* \"Lossless_create2-main/contracts/utils/LERC20.sol\":7338:7372  currentAllowance - subtractedValue */\n      tag_237\n      swap2\n      swap1\n      tag_163\n      jump\t// in\n    tag_237:\n        /* \"Lossless_create2-main/contracts/utils/LERC20.sol\":7306:7314  _approve */\n      tag_143\n        /* \"Lossless_create2-main/contracts/utils/LERC20.sol\":7306:7373  _approve(_msgSender(), spender, currentAllowance - subtractedValue) */\n      jump\t// in\n    tag_235:\n        /* \"Lossless_create2-main/contracts/utils/LERC20.sol\":7391:7395  true */\n      0x01\n        /* \"Lossless_create2-main/contracts/utils/LERC20.sol\":7384:7395  return true */\n      swap4\n      pop\n      pop\n        /* \"Lossless_create2-main/contracts/utils/LERC20.sol\":6974:7402  function decreaseAllowance(address spender, uint256 subtractedValue) override public virtual lssDecreaseAllowance(spender, subtractedValue) returns (bool) {... */\n      pop\n      pop\n      swap3\n      swap2\n      pop\n      pop\n      jump\t// out\n        /* \"Lossless_create2-main/contracts/utils/LERC20.sol\":5670:5873  function transfer(address recipient, uint256 amount) public virtual override lssTransfer(recipient, amount) returns (bool) {... */\n    tag_103:\n        /* \"Lossless_create2-main/contracts/utils/LERC20.sol\":5787:5791  bool */\n      0x00\n        /* \"Lossless_create2-main/contracts/utils/LERC20.sol\":5759:5768  recipient */\n      dup3\n        /* \"Lossless_create2-main/contracts/utils/LERC20.sol\":5770:5776  amount */\n      dup3\n        /* \"Lossless_create2-main/contracts/utils/LERC20.sol\":1576:1588  isLosslessOn */\n      0x0b\n      0x00\n      swap1\n      sload\n      swap1\n      0x0100\n      exp\n      swap1\n      div\n      0xff\n      and\n        /* \"Lossless_create2-main/contracts/utils/LERC20.sol\":1572:1671  if (isLosslessOn) {... */\n      iszero\n      tag_239\n      jumpi\n        /* \"Lossless_create2-main/contracts/utils/LERC20.sol\":1604:1612  lossless */\n      0x0b\n      0x01\n      swap1\n      sload\n      swap1\n      0x0100\n      exp\n      swap1\n      div\n      0xffffffffffffffffffffffffffffffffffffffff\n      and\n        /* \"Lossless_create2-main/contracts/utils/LERC20.sol\":1604:1627  lossless.beforeTransfer */\n      0xffffffffffffffffffffffffffffffffffffffff\n      and\n      0x1ffb811f\n        /* \"Lossless_create2-main/contracts/utils/LERC20.sol\":1628:1640  _msgSender() */\n      tag_240\n        /* \"Lossless_create2-main/contracts/utils/LERC20.sol\":1628:1638  _msgSender */\n      tag_134\n        /* \"Lossless_create2-main/contracts/utils/LERC20.sol\":1628:1640  _msgSender() */\n      jump\t// in\n    tag_240:\n        /* \"Lossless_create2-main/contracts/utils/LERC20.sol\":1642:1651  recipient */\n      dup5\n        /* \"Lossless_create2-main/contracts/utils/LERC20.sol\":1653:1659  amount */\n      dup5\n        /* \"Lossless_create2-main/contracts/utils/LERC20.sol\":1604:1660  lossless.beforeTransfer(_msgSender(), recipient, amount) */\n      mload(0x40)\n      dup5\n      0xffffffff\n      and\n      0xe0\n      shl\n      dup2\n      mstore\n      0x04\n      add\n      tag_241\n      swap4\n      swap3\n      swap2\n      swap1\n      tag_136\n      jump\t// in\n    tag_241:\n      0x00\n      mload(0x40)\n      dup1\n      dup4\n      sub\n      dup2\n      0x00\n      dup8\n      dup1\n      extcodesize\n      iszero\n      dup1\n      iszero\n      tag_242\n      jumpi\n      0x00\n      dup1\n      revert\n    tag_242:\n      pop\n      gas\n      call\n      iszero\n      dup1\n      iszero\n      tag_244\n      jumpi\n      returndatasize\n      0x00\n      dup1\n      returndatacopy\n      revert(0x00, returndatasize)\n    tag_244:\n      pop\n      pop\n      pop\n      pop\n        /* \"Lossless_create2-main/contracts/utils/LERC20.sol\":1572:1671  if (isLosslessOn) {... */\n    tag_239:\n        /* \"Lossless_create2-main/contracts/utils/LERC20.sol\":5803:5845  _transfer(_msgSender(), recipient, amount) */\n      tag_246\n        /* \"Lossless_create2-main/contracts/utils/LERC20.sol\":5813:5825  _msgSender() */\n      tag_247\n        /* \"Lossless_create2-main/contracts/utils/LERC20.sol\":5813:5823  _msgSender */\n      tag_134\n        /* \"Lossless_create2-main/contracts/utils/LERC20.sol\":5813:5825  _msgSender() */\n      jump\t// in\n    tag_247:\n        /* \"Lossless_create2-main/contracts/utils/LERC20.sol\":5827:5836  recipient */\n      dup7\n        /* \"Lossless_create2-main/contracts/utils/LERC20.sol\":5838:5844  amount */\n      dup7\n        /* \"Lossless_create2-main/contracts/utils/LERC20.sol\":5803:5812  _transfer */\n      tag_159\n        /* \"Lossless_create2-main/contracts/utils/LERC20.sol\":5803:5845  _transfer(_msgSender(), recipient, amount) */\n      jump\t// in\n    tag_246:\n        /* \"Lossless_create2-main/contracts/utils/LERC20.sol\":5862:5866  true */\n      0x01\n        /* \"Lossless_create2-main/contracts/utils/LERC20.sol\":5855:5866  return true */\n      swap3\n      pop\n        /* \"Lossless_create2-main/contracts/utils/LERC20.sol\":5670:5873  function transfer(address recipient, uint256 amount) public virtual override lssTransfer(recipient, amount) returns (bool) {... */\n      pop\n      pop\n      swap3\n      swap2\n      pop\n      pop\n      jump\t// out\n        /* \"Lossless_create2-main/contracts/utils/LERC20.sol\":4393:4741  function executeLosslessTurnOff() override external onlyRecoveryAdmin {... */\n    tag_106:\n        /* \"Lossless_create2-main/contracts/utils/LERC20.sol\":2407:2420  recoveryAdmin */\n      0x05\n      0x00\n      swap1\n      sload\n      swap1\n      0x0100\n      exp\n      swap1\n      div\n      0xffffffffffffffffffffffffffffffffffffffff\n      and\n        /* \"Lossless_create2-main/contracts/utils/LERC20.sol\":2391:2420  _msgSender() == recoveryAdmin */\n      0xffffffffffffffffffffffffffffffffffffffff\n      and\n        /* \"Lossless_create2-main/contracts/utils/LERC20.sol\":2391:2403  _msgSender() */\n      tag_249\n        /* \"Lossless_create2-main/contracts/utils/LERC20.sol\":2391:2401  _msgSender */\n      tag_134\n        /* \"Lossless_create2-main/contracts/utils/LERC20.sol\":2391:2403  _msgSender() */\n      jump\t// in\n    tag_249:\n        /* \"Lossless_create2-main/contracts/utils/LERC20.sol\":2391:2420  _msgSender() == recoveryAdmin */\n      0xffffffffffffffffffffffffffffffffffffffff\n      and\n      eq\n        /* \"Lossless_create2-main/contracts/utils/LERC20.sol\":2383:2455  require(_msgSender() == recoveryAdmin, \"LERC20: Must be recovery admin\") */\n      tag_250\n      jumpi\n      mload(0x40)\n      0x08c379a000000000000000000000000000000000000000000000000000000000\n      dup2\n      mstore\n      0x04\n      add\n      tag_251\n      swap1\n      tag_168\n      jump\t// in\n    tag_251:\n      mload(0x40)\n      dup1\n      swap2\n      sub\n      swap1\n      revert\n    tag_250:\n        /* \"Lossless_create2-main/contracts/utils/LERC20.sol\":4509:4510  0 */\n      0x00\n        /* \"Lossless_create2-main/contracts/utils/LERC20.sol\":4481:4505  losslessTurnOffTimestamp */\n      sload(0x0a)\n        /* \"Lossless_create2-main/contracts/utils/LERC20.sol\":4481:4510  losslessTurnOffTimestamp != 0 */\n      eq\n      iszero\n        /* \"Lossless_create2-main/contracts/utils/LERC20.sol\":4473:4543  require(losslessTurnOffTimestamp != 0, \"LERC20: TurnOff not proposed\") */\n      tag_253\n      jumpi\n      mload(0x40)\n      0x08c379a000000000000000000000000000000000000000000000000000000000\n      dup2\n      mstore\n      0x04\n      add\n      tag_254\n      swap1\n      tag_255\n      jump\t// in\n    tag_254:\n      mload(0x40)\n      dup1\n      swap2\n      sub\n      swap1\n      revert\n    tag_253:\n        /* \"Lossless_create2-main/contracts/utils/LERC20.sol\":4589:4604  block.timestamp */\n      timestamp\n        /* \"Lossless_create2-main/contracts/utils/LERC20.sol\":4561:4585  losslessTurnOffTimestamp */\n      sload(0x0a)\n        /* \"Lossless_create2-main/contracts/utils/LERC20.sol\":4561:4604  losslessTurnOffTimestamp <= block.timestamp */\n      gt\n      iszero\n        /* \"Lossless_create2-main/contracts/utils/LERC20.sol\":4553:4638  require(losslessTurnOffTimestamp <= block.timestamp, \"LERC20: Time lock in progress\") */\n      tag_256\n      jumpi\n      mload(0x40)\n      0x08c379a000000000000000000000000000000000000000000000000000000000\n      dup2\n      mstore\n      0x04\n      add\n      tag_257\n      swap1\n      tag_258\n      jump\t// in\n    tag_257:\n      mload(0x40)\n      dup1\n      swap2\n      sub\n      swap1\n      revert\n    tag_256:\n        /* \"Lossless_create2-main/contracts/utils/LERC20.sol\":4663:4668  false */\n      0x00\n        /* \"Lossless_create2-main/contracts/utils/LERC20.sol\":4648:4660  isLosslessOn */\n      0x0b\n      0x00\n        /* \"Lossless_create2-main/contracts/utils/LERC20.sol\":4648:4668  isLosslessOn = false */\n      0x0100\n      exp\n      dup2\n      sload\n      dup2\n      0xff\n      mul\n      not\n      and\n      swap1\n      dup4\n      iszero\n      iszero\n      mul\n      or\n      swap1\n      sstore\n      pop\n        /* \"Lossless_create2-main/contracts/utils/LERC20.sol\":4705:4706  0 */\n      0x00\n        /* \"Lossless_create2-main/contracts/utils/LERC20.sol\":4678:4702  losslessTurnOffTimestamp */\n      0x0a\n        /* \"Lossless_create2-main/contracts/utils/LERC20.sol\":4678:4706  losslessTurnOffTimestamp = 0 */\n      dup2\n      swap1\n      sstore\n      pop\n        /* \"Lossless_create2-main/contracts/utils/LERC20.sol\":4721:4734  LosslessOff() */\n      0x3eb72350c9c7928d31e9ab450bfff2c159434aa4b82658a7d8eae7f109cb4e7b\n      mload(0x40)\n      mload(0x40)\n      dup1\n      swap2\n      sub\n      swap1\n      log1\n        /* \"Lossless_create2-main/contracts/utils/LERC20.sol\":4393:4741  function executeLosslessTurnOff() override external onlyRecoveryAdmin {... */\n      jump\t// out\n        /* \"Lossless_create2-main/contracts/utils/LERC20.sol\":3629:4024  function acceptRecoveryAdminOwnership(bytes memory key) override external {... */\n    tag_110:\n        /* \"Lossless_create2-main/contracts/utils/LERC20.sol\":3737:3759  recoveryAdminCandidate */\n      0x06\n      0x00\n      swap1\n      sload\n      swap1\n      0x0100\n      exp\n      swap1\n      div\n      0xffffffffffffffffffffffffffffffffffffffff\n      and\n        /* \"Lossless_create2-main/contracts/utils/LERC20.sol\":3721:3759  _msgSender() == recoveryAdminCandidate */\n      0xffffffffffffffffffffffffffffffffffffffff\n      and\n        /* \"Lossless_create2-main/contracts/utils/LERC20.sol\":3721:3733  _msgSender() */\n      tag_260\n        /* \"Lossless_create2-main/contracts/utils/LERC20.sol\":3721:3731  _msgSender */\n      tag_134\n        /* \"Lossless_create2-main/contracts/utils/LERC20.sol\":3721:3733  _msgSender() */\n      jump\t// in\n    tag_260:\n        /* \"Lossless_create2-main/contracts/utils/LERC20.sol\":3721:3759  _msgSender() == recoveryAdminCandidate */\n      0xffffffffffffffffffffffffffffffffffffffff\n      and\n      eq\n        /* \"Lossless_create2-main/contracts/utils/LERC20.sol\":3713:3789  require(_msgSender() == recoveryAdminCandidate, \"LERC20: Must be canditate\") */\n      tag_261\n      jumpi\n      mload(0x40)\n      0x08c379a000000000000000000000000000000000000000000000000000000000\n      dup2\n      mstore\n      0x04\n      add\n      tag_262\n      swap1\n      tag_263\n      jump\t// in\n    tag_262:\n      mload(0x40)\n      dup1\n      swap2\n      sub\n      swap1\n      revert\n    tag_261:\n        /* \"Lossless_create2-main/contracts/utils/LERC20.sol\":3825:3845  recoveryAdminKeyHash */\n      sload(0x07)\n        /* \"Lossless_create2-main/contracts/utils/LERC20.sol\":3817:3820  key */\n      dup2\n        /* \"Lossless_create2-main/contracts/utils/LERC20.sol\":3807:3821  keccak256(key) */\n      dup1\n      mload\n      swap1\n      0x20\n      add\n      keccak256\n        /* \"Lossless_create2-main/contracts/utils/LERC20.sol\":3807:3845  keccak256(key) == recoveryAdminKeyHash */\n      eq\n        /* \"Lossless_create2-main/contracts/utils/LERC20.sol\":3799:3869  require(keccak256(key) == recoveryAdminKeyHash, \"LERC20: Invalid key\") */\n      tag_264\n      jumpi\n      mload(0x40)\n      0x08c379a000000000000000000000000000000000000000000000000000000000\n      dup2\n      mstore\n      0x04\n      add\n      tag_265\n      swap1\n      tag_266\n      jump\t// in\n    tag_265:\n      mload(0x40)\n      dup1\n      swap2\n      sub\n      swap1\n      revert\n    tag_264:\n        /* \"Lossless_create2-main/contracts/utils/LERC20.sol\":3901:3923  recoveryAdminCandidate */\n      0x06\n      0x00\n      swap1\n      sload\n      swap1\n      0x0100\n      exp\n      swap1\n      div\n      0xffffffffffffffffffffffffffffffffffffffff\n      and\n        /* \"Lossless_create2-main/contracts/utils/LERC20.sol\":3884:3924  NewRecoveryAdmin(recoveryAdminCandidate) */\n      0xffffffffffffffffffffffffffffffffffffffff\n      and\n      0xb94bba6936ec7f75ee931dadf6e1a4d66b43d09b6fa0178fb13df9b77fb5841f\n      mload(0x40)\n      mload(0x40)\n      dup1\n      swap2\n      sub\n      swap1\n      log2\n        /* \"Lossless_create2-main/contracts/utils/LERC20.sol\":3950:3972  recoveryAdminCandidate */\n      0x06\n      0x00\n      swap1\n      sload\n      swap1\n      0x0100\n      exp\n      swap1\n      div\n      0xffffffffffffffffffffffffffffffffffffffff\n      and\n        /* \"Lossless_create2-main/contracts/utils/LERC20.sol\":3934:3947  recoveryAdmin */\n      0x05\n      0x00\n        /* \"Lossless_create2-main/contracts/utils/LERC20.sol\":3934:3972  recoveryAdmin = recoveryAdminCandidate */\n      0x0100\n      exp\n      dup2\n      sload\n      dup2\n      0xffffffffffffffffffffffffffffffffffffffff\n      mul\n      not\n      and\n      swap1\n      dup4\n      0xffffffffffffffffffffffffffffffffffffffff\n      and\n      mul\n      or\n      swap1\n      sstore\n      pop\n        /* \"Lossless_create2-main/contracts/utils/LERC20.sol\":4015:4016  0 */\n      0x00\n        /* \"Lossless_create2-main/contracts/utils/LERC20.sol\":3982:4004  recoveryAdminCandidate */\n      0x06\n      0x00\n        /* \"Lossless_create2-main/contracts/utils/LERC20.sol\":3982:4017  recoveryAdminCandidate = address(0) */\n      0x0100\n      exp\n      dup2\n      sload\n      dup2\n      0xffffffffffffffffffffffffffffffffffffffff\n      mul\n      not\n      and\n      swap1\n      dup4\n      0xffffffffffffffffffffffffffffffffffffffff\n      and\n      mul\n      or\n      swap1\n      sstore\n      pop\n        /* \"Lossless_create2-main/contracts/utils/LERC20.sol\":3629:4024  function acceptRecoveryAdminOwnership(bytes memory key) override external {... */\n      pop\n      jump\t// out\n        /* \"Lossless_create2-main/contracts/utils/LERC20.sol\":672:703  bool public isLosslessOn = true */\n    tag_112:\n      0x0b\n      0x00\n      swap1\n      sload\n      swap1\n      0x0100\n      exp\n      swap1\n      div\n      0xff\n      and\n      dup2\n      jump\t// out\n        /* \"Lossless_create2-main/contracts/utils/LERC20.sol\":4030:4387  function proposeLosslessTurnOff() override external onlyRecoveryAdmin {... */\n    tag_115:\n        /* \"Lossless_create2-main/contracts/utils/LERC20.sol\":2407:2420  recoveryAdmin */\n      0x05\n      0x00\n      swap1\n      sload\n      swap1\n      0x0100\n      exp\n      swap1\n      div\n      0xffffffffffffffffffffffffffffffffffffffff\n      and\n        /* \"Lossless_create2-main/contracts/utils/LERC20.sol\":2391:2420  _msgSender() == recoveryAdmin */\n      0xffffffffffffffffffffffffffffffffffffffff\n      and\n        /* \"Lossless_create2-main/contracts/utils/LERC20.sol\":2391:2403  _msgSender() */\n      tag_268\n        /* \"Lossless_create2-main/contracts/utils/LERC20.sol\":2391:2401  _msgSender */\n      tag_134\n        /* \"Lossless_create2-main/contracts/utils/LERC20.sol\":2391:2403  _msgSender() */\n      jump\t// in\n    tag_268:\n        /* \"Lossless_create2-main/contracts/utils/LERC20.sol\":2391:2420  _msgSender() == recoveryAdmin */\n      0xffffffffffffffffffffffffffffffffffffffff\n      and\n      eq\n        /* \"Lossless_create2-main/contracts/utils/LERC20.sol\":2383:2455  require(_msgSender() == recoveryAdmin, \"LERC20: Must be recovery admin\") */\n      tag_269\n      jumpi\n      mload(0x40)\n      0x08c379a000000000000000000000000000000000000000000000000000000000\n      dup2\n      mstore\n      0x04\n      add\n      tag_270\n      swap1\n      tag_168\n      jump\t// in\n    tag_270:\n      mload(0x40)\n      dup1\n      swap2\n      sub\n      swap1\n      revert\n    tag_269:\n        /* \"Lossless_create2-main/contracts/utils/LERC20.sol\":4146:4147  0 */\n      0x00\n        /* \"Lossless_create2-main/contracts/utils/LERC20.sol\":4118:4142  losslessTurnOffTimestamp */\n      sload(0x0a)\n        /* \"Lossless_create2-main/contracts/utils/LERC20.sol\":4118:4147  losslessTurnOffTimestamp == 0 */\n      eq\n        /* \"Lossless_create2-main/contracts/utils/LERC20.sol\":4110:4184  require(losslessTurnOffTimestamp == 0, \"LERC20: TurnOff already proposed\") */\n      tag_272\n      jumpi\n      mload(0x40)\n      0x08c379a000000000000000000000000000000000000000000000000000000000\n      dup2\n      mstore\n      0x04\n      add\n      tag_273\n      swap1\n      tag_274\n      jump\t// in\n    tag_273:\n      mload(0x40)\n      dup1\n      swap2\n      sub\n      swap1\n      revert\n    tag_272:\n        /* \"Lossless_create2-main/contracts/utils/LERC20.sol\":4202:4214  isLosslessOn */\n      0x0b\n      0x00\n      swap1\n      sload\n      swap1\n      0x0100\n      exp\n      swap1\n      div\n      0xff\n      and\n        /* \"Lossless_create2-main/contracts/utils/LERC20.sol\":4194:4247  require(isLosslessOn, \"LERC20: Lossless already off\") */\n      tag_275\n      jumpi\n      mload(0x40)\n      0x08c379a000000000000000000000000000000000000000000000000000000000\n      dup2\n      mstore\n      0x04\n      add\n      tag_276\n      swap1\n      tag_277\n      jump\t// in\n    tag_276:\n      mload(0x40)\n      dup1\n      swap2\n      sub\n      swap1\n      revert\n    tag_275:\n        /* \"Lossless_create2-main/contracts/utils/LERC20.sol\":4302:4316  timelockPeriod */\n      sload(0x09)\n        /* \"Lossless_create2-main/contracts/utils/LERC20.sol\":4284:4299  block.timestamp */\n      timestamp\n        /* \"Lossless_create2-main/contracts/utils/LERC20.sol\":4284:4316  block.timestamp + timelockPeriod */\n      tag_278\n      swap2\n      swap1\n      tag_186\n      jump\t// in\n    tag_278:\n        /* \"Lossless_create2-main/contracts/utils/LERC20.sol\":4257:4281  losslessTurnOffTimestamp */\n      0x0a\n        /* \"Lossless_create2-main/contracts/utils/LERC20.sol\":4257:4316  losslessTurnOffTimestamp = block.timestamp + timelockPeriod */\n      dup2\n      swap1\n      sstore\n      pop\n        /* \"Lossless_create2-main/contracts/utils/LERC20.sol\":4331:4380  LosslessTurnOffProposal(losslessTurnOffTimestamp) */\n      0x6ca688e6e3ddd707280140b2bf0106afe883689b6c74e68cbd517576dd9c245a\n        /* \"Lossless_create2-main/contracts/utils/LERC20.sol\":4355:4379  losslessTurnOffTimestamp */\n      sload(0x0a)\n        /* \"Lossless_create2-main/contracts/utils/LERC20.sol\":4331:4380  LosslessTurnOffProposal(losslessTurnOffTimestamp) */\n      mload(0x40)\n      tag_279\n      swap2\n      swap1\n      tag_45\n      jump\t// in\n    tag_279:\n      mload(0x40)\n      dup1\n      swap2\n      sub\n      swap1\n      log1\n        /* \"Lossless_create2-main/contracts/utils/LERC20.sol\":4030:4387  function proposeLosslessTurnOff() override external onlyRecoveryAdmin {... */\n      jump\t// out\n        /* \"Lossless_create2-main/contracts/utils/LERC20.sol\":5879:6028  function allowance(address owner, address spender) public view virtual override returns (uint256) {... */\n    tag_119:\n        /* \"Lossless_create2-main/contracts/utils/LERC20.sol\":5968:5975  uint256 */\n      0x00\n        /* \"Lossless_create2-main/contracts/utils/LERC20.sol\":5994:6005  _allowances */\n      0x01\n        /* \"Lossless_create2-main/contracts/utils/LERC20.sol\":5994:6012  _allowances[owner] */\n      0x00\n        /* \"Lossless_create2-main/contracts/utils/LERC20.sol\":6006:6011  owner */\n      dup5\n        /* \"Lossless_create2-main/contracts/utils/LERC20.sol\":5994:6012  _allowances[owner] */\n      0xffffffffffffffffffffffffffffffffffffffff\n      and\n      0xffffffffffffffffffffffffffffffffffffffff\n      and\n      dup2\n      mstore\n      0x20\n      add\n      swap1\n      dup2\n      mstore\n      0x20\n      add\n      0x00\n      keccak256\n        /* \"Lossless_create2-main/contracts/utils/LERC20.sol\":5994:6021  _allowances[owner][spender] */\n      0x00\n        /* \"Lossless_create2-main/contracts/utils/LERC20.sol\":6013:6020  spender */\n      dup4\n        /* \"Lossless_create2-main/contracts/utils/LERC20.sol\":5994:6021  _allowances[owner][spender] */\n      0xffffffffffffffffffffffffffffffffffffffff\n      and\n      0xffffffffffffffffffffffffffffffffffffffff\n      and\n      dup2\n      mstore\n      0x20\n      add\n      swap1\n      dup2\n      mstore\n      0x20\n      add\n      0x00\n      keccak256\n      sload\n        /* \"Lossless_create2-main/contracts/utils/LERC20.sol\":5987:6021  return _allowances[owner][spender] */\n      swap1\n      pop\n        /* \"Lossless_create2-main/contracts/utils/LERC20.sol\":5879:6028  function allowance(address owner, address spender) public view virtual override returns (uint256) {... */\n      swap3\n      swap2\n      pop\n      pop\n      jump\t// out\n        /* \"Lossless_create2-main/contracts/utils/LERC20.sol\":557:586  address override public admin */\n    tag_122:\n      0x08\n      0x00\n      swap1\n      sload\n      swap1\n      0x0100\n      exp\n      swap1\n      div\n      0xffffffffffffffffffffffffffffffffffffffff\n      and\n      dup2\n      jump\t// out\n        /* \"Lossless_create2-main/contracts/utils/Context.sol\":93:189  function _msgSender() internal view virtual returns (address) {... */\n    tag_134:\n        /* \"Lossless_create2-main/contracts/utils/Context.sol\":146:153  address */\n      0x00\n        /* \"Lossless_create2-main/contracts/utils/Context.sol\":172:182  msg.sender */\n      caller\n        /* \"Lossless_create2-main/contracts/utils/Context.sol\":165:182  return msg.sender */\n      swap1\n      pop\n        /* \"Lossless_create2-main/contracts/utils/Context.sol\":93:189  function _msgSender() internal view virtual returns (address) {... */\n      swap1\n      jump\t// out\n        /* \"Lossless_create2-main/contracts/utils/LERC20.sol\":8760:8943  function _approve(address owner, address spender, uint256 amount) internal virtual {... */\n    tag_143:\n        /* \"Lossless_create2-main/contracts/utils/LERC20.sol\":8883:8889  amount */\n      dup1\n        /* \"Lossless_create2-main/contracts/utils/LERC20.sol\":8853:8864  _allowances */\n      0x01\n        /* \"Lossless_create2-main/contracts/utils/LERC20.sol\":8853:8871  _allowances[owner] */\n      0x00\n        /* \"Lossless_create2-main/contracts/utils/LERC20.sol\":8865:8870  owner */\n      dup6\n        /* \"Lossless_create2-main/contracts/utils/LERC20.sol\":8853:8871  _allowances[owner] */\n      0xffffffffffffffffffffffffffffffffffffffff\n      and\n      0xffffffffffffffffffffffffffffffffffffffff\n      and\n      dup2\n      mstore\n      0x20\n      add\n      swap1\n      dup2\n      mstore\n      0x20\n      add\n      0x00\n      keccak256\n        /* \"Lossless_create2-main/contracts/utils/LERC20.sol\":8853:8880  _allowances[owner][spender] */\n      0x00\n        /* \"Lossless_create2-main/contracts/utils/LERC20.sol\":8872:8879  spender */\n      dup5\n        /* \"Lossless_create2-main/contracts/utils/LERC20.sol\":8853:8880  _allowances[owner][spender] */\n      0xffffffffffffffffffffffffffffffffffffffff\n      and\n      0xffffffffffffffffffffffffffffffffffffffff\n      and\n      dup2\n      mstore\n      0x20\n      add\n      swap1\n      dup2\n      mstore\n      0x20\n      add\n      0x00\n      keccak256\n        /* \"Lossless_create2-main/contracts/utils/LERC20.sol\":8853:8889  _allowances[owner][spender] = amount */\n      dup2\n      swap1\n      sstore\n      pop\n        /* \"Lossless_create2-main/contracts/utils/LERC20.sol\":8920:8927  spender */\n      dup2\n        /* \"Lossless_create2-main/contracts/utils/LERC20.sol\":8904:8936  Approval(owner, spender, amount) */\n      0xffffffffffffffffffffffffffffffffffffffff\n      and\n        /* \"Lossless_create2-main/contracts/utils/LERC20.sol\":8913:8918  owner */\n      dup4\n        /* \"Lossless_create2-main/contracts/utils/LERC20.sol\":8904:8936  Approval(owner, spender, amount) */\n      0xffffffffffffffffffffffffffffffffffffffff\n      and\n      0x8c5be1e5ebec7d5bd14f71427d1e84f3dd0314c0f7b2291e5b200ac8c7c3b925\n        /* \"Lossless_create2-main/contracts/utils/LERC20.sol\":8929:8935  amount */\n      dup4\n        /* \"Lossless_create2-main/contracts/utils/LERC20.sol\":8904:8936  Approval(owner, spender, amount) */\n      mload(0x40)\n      tag_283\n      swap2\n      swap1\n      tag_45\n      jump\t// in\n    tag_283:\n      mload(0x40)\n      dup1\n      swap2\n      sub\n      swap1\n      log3\n        /* \"Lossless_create2-main/contracts/utils/LERC20.sol\":8760:8943  function _approve(address owner, address spender, uint256 amount) internal virtual {... */\n      pop\n      pop\n      pop\n      jump\t// out\n        /* \"Lossless_create2-main/contracts/utils/LERC20.sol\":7408:7863  function _transfer(address sender, address recipient, uint256 amount) internal virtual {... */\n    tag_159:\n        /* \"Lossless_create2-main/contracts/utils/LERC20.sol\":7531:7532  0 */\n      0x00\n        /* \"Lossless_create2-main/contracts/utils/LERC20.sol\":7513:7533  sender != address(0) */\n      0xffffffffffffffffffffffffffffffffffffffff\n      and\n        /* \"Lossless_create2-main/contracts/utils/LERC20.sol\":7513:7519  sender */\n      dup4\n        /* \"Lossless_create2-main/contracts/utils/LERC20.sol\":7513:7533  sender != address(0) */\n      0xffffffffffffffffffffffffffffffffffffffff\n      and\n      eq\n      iszero\n        /* \"Lossless_create2-main/contracts/utils/LERC20.sol\":7505:7576  require(sender != address(0), \"LERC20: transfer from the zero address\") */\n      tag_285\n      jumpi\n      mload(0x40)\n      0x08c379a000000000000000000000000000000000000000000000000000000000\n      dup2\n      mstore\n      0x04\n      add\n      tag_286\n      swap1\n      tag_287\n      jump\t// in\n    tag_286:\n      mload(0x40)\n      dup1\n      swap2\n      sub\n      swap1\n      revert\n    tag_285:\n        /* \"Lossless_create2-main/contracts/utils/LERC20.sol\":7587:7608  uint256 senderBalance */\n      0x00\n        /* \"Lossless_create2-main/contracts/utils/LERC20.sol\":7611:7620  _balances */\n      dup1\n        /* \"Lossless_create2-main/contracts/utils/LERC20.sol\":7611:7628  _balances[sender] */\n      0x00\n        /* \"Lossless_create2-main/contracts/utils/LERC20.sol\":7621:7627  sender */\n      dup6\n        /* \"Lossless_create2-main/contracts/utils/LERC20.sol\":7611:7628  _balances[sender] */\n      0xffffffffffffffffffffffffffffffffffffffff\n      and\n      0xffffffffffffffffffffffffffffffffffffffff\n      and\n      dup2\n      mstore\n      0x20\n      add\n      swap1\n      dup2\n      mstore\n      0x20\n      add\n      0x00\n      keccak256\n      sload\n        /* \"Lossless_create2-main/contracts/utils/LERC20.sol\":7587:7628  uint256 senderBalance = _balances[sender] */\n      swap1\n      pop\n        /* \"Lossless_create2-main/contracts/utils/LERC20.sol\":7663:7669  amount */\n      dup2\n        /* \"Lossless_create2-main/contracts/utils/LERC20.sol\":7646:7659  senderBalance */\n      dup2\n        /* \"Lossless_create2-main/contracts/utils/LERC20.sol\":7646:7669  senderBalance >= amount */\n      lt\n      iszero\n        /* \"Lossless_create2-main/contracts/utils/LERC20.sol\":7638:7713  require(senderBalance >= amount, \"LERC20: transfer amount exceeds balance\") */\n      tag_288\n      jumpi\n      mload(0x40)\n      0x08c379a000000000000000000000000000000000000000000000000000000000\n      dup2\n      mstore\n      0x04\n      add\n      tag_289\n      swap1\n      tag_290\n      jump\t// in\n    tag_289:\n      mload(0x40)\n      dup1\n      swap2\n      sub\n      swap1\n      revert\n    tag_288:\n        /* \"Lossless_create2-main/contracts/utils/LERC20.sol\":7759:7765  amount */\n      dup2\n        /* \"Lossless_create2-main/contracts/utils/LERC20.sol\":7743:7756  senderBalance */\n      dup2\n        /* \"Lossless_create2-main/contracts/utils/LERC20.sol\":7743:7765  senderBalance - amount */\n      tag_291\n      swap2\n      swap1\n      tag_163\n      jump\t// in\n    tag_291:\n        /* \"Lossless_create2-main/contracts/utils/LERC20.sol\":7723:7732  _balances */\n      0x00\n        /* \"Lossless_create2-main/contracts/utils/LERC20.sol\":7723:7740  _balances[sender] */\n      dup1\n        /* \"Lossless_create2-main/contracts/utils/LERC20.sol\":7733:7739  sender */\n      dup7\n        /* \"Lossless_create2-main/contracts/utils/LERC20.sol\":7723:7740  _balances[sender] */\n      0xffffffffffffffffffffffffffffffffffffffff\n      and\n      0xffffffffffffffffffffffffffffffffffffffff\n      and\n      dup2\n      mstore\n      0x20\n      add\n      swap1\n      dup2\n      mstore\n      0x20\n      add\n      0x00\n      keccak256\n        /* \"Lossless_create2-main/contracts/utils/LERC20.sol\":7723:7765  _balances[sender] = senderBalance - amount */\n      dup2\n      swap1\n      sstore\n      pop\n        /* \"Lossless_create2-main/contracts/utils/LERC20.sol\":7799:7805  amount */\n      dup2\n        /* \"Lossless_create2-main/contracts/utils/LERC20.sol\":7775:7784  _balances */\n      0x00\n        /* \"Lossless_create2-main/contracts/utils/LERC20.sol\":7775:7795  _balances[recipient] */\n      dup1\n        /* \"Lossless_create2-main/contracts/utils/LERC20.sol\":7785:7794  recipient */\n      dup6\n        /* \"Lossless_create2-main/contracts/utils/LERC20.sol\":7775:7795  _balances[recipient] */\n      0xffffffffffffffffffffffffffffffffffffffff\n      and\n      0xffffffffffffffffffffffffffffffffffffffff\n      and\n      dup2\n      mstore\n      0x20\n      add\n      swap1\n      dup2\n      mstore\n      0x20\n      add\n      0x00\n      keccak256\n      0x00\n        /* \"Lossless_create2-main/contracts/utils/LERC20.sol\":7775:7805  _balances[recipient] += amount */\n      dup3\n      dup3\n      sload\n      tag_292\n      swap2\n      swap1\n      tag_186\n      jump\t// in\n    tag_292:\n      swap3\n      pop\n      pop\n      dup2\n      swap1\n      sstore\n      pop\n        /* \"Lossless_create2-main/contracts/utils/LERC20.sol\":7838:7847  recipient */\n      dup3\n        /* \"Lossless_create2-main/contracts/utils/LERC20.sol\":7821:7856  Transfer(sender, recipient, amount) */\n      0xffffffffffffffffffffffffffffffffffffffff\n      and\n        /* \"Lossless_create2-main/contracts/utils/LERC20.sol\":7830:7836  sender */\n      dup5\n        /* \"Lossless_create2-main/contracts/utils/LERC20.sol\":7821:7856  Transfer(sender, recipient, amount) */\n      0xffffffffffffffffffffffffffffffffffffffff\n      and\n      0xddf252ad1be2c89b69c2b068fc378daa952ba7f163c4a11628f55a4df523b3ef\n        /* \"Lossless_create2-main/contracts/utils/LERC20.sol\":7849:7855  amount */\n      dup5\n        /* \"Lossless_create2-main/contracts/utils/LERC20.sol\":7821:7856  Transfer(sender, recipient, amount) */\n      mload(0x40)\n      tag_293\n      swap2\n      swap1\n      tag_45\n      jump\t// in\n    tag_293:\n      mload(0x40)\n      dup1\n      swap2\n      sub\n      swap1\n      log3\n        /* \"Lossless_create2-main/contracts/utils/LERC20.sol\":7408:7863  function _transfer(address sender, address recipient, uint256 amount) internal virtual {... */\n      pop\n      pop\n      pop\n      pop\n      jump\t// out\n        /* \"#utility.yul\":7:350   */\n    tag_295:\n        /* \"#utility.yul\":84:89   */\n      0x00\n        /* \"#utility.yul\":109:174   */\n      tag_297\n        /* \"#utility.yul\":125:173   */\n      tag_298\n        /* \"#utility.yul\":166:172   */\n      dup5\n        /* \"#utility.yul\":125:173   */\n      tag_299\n      jump\t// in\n    tag_298:\n        /* \"#utility.yul\":109:174   */\n      tag_300\n      jump\t// in\n    tag_297:\n        /* \"#utility.yul\":100:174   */\n      swap1\n      pop\n        /* \"#utility.yul\":197:203   */\n      dup3\n        /* \"#utility.yul\":190:195   */\n      dup2\n        /* \"#utility.yul\":183:204   */\n      mstore\n        /* \"#utility.yul\":235:239   */\n      0x20\n        /* \"#utility.yul\":228:233   */\n      dup2\n        /* \"#utility.yul\":224:240   */\n      add\n        /* \"#utility.yul\":273:276   */\n      dup5\n        /* \"#utility.yul\":264:270   */\n      dup5\n        /* \"#utility.yul\":259:262   */\n      dup5\n        /* \"#utility.yul\":255:271   */\n      add\n        /* \"#utility.yul\":252:277   */\n      gt\n        /* \"#utility.yul\":249:251   */\n      iszero\n      tag_301\n      jumpi\n        /* \"#utility.yul\":290:291   */\n      0x00\n        /* \"#utility.yul\":287:288   */\n      dup1\n        /* \"#utility.yul\":280:292   */\n      revert\n        /* \"#utility.yul\":249:251   */\n    tag_301:\n        /* \"#utility.yul\":303:344   */\n      tag_302\n        /* \"#utility.yul\":337:343   */\n      dup5\n        /* \"#utility.yul\":332:335   */\n      dup3\n        /* \"#utility.yul\":327:330   */\n      dup6\n        /* \"#utility.yul\":303:344   */\n      tag_303\n      jump\t// in\n    tag_302:\n        /* \"#utility.yul\":90:350   */\n      pop\n      swap4\n      swap3\n      pop\n      pop\n      pop\n      jump\t// out\n        /* \"#utility.yul\":356:495   */\n    tag_304:\n        /* \"#utility.yul\":402:407   */\n      0x00\n        /* \"#utility.yul\":440:446   */\n      dup2\n        /* \"#utility.yul\":427:447   */\n      calldataload\n        /* \"#utility.yul\":418:447   */\n      swap1\n      pop\n        /* \"#utility.yul\":456:489   */\n      tag_306\n        /* \"#utility.yul\":483:488   */\n      dup2\n        /* \"#utility.yul\":456:489   */\n      tag_307\n      jump\t// in\n    tag_306:\n        /* \"#utility.yul\":408:495   */\n      swap3\n      swap2\n      pop\n      pop\n      jump\t// out\n        /* \"#utility.yul\":518:885   */\n    tag_308:\n        /* \"#utility.yul\":591:599   */\n      0x00\n        /* \"#utility.yul\":601:607   */\n      dup1\n        /* \"#utility.yul\":651:654   */\n      dup4\n        /* \"#utility.yul\":644:648   */\n      0x1f\n        /* \"#utility.yul\":636:642   */\n      dup5\n        /* \"#utility.yul\":632:649   */\n      add\n        /* \"#utility.yul\":628:655   */\n      slt\n        /* \"#utility.yul\":618:620   */\n      tag_310\n      jumpi\n        /* \"#utility.yul\":669:670   */\n      0x00\n        /* \"#utility.yul\":666:667   */\n      dup1\n        /* \"#utility.yul\":659:671   */\n      revert\n        /* \"#utility.yul\":618:620   */\n    tag_310:\n        /* \"#utility.yul\":705:711   */\n      dup3\n        /* \"#utility.yul\":692:712   */\n      calldataload\n        /* \"#utility.yul\":682:712   */\n      swap1\n      pop\n        /* \"#utility.yul\":735:753   */\n      0xffffffffffffffff\n        /* \"#utility.yul\":727:733   */\n      dup2\n        /* \"#utility.yul\":724:754   */\n      gt\n        /* \"#utility.yul\":721:723   */\n      iszero\n      tag_311\n      jumpi\n        /* \"#utility.yul\":767:768   */\n      0x00\n        /* \"#utility.yul\":764:765   */\n      dup1\n        /* \"#utility.yul\":757:769   */\n      revert\n        /* \"#utility.yul\":721:723   */\n    tag_311:\n        /* \"#utility.yul\":804:808   */\n      0x20\n        /* \"#utility.yul\":796:802   */\n      dup4\n        /* \"#utility.yul\":792:809   */\n      add\n        /* \"#utility.yul\":780:809   */\n      swap2\n      pop\n        /* \"#utility.yul\":858:861   */\n      dup4\n        /* \"#utility.yul\":850:854   */\n      0x20\n        /* \"#utility.yul\":842:848   */\n      dup3\n        /* \"#utility.yul\":838:855   */\n      mul\n        /* \"#utility.yul\":828:836   */\n      dup4\n        /* \"#utility.yul\":824:856   */\n      add\n        /* \"#utility.yul\":821:862   */\n      gt\n        /* \"#utility.yul\":818:820   */\n      iszero\n      tag_312\n      jumpi\n        /* \"#utility.yul\":875:876   */\n      0x00\n        /* \"#utility.yul\":872:873   */\n      dup1\n        /* \"#utility.yul\":865:877   */\n      revert\n        /* \"#utility.yul\":818:820   */\n    tag_312:\n        /* \"#utility.yul\":608:885   */\n      swap3\n      pop\n      swap3\n      swap1\n      pop\n      jump\t// out\n        /* \"#utility.yul\":891:1030   */\n    tag_313:\n        /* \"#utility.yul\":937:942   */\n      0x00\n        /* \"#utility.yul\":975:981   */\n      dup2\n        /* \"#utility.yul\":962:982   */\n      calldataload\n        /* \"#utility.yul\":953:982   */\n      swap1\n      pop\n        /* \"#utility.yul\":991:1024   */\n      tag_315\n        /* \"#utility.yul\":1018:1023   */\n      dup2\n        /* \"#utility.yul\":991:1024   */\n      tag_316\n      jump\t// in\n    tag_315:\n        /* \"#utility.yul\":943:1030   */\n      swap3\n      swap2\n      pop\n      pop\n      jump\t// out\n        /* \"#utility.yul\":1049:1320   */\n    tag_317:\n        /* \"#utility.yul\":1104:1109   */\n      0x00\n        /* \"#utility.yul\":1153:1156   */\n      dup3\n        /* \"#utility.yul\":1146:1150   */\n      0x1f\n        /* \"#utility.yul\":1138:1144   */\n      dup4\n        /* \"#utility.yul\":1134:1151   */\n      add\n        /* \"#utility.yul\":1130:1157   */\n      slt\n        /* \"#utility.yul\":1120:1122   */\n      tag_319\n      jumpi\n        /* \"#utility.yul\":1171:1172   */\n      0x00\n        /* \"#utility.yul\":1168:1169   */\n      dup1\n        /* \"#utility.yul\":1161:1173   */\n      revert\n        /* \"#utility.yul\":1120:1122   */\n    tag_319:\n        /* \"#utility.yul\":1211:1217   */\n      dup2\n        /* \"#utility.yul\":1198:1218   */\n      calldataload\n        /* \"#utility.yul\":1236:1314   */\n      tag_320\n        /* \"#utility.yul\":1310:1313   */\n      dup5\n        /* \"#utility.yul\":1302:1308   */\n      dup3\n        /* \"#utility.yul\":1295:1299   */\n      0x20\n        /* \"#utility.yul\":1287:1293   */\n      dup7\n        /* \"#utility.yul\":1283:1300   */\n      add\n        /* \"#utility.yul\":1236:1314   */\n      tag_295\n      jump\t// in\n    tag_320:\n        /* \"#utility.yul\":1227:1314   */\n      swap2\n      pop\n        /* \"#utility.yul\":1110:1320   */\n      pop\n      swap3\n      swap2\n      pop\n      pop\n      jump\t// out\n        /* \"#utility.yul\":1326:1465   */\n    tag_321:\n        /* \"#utility.yul\":1372:1377   */\n      0x00\n        /* \"#utility.yul\":1410:1416   */\n      dup2\n        /* \"#utility.yul\":1397:1417   */\n      calldataload\n        /* \"#utility.yul\":1388:1417   */\n      swap1\n      pop\n        /* \"#utility.yul\":1426:1459   */\n      tag_323\n        /* \"#utility.yul\":1453:1458   */\n      dup2\n        /* \"#utility.yul\":1426:1459   */\n      tag_324\n      jump\t// in\n    tag_323:\n        /* \"#utility.yul\":1378:1465   */\n      swap3\n      swap2\n      pop\n      pop\n      jump\t// out\n        /* \"#utility.yul\":1471:1733   */\n    tag_53:\n        /* \"#utility.yul\":1530:1536   */\n      0x00\n        /* \"#utility.yul\":1579:1581   */\n      0x20\n        /* \"#utility.yul\":1567:1576   */\n      dup3\n        /* \"#utility.yul\":1558:1565   */\n      dup5\n        /* \"#utility.yul\":1554:1577   */\n      sub\n        /* \"#utility.yul\":1550:1582   */\n      slt\n        /* \"#utility.yul\":1547:1549   */\n      iszero\n      tag_326\n      jumpi\n        /* \"#utility.yul\":1595:1596   */\n      0x00\n        /* \"#utility.yul\":1592:1593   */\n      dup1\n        /* \"#utility.yul\":1585:1597   */\n      revert\n        /* \"#utility.yul\":1547:1549   */\n    tag_326:\n        /* \"#utility.yul\":1638:1639   */\n      0x00\n        /* \"#utility.yul\":1663:1716   */\n      tag_327\n        /* \"#utility.yul\":1708:1715   */\n      dup5\n        /* \"#utility.yul\":1699:1705   */\n      dup3\n        /* \"#utility.yul\":1688:1697   */\n      dup6\n        /* \"#utility.yul\":1684:1706   */\n      add\n        /* \"#utility.yul\":1663:1716   */\n      tag_304\n      jump\t// in\n    tag_327:\n        /* \"#utility.yul\":1653:1716   */\n      swap2\n      pop\n        /* \"#utility.yul\":1609:1726   */\n      pop\n        /* \"#utility.yul\":1537:1733   */\n      swap3\n      swap2\n      pop\n      pop\n      jump\t// out\n        /* \"#utility.yul\":1739:2146   */\n    tag_118:\n        /* \"#utility.yul\":1807:1813   */\n      0x00\n        /* \"#utility.yul\":1815:1821   */\n      dup1\n        /* \"#utility.yul\":1864:1866   */\n      0x40\n        /* \"#utility.yul\":1852:1861   */\n      dup4\n        /* \"#utility.yul\":1843:1850   */\n      dup6\n        /* \"#utility.yul\":1839:1862   */\n      sub\n        /* \"#utility.yul\":1835:1867   */\n      slt\n        /* \"#utility.yul\":1832:1834   */\n      iszero\n      tag_329\n      jumpi\n        /* \"#utility.yul\":1880:1881   */\n      0x00\n        /* \"#utility.yul\":1877:1878   */\n      dup1\n        /* \"#utility.yul\":1870:1882   */\n      revert\n        /* \"#utility.yul\":1832:1834   */\n    tag_329:\n        /* \"#utility.yul\":1923:1924   */\n      0x00\n        /* \"#utility.yul\":1948:2001   */\n      tag_330\n        /* \"#utility.yul\":1993:2000   */\n      dup6\n        /* \"#utility.yul\":1984:1990   */\n      dup3\n        /* \"#utility.yul\":1973:1982   */\n      dup7\n        /* \"#utility.yul\":1969:1991   */\n      add\n        /* \"#utility.yul\":1948:2001   */\n      tag_304\n      jump\t// in\n    tag_330:\n        /* \"#utility.yul\":1938:2001   */\n      swap3\n      pop\n        /* \"#utility.yul\":1894:2011   */\n      pop\n        /* \"#utility.yul\":2050:2052   */\n      0x20\n        /* \"#utility.yul\":2076:2129   */\n      tag_331\n        /* \"#utility.yul\":2121:2128   */\n      dup6\n        /* \"#utility.yul\":2112:2118   */\n      dup3\n        /* \"#utility.yul\":2101:2110   */\n      dup7\n        /* \"#utility.yul\":2097:2119   */\n      add\n        /* \"#utility.yul\":2076:2129   */\n      tag_304\n      jump\t// in\n    tag_331:\n        /* \"#utility.yul\":2066:2129   */\n      swap2\n      pop\n        /* \"#utility.yul\":2021:2139   */\n      pop\n        /* \"#utility.yul\":1822:2146   */\n      swap3\n      pop\n      swap3\n      swap1\n      pop\n      jump\t// out\n        /* \"#utility.yul\":2152:2704   */\n    tag_48:\n        /* \"#utility.yul\":2229:2235   */\n      0x00\n        /* \"#utility.yul\":2237:2243   */\n      dup1\n        /* \"#utility.yul\":2245:2251   */\n      0x00\n        /* \"#utility.yul\":2294:2296   */\n      0x60\n        /* \"#utility.yul\":2282:2291   */\n      dup5\n        /* \"#utility.yul\":2273:2280   */\n      dup7\n        /* \"#utility.yul\":2269:2292   */\n      sub\n        /* \"#utility.yul\":2265:2297   */\n      slt\n        /* \"#utility.yul\":2262:2264   */\n      iszero\n      tag_333\n      jumpi\n        /* \"#utility.yul\":2310:2311   */\n      0x00\n        /* \"#utility.yul\":2307:2308   */\n      dup1\n        /* \"#utility.yul\":2300:2312   */\n      revert\n        /* \"#utility.yul\":2262:2264   */\n    tag_333:\n        /* \"#utility.yul\":2353:2354   */\n      0x00\n        /* \"#utility.yul\":2378:2431   */\n      tag_334\n        /* \"#utility.yul\":2423:2430   */\n      dup7\n        /* \"#utility.yul\":2414:2420   */\n      dup3\n        /* \"#utility.yul\":2403:2412   */\n      dup8\n        /* \"#utility.yul\":2399:2421   */\n      add\n        /* \"#utility.yul\":2378:2431   */\n      tag_304\n      jump\t// in\n    tag_334:\n        /* \"#utility.yul\":2368:2431   */\n      swap4\n      pop\n        /* \"#utility.yul\":2324:2441   */\n      pop\n        /* \"#utility.yul\":2480:2482   */\n      0x20\n        /* \"#utility.yul\":2506:2559   */\n      tag_335\n        /* \"#utility.yul\":2551:2558   */\n      dup7\n        /* \"#utility.yul\":2542:2548   */\n      dup3\n        /* \"#utility.yul\":2531:2540   */\n      dup8\n        /* \"#utility.yul\":2527:2549   */\n      add\n        /* \"#utility.yul\":2506:2559   */\n      tag_304\n      jump\t// in\n    tag_335:\n        /* \"#utility.yul\":2496:2559   */\n      swap3\n      pop\n        /* \"#utility.yul\":2451:2569   */\n      pop\n        /* \"#utility.yul\":2608:2610   */\n      0x40\n        /* \"#utility.yul\":2634:2687   */\n      tag_336\n        /* \"#utility.yul\":2679:2686   */\n      dup7\n        /* \"#utility.yul\":2670:2676   */\n      dup3\n        /* \"#utility.yul\":2659:2668   */\n      dup8\n        /* \"#utility.yul\":2655:2677   */\n      add\n        /* \"#utility.yul\":2634:2687   */\n      tag_321\n      jump\t// in\n    tag_336:\n        /* \"#utility.yul\":2624:2687   */\n      swap2\n      pop\n        /* \"#utility.yul\":2579:2697   */\n      pop\n        /* \"#utility.yul\":2252:2704   */\n      swap3\n      pop\n      swap3\n      pop\n      swap3\n      jump\t// out\n        /* \"#utility.yul\":2710:3117   */\n    tag_88:\n        /* \"#utility.yul\":2778:2784   */\n      0x00\n        /* \"#utility.yul\":2786:2792   */\n      dup1\n        /* \"#utility.yul\":2835:2837   */\n      0x40\n        /* \"#utility.yul\":2823:2832   */\n      dup4\n        /* \"#utility.yul\":2814:2821   */\n      dup6\n        /* \"#utility.yul\":2810:2833   */\n      sub\n        /* \"#utility.yul\":2806:2838   */\n      slt\n        /* \"#utility.yul\":2803:2805   */\n      iszero\n      tag_338\n      jumpi\n        /* \"#utility.yul\":2851:2852   */\n      0x00\n        /* \"#utility.yul\":2848:2849   */\n      dup1\n        /* \"#utility.yul\":2841:2853   */\n      revert\n        /* \"#utility.yul\":2803:2805   */\n    tag_338:\n        /* \"#utility.yul\":2894:2895   */\n      0x00\n        /* \"#utility.yul\":2919:2972   */\n      tag_339\n        /* \"#utility.yul\":2964:2971   */\n      dup6\n        /* \"#utility.yul\":2955:2961   */\n      dup3\n        /* \"#utility.yul\":2944:2953   */\n      dup7\n        /* \"#utility.yul\":2940:2962   */\n      add\n        /* \"#utility.yul\":2919:2972   */\n      tag_304\n      jump\t// in\n    tag_339:\n        /* \"#utility.yul\":2909:2972   */\n      swap3\n      pop\n        /* \"#utility.yul\":2865:2982   */\n      pop\n        /* \"#utility.yul\":3021:3023   */\n      0x20\n        /* \"#utility.yul\":3047:3100   */\n      tag_340\n        /* \"#utility.yul\":3092:3099   */\n      dup6\n        /* \"#utility.yul\":3083:3089   */\n      dup3\n        /* \"#utility.yul\":3072:3081   */\n      dup7\n        /* \"#utility.yul\":3068:3090   */\n      add\n        /* \"#utility.yul\":3047:3100   */\n      tag_313\n      jump\t// in\n    tag_340:\n        /* \"#utility.yul\":3037:3100   */\n      swap2\n      pop\n        /* \"#utility.yul\":2992:3110   */\n      pop\n        /* \"#utility.yul\":2793:3117   */\n      swap3\n      pop\n      swap3\n      swap1\n      pop\n      jump\t// out\n        /* \"#utility.yul\":3123:3530   */\n    tag_38:\n        /* \"#utility.yul\":3191:3197   */\n      0x00\n        /* \"#utility.yul\":3199:3205   */\n      dup1\n        /* \"#utility.yul\":3248:3250   */\n      0x40\n        /* \"#utility.yul\":3236:3245   */\n      dup4\n        /* \"#utility.yul\":3227:3234   */\n      dup6\n        /* \"#utility.yul\":3223:3246   */\n      sub\n        /* \"#utility.yul\":3219:3251   */\n      slt\n        /* \"#utility.yul\":3216:3218   */\n      iszero\n      tag_342\n      jumpi\n        /* \"#utility.yul\":3264:3265   */\n      0x00\n        /* \"#utility.yul\":3261:3262   */\n      dup1\n        /* \"#utility.yul\":3254:3266   */\n      revert\n        /* \"#utility.yul\":3216:3218   */\n    tag_342:\n        /* \"#utility.yul\":3307:3308   */\n      0x00\n        /* \"#utility.yul\":3332:3385   */\n      tag_343\n        /* \"#utility.yul\":3377:3384   */\n      dup6\n        /* \"#utility.yul\":3368:3374   */\n      dup3\n        /* \"#utility.yul\":3357:3366   */\n      dup7\n        /* \"#utility.yul\":3353:3375   */\n      add\n        /* \"#utility.yul\":3332:3385   */\n      tag_304\n      jump\t// in\n    tag_343:\n        /* \"#utility.yul\":3322:3385   */\n      swap3\n      pop\n        /* \"#utility.yul\":3278:3395   */\n      pop\n        /* \"#utility.yul\":3434:3436   */\n      0x20\n        /* \"#utility.yul\":3460:3513   */\n      tag_344\n        /* \"#utility.yul\":3505:3512   */\n      dup6\n        /* \"#utility.yul\":3496:3502   */\n      dup3\n        /* \"#utility.yul\":3485:3494   */\n      dup7\n        /* \"#utility.yul\":3481:3503   */\n      add\n        /* \"#utility.yul\":3460:3513   */\n      tag_321\n      jump\t// in\n    tag_344:\n        /* \"#utility.yul\":3450:3513   */\n      swap2\n      pop\n        /* \"#utility.yul\":3405:3523   */\n      pop\n        /* \"#utility.yul\":3206:3530   */\n      swap3\n      pop\n      swap3\n      swap1\n      pop\n      jump\t// out\n        /* \"#utility.yul\":3536:3961   */\n    tag_92:\n        /* \"#utility.yul\":3622:3628   */\n      0x00\n        /* \"#utility.yul\":3630:3636   */\n      dup1\n        /* \"#utility.yul\":3679:3681   */\n      0x20\n        /* \"#utility.yul\":3667:3676   */\n      dup4\n        /* \"#utility.yul\":3658:3665   */\n      dup6\n        /* \"#utility.yul\":3654:3677   */\n      sub\n        /* \"#utility.yul\":3650:3682   */\n      slt\n        /* \"#utility.yul\":3647:3649   */\n      iszero\n      tag_346\n      jumpi\n        /* \"#utility.yul\":3695:3696   */\n      0x00\n        /* \"#utility.yul\":3692:3693   */\n      dup1\n        /* \"#utility.yul\":3685:3697   */\n      revert\n        /* \"#utility.yul\":3647:3649   */\n    tag_346:\n        /* \"#utility.yul\":3766:3767   */\n      0x00\n        /* \"#utility.yul\":3755:3764   */\n      dup4\n        /* \"#utility.yul\":3751:3768   */\n      add\n        /* \"#utility.yul\":3738:3769   */\n      calldataload\n        /* \"#utility.yul\":3796:3814   */\n      0xffffffffffffffff\n        /* \"#utility.yul\":3788:3794   */\n      dup2\n        /* \"#utility.yul\":3785:3815   */\n      gt\n        /* \"#utility.yul\":3782:3784   */\n      iszero\n      tag_347\n      jumpi\n        /* \"#utility.yul\":3828:3829   */\n      0x00\n        /* \"#utility.yul\":3825:3826   */\n      dup1\n        /* \"#utility.yul\":3818:3830   */\n      revert\n        /* \"#utility.yul\":3782:3784   */\n    tag_347:\n        /* \"#utility.yul\":3864:3944   */\n      tag_348\n        /* \"#utility.yul\":3936:3943   */\n      dup6\n        /* \"#utility.yul\":3927:3933   */\n      dup3\n        /* \"#utility.yul\":3916:3925   */\n      dup7\n        /* \"#utility.yul\":3912:3934   */\n      add\n        /* \"#utility.yul\":3864:3944   */\n      tag_308\n      jump\t// in\n    tag_348:\n        /* \"#utility.yul\":3846:3944   */\n      swap3\n      pop\n      swap3\n      pop\n        /* \"#utility.yul\":3709:3954   */\n      pop\n        /* \"#utility.yul\":3637:3961   */\n      swap3\n      pop\n      swap3\n      swap1\n      pop\n      jump\t// out\n        /* \"#utility.yul\":3967:4340   */\n    tag_109:\n        /* \"#utility.yul\":4035:4041   */\n      0x00\n        /* \"#utility.yul\":4084:4086   */\n      0x20\n        /* \"#utility.yul\":4072:4081   */\n      dup3\n        /* \"#utility.yul\":4063:4070   */\n      dup5\n        /* \"#utility.yul\":4059:4082   */\n      sub\n        /* \"#utility.yul\":4055:4087   */\n      slt\n        /* \"#utility.yul\":4052:4054   */\n      iszero\n      tag_350\n      jumpi\n        /* \"#utility.yul\":4100:4101   */\n      0x00\n        /* \"#utility.yul\":4097:4098   */\n      dup1\n        /* \"#utility.yul\":4090:4102   */\n      revert\n        /* \"#utility.yul\":4052:4054   */\n    tag_350:\n        /* \"#utility.yul\":4171:4172   */\n      0x00\n        /* \"#utility.yul\":4160:4169   */\n      dup3\n        /* \"#utility.yul\":4156:4173   */\n      add\n        /* \"#utility.yul\":4143:4174   */\n      calldataload\n        /* \"#utility.yul\":4201:4219   */\n      0xffffffffffffffff\n        /* \"#utility.yul\":4193:4199   */\n      dup2\n        /* \"#utility.yul\":4190:4220   */\n      gt\n        /* \"#utility.yul\":4187:4189   */\n      iszero\n      tag_351\n      jumpi\n        /* \"#utility.yul\":4233:4234   */\n      0x00\n        /* \"#utility.yul\":4230:4231   */\n      dup1\n        /* \"#utility.yul\":4223:4235   */\n      revert\n        /* \"#utility.yul\":4187:4189   */\n    tag_351:\n        /* \"#utility.yul\":4261:4323   */\n      tag_352\n        /* \"#utility.yul\":4315:4322   */\n      dup5\n        /* \"#utility.yul\":4306:4312   */\n      dup3\n        /* \"#utility.yul\":4295:4304   */\n      dup6\n        /* \"#utility.yul\":4291:4313   */\n      add\n        /* \"#utility.yul\":4261:4323   */\n      tag_317\n      jump\t// in\n    tag_352:\n        /* \"#utility.yul\":4251:4323   */\n      swap2\n      pop\n        /* \"#utility.yul\":4114:4333   */\n      pop\n        /* \"#utility.yul\":4042:4340   */\n      swap3\n      swap2\n      pop\n      pop\n      jump\t// out\n        /* \"#utility.yul\":4346:4464   */\n    tag_353:\n        /* \"#utility.yul\":4433:4457   */\n      tag_355\n        /* \"#utility.yul\":4451:4456   */\n      dup2\n        /* \"#utility.yul\":4433:4457   */\n      tag_356\n      jump\t// in\n    tag_355:\n        /* \"#utility.yul\":4428:4431   */\n      dup3\n        /* \"#utility.yul\":4421:4458   */\n      mstore\n        /* \"#utility.yul\":4411:4464   */\n      pop\n      pop\n      jump\t// out\n        /* \"#utility.yul\":4470:4579   */\n    tag_357:\n        /* \"#utility.yul\":4551:4572   */\n      tag_359\n        /* \"#utility.yul\":4566:4571   */\n      dup2\n        /* \"#utility.yul\":4551:4572   */\n      tag_360\n      jump\t// in\n    tag_359:\n        /* \"#utility.yul\":4546:4549   */\n      dup3\n        /* \"#utility.yul\":4539:4573   */\n      mstore\n        /* \"#utility.yul\":4529:4579   */\n      pop\n      pop\n      jump\t// out\n        /* \"#utility.yul\":4585:4760   */\n    tag_361:\n        /* \"#utility.yul\":4694:4753   */\n      tag_363\n        /* \"#utility.yul\":4747:4752   */\n      dup2\n        /* \"#utility.yul\":4694:4753   */\n      tag_364\n      jump\t// in\n    tag_363:\n        /* \"#utility.yul\":4689:4692   */\n      dup3\n        /* \"#utility.yul\":4682:4754   */\n      mstore\n        /* \"#utility.yul\":4672:4760   */\n      pop\n      pop\n      jump\t// out\n        /* \"#utility.yul\":4766:5130   */\n    tag_365:\n        /* \"#utility.yul\":4854:4857   */\n      0x00\n        /* \"#utility.yul\":4882:4921   */\n      tag_367\n        /* \"#utility.yul\":4915:4920   */\n      dup3\n        /* \"#utility.yul\":4882:4921   */\n      tag_368\n      jump\t// in\n    tag_367:\n        /* \"#utility.yul\":4937:5008   */\n      tag_369\n        /* \"#utility.yul\":5001:5007   */\n      dup2\n        /* \"#utility.yul\":4996:4999   */\n      dup6\n        /* \"#utility.yul\":4937:5008   */\n      tag_370\n      jump\t// in\n    tag_369:\n        /* \"#utility.yul\":4930:5008   */\n      swap4\n      pop\n        /* \"#utility.yul\":5017:5069   */\n      tag_371\n        /* \"#utility.yul\":5062:5068   */\n      dup2\n        /* \"#utility.yul\":5057:5060   */\n      dup6\n        /* \"#utility.yul\":5050:5054   */\n      0x20\n        /* \"#utility.yul\":5043:5048   */\n      dup7\n        /* \"#utility.yul\":5039:5055   */\n      add\n        /* \"#utility.yul\":5017:5069   */\n      tag_372\n      jump\t// in\n    tag_371:\n        /* \"#utility.yul\":5094:5123   */\n      tag_373\n        /* \"#utility.yul\":5116:5122   */\n      dup2\n        /* \"#utility.yul\":5094:5123   */\n      tag_374\n      jump\t// in\n    tag_373:\n        /* \"#utility.yul\":5089:5092   */\n      dup5\n        /* \"#utility.yul\":5085:5124   */\n      add\n        /* \"#utility.yul\":5078:5124   */\n      swap2\n      pop\n        /* \"#utility.yul\":4858:5130   */\n      pop\n      swap3\n      swap2\n      pop\n      pop\n      jump\t// out\n        /* \"#utility.yul\":5136:5502   */\n    tag_375:\n        /* \"#utility.yul\":5278:5281   */\n      0x00\n        /* \"#utility.yul\":5299:5366   */\n      tag_377\n        /* \"#utility.yul\":5363:5365   */\n      0x1f\n        /* \"#utility.yul\":5358:5361   */\n      dup4\n        /* \"#utility.yul\":5299:5366   */\n      tag_370\n      jump\t// in\n    tag_377:\n        /* \"#utility.yul\":5292:5366   */\n      swap2\n      pop\n        /* \"#utility.yul\":5375:5468   */\n      tag_378\n        /* \"#utility.yul\":5464:5467   */\n      dup3\n        /* \"#utility.yul\":5375:5468   */\n      tag_379\n      jump\t// in\n    tag_378:\n        /* \"#utility.yul\":5493:5495   */\n      0x20\n        /* \"#utility.yul\":5488:5491   */\n      dup3\n        /* \"#utility.yul\":5484:5496   */\n      add\n        /* \"#utility.yul\":5477:5496   */\n      swap1\n      pop\n        /* \"#utility.yul\":5282:5502   */\n      swap2\n      swap1\n      pop\n      jump\t// out\n        /* \"#utility.yul\":5508:5874   */\n    tag_380:\n        /* \"#utility.yul\":5650:5653   */\n      0x00\n        /* \"#utility.yul\":5671:5738   */\n      tag_382\n        /* \"#utility.yul\":5735:5737   */\n      0x1d\n        /* \"#utility.yul\":5730:5733   */\n      dup4\n        /* \"#utility.yul\":5671:5738   */\n      tag_370\n      jump\t// in\n    tag_382:\n        /* \"#utility.yul\":5664:5738   */\n      swap2\n      pop\n        /* \"#utility.yul\":5747:5840   */\n      tag_383\n        /* \"#utility.yul\":5836:5839   */\n      dup3\n        /* \"#utility.yul\":5747:5840   */\n      tag_384\n      jump\t// in\n    tag_383:\n        /* \"#utility.yul\":5865:5867   */\n      0x20\n        /* \"#utility.yul\":5860:5863   */\n      dup3\n        /* \"#utility.yul\":5856:5868   */\n      add\n        /* \"#utility.yul\":5849:5868   */\n      swap1\n      pop\n        /* \"#utility.yul\":5654:5874   */\n      swap2\n      swap1\n      pop\n      jump\t// out\n        /* \"#utility.yul\":5880:6246   */\n    tag_385:\n        /* \"#utility.yul\":6022:6025   */\n      0x00\n        /* \"#utility.yul\":6043:6110   */\n      tag_387\n        /* \"#utility.yul\":6107:6109   */\n      0x27\n        /* \"#utility.yul\":6102:6105   */\n      dup4\n        /* \"#utility.yul\":6043:6110   */\n      tag_370\n      jump\t// in\n    tag_387:\n        /* \"#utility.yul\":6036:6110   */\n      swap2\n      pop\n        /* \"#utility.yul\":6119:6212   */\n      tag_388\n        /* \"#utility.yul\":6208:6211   */\n      dup3\n        /* \"#utility.yul\":6119:6212   */\n      tag_389\n      jump\t// in\n    tag_388:\n        /* \"#utility.yul\":6237:6239   */\n      0x40\n        /* \"#utility.yul\":6232:6235   */\n      dup3\n        /* \"#utility.yul\":6228:6240   */\n      add\n        /* \"#utility.yul\":6221:6240   */\n      swap1\n      pop\n        /* \"#utility.yul\":6026:6246   */\n      swap2\n      swap1\n      pop\n      jump\t// out\n        /* \"#utility.yul\":6252:6618   */\n    tag_390:\n        /* \"#utility.yul\":6394:6397   */\n      0x00\n        /* \"#utility.yul\":6415:6482   */\n      tag_392\n        /* \"#utility.yul\":6479:6481   */\n      0x29\n        /* \"#utility.yul\":6474:6477   */\n      dup4\n        /* \"#utility.yul\":6415:6482   */\n      tag_370\n      jump\t// in\n    tag_392:\n        /* \"#utility.yul\":6408:6482   */\n      swap2\n      pop\n        /* \"#utility.yul\":6491:6584   */\n      tag_393\n        /* \"#utility.yul\":6580:6583   */\n      dup3\n        /* \"#utility.yul\":6491:6584   */\n      tag_394\n      jump\t// in\n    tag_393:\n        /* \"#utility.yul\":6609:6611   */\n      0x40\n        /* \"#utility.yul\":6604:6607   */\n      dup3\n        /* \"#utility.yul\":6600:6612   */\n      add\n        /* \"#utility.yul\":6593:6612   */\n      swap1\n      pop\n        /* \"#utility.yul\":6398:6618   */\n      swap2\n      swap1\n      pop\n      jump\t// out\n        /* \"#utility.yul\":6624:6990   */\n    tag_395:\n        /* \"#utility.yul\":6766:6769   */\n      0x00\n        /* \"#utility.yul\":6787:6854   */\n      tag_397\n        /* \"#utility.yul\":6851:6853   */\n      0x13\n        /* \"#utility.yul\":6846:6849   */\n      dup4\n        /* \"#utility.yul\":6787:6854   */\n      tag_370\n      jump\t// in\n    tag_397:\n        /* \"#utility.yul\":6780:6854   */\n      swap2\n      pop\n        /* \"#utility.yul\":6863:6956   */\n      tag_398\n        /* \"#utility.yul\":6952:6955   */\n      dup3\n        /* \"#utility.yul\":6863:6956   */\n      tag_399\n      jump\t// in\n    tag_398:\n        /* \"#utility.yul\":6981:6983   */\n      0x20\n        /* \"#utility.yul\":6976:6979   */\n      dup3\n        /* \"#utility.yul\":6972:6984   */\n      add\n        /* \"#utility.yul\":6965:6984   */\n      swap1\n      pop\n        /* \"#utility.yul\":6770:6990   */\n      swap2\n      swap1\n      pop\n      jump\t// out\n        /* \"#utility.yul\":6996:7362   */\n    tag_400:\n        /* \"#utility.yul\":7138:7141   */\n      0x00\n        /* \"#utility.yul\":7159:7226   */\n      tag_402\n        /* \"#utility.yul\":7223:7225   */\n      0x1c\n        /* \"#utility.yul\":7218:7221   */\n      dup4\n        /* \"#utility.yul\":7159:7226   */\n      tag_370\n      jump\t// in\n    tag_402:\n        /* \"#utility.yul\":7152:7226   */\n      swap2\n      pop\n        /* \"#utility.yul\":7235:7328   */\n      tag_403\n        /* \"#utility.yul\":7324:7327   */\n      dup3\n        /* \"#utility.yul\":7235:7328   */\n      tag_404\n      jump\t// in\n    tag_403:\n        /* \"#utility.yul\":7353:7355   */\n      0x20\n        /* \"#utility.yul\":7348:7351   */\n      dup3\n        /* \"#utility.yul\":7344:7356   */\n      add\n        /* \"#utility.yul\":7337:7356   */\n      swap1\n      pop\n        /* \"#utility.yul\":7142:7362   */\n      swap2\n      swap1\n      pop\n      jump\t// out\n        /* \"#utility.yul\":7368:7734   */\n    tag_405:\n        /* \"#utility.yul\":7510:7513   */\n      0x00\n        /* \"#utility.yul\":7531:7598   */\n      tag_407\n        /* \"#utility.yul\":7595:7597   */\n      0x26\n        /* \"#utility.yul\":7590:7593   */\n      dup4\n        /* \"#utility.yul\":7531:7598   */\n      tag_370\n      jump\t// in\n    tag_407:\n        /* \"#utility.yul\":7524:7598   */\n      swap2\n      pop\n        /* \"#utility.yul\":7607:7700   */\n      tag_408\n        /* \"#utility.yul\":7696:7699   */\n      dup3\n        /* \"#utility.yul\":7607:7700   */\n      tag_409\n      jump\t// in\n    tag_408:\n        /* \"#utility.yul\":7725:7727   */\n      0x40\n        /* \"#utility.yul\":7720:7723   */\n      dup3\n        /* \"#utility.yul\":7716:7728   */\n      add\n        /* \"#utility.yul\":7709:7728   */\n      swap1\n      pop\n        /* \"#utility.yul\":7514:7734   */\n      swap2\n      swap1\n      pop\n      jump\t// out\n        /* \"#utility.yul\":7740:8106   */\n    tag_410:\n        /* \"#utility.yul\":7882:7885   */\n      0x00\n        /* \"#utility.yul\":7903:7970   */\n      tag_412\n        /* \"#utility.yul\":7967:7969   */\n      0x19\n        /* \"#utility.yul\":7962:7965   */\n      dup4\n        /* \"#utility.yul\":7903:7970   */\n      tag_370\n      jump\t// in\n    tag_412:\n        /* \"#utility.yul\":7896:7970   */\n      swap2\n      pop\n        /* \"#utility.yul\":7979:8072   */\n      tag_413\n        /* \"#utility.yul\":8068:8071   */\n      dup3\n        /* \"#utility.yul\":7979:8072   */\n      tag_414\n      jump\t// in\n    tag_413:\n        /* \"#utility.yul\":8097:8099   */\n      0x20\n        /* \"#utility.yul\":8092:8095   */\n      dup3\n        /* \"#utility.yul\":8088:8100   */\n      add\n        /* \"#utility.yul\":8081:8100   */\n      swap1\n      pop\n        /* \"#utility.yul\":7886:8106   */\n      swap2\n      swap1\n      pop\n      jump\t// out\n        /* \"#utility.yul\":8112:8478   */\n    tag_415:\n        /* \"#utility.yul\":8254:8257   */\n      0x00\n        /* \"#utility.yul\":8275:8342   */\n      tag_417\n        /* \"#utility.yul\":8339:8341   */\n      0x20\n        /* \"#utility.yul\":8334:8337   */\n      dup4\n        /* \"#utility.yul\":8275:8342   */\n      tag_370\n      jump\t// in\n    tag_417:\n        /* \"#utility.yul\":8268:8342   */\n      swap2\n      pop\n        /* \"#utility.yul\":8351:8444   */\n      tag_418\n        /* \"#utility.yul\":8440:8443   */\n      dup3\n        /* \"#utility.yul\":8351:8444   */\n      tag_419\n      jump\t// in\n    tag_418:\n        /* \"#utility.yul\":8469:8471   */\n      0x20\n        /* \"#utility.yul\":8464:8467   */\n      dup3\n        /* \"#utility.yul\":8460:8472   */\n      add\n        /* \"#utility.yul\":8453:8472   */\n      swap1\n      pop\n        /* \"#utility.yul\":8258:8478   */\n      swap2\n      swap1\n      pop\n      jump\t// out\n        /* \"#utility.yul\":8484:8850   */\n    tag_420:\n        /* \"#utility.yul\":8626:8629   */\n      0x00\n        /* \"#utility.yul\":8647:8714   */\n      tag_422\n        /* \"#utility.yul\":8711:8713   */\n      0x1e\n        /* \"#utility.yul\":8706:8709   */\n      dup4\n        /* \"#utility.yul\":8647:8714   */\n      tag_370\n      jump\t// in\n    tag_422:\n        /* \"#utility.yul\":8640:8714   */\n      swap2\n      pop\n        /* \"#utility.yul\":8723:8816   */\n      tag_423\n        /* \"#utility.yul\":8812:8815   */\n      dup3\n        /* \"#utility.yul\":8723:8816   */\n      tag_424\n      jump\t// in\n    tag_423:\n        /* \"#utility.yul\":8841:8843   */\n      0x20\n        /* \"#utility.yul\":8836:8839   */\n      dup3\n        /* \"#utility.yul\":8832:8844   */\n      add\n        /* \"#utility.yul\":8825:8844   */\n      swap1\n      pop\n        /* \"#utility.yul\":8630:8850   */\n      swap2\n      swap1\n      pop\n      jump\t// out\n        /* \"#utility.yul\":8856:9222   */\n    tag_425:\n        /* \"#utility.yul\":8998:9001   */\n      0x00\n        /* \"#utility.yul\":9019:9086   */\n      tag_427\n        /* \"#utility.yul\":9083:9085   */\n      0x1b\n        /* \"#utility.yul\":9078:9081   */\n      dup4\n        /* \"#utility.yul\":9019:9086   */\n      tag_370\n      jump\t// in\n    tag_427:\n        /* \"#utility.yul\":9012:9086   */\n      swap2\n      pop\n        /* \"#utility.yul\":9095:9188   */\n      tag_428\n        /* \"#utility.yul\":9184:9187   */\n      dup3\n        /* \"#utility.yul\":9095:9188   */\n      tag_429\n      jump\t// in\n    tag_428:\n        /* \"#utility.yul\":9213:9215   */\n      0x20\n        /* \"#utility.yul\":9208:9211   */\n      dup3\n        /* \"#utility.yul\":9204:9216   */\n      add\n        /* \"#utility.yul\":9197:9216   */\n      swap1\n      pop\n        /* \"#utility.yul\":9002:9222   */\n      swap2\n      swap1\n      pop\n      jump\t// out\n        /* \"#utility.yul\":9228:9594   */\n    tag_430:\n        /* \"#utility.yul\":9370:9373   */\n      0x00\n        /* \"#utility.yul\":9391:9458   */\n      tag_432\n        /* \"#utility.yul\":9455:9457   */\n      0x1c\n        /* \"#utility.yul\":9450:9453   */\n      dup4\n        /* \"#utility.yul\":9391:9458   */\n      tag_370\n      jump\t// in\n    tag_432:\n        /* \"#utility.yul\":9384:9458   */\n      swap2\n      pop\n        /* \"#utility.yul\":9467:9560   */\n      tag_433\n        /* \"#utility.yul\":9556:9559   */\n      dup3\n        /* \"#utility.yul\":9467:9560   */\n      tag_434\n      jump\t// in\n    tag_433:\n        /* \"#utility.yul\":9585:9587   */\n      0x20\n        /* \"#utility.yul\":9580:9583   */\n      dup3\n        /* \"#utility.yul\":9576:9588   */\n      add\n        /* \"#utility.yul\":9569:9588   */\n      swap1\n      pop\n        /* \"#utility.yul\":9374:9594   */\n      swap2\n      swap1\n      pop\n      jump\t// out\n        /* \"#utility.yul\":9600:9966   */\n    tag_435:\n        /* \"#utility.yul\":9742:9745   */\n      0x00\n        /* \"#utility.yul\":9763:9830   */\n      tag_437\n        /* \"#utility.yul\":9827:9829   */\n      0x1e\n        /* \"#utility.yul\":9822:9825   */\n      dup4\n        /* \"#utility.yul\":9763:9830   */\n      tag_370\n      jump\t// in\n    tag_437:\n        /* \"#utility.yul\":9756:9830   */\n      swap2\n      pop\n        /* \"#utility.yul\":9839:9932   */\n      tag_438\n        /* \"#utility.yul\":9928:9931   */\n      dup3\n        /* \"#utility.yul\":9839:9932   */\n      tag_439\n      jump\t// in\n    tag_438:\n        /* \"#utility.yul\":9957:9959   */\n      0x20\n        /* \"#utility.yul\":9952:9955   */\n      dup3\n        /* \"#utility.yul\":9948:9960   */\n      add\n        /* \"#utility.yul\":9941:9960   */\n      swap1\n      pop\n        /* \"#utility.yul\":9746:9966   */\n      swap2\n      swap1\n      pop\n      jump\t// out\n        /* \"#utility.yul\":9972:10338   */\n    tag_440:\n        /* \"#utility.yul\":10114:10117   */\n      0x00\n        /* \"#utility.yul\":10135:10202   */\n      tag_442\n        /* \"#utility.yul\":10199:10201   */\n      0x26\n        /* \"#utility.yul\":10194:10197   */\n      dup4\n        /* \"#utility.yul\":10135:10202   */\n      tag_370\n      jump\t// in\n    tag_442:\n        /* \"#utility.yul\":10128:10202   */\n      swap2\n      pop\n        /* \"#utility.yul\":10211:10304   */\n      tag_443\n        /* \"#utility.yul\":10300:10303   */\n      dup3\n        /* \"#utility.yul\":10211:10304   */\n      tag_444\n      jump\t// in\n    tag_443:\n        /* \"#utility.yul\":10329:10331   */\n      0x40\n        /* \"#utility.yul\":10324:10327   */\n      dup3\n        /* \"#utility.yul\":10320:10332   */\n      add\n        /* \"#utility.yul\":10313:10332   */\n      swap1\n      pop\n        /* \"#utility.yul\":10118:10338   */\n      swap2\n      swap1\n      pop\n      jump\t// out\n        /* \"#utility.yul\":10344:10462   */\n    tag_445:\n        /* \"#utility.yul\":10431:10455   */\n      tag_447\n        /* \"#utility.yul\":10449:10454   */\n      dup2\n        /* \"#utility.yul\":10431:10455   */\n      tag_448\n      jump\t// in\n    tag_447:\n        /* \"#utility.yul\":10426:10429   */\n      dup3\n        /* \"#utility.yul\":10419:10456   */\n      mstore\n        /* \"#utility.yul\":10409:10462   */\n      pop\n      pop\n      jump\t// out\n        /* \"#utility.yul\":10468:10580   */\n    tag_449:\n        /* \"#utility.yul\":10551:10573   */\n      tag_451\n        /* \"#utility.yul\":10567:10572   */\n      dup2\n        /* \"#utility.yul\":10551:10573   */\n      tag_452\n      jump\t// in\n    tag_451:\n        /* \"#utility.yul\":10546:10549   */\n      dup3\n        /* \"#utility.yul\":10539:10574   */\n      mstore\n        /* \"#utility.yul\":10529:10580   */\n      pop\n      pop\n      jump\t// out\n        /* \"#utility.yul\":10586:10808   */\n    tag_75:\n        /* \"#utility.yul\":10679:10683   */\n      0x00\n        /* \"#utility.yul\":10717:10719   */\n      0x20\n        /* \"#utility.yul\":10706:10715   */\n      dup3\n        /* \"#utility.yul\":10702:10720   */\n      add\n        /* \"#utility.yul\":10694:10720   */\n      swap1\n      pop\n        /* \"#utility.yul\":10730:10801   */\n      tag_454\n        /* \"#utility.yul\":10798:10799   */\n      0x00\n        /* \"#utility.yul\":10787:10796   */\n      dup4\n        /* \"#utility.yul\":10783:10800   */\n      add\n        /* \"#utility.yul\":10774:10780   */\n      dup5\n        /* \"#utility.yul\":10730:10801   */\n      tag_353\n      jump\t// in\n    tag_454:\n        /* \"#utility.yul\":10684:10808   */\n      swap3\n      swap2\n      pop\n      pop\n      jump\t// out\n        /* \"#utility.yul\":10814:11367   */\n    tag_149:\n        /* \"#utility.yul\":10991:10995   */\n      0x00\n        /* \"#utility.yul\":11029:11032   */\n      0x80\n        /* \"#utility.yul\":11018:11027   */\n      dup3\n        /* \"#utility.yul\":11014:11033   */\n      add\n        /* \"#utility.yul\":11006:11033   */\n      swap1\n      pop\n        /* \"#utility.yul\":11043:11114   */\n      tag_456\n        /* \"#utility.yul\":11111:11112   */\n      0x00\n        /* \"#utility.yul\":11100:11109   */\n      dup4\n        /* \"#utility.yul\":11096:11113   */\n      add\n        /* \"#utility.yul\":11087:11093   */\n      dup8\n        /* \"#utility.yul\":11043:11114   */\n      tag_353\n      jump\t// in\n    tag_456:\n        /* \"#utility.yul\":11124:11196   */\n      tag_457\n        /* \"#utility.yul\":11192:11194   */\n      0x20\n        /* \"#utility.yul\":11181:11190   */\n      dup4\n        /* \"#utility.yul\":11177:11195   */\n      add\n        /* \"#utility.yul\":11168:11174   */\n      dup7\n        /* \"#utility.yul\":11124:11196   */\n      tag_353\n      jump\t// in\n    tag_457:\n        /* \"#utility.yul\":11206:11278   */\n      tag_458\n        /* \"#utility.yul\":11274:11276   */\n      0x40\n        /* \"#utility.yul\":11263:11272   */\n      dup4\n        /* \"#utility.yul\":11259:11277   */\n      add\n        /* \"#utility.yul\":11250:11256   */\n      dup6\n        /* \"#utility.yul\":11206:11278   */\n      tag_353\n      jump\t// in\n    tag_458:\n        /* \"#utility.yul\":11288:11360   */\n      tag_459\n        /* \"#utility.yul\":11356:11358   */\n      0x60\n        /* \"#utility.yul\":11345:11354   */\n      dup4\n        /* \"#utility.yul\":11341:11359   */\n      add\n        /* \"#utility.yul\":11332:11338   */\n      dup5\n        /* \"#utility.yul\":11288:11360   */\n      tag_445\n      jump\t// in\n    tag_459:\n        /* \"#utility.yul\":10996:11367   */\n      swap6\n      swap5\n      pop\n      pop\n      pop\n      pop\n      pop\n      jump\t// out\n        /* \"#utility.yul\":11373:11815   */\n    tag_136:\n        /* \"#utility.yul\":11522:11526   */\n      0x00\n        /* \"#utility.yul\":11560:11562   */\n      0x60\n        /* \"#utility.yul\":11549:11558   */\n      dup3\n        /* \"#utility.yul\":11545:11563   */\n      add\n        /* \"#utility.yul\":11537:11563   */\n      swap1\n      pop\n        /* \"#utility.yul\":11573:11644   */\n      tag_461\n        /* \"#utility.yul\":11641:11642   */\n      0x00\n        /* \"#utility.yul\":11630:11639   */\n      dup4\n        /* \"#utility.yul\":11626:11643   */\n      add\n        /* \"#utility.yul\":11617:11623   */\n      dup7\n        /* \"#utility.yul\":11573:11644   */\n      tag_353\n      jump\t// in\n    tag_461:\n        /* \"#utility.yul\":11654:11726   */\n      tag_462\n        /* \"#utility.yul\":11722:11724   */\n      0x20\n        /* \"#utility.yul\":11711:11720   */\n      dup4\n        /* \"#utility.yul\":11707:11725   */\n      add\n        /* \"#utility.yul\":11698:11704   */\n      dup6\n        /* \"#utility.yul\":11654:11726   */\n      tag_353\n      jump\t// in\n    tag_462:\n        /* \"#utility.yul\":11736:11808   */\n      tag_463\n        /* \"#utility.yul\":11804:11806   */\n      0x40\n        /* \"#utility.yul\":11793:11802   */\n      dup4\n        /* \"#utility.yul\":11789:11807   */\n      add\n        /* \"#utility.yul\":11780:11786   */\n      dup5\n        /* \"#utility.yul\":11736:11808   */\n      tag_445\n      jump\t// in\n    tag_463:\n        /* \"#utility.yul\":11527:11815   */\n      swap5\n      swap4\n      pop\n      pop\n      pop\n      pop\n      jump\t// out\n        /* \"#utility.yul\":11821:12031   */\n    tag_41:\n        /* \"#utility.yul\":11908:11912   */\n      0x00\n        /* \"#utility.yul\":11946:11948   */\n      0x20\n        /* \"#utility.yul\":11935:11944   */\n      dup3\n        /* \"#utility.yul\":11931:11949   */\n      add\n        /* \"#utility.yul\":11923:11949   */\n      swap1\n      pop\n        /* \"#utility.yul\":11959:12024   */\n      tag_465\n        /* \"#utility.yul\":12021:12022   */\n      0x00\n        /* \"#utility.yul\":12010:12019   */\n      dup4\n        /* \"#utility.yul\":12006:12023   */\n      add\n        /* \"#utility.yul\":11997:12003   */\n      dup5\n        /* \"#utility.yul\":11959:12024   */\n      tag_357\n      jump\t// in\n    tag_465:\n        /* \"#utility.yul\":11913:12031   */\n      swap3\n      swap2\n      pop\n      pop\n      jump\t// out\n        /* \"#utility.yul\":12037:12303   */\n    tag_65:\n        /* \"#utility.yul\":12152:12156   */\n      0x00\n        /* \"#utility.yul\":12190:12192   */\n      0x20\n        /* \"#utility.yul\":12179:12188   */\n      dup3\n        /* \"#utility.yul\":12175:12193   */\n      add\n        /* \"#utility.yul\":12167:12193   */\n      swap1\n      pop\n        /* \"#utility.yul\":12203:12296   */\n      tag_467\n        /* \"#utility.yul\":12293:12294   */\n      0x00\n        /* \"#utility.yul\":12282:12291   */\n      dup4\n        /* \"#utility.yul\":12278:12295   */\n      add\n        /* \"#utility.yul\":12269:12275   */\n      dup5\n        /* \"#utility.yul\":12203:12296   */\n      tag_361\n      jump\t// in\n    tag_467:\n        /* \"#utility.yul\":12157:12303   */\n      swap3\n      swap2\n      pop\n      pop\n      jump\t// out\n        /* \"#utility.yul\":12309:12622   */\n    tag_35:\n        /* \"#utility.yul\":12422:12426   */\n      0x00\n        /* \"#utility.yul\":12460:12462   */\n      0x20\n        /* \"#utility.yul\":12449:12458   */\n      dup3\n        /* \"#utility.yul\":12445:12463   */\n      add\n        /* \"#utility.yul\":12437:12463   */\n      swap1\n      pop\n        /* \"#utility.yul\":12509:12518   */\n      dup2\n        /* \"#utility.yul\":12503:12507   */\n      dup2\n        /* \"#utility.yul\":12499:12519   */\n      sub\n        /* \"#utility.yul\":12495:12496   */\n      0x00\n        /* \"#utility.yul\":12484:12493   */\n      dup4\n        /* \"#utility.yul\":12480:12497   */\n      add\n        /* \"#utility.yul\":12473:12520   */\n      mstore\n        /* \"#utility.yul\":12537:12615   */\n      tag_469\n        /* \"#utility.yul\":12610:12614   */\n      dup2\n        /* \"#utility.yul\":12601:12607   */\n      dup5\n        /* \"#utility.yul\":12537:12615   */\n      tag_365\n      jump\t// in\n    tag_469:\n        /* \"#utility.yul\":12529:12615   */\n      swap1\n      pop\n        /* \"#utility.yul\":12427:12622   */\n      swap3\n      swap2\n      pop\n      pop\n      jump\t// out\n        /* \"#utility.yul\":12628:13047   */\n    tag_172:\n        /* \"#utility.yul\":12794:12798   */\n      0x00\n        /* \"#utility.yul\":12832:12834   */\n      0x20\n        /* \"#utility.yul\":12821:12830   */\n      dup3\n        /* \"#utility.yul\":12817:12835   */\n      add\n        /* \"#utility.yul\":12809:12835   */\n      swap1\n      pop\n        /* \"#utility.yul\":12881:12890   */\n      dup2\n        /* \"#utility.yul\":12875:12879   */\n      dup2\n        /* \"#utility.yul\":12871:12891   */\n      sub\n        /* \"#utility.yul\":12867:12868   */\n      0x00\n        /* \"#utility.yul\":12856:12865   */\n      dup4\n        /* \"#utility.yul\":12852:12869   */\n      add\n        /* \"#utility.yul\":12845:12892   */\n      mstore\n        /* \"#utility.yul\":12909:13040   */\n      tag_471\n        /* \"#utility.yul\":13035:13039   */\n      dup2\n        /* \"#utility.yul\":12909:13040   */\n      tag_375\n      jump\t// in\n    tag_471:\n        /* \"#utility.yul\":12901:13040   */\n      swap1\n      pop\n        /* \"#utility.yul\":12799:13047   */\n      swap2\n      swap1\n      pop\n      jump\t// out\n        /* \"#utility.yul\":13053:13472   */\n    tag_258:\n        /* \"#utility.yul\":13219:13223   */\n      0x00\n        /* \"#utility.yul\":13257:13259   */\n      0x20\n        /* \"#utility.yul\":13246:13255   */\n      dup3\n        /* \"#utility.yul\":13242:13260   */\n      add\n        /* \"#utility.yul\":13234:13260   */\n      swap1\n      pop\n        /* \"#utility.yul\":13306:13315   */\n      dup2\n        /* \"#utility.yul\":13300:13304   */\n      dup2\n        /* \"#utility.yul\":13296:13316   */\n      sub\n        /* \"#utility.yul\":13292:13293   */\n      0x00\n        /* \"#utility.yul\":13281:13290   */\n      dup4\n        /* \"#utility.yul\":13277:13294   */\n      add\n        /* \"#utility.yul\":13270:13317   */\n      mstore\n        /* \"#utility.yul\":13334:13465   */\n      tag_473\n        /* \"#utility.yul\":13460:13464   */\n      dup2\n        /* \"#utility.yul\":13334:13465   */\n      tag_380\n      jump\t// in\n    tag_473:\n        /* \"#utility.yul\":13326:13465   */\n      swap1\n      pop\n        /* \"#utility.yul\":13224:13472   */\n      swap2\n      swap1\n      pop\n      jump\t// out\n        /* \"#utility.yul\":13478:13897   */\n    tag_290:\n        /* \"#utility.yul\":13644:13648   */\n      0x00\n        /* \"#utility.yul\":13682:13684   */\n      0x20\n        /* \"#utility.yul\":13671:13680   */\n      dup3\n        /* \"#utility.yul\":13667:13685   */\n      add\n        /* \"#utility.yul\":13659:13685   */\n      swap1\n      pop\n        /* \"#utility.yul\":13731:13740   */\n      dup2\n        /* \"#utility.yul\":13725:13729   */\n      dup2\n        /* \"#utility.yul\":13721:13741   */\n      sub\n        /* \"#utility.yul\":13717:13718   */\n      0x00\n        /* \"#utility.yul\":13706:13715   */\n      dup4\n        /* \"#utility.yul\":13702:13719   */\n      add\n        /* \"#utility.yul\":13695:13742   */\n      mstore\n        /* \"#utility.yul\":13759:13890   */\n      tag_475\n        /* \"#utility.yul\":13885:13889   */\n      dup2\n        /* \"#utility.yul\":13759:13890   */\n      tag_385\n      jump\t// in\n    tag_475:\n        /* \"#utility.yul\":13751:13890   */\n      swap1\n      pop\n        /* \"#utility.yul\":13649:13897   */\n      swap2\n      swap1\n      pop\n      jump\t// out\n        /* \"#utility.yul\":13903:14322   */\n    tag_157:\n        /* \"#utility.yul\":14069:14073   */\n      0x00\n        /* \"#utility.yul\":14107:14109   */\n      0x20\n        /* \"#utility.yul\":14096:14105   */\n      dup3\n        /* \"#utility.yul\":14092:14110   */\n      add\n        /* \"#utility.yul\":14084:14110   */\n      swap1\n      pop\n        /* \"#utility.yul\":14156:14165   */\n      dup2\n        /* \"#utility.yul\":14150:14154   */\n      dup2\n        /* \"#utility.yul\":14146:14166   */\n      sub\n        /* \"#utility.yul\":14142:14143   */\n      0x00\n        /* \"#utility.yul\":14131:14140   */\n      dup4\n        /* \"#utility.yul\":14127:14144   */\n      add\n        /* \"#utility.yul\":14120:14167   */\n      mstore\n        /* \"#utility.yul\":14184:14315   */\n      tag_477\n        /* \"#utility.yul\":14310:14314   */\n      dup2\n        /* \"#utility.yul\":14184:14315   */\n      tag_390\n      jump\t// in\n    tag_477:\n        /* \"#utility.yul\":14176:14315   */\n      swap1\n      pop\n        /* \"#utility.yul\":14074:14322   */\n      swap2\n      swap1\n      pop\n      jump\t// out\n        /* \"#utility.yul\":14328:14747   */\n    tag_266:\n        /* \"#utility.yul\":14494:14498   */\n      0x00\n        /* \"#utility.yul\":14532:14534   */\n      0x20\n        /* \"#utility.yul\":14521:14530   */\n      dup3\n        /* \"#utility.yul\":14517:14535   */\n      add\n        /* \"#utility.yul\":14509:14535   */\n      swap1\n      pop\n        /* \"#utility.yul\":14581:14590   */\n      dup2\n        /* \"#utility.yul\":14575:14579   */\n      dup2\n        /* \"#utility.yul\":14571:14591   */\n      sub\n        /* \"#utility.yul\":14567:14568   */\n      0x00\n        /* \"#utility.yul\":14556:14565   */\n      dup4\n        /* \"#utility.yul\":14552:14569   */\n      add\n        /* \"#utility.yul\":14545:14592   */\n      mstore\n        /* \"#utility.yul\":14609:14740   */\n      tag_479\n        /* \"#utility.yul\":14735:14739   */\n      dup2\n        /* \"#utility.yul\":14609:14740   */\n      tag_395\n      jump\t// in\n    tag_479:\n        /* \"#utility.yul\":14601:14740   */\n      swap1\n      pop\n        /* \"#utility.yul\":14499:14747   */\n      swap2\n      swap1\n      pop\n      jump\t// out\n        /* \"#utility.yul\":14753:15172   */\n    tag_255:\n        /* \"#utility.yul\":14919:14923   */\n      0x00\n        /* \"#utility.yul\":14957:14959   */\n      0x20\n        /* \"#utility.yul\":14946:14955   */\n      dup3\n        /* \"#utility.yul\":14942:14960   */\n      add\n        /* \"#utility.yul\":14934:14960   */\n      swap1\n      pop\n        /* \"#utility.yul\":15006:15015   */\n      dup2\n        /* \"#utility.yul\":15000:15004   */\n      dup2\n        /* \"#utility.yul\":14996:15016   */\n      sub\n        /* \"#utility.yul\":14992:14993   */\n      0x00\n        /* \"#utility.yul\":14981:14990   */\n      dup4\n        /* \"#utility.yul\":14977:14994   */\n      add\n        /* \"#utility.yul\":14970:15017   */\n      mstore\n        /* \"#utility.yul\":15034:15165   */\n      tag_481\n        /* \"#utility.yul\":15160:15164   */\n      dup2\n        /* \"#utility.yul\":15034:15165   */\n      tag_400\n      jump\t// in\n    tag_481:\n        /* \"#utility.yul\":15026:15165   */\n      swap1\n      pop\n        /* \"#utility.yul\":14924:15172   */\n      swap2\n      swap1\n      pop\n      jump\t// out\n        /* \"#utility.yul\":15178:15597   */\n    tag_287:\n        /* \"#utility.yul\":15344:15348   */\n      0x00\n        /* \"#utility.yul\":15382:15384   */\n      0x20\n        /* \"#utility.yul\":15371:15380   */\n      dup3\n        /* \"#utility.yul\":15367:15385   */\n      add\n        /* \"#utility.yul\":15359:15385   */\n      swap1\n      pop\n        /* \"#utility.yul\":15431:15440   */\n      dup2\n        /* \"#utility.yul\":15425:15429   */\n      dup2\n        /* \"#utility.yul\":15421:15441   */\n      sub\n        /* \"#utility.yul\":15417:15418   */\n      0x00\n        /* \"#utility.yul\":15406:15415   */\n      dup4\n        /* \"#utility.yul\":15402:15419   */\n      add\n        /* \"#utility.yul\":15395:15442   */\n      mstore\n        /* \"#utility.yul\":15459:15590   */\n      tag_483\n        /* \"#utility.yul\":15585:15589   */\n      dup2\n        /* \"#utility.yul\":15459:15590   */\n      tag_405\n      jump\t// in\n    tag_483:\n        /* \"#utility.yul\":15451:15590   */\n      swap1\n      pop\n        /* \"#utility.yul\":15349:15597   */\n      swap2\n      swap1\n      pop\n      jump\t// out\n        /* \"#utility.yul\":15603:16022   */\n    tag_263:\n        /* \"#utility.yul\":15769:15773   */\n      0x00\n        /* \"#utility.yul\":15807:15809   */\n      0x20\n        /* \"#utility.yul\":15796:15805   */\n      dup3\n        /* \"#utility.yul\":15792:15810   */\n      add\n        /* \"#utility.yul\":15784:15810   */\n      swap1\n      pop\n        /* \"#utility.yul\":15856:15865   */\n      dup2\n        /* \"#utility.yul\":15850:15854   */\n      dup2\n        /* \"#utility.yul\":15846:15866   */\n      sub\n        /* \"#utility.yul\":15842:15843   */\n      0x00\n        /* \"#utility.yul\":15831:15840   */\n      dup4\n        /* \"#utility.yul\":15827:15844   */\n      add\n        /* \"#utility.yul\":15820:15867   */\n      mstore\n        /* \"#utility.yul\":15884:16015   */\n      tag_485\n        /* \"#utility.yul\":16010:16014   */\n      dup2\n        /* \"#utility.yul\":15884:16015   */\n      tag_410\n      jump\t// in\n    tag_485:\n        /* \"#utility.yul\":15876:16015   */\n      swap1\n      pop\n        /* \"#utility.yul\":15774:16022   */\n      swap2\n      swap1\n      pop\n      jump\t// out\n        /* \"#utility.yul\":16028:16447   */\n    tag_274:\n        /* \"#utility.yul\":16194:16198   */\n      0x00\n        /* \"#utility.yul\":16232:16234   */\n      0x20\n        /* \"#utility.yul\":16221:16230   */\n      dup3\n        /* \"#utility.yul\":16217:16235   */\n      add\n        /* \"#utility.yul\":16209:16235   */\n      swap1\n      pop\n        /* \"#utility.yul\":16281:16290   */\n      dup2\n        /* \"#utility.yul\":16275:16279   */\n      dup2\n        /* \"#utility.yul\":16271:16291   */\n      sub\n        /* \"#utility.yul\":16267:16268   */\n      0x00\n        /* \"#utility.yul\":16256:16265   */\n      dup4\n        /* \"#utility.yul\":16252:16269   */\n      add\n        /* \"#utility.yul\":16245:16292   */\n      mstore\n        /* \"#utility.yul\":16309:16440   */\n      tag_487\n        /* \"#utility.yul\":16435:16439   */\n      dup2\n        /* \"#utility.yul\":16309:16440   */\n      tag_415\n      jump\t// in\n    tag_487:\n        /* \"#utility.yul\":16301:16440   */\n      swap1\n      pop\n        /* \"#utility.yul\":16199:16447   */\n      swap2\n      swap1\n      pop\n      jump\t// out\n        /* \"#utility.yul\":16453:16872   */\n    tag_168:\n        /* \"#utility.yul\":16619:16623   */\n      0x00\n        /* \"#utility.yul\":16657:16659   */\n      0x20\n        /* \"#utility.yul\":16646:16655   */\n      dup3\n        /* \"#utility.yul\":16642:16660   */\n      add\n        /* \"#utility.yul\":16634:16660   */\n      swap1\n      pop\n        /* \"#utility.yul\":16706:16715   */\n      dup2\n        /* \"#utility.yul\":16700:16704   */\n      dup2\n        /* \"#utility.yul\":16696:16716   */\n      sub\n        /* \"#utility.yul\":16692:16693   */\n      0x00\n        /* \"#utility.yul\":16681:16690   */\n      dup4\n        /* \"#utility.yul\":16677:16694   */\n      add\n        /* \"#utility.yul\":16670:16717   */\n      mstore\n        /* \"#utility.yul\":16734:16865   */\n      tag_489\n        /* \"#utility.yul\":16860:16864   */\n      dup2\n        /* \"#utility.yul\":16734:16865   */\n      tag_420\n      jump\t// in\n    tag_489:\n        /* \"#utility.yul\":16726:16865   */\n      swap1\n      pop\n        /* \"#utility.yul\":16624:16872   */\n      swap2\n      swap1\n      pop\n      jump\t// out\n        /* \"#utility.yul\":16878:17297   */\n    tag_194:\n        /* \"#utility.yul\":17044:17048   */\n      0x00\n        /* \"#utility.yul\":17082:17084   */\n      0x20\n        /* \"#utility.yul\":17071:17080   */\n      dup3\n        /* \"#utility.yul\":17067:17085   */\n      add\n        /* \"#utility.yul\":17059:17085   */\n      swap1\n      pop\n        /* \"#utility.yul\":17131:17140   */\n      dup2\n        /* \"#utility.yul\":17125:17129   */\n      dup2\n        /* \"#utility.yul\":17121:17141   */\n      sub\n        /* \"#utility.yul\":17117:17118   */\n      0x00\n        /* \"#utility.yul\":17106:17115   */\n      dup4\n        /* \"#utility.yul\":17102:17119   */\n      add\n        /* \"#utility.yul\":17095:17142   */\n      mstore\n        /* \"#utility.yul\":17159:17290   */\n      tag_491\n        /* \"#utility.yul\":17285:17289   */\n      dup2\n        /* \"#utility.yul\":17159:17290   */\n      tag_425\n      jump\t// in\n    tag_491:\n        /* \"#utility.yul\":17151:17290   */\n      swap1\n      pop\n        /* \"#utility.yul\":17049:17297   */\n      swap2\n      swap1\n      pop\n      jump\t// out\n        /* \"#utility.yul\":17303:17722   */\n    tag_277:\n        /* \"#utility.yul\":17469:17473   */\n      0x00\n        /* \"#utility.yul\":17507:17509   */\n      0x20\n        /* \"#utility.yul\":17496:17505   */\n      dup3\n        /* \"#utility.yul\":17492:17510   */\n      add\n        /* \"#utility.yul\":17484:17510   */\n      swap1\n      pop\n        /* \"#utility.yul\":17556:17565   */\n      dup2\n        /* \"#utility.yul\":17550:17554   */\n      dup2\n        /* \"#utility.yul\":17546:17566   */\n      sub\n        /* \"#utility.yul\":17542:17543   */\n      0x00\n        /* \"#utility.yul\":17531:17540   */\n      dup4\n        /* \"#utility.yul\":17527:17544   */\n      add\n        /* \"#utility.yul\":17520:17567   */\n      mstore\n        /* \"#utility.yul\":17584:17715   */\n      tag_493\n        /* \"#utility.yul\":17710:17714   */\n      dup2\n        /* \"#utility.yul\":17584:17715   */\n      tag_430\n      jump\t// in\n    tag_493:\n        /* \"#utility.yul\":17576:17715   */\n      swap1\n      pop\n        /* \"#utility.yul\":17474:17722   */\n      swap2\n      swap1\n      pop\n      jump\t// out\n        /* \"#utility.yul\":17728:18147   */\n    tag_206:\n        /* \"#utility.yul\":17894:17898   */\n      0x00\n        /* \"#utility.yul\":17932:17934   */\n      0x20\n        /* \"#utility.yul\":17921:17930   */\n      dup3\n        /* \"#utility.yul\":17917:17935   */\n      add\n        /* \"#utility.yul\":17909:17935   */\n      swap1\n      pop\n        /* \"#utility.yul\":17981:17990   */\n      dup2\n        /* \"#utility.yul\":17975:17979   */\n      dup2\n        /* \"#utility.yul\":17971:17991   */\n      sub\n        /* \"#utility.yul\":17967:17968   */\n      0x00\n        /* \"#utility.yul\":17956:17965   */\n      dup4\n        /* \"#utility.yul\":17952:17969   */\n      add\n        /* \"#utility.yul\":17945:17992   */\n      mstore\n        /* \"#utility.yul\":18009:18140   */\n      tag_495\n        /* \"#utility.yul\":18135:18139   */\n      dup2\n        /* \"#utility.yul\":18009:18140   */\n      tag_435\n      jump\t// in\n    tag_495:\n        /* \"#utility.yul\":18001:18140   */\n      swap1\n      pop\n        /* \"#utility.yul\":17899:18147   */\n      swap2\n      swap1\n      pop\n      jump\t// out\n        /* \"#utility.yul\":18153:18572   */\n    tag_234:\n        /* \"#utility.yul\":18319:18323   */\n      0x00\n        /* \"#utility.yul\":18357:18359   */\n      0x20\n        /* \"#utility.yul\":18346:18355   */\n      dup3\n        /* \"#utility.yul\":18342:18360   */\n      add\n        /* \"#utility.yul\":18334:18360   */\n      swap1\n      pop\n        /* \"#utility.yul\":18406:18415   */\n      dup2\n        /* \"#utility.yul\":18400:18404   */\n      dup2\n        /* \"#utility.yul\":18396:18416   */\n      sub\n        /* \"#utility.yul\":18392:18393   */\n      0x00\n        /* \"#utility.yul\":18381:18390   */\n      dup4\n        /* \"#utility.yul\":18377:18394   */\n      add\n        /* \"#utility.yul\":18370:18417   */\n      mstore\n        /* \"#utility.yul\":18434:18565   */\n      tag_497\n        /* \"#utility.yul\":18560:18564   */\n      dup2\n        /* \"#utility.yul\":18434:18565   */\n      tag_440\n      jump\t// in\n    tag_497:\n        /* \"#utility.yul\":18426:18565   */\n      swap1\n      pop\n        /* \"#utility.yul\":18324:18572   */\n      swap2\n      swap1\n      pop\n      jump\t// out\n        /* \"#utility.yul\":18578:18800   */\n    tag_45:\n        /* \"#utility.yul\":18671:18675   */\n      0x00\n        /* \"#utility.yul\":18709:18711   */\n      0x20\n        /* \"#utility.yul\":18698:18707   */\n      dup3\n        /* \"#utility.yul\":18694:18712   */\n      add\n        /* \"#utility.yul\":18686:18712   */\n      swap1\n      pop\n        /* \"#utility.yul\":18722:18793   */\n      tag_499\n        /* \"#utility.yul\":18790:18791   */\n      0x00\n        /* \"#utility.yul\":18779:18788   */\n      dup4\n        /* \"#utility.yul\":18775:18792   */\n      add\n        /* \"#utility.yul\":18766:18772   */\n      dup5\n        /* \"#utility.yul\":18722:18793   */\n      tag_445\n      jump\t// in\n    tag_499:\n        /* \"#utility.yul\":18676:18800   */\n      swap3\n      swap2\n      pop\n      pop\n      jump\t// out\n        /* \"#utility.yul\":18806:19020   */\n    tag_61:\n        /* \"#utility.yul\":18895:18899   */\n      0x00\n        /* \"#utility.yul\":18933:18935   */\n      0x20\n        /* \"#utility.yul\":18922:18931   */\n      dup3\n        /* \"#utility.yul\":18918:18936   */\n      add\n        /* \"#utility.yul\":18910:18936   */\n      swap1\n      pop\n        /* \"#utility.yul\":18946:19013   */\n      tag_501\n        /* \"#utility.yul\":19010:19011   */\n      0x00\n        /* \"#utility.yul\":18999:19008   */\n      dup4\n        /* \"#utility.yul\":18995:19012   */\n      add\n        /* \"#utility.yul\":18986:18992   */\n      dup5\n        /* \"#utility.yul\":18946:19013   */\n      tag_449\n      jump\t// in\n    tag_501:\n        /* \"#utility.yul\":18900:19020   */\n      swap3\n      swap2\n      pop\n      pop\n      jump\t// out\n        /* \"#utility.yul\":19026:19155   */\n    tag_300:\n        /* \"#utility.yul\":19060:19066   */\n      0x00\n        /* \"#utility.yul\":19087:19107   */\n      tag_503\n      tag_504\n      jump\t// in\n    tag_503:\n        /* \"#utility.yul\":19077:19107   */\n      swap1\n      pop\n        /* \"#utility.yul\":19116:19149   */\n      tag_505\n        /* \"#utility.yul\":19144:19148   */\n      dup3\n        /* \"#utility.yul\":19136:19142   */\n      dup3\n        /* \"#utility.yul\":19116:19149   */\n      tag_506\n      jump\t// in\n    tag_505:\n        /* \"#utility.yul\":19067:19155   */\n      swap2\n      swap1\n      pop\n      jump\t// out\n        /* \"#utility.yul\":19161:19236   */\n    tag_504:\n        /* \"#utility.yul\":19194:19200   */\n      0x00\n        /* \"#utility.yul\":19227:19229   */\n      0x40\n        /* \"#utility.yul\":19221:19230   */\n      mload\n        /* \"#utility.yul\":19211:19230   */\n      swap1\n      pop\n        /* \"#utility.yul\":19201:19236   */\n      swap1\n      jump\t// out\n        /* \"#utility.yul\":19242:19549   */\n    tag_299:\n        /* \"#utility.yul\":19303:19307   */\n      0x00\n        /* \"#utility.yul\":19393:19411   */\n      0xffffffffffffffff\n        /* \"#utility.yul\":19385:19391   */\n      dup3\n        /* \"#utility.yul\":19382:19412   */\n      gt\n        /* \"#utility.yul\":19379:19381   */\n      iszero\n      tag_509\n      jumpi\n        /* \"#utility.yul\":19415:19433   */\n      tag_510\n      tag_511\n      jump\t// in\n    tag_510:\n        /* \"#utility.yul\":19379:19381   */\n    tag_509:\n        /* \"#utility.yul\":19453:19482   */\n      tag_512\n        /* \"#utility.yul\":19475:19481   */\n      dup3\n        /* \"#utility.yul\":19453:19482   */\n      tag_374\n      jump\t// in\n    tag_512:\n        /* \"#utility.yul\":19445:19482   */\n      swap1\n      pop\n        /* \"#utility.yul\":19537:19541   */\n      0x20\n        /* \"#utility.yul\":19531:19535   */\n      dup2\n        /* \"#utility.yul\":19527:19542   */\n      add\n        /* \"#utility.yul\":19519:19542   */\n      swap1\n      pop\n        /* \"#utility.yul\":19308:19549   */\n      swap2\n      swap1\n      pop\n      jump\t// out\n        /* \"#utility.yul\":19555:19654   */\n    tag_368:\n        /* \"#utility.yul\":19607:19613   */\n      0x00\n        /* \"#utility.yul\":19641:19646   */\n      dup2\n        /* \"#utility.yul\":19635:19647   */\n      mload\n        /* \"#utility.yul\":19625:19647   */\n      swap1\n      pop\n        /* \"#utility.yul\":19614:19654   */\n      swap2\n      swap1\n      pop\n      jump\t// out\n        /* \"#utility.yul\":19660:19829   */\n    tag_370:\n        /* \"#utility.yul\":19744:19755   */\n      0x00\n        /* \"#utility.yul\":19778:19784   */\n      dup3\n        /* \"#utility.yul\":19773:19776   */\n      dup3\n        /* \"#utility.yul\":19766:19785   */\n      mstore\n        /* \"#utility.yul\":19818:19822   */\n      0x20\n        /* \"#utility.yul\":19813:19816   */\n      dup3\n        /* \"#utility.yul\":19809:19823   */\n      add\n        /* \"#utility.yul\":19794:19823   */\n      swap1\n      pop\n        /* \"#utility.yul\":19756:19829   */\n      swap3\n      swap2\n      pop\n      pop\n      jump\t// out\n        /* \"#utility.yul\":19835:20140   */\n    tag_186:\n        /* \"#utility.yul\":19875:19878   */\n      0x00\n        /* \"#utility.yul\":19894:19914   */\n      tag_516\n        /* \"#utility.yul\":19912:19913   */\n      dup3\n        /* \"#utility.yul\":19894:19914   */\n      tag_448\n      jump\t// in\n    tag_516:\n        /* \"#utility.yul\":19889:19914   */\n      swap2\n      pop\n        /* \"#utility.yul\":19928:19948   */\n      tag_517\n        /* \"#utility.yul\":19946:19947   */\n      dup4\n        /* \"#utility.yul\":19928:19948   */\n      tag_448\n      jump\t// in\n    tag_517:\n        /* \"#utility.yul\":19923:19948   */\n      swap3\n      pop\n        /* \"#utility.yul\":20082:20083   */\n      dup3\n        /* \"#utility.yul\":20014:20080   */\n      0xffffffffffffffffffffffffffffffffffffffffffffffffffffffffffffffff\n        /* \"#utility.yul\":20010:20084   */\n      sub\n        /* \"#utility.yul\":20007:20008   */\n      dup3\n        /* \"#utility.yul\":20004:20085   */\n      gt\n        /* \"#utility.yul\":20001:20003   */\n      iszero\n      tag_518\n      jumpi\n        /* \"#utility.yul\":20088:20106   */\n      tag_519\n      tag_520\n      jump\t// in\n    tag_519:\n        /* \"#utility.yul\":20001:20003   */\n    tag_518:\n        /* \"#utility.yul\":20132:20133   */\n      dup3\n        /* \"#utility.yul\":20129:20130   */\n      dup3\n        /* \"#utility.yul\":20125:20134   */\n      add\n        /* \"#utility.yul\":20118:20134   */\n      swap1\n      pop\n        /* \"#utility.yul\":19879:20140   */\n      swap3\n      swap2\n      pop\n      pop\n      jump\t// out\n        /* \"#utility.yul\":20146:20337   */\n    tag_163:\n        /* \"#utility.yul\":20186:20190   */\n      0x00\n        /* \"#utility.yul\":20206:20226   */\n      tag_522\n        /* \"#utility.yul\":20224:20225   */\n      dup3\n        /* \"#utility.yul\":20206:20226   */\n      tag_448\n      jump\t// in\n    tag_522:\n        /* \"#utility.yul\":20201:20226   */\n      swap2\n      pop\n        /* \"#utility.yul\":20240:20260   */\n      tag_523\n        /* \"#utility.yul\":20258:20259   */\n      dup4\n        /* \"#utility.yul\":20240:20260   */\n      tag_448\n      jump\t// in\n    tag_523:\n        /* \"#utility.yul\":20235:20260   */\n      swap3\n      pop\n        /* \"#utility.yul\":20279:20280   */\n      dup3\n        /* \"#utility.yul\":20276:20277   */\n      dup3\n        /* \"#utility.yul\":20273:20281   */\n      lt\n        /* \"#utility.yul\":20270:20272   */\n      iszero\n      tag_524\n      jumpi\n        /* \"#utility.yul\":20284:20302   */\n      tag_525\n      tag_520\n      jump\t// in\n    tag_525:\n        /* \"#utility.yul\":20270:20272   */\n    tag_524:\n        /* \"#utility.yul\":20329:20330   */\n      dup3\n        /* \"#utility.yul\":20326:20327   */\n      dup3\n        /* \"#utility.yul\":20322:20331   */\n      sub\n        /* \"#utility.yul\":20314:20331   */\n      swap1\n      pop\n        /* \"#utility.yul\":20191:20337   */\n      swap3\n      swap2\n      pop\n      pop\n      jump\t// out\n        /* \"#utility.yul\":20343:20439   */\n    tag_356:\n        /* \"#utility.yul\":20380:20387   */\n      0x00\n        /* \"#utility.yul\":20409:20433   */\n      tag_527\n        /* \"#utility.yul\":20427:20432   */\n      dup3\n        /* \"#utility.yul\":20409:20433   */\n      tag_528\n      jump\t// in\n    tag_527:\n        /* \"#utility.yul\":20398:20433   */\n      swap1\n      pop\n        /* \"#utility.yul\":20388:20439   */\n      swap2\n      swap1\n      pop\n      jump\t// out\n        /* \"#utility.yul\":20445:20535   */\n    tag_360:\n        /* \"#utility.yul\":20479:20486   */\n      0x00\n        /* \"#utility.yul\":20522:20527   */\n      dup2\n        /* \"#utility.yul\":20515:20528   */\n      iszero\n        /* \"#utility.yul\":20508:20529   */\n      iszero\n        /* \"#utility.yul\":20497:20529   */\n      swap1\n      pop\n        /* \"#utility.yul\":20487:20535   */\n      swap2\n      swap1\n      pop\n      jump\t// out\n        /* \"#utility.yul\":20541:20618   */\n    tag_530:\n        /* \"#utility.yul\":20578:20585   */\n      0x00\n        /* \"#utility.yul\":20607:20612   */\n      dup2\n        /* \"#utility.yul\":20596:20612   */\n      swap1\n      pop\n        /* \"#utility.yul\":20586:20618   */\n      swap2\n      swap1\n      pop\n      jump\t// out\n        /* \"#utility.yul\":20624:20750   */\n    tag_528:\n        /* \"#utility.yul\":20661:20668   */\n      0x00\n        /* \"#utility.yul\":20701:20743   */\n      0xffffffffffffffffffffffffffffffffffffffff\n        /* \"#utility.yul\":20694:20699   */\n      dup3\n        /* \"#utility.yul\":20690:20744   */\n      and\n        /* \"#utility.yul\":20679:20744   */\n      swap1\n      pop\n        /* \"#utility.yul\":20669:20750   */\n      swap2\n      swap1\n      pop\n      jump\t// out\n        /* \"#utility.yul\":20756:20833   */\n    tag_448:\n        /* \"#utility.yul\":20793:20800   */\n      0x00\n        /* \"#utility.yul\":20822:20827   */\n      dup2\n        /* \"#utility.yul\":20811:20827   */\n      swap1\n      pop\n        /* \"#utility.yul\":20801:20833   */\n      swap2\n      swap1\n      pop\n      jump\t// out\n        /* \"#utility.yul\":20839:20925   */\n    tag_452:\n        /* \"#utility.yul\":20874:20881   */\n      0x00\n        /* \"#utility.yul\":20914:20918   */\n      0xff\n        /* \"#utility.yul\":20907:20912   */\n      dup3\n        /* \"#utility.yul\":20903:20919   */\n      and\n        /* \"#utility.yul\":20892:20919   */\n      swap1\n      pop\n        /* \"#utility.yul\":20882:20925   */\n      swap2\n      swap1\n      pop\n      jump\t// out\n        /* \"#utility.yul\":20931:21101   */\n    tag_364:\n        /* \"#utility.yul\":21003:21012   */\n      0x00\n        /* \"#utility.yul\":21036:21095   */\n      tag_536\n        /* \"#utility.yul\":21089:21094   */\n      dup3\n        /* \"#utility.yul\":21036:21095   */\n      tag_537\n      jump\t// in\n    tag_536:\n        /* \"#utility.yul\":21023:21095   */\n      swap1\n      pop\n        /* \"#utility.yul\":21013:21101   */\n      swap2\n      swap1\n      pop\n      jump\t// out\n        /* \"#utility.yul\":21107:21242   */\n    tag_537:\n        /* \"#utility.yul\":21179:21188   */\n      0x00\n        /* \"#utility.yul\":21212:21236   */\n      tag_539\n        /* \"#utility.yul\":21230:21235   */\n      dup3\n        /* \"#utility.yul\":21212:21236   */\n      tag_528\n      jump\t// in\n    tag_539:\n        /* \"#utility.yul\":21199:21236   */\n      swap1\n      pop\n        /* \"#utility.yul\":21189:21242   */\n      swap2\n      swap1\n      pop\n      jump\t// out\n        /* \"#utility.yul\":21248:21402   */\n    tag_303:\n        /* \"#utility.yul\":21332:21338   */\n      dup3\n        /* \"#utility.yul\":21327:21330   */\n      dup2\n        /* \"#utility.yul\":21322:21325   */\n      dup4\n        /* \"#utility.yul\":21309:21339   */\n      calldatacopy\n        /* \"#utility.yul\":21394:21395   */\n      0x00\n        /* \"#utility.yul\":21385:21391   */\n      dup4\n        /* \"#utility.yul\":21380:21383   */\n      dup4\n        /* \"#utility.yul\":21376:21392   */\n      add\n        /* \"#utility.yul\":21369:21396   */\n      mstore\n        /* \"#utility.yul\":21299:21402   */\n      pop\n      pop\n      pop\n      jump\t// out\n        /* \"#utility.yul\":21408:21715   */\n    tag_372:\n        /* \"#utility.yul\":21476:21477   */\n      0x00\n        /* \"#utility.yul\":21486:21599   */\n    tag_542:\n        /* \"#utility.yul\":21500:21506   */\n      dup4\n        /* \"#utility.yul\":21497:21498   */\n      dup2\n        /* \"#utility.yul\":21494:21507   */\n      lt\n        /* \"#utility.yul\":21486:21599   */\n      iszero\n      tag_544\n      jumpi\n        /* \"#utility.yul\":21585:21586   */\n      dup1\n        /* \"#utility.yul\":21580:21583   */\n      dup3\n        /* \"#utility.yul\":21576:21587   */\n      add\n        /* \"#utility.yul\":21570:21588   */\n      mload\n        /* \"#utility.yul\":21566:21567   */\n      dup2\n        /* \"#utility.yul\":21561:21564   */\n      dup5\n        /* \"#utility.yul\":21557:21568   */\n      add\n        /* \"#utility.yul\":21550:21589   */\n      mstore\n        /* \"#utility.yul\":21522:21524   */\n      0x20\n        /* \"#utility.yul\":21519:21520   */\n      dup2\n        /* \"#utility.yul\":21515:21525   */\n      add\n        /* \"#utility.yul\":21510:21525   */\n      swap1\n      pop\n        /* \"#utility.yul\":21486:21599   */\n      jump(tag_542)\n    tag_544:\n        /* \"#utility.yul\":21617:21623   */\n      dup4\n        /* \"#utility.yul\":21614:21615   */\n      dup2\n        /* \"#utility.yul\":21611:21624   */\n      gt\n        /* \"#utility.yul\":21608:21610   */\n      iszero\n      tag_545\n      jumpi\n        /* \"#utility.yul\":21697:21698   */\n      0x00\n        /* \"#utility.yul\":21688:21694   */\n      dup5\n        /* \"#utility.yul\":21683:21686   */\n      dup5\n        /* \"#utility.yul\":21679:21695   */\n      add\n        /* \"#utility.yul\":21672:21699   */\n      mstore\n        /* \"#utility.yul\":21608:21610   */\n    tag_545:\n        /* \"#utility.yul\":21457:21715   */\n      pop\n      pop\n      pop\n      pop\n      jump\t// out\n        /* \"#utility.yul\":21721:22041   */\n    tag_126:\n        /* \"#utility.yul\":21765:21771   */\n      0x00\n        /* \"#utility.yul\":21802:21803   */\n      0x02\n        /* \"#utility.yul\":21796:21800   */\n      dup3\n        /* \"#utility.yul\":21792:21804   */\n      div\n        /* \"#utility.yul\":21782:21804   */\n      swap1\n      pop\n        /* \"#utility.yul\":21849:21850   */\n      0x01\n        /* \"#utility.yul\":21843:21847   */\n      dup3\n        /* \"#utility.yul\":21839:21851   */\n      and\n        /* \"#utility.yul\":21870:21888   */\n      dup1\n        /* \"#utility.yul\":21860:21862   */\n      tag_547\n      jumpi\n        /* \"#utility.yul\":21926:21930   */\n      0x7f\n        /* \"#utility.yul\":21918:21924   */\n      dup3\n        /* \"#utility.yul\":21914:21931   */\n      and\n        /* \"#utility.yul\":21904:21931   */\n      swap2\n      pop\n        /* \"#utility.yul\":21860:21862   */\n    tag_547:\n        /* \"#utility.yul\":21988:21990   */\n      0x20\n        /* \"#utility.yul\":21980:21986   */\n      dup3\n        /* \"#utility.yul\":21977:21991   */\n      lt\n        /* \"#utility.yul\":21957:21975   */\n      dup2\n        /* \"#utility.yul\":21954:21992   */\n      eq\n        /* \"#utility.yul\":21951:21953   */\n      iszero\n      tag_548\n      jumpi\n        /* \"#utility.yul\":22007:22025   */\n      tag_549\n      tag_550\n      jump\t// in\n    tag_549:\n        /* \"#utility.yul\":21951:21953   */\n    tag_548:\n        /* \"#utility.yul\":21772:22041   */\n      pop\n      swap2\n      swap1\n      pop\n      jump\t// out\n        /* \"#utility.yul\":22047:22328   */\n    tag_506:\n        /* \"#utility.yul\":22130:22157   */\n      tag_552\n        /* \"#utility.yul\":22152:22156   */\n      dup3\n        /* \"#utility.yul\":22130:22157   */\n      tag_374\n      jump\t// in\n    tag_552:\n        /* \"#utility.yul\":22122:22128   */\n      dup2\n        /* \"#utility.yul\":22118:22158   */\n      add\n        /* \"#utility.yul\":22260:22266   */\n      dup2\n        /* \"#utility.yul\":22248:22258   */\n      dup2\n        /* \"#utility.yul\":22245:22267   */\n      lt\n        /* \"#utility.yul\":22224:22242   */\n      0xffffffffffffffff\n        /* \"#utility.yul\":22212:22222   */\n      dup3\n        /* \"#utility.yul\":22209:22243   */\n      gt\n        /* \"#utility.yul\":22206:22268   */\n      or\n        /* \"#utility.yul\":22203:22205   */\n      iszero\n      tag_553\n      jumpi\n        /* \"#utility.yul\":22271:22289   */\n      tag_554\n      tag_511\n      jump\t// in\n    tag_554:\n        /* \"#utility.yul\":22203:22205   */\n    tag_553:\n        /* \"#utility.yul\":22311:22321   */\n      dup1\n        /* \"#utility.yul\":22307:22309   */\n      0x40\n        /* \"#utility.yul\":22300:22322   */\n      mstore\n        /* \"#utility.yul\":22090:22328   */\n      pop\n      pop\n      pop\n      jump\t// out\n        /* \"#utility.yul\":22334:22567   */\n    tag_215:\n        /* \"#utility.yul\":22373:22376   */\n      0x00\n        /* \"#utility.yul\":22396:22420   */\n      tag_556\n        /* \"#utility.yul\":22414:22419   */\n      dup3\n        /* \"#utility.yul\":22396:22420   */\n      tag_448\n      jump\t// in\n    tag_556:\n        /* \"#utility.yul\":22387:22420   */\n      swap2\n      pop\n        /* \"#utility.yul\":22442:22508   */\n      0xffffffffffffffffffffffffffffffffffffffffffffffffffffffffffffffff\n        /* \"#utility.yul\":22435:22440   */\n      dup3\n        /* \"#utility.yul\":22432:22509   */\n      eq\n        /* \"#utility.yul\":22429:22431   */\n      iszero\n      tag_557\n      jumpi\n        /* \"#utility.yul\":22512:22530   */\n      tag_558\n      tag_520\n      jump\t// in\n    tag_558:\n        /* \"#utility.yul\":22429:22431   */\n    tag_557:\n        /* \"#utility.yul\":22559:22560   */\n      0x01\n        /* \"#utility.yul\":22552:22557   */\n      dup3\n        /* \"#utility.yul\":22548:22561   */\n      add\n        /* \"#utility.yul\":22541:22561   */\n      swap1\n      pop\n        /* \"#utility.yul\":22377:22567   */\n      swap2\n      swap1\n      pop\n      jump\t// out\n        /* \"#utility.yul\":22573:22753   */\n    tag_520:\n        /* \"#utility.yul\":22621:22698   */\n      0x4e487b7100000000000000000000000000000000000000000000000000000000\n        /* \"#utility.yul\":22618:22619   */\n      0x00\n        /* \"#utility.yul\":22611:22699   */\n      mstore\n        /* \"#utility.yul\":22718:22722   */\n      0x11\n        /* \"#utility.yul\":22715:22716   */\n      0x04\n        /* \"#utility.yul\":22708:22723   */\n      mstore\n        /* \"#utility.yul\":22742:22746   */\n      0x24\n        /* \"#utility.yul\":22739:22740   */\n      0x00\n        /* \"#utility.yul\":22732:22747   */\n      revert\n        /* \"#utility.yul\":22759:22939   */\n    tag_550:\n        /* \"#utility.yul\":22807:22884   */\n      0x4e487b7100000000000000000000000000000000000000000000000000000000\n        /* \"#utility.yul\":22804:22805   */\n      0x00\n        /* \"#utility.yul\":22797:22885   */\n      mstore\n        /* \"#utility.yul\":22904:22908   */\n      0x22\n        /* \"#utility.yul\":22901:22902   */\n      0x04\n        /* \"#utility.yul\":22894:22909   */\n      mstore\n        /* \"#utility.yul\":22928:22932   */\n      0x24\n        /* \"#utility.yul\":22925:22926   */\n      0x00\n        /* \"#utility.yul\":22918:22933   */\n      revert\n        /* \"#utility.yul\":22945:23125   */\n    tag_511:\n        /* \"#utility.yul\":22993:23070   */\n      0x4e487b7100000000000000000000000000000000000000000000000000000000\n        /* \"#utility.yul\":22990:22991   */\n      0x00\n        /* \"#utility.yul\":22983:23071   */\n      mstore\n        /* \"#utility.yul\":23090:23094   */\n      0x41\n        /* \"#utility.yul\":23087:23088   */\n      0x04\n        /* \"#utility.yul\":23080:23095   */\n      mstore\n        /* \"#utility.yul\":23114:23118   */\n      0x24\n        /* \"#utility.yul\":23111:23112   */\n      0x00\n        /* \"#utility.yul\":23104:23119   */\n      revert\n        /* \"#utility.yul\":23131:23233   */\n    tag_374:\n        /* \"#utility.yul\":23172:23178   */\n      0x00\n        /* \"#utility.yul\":23223:23225   */\n      0x1f\n        /* \"#utility.yul\":23219:23226   */\n      not\n        /* \"#utility.yul\":23214:23216   */\n      0x1f\n        /* \"#utility.yul\":23207:23212   */\n      dup4\n        /* \"#utility.yul\":23203:23217   */\n      add\n        /* \"#utility.yul\":23199:23227   */\n      and\n        /* \"#utility.yul\":23189:23227   */\n      swap1\n      pop\n        /* \"#utility.yul\":23179:23233   */\n      swap2\n      swap1\n      pop\n      jump\t// out\n        /* \"#utility.yul\":23239:23420   */\n    tag_379:\n        /* \"#utility.yul\":23379:23412   */\n      0x4c45524332303a2043616e6e6f74207365742073616d65206164647265737300\n        /* \"#utility.yul\":23375:23376   */\n      0x00\n        /* \"#utility.yul\":23367:23373   */\n      dup3\n        /* \"#utility.yul\":23363:23377   */\n      add\n        /* \"#utility.yul\":23356:23413   */\n      mstore\n        /* \"#utility.yul\":23345:23420   */\n      pop\n      jump\t// out\n        /* \"#utility.yul\":23426:23605   */\n    tag_384:\n        /* \"#utility.yul\":23566:23597   */\n      0x4c45524332303a2054696d65206c6f636b20696e2070726f6772657373000000\n        /* \"#utility.yul\":23562:23563   */\n      0x00\n        /* \"#utility.yul\":23554:23560   */\n      dup3\n        /* \"#utility.yul\":23550:23564   */\n      add\n        /* \"#utility.yul\":23543:23598   */\n      mstore\n        /* \"#utility.yul\":23532:23605   */\n      pop\n      jump\t// out\n        /* \"#utility.yul\":23611:23837   */\n    tag_389:\n        /* \"#utility.yul\":23751:23785   */\n      0x4c45524332303a207472616e7366657220616d6f756e74206578636565647320\n        /* \"#utility.yul\":23747:23748   */\n      0x00\n        /* \"#utility.yul\":23739:23745   */\n      dup3\n        /* \"#utility.yul\":23735:23749   */\n      add\n        /* \"#utility.yul\":23728:23786   */\n      mstore\n        /* \"#utility.yul\":23820:23829   */\n      0x62616c616e636500000000000000000000000000000000000000000000000000\n        /* \"#utility.yul\":23815:23817   */\n      0x20\n        /* \"#utility.yul\":23807:23813   */\n      dup3\n        /* \"#utility.yul\":23803:23818   */\n      add\n        /* \"#utility.yul\":23796:23830   */\n      mstore\n        /* \"#utility.yul\":23717:23837   */\n      pop\n      jump\t// out\n        /* \"#utility.yul\":23843:24071   */\n    tag_394:\n        /* \"#utility.yul\":23983:24017   */\n      0x4c45524332303a207472616e7366657220616d6f756e74206578636565647320\n        /* \"#utility.yul\":23979:23980   */\n      0x00\n        /* \"#utility.yul\":23971:23977   */\n      dup3\n        /* \"#utility.yul\":23967:23981   */\n      add\n        /* \"#utility.yul\":23960:24018   */\n      mstore\n        /* \"#utility.yul\":24052:24063   */\n      0x616c6c6f77616e63650000000000000000000000000000000000000000000000\n        /* \"#utility.yul\":24047:24049   */\n      0x20\n        /* \"#utility.yul\":24039:24045   */\n      dup3\n        /* \"#utility.yul\":24035:24050   */\n      add\n        /* \"#utility.yul\":24028:24064   */\n      mstore\n        /* \"#utility.yul\":23949:24071   */\n      pop\n      jump\t// out\n        /* \"#utility.yul\":24077:24246   */\n    tag_399:\n        /* \"#utility.yul\":24217:24238   */\n      0x4c45524332303a20496e76616c6964206b657900000000000000000000000000\n        /* \"#utility.yul\":24213:24214   */\n      0x00\n        /* \"#utility.yul\":24205:24211   */\n      dup3\n        /* \"#utility.yul\":24201:24215   */\n      add\n        /* \"#utility.yul\":24194:24239   */\n      mstore\n        /* \"#utility.yul\":24183:24246   */\n      pop\n      jump\t// out\n        /* \"#utility.yul\":24252:24430   */\n    tag_404:\n        /* \"#utility.yul\":24392:24422   */\n      0x4c45524332303a205475726e4f6666206e6f742070726f706f73656400000000\n        /* \"#utility.yul\":24388:24389   */\n      0x00\n        /* \"#utility.yul\":24380:24386   */\n      dup3\n        /* \"#utility.yul\":24376:24390   */\n      add\n        /* \"#utility.yul\":24369:24423   */\n      mstore\n        /* \"#utility.yul\":24358:24430   */\n      pop\n      jump\t// out\n        /* \"#utility.yul\":24436:24661   */\n    tag_409:\n        /* \"#utility.yul\":24576:24610   */\n      0x4c45524332303a207472616e736665722066726f6d20746865207a65726f2061\n        /* \"#utility.yul\":24572:24573   */\n      0x00\n        /* \"#utility.yul\":24564:24570   */\n      dup3\n        /* \"#utility.yul\":24560:24574   */\n      add\n        /* \"#utility.yul\":24553:24611   */\n      mstore\n        /* \"#utility.yul\":24645:24653   */\n      0x6464726573730000000000000000000000000000000000000000000000000000\n        /* \"#utility.yul\":24640:24642   */\n      0x20\n        /* \"#utility.yul\":24632:24638   */\n      dup3\n        /* \"#utility.yul\":24628:24643   */\n      add\n        /* \"#utility.yul\":24621:24654   */\n      mstore\n        /* \"#utility.yul\":24542:24661   */\n      pop\n      jump\t// out\n        /* \"#utility.yul\":24667:24842   */\n    tag_414:\n        /* \"#utility.yul\":24807:24834   */\n      0x4c45524332303a204d7573742062652063616e64697461746500000000000000\n        /* \"#utility.yul\":24803:24804   */\n      0x00\n        /* \"#utility.yul\":24795:24801   */\n      dup3\n        /* \"#utility.yul\":24791:24805   */\n      add\n        /* \"#utility.yul\":24784:24835   */\n      mstore\n        /* \"#utility.yul\":24773:24842   */\n      pop\n      jump\t// out\n        /* \"#utility.yul\":24848:25030   */\n    tag_419:\n        /* \"#utility.yul\":24988:25022   */\n      0x4c45524332303a205475726e4f666620616c72656164792070726f706f736564\n        /* \"#utility.yul\":24984:24985   */\n      0x00\n        /* \"#utility.yul\":24976:24982   */\n      dup3\n        /* \"#utility.yul\":24972:24986   */\n      add\n        /* \"#utility.yul\":24965:25023   */\n      mstore\n        /* \"#utility.yul\":24954:25030   */\n      pop\n      jump\t// out\n        /* \"#utility.yul\":25036:25216   */\n    tag_424:\n        /* \"#utility.yul\":25176:25208   */\n      0x4c45524332303a204d757374206265207265636f766572792061646d696e0000\n        /* \"#utility.yul\":25172:25173   */\n      0x00\n        /* \"#utility.yul\":25164:25170   */\n      dup3\n        /* \"#utility.yul\":25160:25174   */\n      add\n        /* \"#utility.yul\":25153:25209   */\n      mstore\n        /* \"#utility.yul\":25142:25216   */\n      pop\n      jump\t// out\n        /* \"#utility.yul\":25222:25399   */\n    tag_429:\n        /* \"#utility.yul\":25362:25391   */\n      0x4c45524332303a204c6f73736c65737320616c7265616479206f6e0000000000\n        /* \"#utility.yul\":25358:25359   */\n      0x00\n        /* \"#utility.yul\":25350:25356   */\n      dup3\n        /* \"#utility.yul\":25346:25360   */\n      add\n        /* \"#utility.yul\":25339:25392   */\n      mstore\n        /* \"#utility.yul\":25328:25399   */\n      pop\n      jump\t// out\n        /* \"#utility.yul\":25405:25583   */\n    tag_434:\n        /* \"#utility.yul\":25545:25575   */\n      0x4c45524332303a204c6f73736c65737320616c7265616479206f666600000000\n        /* \"#utility.yul\":25541:25542   */\n      0x00\n        /* \"#utility.yul\":25533:25539   */\n      dup3\n        /* \"#utility.yul\":25529:25543   */\n      add\n        /* \"#utility.yul\":25522:25576   */\n      mstore\n        /* \"#utility.yul\":25511:25583   */\n      pop\n      jump\t// out\n        /* \"#utility.yul\":25589:25769   */\n    tag_439:\n        /* \"#utility.yul\":25729:25761   */\n      0x4c45524332303a204f6e6c79206c6f73736c65737320636f6e74726163740000\n        /* \"#utility.yul\":25725:25726   */\n      0x00\n        /* \"#utility.yul\":25717:25723   */\n      dup3\n        /* \"#utility.yul\":25713:25727   */\n      add\n        /* \"#utility.yul\":25706:25762   */\n      mstore\n        /* \"#utility.yul\":25695:25769   */\n      pop\n      jump\t// out\n        /* \"#utility.yul\":25775:26000   */\n    tag_444:\n        /* \"#utility.yul\":25915:25949   */\n      0x4c45524332303a2064656372656173656420616c6c6f77616e63652062656c6f\n        /* \"#utility.yul\":25911:25912   */\n      0x00\n        /* \"#utility.yul\":25903:25909   */\n      dup3\n        /* \"#utility.yul\":25899:25913   */\n      add\n        /* \"#utility.yul\":25892:25950   */\n      mstore\n        /* \"#utility.yul\":25984:25992   */\n      0x77207a65726f0000000000000000000000000000000000000000000000000000\n        /* \"#utility.yul\":25979:25981   */\n      0x20\n        /* \"#utility.yul\":25971:25977   */\n      dup3\n        /* \"#utility.yul\":25967:25982   */\n      add\n        /* \"#utility.yul\":25960:25993   */\n      mstore\n        /* \"#utility.yul\":25881:26000   */\n      pop\n      jump\t// out\n        /* \"#utility.yul\":26006:26128   */\n    tag_307:\n        /* \"#utility.yul\":26079:26103   */\n      tag_578\n        /* \"#utility.yul\":26097:26102   */\n      dup2\n        /* \"#utility.yul\":26079:26103   */\n      tag_356\n      jump\t// in\n    tag_578:\n        /* \"#utility.yul\":26072:26077   */\n      dup2\n        /* \"#utility.yul\":26069:26104   */\n      eq\n        /* \"#utility.yul\":26059:26061   */\n      tag_579\n      jumpi\n        /* \"#utility.yul\":26118:26119   */\n      0x00\n        /* \"#utility.yul\":26115:26116   */\n      dup1\n        /* \"#utility.yul\":26108:26120   */\n      revert\n        /* \"#utility.yul\":26059:26061   */\n    tag_579:\n        /* \"#utility.yul\":26049:26128   */\n      pop\n      jump\t// out\n        /* \"#utility.yul\":26134:26256   */\n    tag_316:\n        /* \"#utility.yul\":26207:26231   */\n      tag_581\n        /* \"#utility.yul\":26225:26230   */\n      dup2\n        /* \"#utility.yul\":26207:26231   */\n      tag_530\n      jump\t// in\n    tag_581:\n        /* \"#utility.yul\":26200:26205   */\n      dup2\n        /* \"#utility.yul\":26197:26232   */\n      eq\n        /* \"#utility.yul\":26187:26189   */\n      tag_582\n      jumpi\n        /* \"#utility.yul\":26246:26247   */\n      0x00\n        /* \"#utility.yul\":26243:26244   */\n      dup1\n        /* \"#utility.yul\":26236:26248   */\n      revert\n        /* \"#utility.yul\":26187:26189   */\n    tag_582:\n        /* \"#utility.yul\":26177:26256   */\n      pop\n      jump\t// out\n        /* \"#utility.yul\":26262:26384   */\n    tag_324:\n        /* \"#utility.yul\":26335:26359   */\n      tag_584\n        /* \"#utility.yul\":26353:26358   */\n      dup2\n        /* \"#utility.yul\":26335:26359   */\n      tag_448\n      jump\t// in\n    tag_584:\n        /* \"#utility.yul\":26328:26333   */\n      dup2\n        /* \"#utility.yul\":26325:26360   */\n      eq\n        /* \"#utility.yul\":26315:26317   */\n      tag_585\n      jumpi\n        /* \"#utility.yul\":26374:26375   */\n      0x00\n        /* \"#utility.yul\":26371:26372   */\n      dup1\n        /* \"#utility.yul\":26364:26376   */\n      revert\n        /* \"#utility.yul\":26315:26317   */\n    tag_585:\n        /* \"#utility.yul\":26305:26384   */\n      pop\n      jump\t// out\n\n    auxdata: 0xa2646970667358221220fc1bdb415dd1fcd83ba2778fad486ea2bdbe11c5b876507578cacc533f67f09d64736f6c63430008040033\n}\n",
				"bytecode": {
					"linkReferences": {},
					"object": "60806040526001600b60006101000a81548160ff0219169083151502179055503480156200002c57600080fd5b50604051620033153803806200331583398181016040528101906200005291906200046c565b6200007362000066620001ce60201b60201c565b88620001d660201b60201c565b85600390805190602001906200008b9291906200031c565b508460049080519060200190620000a49291906200031c565b5083600860006101000a81548173ffffffffffffffffffffffffffffffffffffffff021916908373ffffffffffffffffffffffffffffffffffffffff16021790555082600560006101000a81548173ffffffffffffffffffffffffffffffffffffffff021916908373ffffffffffffffffffffffffffffffffffffffff1602179055506000600660006101000a81548173ffffffffffffffffffffffffffffffffffffffff021916908373ffffffffffffffffffffffffffffffffffffffff1602179055506000600781905550816009819055506000600a8190555080600b60016101000a81548173ffffffffffffffffffffffffffffffffffffffff021916908373ffffffffffffffffffffffffffffffffffffffff160217905550505050505050506200086a565b600033905090565b600073ffffffffffffffffffffffffffffffffffffffff168273ffffffffffffffffffffffffffffffffffffffff16141562000249576040517f08c379a0000000000000000000000000000000000000000000000000000000008152600401620002409062000583565b60405180910390fd5b80600260008282546200025d919062000632565b92505081905550806000808473ffffffffffffffffffffffffffffffffffffffff1673ffffffffffffffffffffffffffffffffffffffff168152602001908152602001600020600082825401925050819055508173ffffffffffffffffffffffffffffffffffffffff16600073ffffffffffffffffffffffffffffffffffffffff167fddf252ad1be2c89b69c2b068fc378daa952ba7f163c4a11628f55a4df523b3ef83604051620003109190620005a5565b60405180910390a35050565b8280546200032a9062000703565b90600052602060002090601f0160209004810192826200034e57600085556200039a565b82601f106200036957805160ff19168380011785556200039a565b828001600101855582156200039a579182015b82811115620003995782518255916020019190600101906200037c565b5b509050620003a99190620003ad565b5090565b5b80821115620003c8576000816000905550600101620003ae565b5090565b6000620003e3620003dd84620005eb565b620005c2565b905082815260208101848484011115620003fc57600080fd5b62000409848285620006cd565b509392505050565b600081519050620004228162000836565b92915050565b600082601f8301126200043a57600080fd5b81516200044c848260208601620003cc565b91505092915050565b600081519050620004668162000850565b92915050565b600080600080600080600060e0888a0312156200048857600080fd5b6000620004988a828b0162000455565b975050602088015167ffffffffffffffff811115620004b657600080fd5b620004c48a828b0162000428565b965050604088015167ffffffffffffffff811115620004e257600080fd5b620004f08a828b0162000428565b9550506060620005038a828b0162000411565b9450506080620005168a828b0162000411565b93505060a0620005298a828b0162000455565b92505060c06200053c8a828b0162000411565b91505092959891949750929550565b60006200055a60208362000621565b915062000567826200080d565b602082019050919050565b6200057d81620006c3565b82525050565b600060208201905081810360008301526200059e816200054b565b9050919050565b6000602082019050620005bc600083018462000572565b92915050565b6000620005ce620005e1565b9050620005dc828262000739565b919050565b6000604051905090565b600067ffffffffffffffff821115620006095762000608620007cd565b5b6200061482620007fc565b9050602081019050919050565b600082825260208201905092915050565b60006200063f82620006c3565b91506200064c83620006c3565b9250827fffffffffffffffffffffffffffffffffffffffffffffffffffffffffffffffff038211156200068457620006836200076f565b5b828201905092915050565b60006200069c82620006a3565b9050919050565b600073ffffffffffffffffffffffffffffffffffffffff82169050919050565b6000819050919050565b60005b83811015620006ed578082015181840152602081019050620006d0565b83811115620006fd576000848401525b50505050565b600060028204905060018216806200071c57607f821691505b602082108114156200073357620007326200079e565b5b50919050565b6200074482620007fc565b810181811067ffffffffffffffff82111715620007665762000765620007cd565b5b80604052505050565b7f4e487b7100000000000000000000000000000000000000000000000000000000600052601160045260246000fd5b7f4e487b7100000000000000000000000000000000000000000000000000000000600052602260045260246000fd5b7f4e487b7100000000000000000000000000000000000000000000000000000000600052604160045260246000fd5b6000601f19601f8301169050919050565b7f4c45524332303a206d696e7420746f20746865207a65726f2061646472657373600082015250565b62000841816200068f565b81146200084d57600080fd5b50565b6200085b81620006c3565b81146200086757600080fd5b50565b612a9b806200087a6000396000f3fe608060405234801561001057600080fd5b50600436106101735760003560e01c80636e9960c3116100de578063a9059cbb11610097578063ccfa214f11610071578063ccfa214f1461042a578063d6e242b814610448578063dd62ed3e14610452578063f851a4401461048257610173565b8063a9059cbb146103d4578063b38fe95714610404578063b5c228771461040e57610173565b80636e9960c31461030057806370a082311461031e57806393310ffe1461034e578063936af9111461036a57806395d89b4114610386578063a457c2d7146103a457610173565b8063313ce56711610130578063313ce5671461024e57806334f6ebf51461026c578063395093511461028a5780635b8a194a146102ba5780635f6529a3146102c457806361086b00146102e257610173565b806306fdde0314610178578063095ea7b31461019657806318160ddd146101c657806323b872dd146101e45780632baa3c9e146102145780632ecaf67514610230575b600080fd5b6101806104a0565b60405161018d9190612227565b60405180910390f35b6101b060048036038101906101ab9190611e2a565b610532565b6040516101bd91906121f1565b60405180910390f35b6101ce610602565b6040516101db9190612409565b60405180910390f35b6101fe60048036038101906101f99190611d9f565b61060c565b60405161020b91906121f1565b60405180910390f35b61022e60048036038101906102299190611d3a565b6107c3565b005b610238610972565b6040516102459190612409565b60405180910390f35b610256610978565b6040516102639190612424565b60405180910390f35b610274610981565b604051610281919061220c565b60405180910390f35b6102a4600480360381019061029f9190611e2a565b6109a7565b6040516102b191906121f1565b60405180910390f35b6102c2610b05565b005b6102cc610c3d565b6040516102d9919061215a565b60405180910390f35b6102ea610c63565b6040516102f79190612409565b60405180910390f35b610308610c69565b604051610315919061215a565b60405180910390f35b61033860048036038101906103339190611d3a565b610c93565b6040516103459190612409565b60405180910390f35b61036860048036038101906103639190611dee565b610cdb565b005b610384600480360381019061037f9190611e66565b610e01565b005b61038e6110ad565b60405161039b9190612227565b60405180910390f35b6103be60048036038101906103b99190611e2a565b61113f565b6040516103cb91906121f1565b60405180910390f35b6103ee60048036038101906103e99190611e2a565b6112e6565b6040516103fb91906121f1565b60405180910390f35b61040c6113b6565b005b61042860048036038101906104239190611eab565b611529565b005b610432611718565b60405161043f91906121f1565b60405180910390f35b61045061172b565b005b61046c60048036038101906104679190611d63565b6118a5565b6040516104799190612409565b60405180910390f35b61048a61192c565b604051610497919061215a565b60405180910390f35b6060600380546104af90612600565b80601f01602080910402602001604051908101604052809291908181526020018280546104db90612600565b80156105285780601f106104fd57610100808354040283529160200191610528565b820191906000526020600020905b81548152906001019060200180831161050b57829003601f168201915b5050505050905090565b60008282600b60009054906101000a900460ff16156105e457600b60019054906101000a900473ffffffffffffffffffffffffffffffffffffffff1673ffffffffffffffffffffffffffffffffffffffff166347abf3be610591611952565b84846040518463ffffffff1660e01b81526004016105b1939291906121ba565b600060405180830381600087803b1580156105cb57600080fd5b505af11580156105df573d6000803e3d6000fd5b505050505b6105f66105ef611952565b868661195a565b60019250505092915050565b6000600254905090565b6000838383600b60009054906101000a900460ff16156106c157600b60019054906101000a900473ffffffffffffffffffffffffffffffffffffffff1673ffffffffffffffffffffffffffffffffffffffff1663379f5c6961066c611952565b8585856040518563ffffffff1660e01b815260040161068e9493929190612175565b600060405180830381600087803b1580156106a857600080fd5b505af11580156106bc573d6000803e3d6000fd5b505050505b6000600160008973ffffffffffffffffffffffffffffffffffffffff1673ffffffffffffffffffffffffffffffffffffffff168152602001908152602001600020600061070c611952565b73ffffffffffffffffffffffffffffffffffffffff1673ffffffffffffffffffffffffffffffffffffffff1681526020019081526020016000205490508581101561078c576040517f08c379a0000000000000000000000000000000000000000000000000000000008152600401610783906122a9565b60405180910390fd5b610797888888611a45565b6107b4886107a3611952565b88846107af9190612507565b61195a565b60019450505050509392505050565b600560009054906101000a900473ffffffffffffffffffffffffffffffffffffffff1673ffffffffffffffffffffffffffffffffffffffff16610804611952565b73ffffffffffffffffffffffffffffffffffffffff161461085a576040517f08c379a000000000000000000000000000000000000000000000000000000000815260040161085190612369565b60405180910390fd5b600860009054906101000a900473ffffffffffffffffffffffffffffffffffffffff1673ffffffffffffffffffffffffffffffffffffffff168173ffffffffffffffffffffffffffffffffffffffff1614156108eb576040517f08c379a00000000000000000000000000000000000000000000000000000000081526004016108e290612249565b60405180910390fd5b8073ffffffffffffffffffffffffffffffffffffffff167f71614071b88dee5e0b2ae578a9dd7b2ebbe9ae832ba419dc0242cd065a290b6c60405160405180910390a280600860006101000a81548173ffffffffffffffffffffffffffffffffffffffff021916908373ffffffffffffffffffffffffffffffffffffffff16021790555050565b60095481565b60006012905090565b600b60019054906101000a900473ffffffffffffffffffffffffffffffffffffffff1681565b60008282600b60009054906101000a900460ff1615610a5957600b60019054906101000a900473ffffffffffffffffffffffffffffffffffffffff1673ffffffffffffffffffffffffffffffffffffffff1663cf5961bb610a06611952565b84846040518463ffffffff1660e01b8152600401610a26939291906121ba565b600060405180830381600087803b158015610a4057600080fd5b505af1158015610a54573d6000803e3d6000fd5b505050505b610af9610a64611952565b868660016000610a72611952565b73ffffffffffffffffffffffffffffffffffffffff1673ffffffffffffffffffffffffffffffffffffffff16815260200190815260200160002060008a73ffffffffffffffffffffffffffffffffffffffff1673ffffffffffffffffffffffffffffffffffffffff16815260200190815260200160002054610af491906124b1565b61195a565b60019250505092915050565b600560009054906101000a900473ffffffffffffffffffffffffffffffffffffffff1673ffffffffffffffffffffffffffffffffffffffff16610b46611952565b73ffffffffffffffffffffffffffffffffffffffff1614610b9c576040517f08c379a0000000000000000000000000000000000000000000000000000000008152600401610b9390612369565b60405180910390fd5b600b60009054906101000a900460ff1615610bec576040517f08c379a0000000000000000000000000000000000000000000000000000000008152600401610be390612389565b60405180910390fd5b6000600a819055506001600b60006101000a81548160ff0219169083151502179055507f1ba3b66404043da8297d0b876fa6464f2cb127edfc6626308046d4503028322b60405160405180910390a1565b600560009054906101000a900473ffffffffffffffffffffffffffffffffffffffff1681565b600a5481565b6000600860009054906101000a900473ffffffffffffffffffffffffffffffffffffffff16905090565b60008060008373ffffffffffffffffffffffffffffffffffffffff1673ffffffffffffffffffffffffffffffffffffffff168152602001908152602001600020549050919050565b600560009054906101000a900473ffffffffffffffffffffffffffffffffffffffff1673ffffffffffffffffffffffffffffffffffffffff16610d1c611952565b73ffffffffffffffffffffffffffffffffffffffff1614610d72576040517f08c379a0000000000000000000000000000000000000000000000000000000008152600401610d6990612369565b60405180910390fd5b81600660006101000a81548173ffffffffffffffffffffffffffffffffffffffff021916908373ffffffffffffffffffffffffffffffffffffffff160217905550806007819055508173ffffffffffffffffffffffffffffffffffffffff167f6c591da8da2f6e69746d7d9ae61c27ee29fbe303798141b4942ae2aef54274b160405160405180910390a25050565b600b60019054906101000a900473ffffffffffffffffffffffffffffffffffffffff1673ffffffffffffffffffffffffffffffffffffffff16610e42611952565b73ffffffffffffffffffffffffffffffffffffffff1614610e98576040517f08c379a0000000000000000000000000000000000000000000000000000000008152600401610e8f906123c9565b60405180910390fd5b60008282905090506000805b8281101561102f576000858583818110610ee7577f4e487b7100000000000000000000000000000000000000000000000000000000600052603260045260246000fd5b9050602002016020810190610efc9190611d3a565b905060008060008373ffffffffffffffffffffffffffffffffffffffff1673ffffffffffffffffffffffffffffffffffffffff16815260200190815260200160002054905060008060008473ffffffffffffffffffffffffffffffffffffffff1673ffffffffffffffffffffffffffffffffffffffff168152602001908152602001600020819055508084610f9191906124b1565b9350600b60019054906101000a900473ffffffffffffffffffffffffffffffffffffffff1673ffffffffffffffffffffffffffffffffffffffff168273ffffffffffffffffffffffffffffffffffffffff167fddf252ad1be2c89b69c2b068fc378daa952ba7f163c4a11628f55a4df523b3ef836040516110129190612409565b60405180910390a35050808061102790612663565b915050610ea4565b5080600080600b60019054906101000a900473ffffffffffffffffffffffffffffffffffffffff1673ffffffffffffffffffffffffffffffffffffffff1673ffffffffffffffffffffffffffffffffffffffff16815260200190815260200160002060008282546110a091906124b1565b9250508190555050505050565b6060600480546110bc90612600565b80601f01602080910402602001604051908101604052809291908181526020018280546110e890612600565b80156111355780601f1061110a57610100808354040283529160200191611135565b820191906000526020600020905b81548152906001019060200180831161111857829003601f168201915b5050505050905090565b60008282600b60009054906101000a900460ff16156111f157600b60019054906101000a900473ffffffffffffffffffffffffffffffffffffffff1673ffffffffffffffffffffffffffffffffffffffff1663568c75a961119e611952565b84846040518463ffffffff1660e01b81526004016111be939291906121ba565b600060405180830381600087803b1580156111d857600080fd5b505af11580156111ec573d6000803e3d6000fd5b505050505b6000600160006111ff611952565b73ffffffffffffffffffffffffffffffffffffffff1673ffffffffffffffffffffffffffffffffffffffff16815260200190815260200160002060008773ffffffffffffffffffffffffffffffffffffffff1673ffffffffffffffffffffffffffffffffffffffff168152602001908152602001600020549050848110156112bc576040517f08c379a00000000000000000000000000000000000000000000000000000000081526004016112b3906123e9565b60405180910390fd5b6112d96112c7611952565b8787846112d49190612507565b61195a565b6001935050505092915050565b60008282600b60009054906101000a900460ff161561139857600b60019054906101000a900473ffffffffffffffffffffffffffffffffffffffff1673ffffffffffffffffffffffffffffffffffffffff16631ffb811f611345611952565b84846040518463ffffffff1660e01b8152600401611365939291906121ba565b600060405180830381600087803b15801561137f57600080fd5b505af1158015611393573d6000803e3d6000fd5b505050505b6113aa6113a3611952565b8686611a45565b60019250505092915050565b600560009054906101000a900473ffffffffffffffffffffffffffffffffffffffff1673ffffffffffffffffffffffffffffffffffffffff166113f7611952565b73ffffffffffffffffffffffffffffffffffffffff161461144d576040517f08c379a000000000000000000000000000000000000000000000000000000000815260040161144490612369565b60405180910390fd5b6000600a541415611493576040517f08c379a000000000000000000000000000000000000000000000000000000000815260040161148a906122e9565b60405180910390fd5b42600a5411156114d8576040517f08c379a00000000000000000000000000000000000000000000000000000000081526004016114cf90612269565b60405180910390fd5b6000600b60006101000a81548160ff0219169083151502179055506000600a819055507f3eb72350c9c7928d31e9ab450bfff2c159434aa4b82658a7d8eae7f109cb4e7b60405160405180910390a1565b600660009054906101000a900473ffffffffffffffffffffffffffffffffffffffff1673ffffffffffffffffffffffffffffffffffffffff1661156a611952565b73ffffffffffffffffffffffffffffffffffffffff16146115c0576040517f08c379a00000000000000000000000000000000000000000000000000000000081526004016115b790612329565b60405180910390fd5b60075481805190602001201461160b576040517f08c379a0000000000000000000000000000000000000000000000000000000008152600401611602906122c9565b60405180910390fd5b600660009054906101000a900473ffffffffffffffffffffffffffffffffffffffff1673ffffffffffffffffffffffffffffffffffffffff167fb94bba6936ec7f75ee931dadf6e1a4d66b43d09b6fa0178fb13df9b77fb5841f60405160405180910390a2600660009054906101000a900473ffffffffffffffffffffffffffffffffffffffff16600560006101000a81548173ffffffffffffffffffffffffffffffffffffffff021916908373ffffffffffffffffffffffffffffffffffffffff1602179055506000600660006101000a81548173ffffffffffffffffffffffffffffffffffffffff021916908373ffffffffffffffffffffffffffffffffffffffff16021790555050565b600b60009054906101000a900460ff1681565b600560009054906101000a900473ffffffffffffffffffffffffffffffffffffffff1673ffffffffffffffffffffffffffffffffffffffff1661176c611952565b73ffffffffffffffffffffffffffffffffffffffff16146117c2576040517f08c379a00000000000000000000000000000000000000000000000000000000081526004016117b990612369565b60405180910390fd5b6000600a5414611807576040517f08c379a00000000000000000000000000000000000000000000000000000000081526004016117fe90612349565b60405180910390fd5b600b60009054906101000a900460ff16611856576040517f08c379a000000000000000000000000000000000000000000000000000000000815260040161184d906123a9565b60405180910390fd5b6009544261186491906124b1565b600a819055507f6ca688e6e3ddd707280140b2bf0106afe883689b6c74e68cbd517576dd9c245a600a5460405161189b9190612409565b60405180910390a1565b6000600160008473ffffffffffffffffffffffffffffffffffffffff1673ffffffffffffffffffffffffffffffffffffffff16815260200190815260200160002060008373ffffffffffffffffffffffffffffffffffffffff1673ffffffffffffffffffffffffffffffffffffffff16815260200190815260200160002054905092915050565b600860009054906101000a900473ffffffffffffffffffffffffffffffffffffffff1681565b600033905090565b80600160008573ffffffffffffffffffffffffffffffffffffffff1673ffffffffffffffffffffffffffffffffffffffff16815260200190815260200160002060008473ffffffffffffffffffffffffffffffffffffffff1673ffffffffffffffffffffffffffffffffffffffff168152602001908152602001600020819055508173ffffffffffffffffffffffffffffffffffffffff168373ffffffffffffffffffffffffffffffffffffffff167f8c5be1e5ebec7d5bd14f71427d1e84f3dd0314c0f7b2291e5b200ac8c7c3b92583604051611a389190612409565b60405180910390a3505050565b600073ffffffffffffffffffffffffffffffffffffffff168373ffffffffffffffffffffffffffffffffffffffff161415611ab5576040517f08c379a0000000000000000000000000000000000000000000000000000000008152600401611aac90612309565b60405180910390fd5b60008060008573ffffffffffffffffffffffffffffffffffffffff1673ffffffffffffffffffffffffffffffffffffffff16815260200190815260200160002054905081811015611b3b576040517f08c379a0000000000000000000000000000000000000000000000000000000008152600401611b3290612289565b60405180910390fd5b8181611b479190612507565b6000808673ffffffffffffffffffffffffffffffffffffffff1673ffffffffffffffffffffffffffffffffffffffff16815260200190815260200160002081905550816000808573ffffffffffffffffffffffffffffffffffffffff1673ffffffffffffffffffffffffffffffffffffffff1681526020019081526020016000206000828254611bd791906124b1565b925050819055508273ffffffffffffffffffffffffffffffffffffffff168473ffffffffffffffffffffffffffffffffffffffff167fddf252ad1be2c89b69c2b068fc378daa952ba7f163c4a11628f55a4df523b3ef84604051611c3b9190612409565b60405180910390a350505050565b6000611c5c611c5784612464565b61243f565b905082815260208101848484011115611c7457600080fd5b611c7f8482856125be565b509392505050565b600081359050611c9681612a20565b92915050565b60008083601f840112611cae57600080fd5b8235905067ffffffffffffffff811115611cc757600080fd5b602083019150836020820283011115611cdf57600080fd5b9250929050565b600081359050611cf581612a37565b92915050565b600082601f830112611d0c57600080fd5b8135611d1c848260208601611c49565b91505092915050565b600081359050611d3481612a4e565b92915050565b600060208284031215611d4c57600080fd5b6000611d5a84828501611c87565b91505092915050565b60008060408385031215611d7657600080fd5b6000611d8485828601611c87565b9250506020611d9585828601611c87565b9150509250929050565b600080600060608486031215611db457600080fd5b6000611dc286828701611c87565b9350506020611dd386828701611c87565b9250506040611de486828701611d25565b9150509250925092565b60008060408385031215611e0157600080fd5b6000611e0f85828601611c87565b9250506020611e2085828601611ce6565b9150509250929050565b60008060408385031215611e3d57600080fd5b6000611e4b85828601611c87565b9250506020611e5c85828601611d25565b9150509250929050565b60008060208385031215611e7957600080fd5b600083013567ffffffffffffffff811115611e9357600080fd5b611e9f85828601611c9c565b92509250509250929050565b600060208284031215611ebd57600080fd5b600082013567ffffffffffffffff811115611ed757600080fd5b611ee384828501611cfb565b91505092915050565b611ef58161253b565b82525050565b611f048161254d565b82525050565b611f138161259a565b82525050565b6000611f2482612495565b611f2e81856124a0565b9350611f3e8185602086016125cd565b611f4781612739565b840191505092915050565b6000611f5f601f836124a0565b9150611f6a8261274a565b602082019050919050565b6000611f82601d836124a0565b9150611f8d82612773565b602082019050919050565b6000611fa56027836124a0565b9150611fb08261279c565b604082019050919050565b6000611fc86029836124a0565b9150611fd3826127eb565b604082019050919050565b6000611feb6013836124a0565b9150611ff68261283a565b602082019050919050565b600061200e601c836124a0565b915061201982612863565b602082019050919050565b60006120316026836124a0565b915061203c8261288c565b604082019050919050565b60006120546019836124a0565b915061205f826128db565b602082019050919050565b60006120776020836124a0565b915061208282612904565b602082019050919050565b600061209a601e836124a0565b91506120a58261292d565b602082019050919050565b60006120bd601b836124a0565b91506120c882612956565b602082019050919050565b60006120e0601c836124a0565b91506120eb8261297f565b602082019050919050565b6000612103601e836124a0565b915061210e826129a8565b602082019050919050565b60006121266026836124a0565b9150612131826129d1565b604082019050919050565b61214581612583565b82525050565b6121548161258d565b82525050565b600060208201905061216f6000830184611eec565b92915050565b600060808201905061218a6000830187611eec565b6121976020830186611eec565b6121a46040830185611eec565b6121b1606083018461213c565b95945050505050565b60006060820190506121cf6000830186611eec565b6121dc6020830185611eec565b6121e9604083018461213c565b949350505050565b60006020820190506122066000830184611efb565b92915050565b60006020820190506122216000830184611f0a565b92915050565b600060208201905081810360008301526122418184611f19565b905092915050565b6000602082019050818103600083015261226281611f52565b9050919050565b6000602082019050818103600083015261228281611f75565b9050919050565b600060208201905081810360008301526122a281611f98565b9050919050565b600060208201905081810360008301526122c281611fbb565b9050919050565b600060208201905081810360008301526122e281611fde565b9050919050565b6000602082019050818103600083015261230281612001565b9050919050565b6000602082019050818103600083015261232281612024565b9050919050565b6000602082019050818103600083015261234281612047565b9050919050565b600060208201905081810360008301526123628161206a565b9050919050565b600060208201905081810360008301526123828161208d565b9050919050565b600060208201905081810360008301526123a2816120b0565b9050919050565b600060208201905081810360008301526123c2816120d3565b9050919050565b600060208201905081810360008301526123e2816120f6565b9050919050565b6000602082019050818103600083015261240281612119565b9050919050565b600060208201905061241e600083018461213c565b92915050565b6000602082019050612439600083018461214b565b92915050565b600061244961245a565b90506124558282612632565b919050565b6000604051905090565b600067ffffffffffffffff82111561247f5761247e61270a565b5b61248882612739565b9050602081019050919050565b600081519050919050565b600082825260208201905092915050565b60006124bc82612583565b91506124c783612583565b9250827fffffffffffffffffffffffffffffffffffffffffffffffffffffffffffffffff038211156124fc576124fb6126ac565b5b828201905092915050565b600061251282612583565b915061251d83612583565b9250828210156125305761252f6126ac565b5b828203905092915050565b600061254682612563565b9050919050565b60008115159050919050565b6000819050919050565b600073ffffffffffffffffffffffffffffffffffffffff82169050919050565b6000819050919050565b600060ff82169050919050565b60006125a5826125ac565b9050919050565b60006125b782612563565b9050919050565b82818337600083830152505050565b60005b838110156125eb5780820151818401526020810190506125d0565b838111156125fa576000848401525b50505050565b6000600282049050600182168061261857607f821691505b6020821081141561262c5761262b6126db565b5b50919050565b61263b82612739565b810181811067ffffffffffffffff8211171561265a5761265961270a565b5b80604052505050565b600061266e82612583565b91507fffffffffffffffffffffffffffffffffffffffffffffffffffffffffffffffff8214156126a1576126a06126ac565b5b600182019050919050565b7f4e487b7100000000000000000000000000000000000000000000000000000000600052601160045260246000fd5b7f4e487b7100000000000000000000000000000000000000000000000000000000600052602260045260246000fd5b7f4e487b7100000000000000000000000000000000000000000000000000000000600052604160045260246000fd5b6000601f19601f8301169050919050565b7f4c45524332303a2043616e6e6f74207365742073616d65206164647265737300600082015250565b7f4c45524332303a2054696d65206c6f636b20696e2070726f6772657373000000600082015250565b7f4c45524332303a207472616e7366657220616d6f756e7420657863656564732060008201527f62616c616e636500000000000000000000000000000000000000000000000000602082015250565b7f4c45524332303a207472616e7366657220616d6f756e7420657863656564732060008201527f616c6c6f77616e63650000000000000000000000000000000000000000000000602082015250565b7f4c45524332303a20496e76616c6964206b657900000000000000000000000000600082015250565b7f4c45524332303a205475726e4f6666206e6f742070726f706f73656400000000600082015250565b7f4c45524332303a207472616e736665722066726f6d20746865207a65726f206160008201527f6464726573730000000000000000000000000000000000000000000000000000602082015250565b7f4c45524332303a204d7573742062652063616e64697461746500000000000000600082015250565b7f4c45524332303a205475726e4f666620616c72656164792070726f706f736564600082015250565b7f4c45524332303a204d757374206265207265636f766572792061646d696e0000600082015250565b7f4c45524332303a204c6f73736c65737320616c7265616479206f6e0000000000600082015250565b7f4c45524332303a204c6f73736c65737320616c7265616479206f666600000000600082015250565b7f4c45524332303a204f6e6c79206c6f73736c65737320636f6e74726163740000600082015250565b7f4c45524332303a2064656372656173656420616c6c6f77616e63652062656c6f60008201527f77207a65726f0000000000000000000000000000000000000000000000000000602082015250565b612a298161253b565b8114612a3457600080fd5b50565b612a4081612559565b8114612a4b57600080fd5b50565b612a5781612583565b8114612a6257600080fd5b5056fea2646970667358221220fc1bdb415dd1fcd83ba2778fad486ea2bdbe11c5b876507578cacc533f67f09d64736f6c63430008040033",
					"opcodes": "PUSH1 0x80 PUSH1 0x40 MSTORE PUSH1 0x1 PUSH1 0xB PUSH1 0x0 PUSH2 0x100 EXP DUP2 SLOAD DUP2 PUSH1 0xFF MUL NOT AND SWAP1 DUP4 ISZERO ISZERO MUL OR SWAP1 SSTORE POP CALLVALUE DUP1 ISZERO PUSH3 0x2C JUMPI PUSH1 0x0 DUP1 REVERT JUMPDEST POP PUSH1 0x40 MLOAD PUSH3 0x3315 CODESIZE SUB DUP1 PUSH3 0x3315 DUP4 CODECOPY DUP2 DUP2 ADD PUSH1 0x40 MSTORE DUP2 ADD SWAP1 PUSH3 0x52 SWAP2 SWAP1 PUSH3 0x46C JUMP JUMPDEST PUSH3 0x73 PUSH3 0x66 PUSH3 0x1CE PUSH1 0x20 SHL PUSH1 0x20 SHR JUMP JUMPDEST DUP9 PUSH3 0x1D6 PUSH1 0x20 SHL PUSH1 0x20 SHR JUMP JUMPDEST DUP6 PUSH1 0x3 SWAP1 DUP1 MLOAD SWAP1 PUSH1 0x20 ADD SWAP1 PUSH3 0x8B SWAP3 SWAP2 SWAP1 PUSH3 0x31C JUMP JUMPDEST POP DUP5 PUSH1 0x4 SWAP1 DUP1 MLOAD SWAP1 PUSH1 0x20 ADD SWAP1 PUSH3 0xA4 SWAP3 SWAP2 SWAP1 PUSH3 0x31C JUMP JUMPDEST POP DUP4 PUSH1 0x8 PUSH1 0x0 PUSH2 0x100 EXP DUP2 SLOAD DUP2 PUSH20 0xFFFFFFFFFFFFFFFFFFFFFFFFFFFFFFFFFFFFFFFF MUL NOT AND SWAP1 DUP4 PUSH20 0xFFFFFFFFFFFFFFFFFFFFFFFFFFFFFFFFFFFFFFFF AND MUL OR SWAP1 SSTORE POP DUP3 PUSH1 0x5 PUSH1 0x0 PUSH2 0x100 EXP DUP2 SLOAD DUP2 PUSH20 0xFFFFFFFFFFFFFFFFFFFFFFFFFFFFFFFFFFFFFFFF MUL NOT AND SWAP1 DUP4 PUSH20 0xFFFFFFFFFFFFFFFFFFFFFFFFFFFFFFFFFFFFFFFF AND MUL OR SWAP1 SSTORE POP PUSH1 0x0 PUSH1 0x6 PUSH1 0x0 PUSH2 0x100 EXP DUP2 SLOAD DUP2 PUSH20 0xFFFFFFFFFFFFFFFFFFFFFFFFFFFFFFFFFFFFFFFF MUL NOT AND SWAP1 DUP4 PUSH20 0xFFFFFFFFFFFFFFFFFFFFFFFFFFFFFFFFFFFFFFFF AND MUL OR SWAP1 SSTORE POP PUSH1 0x0 PUSH1 0x7 DUP2 SWAP1 SSTORE POP DUP2 PUSH1 0x9 DUP2 SWAP1 SSTORE POP PUSH1 0x0 PUSH1 0xA DUP2 SWAP1 SSTORE POP DUP1 PUSH1 0xB PUSH1 0x1 PUSH2 0x100 EXP DUP2 SLOAD DUP2 PUSH20 0xFFFFFFFFFFFFFFFFFFFFFFFFFFFFFFFFFFFFFFFF MUL NOT AND SWAP1 DUP4 PUSH20 0xFFFFFFFFFFFFFFFFFFFFFFFFFFFFFFFFFFFFFFFF AND MUL OR SWAP1 SSTORE POP POP POP POP POP POP POP POP PUSH3 0x86A JUMP JUMPDEST PUSH1 0x0 CALLER SWAP1 POP SWAP1 JUMP JUMPDEST PUSH1 0x0 PUSH20 0xFFFFFFFFFFFFFFFFFFFFFFFFFFFFFFFFFFFFFFFF AND DUP3 PUSH20 0xFFFFFFFFFFFFFFFFFFFFFFFFFFFFFFFFFFFFFFFF AND EQ ISZERO PUSH3 0x249 JUMPI PUSH1 0x40 MLOAD PUSH32 0x8C379A000000000000000000000000000000000000000000000000000000000 DUP2 MSTORE PUSH1 0x4 ADD PUSH3 0x240 SWAP1 PUSH3 0x583 JUMP JUMPDEST PUSH1 0x40 MLOAD DUP1 SWAP2 SUB SWAP1 REVERT JUMPDEST DUP1 PUSH1 0x2 PUSH1 0x0 DUP3 DUP3 SLOAD PUSH3 0x25D SWAP2 SWAP1 PUSH3 0x632 JUMP JUMPDEST SWAP3 POP POP DUP2 SWAP1 SSTORE POP DUP1 PUSH1 0x0 DUP1 DUP5 PUSH20 0xFFFFFFFFFFFFFFFFFFFFFFFFFFFFFFFFFFFFFFFF AND PUSH20 0xFFFFFFFFFFFFFFFFFFFFFFFFFFFFFFFFFFFFFFFF AND DUP2 MSTORE PUSH1 0x20 ADD SWAP1 DUP2 MSTORE PUSH1 0x20 ADD PUSH1 0x0 KECCAK256 PUSH1 0x0 DUP3 DUP3 SLOAD ADD SWAP3 POP POP DUP2 SWAP1 SSTORE POP DUP2 PUSH20 0xFFFFFFFFFFFFFFFFFFFFFFFFFFFFFFFFFFFFFFFF AND PUSH1 0x0 PUSH20 0xFFFFFFFFFFFFFFFFFFFFFFFFFFFFFFFFFFFFFFFF AND PUSH32 0xDDF252AD1BE2C89B69C2B068FC378DAA952BA7F163C4A11628F55A4DF523B3EF DUP4 PUSH1 0x40 MLOAD PUSH3 0x310 SWAP2 SWAP1 PUSH3 0x5A5 JUMP JUMPDEST PUSH1 0x40 MLOAD DUP1 SWAP2 SUB SWAP1 LOG3 POP POP JUMP JUMPDEST DUP3 DUP1 SLOAD PUSH3 0x32A SWAP1 PUSH3 0x703 JUMP JUMPDEST SWAP1 PUSH1 0x0 MSTORE PUSH1 0x20 PUSH1 0x0 KECCAK256 SWAP1 PUSH1 0x1F ADD PUSH1 0x20 SWAP1 DIV DUP2 ADD SWAP3 DUP3 PUSH3 0x34E JUMPI PUSH1 0x0 DUP6 SSTORE PUSH3 0x39A JUMP JUMPDEST DUP3 PUSH1 0x1F LT PUSH3 0x369 JUMPI DUP1 MLOAD PUSH1 0xFF NOT AND DUP4 DUP1 ADD OR DUP6 SSTORE PUSH3 0x39A JUMP JUMPDEST DUP3 DUP1 ADD PUSH1 0x1 ADD DUP6 SSTORE DUP3 ISZERO PUSH3 0x39A JUMPI SWAP2 DUP3 ADD JUMPDEST DUP3 DUP2 GT ISZERO PUSH3 0x399 JUMPI DUP3 MLOAD DUP3 SSTORE SWAP2 PUSH1 0x20 ADD SWAP2 SWAP1 PUSH1 0x1 ADD SWAP1 PUSH3 0x37C JUMP JUMPDEST JUMPDEST POP SWAP1 POP PUSH3 0x3A9 SWAP2 SWAP1 PUSH3 0x3AD JUMP JUMPDEST POP SWAP1 JUMP JUMPDEST JUMPDEST DUP1 DUP3 GT ISZERO PUSH3 0x3C8 JUMPI PUSH1 0x0 DUP2 PUSH1 0x0 SWAP1 SSTORE POP PUSH1 0x1 ADD PUSH3 0x3AE JUMP JUMPDEST POP SWAP1 JUMP JUMPDEST PUSH1 0x0 PUSH3 0x3E3 PUSH3 0x3DD DUP5 PUSH3 0x5EB JUMP JUMPDEST PUSH3 0x5C2 JUMP JUMPDEST SWAP1 POP DUP3 DUP2 MSTORE PUSH1 0x20 DUP2 ADD DUP5 DUP5 DUP5 ADD GT ISZERO PUSH3 0x3FC JUMPI PUSH1 0x0 DUP1 REVERT JUMPDEST PUSH3 0x409 DUP5 DUP3 DUP6 PUSH3 0x6CD JUMP JUMPDEST POP SWAP4 SWAP3 POP POP POP JUMP JUMPDEST PUSH1 0x0 DUP2 MLOAD SWAP1 POP PUSH3 0x422 DUP2 PUSH3 0x836 JUMP JUMPDEST SWAP3 SWAP2 POP POP JUMP JUMPDEST PUSH1 0x0 DUP3 PUSH1 0x1F DUP4 ADD SLT PUSH3 0x43A JUMPI PUSH1 0x0 DUP1 REVERT JUMPDEST DUP2 MLOAD PUSH3 0x44C DUP5 DUP3 PUSH1 0x20 DUP7 ADD PUSH3 0x3CC JUMP JUMPDEST SWAP2 POP POP SWAP3 SWAP2 POP POP JUMP JUMPDEST PUSH1 0x0 DUP2 MLOAD SWAP1 POP PUSH3 0x466 DUP2 PUSH3 0x850 JUMP JUMPDEST SWAP3 SWAP2 POP POP JUMP JUMPDEST PUSH1 0x0 DUP1 PUSH1 0x0 DUP1 PUSH1 0x0 DUP1 PUSH1 0x0 PUSH1 0xE0 DUP9 DUP11 SUB SLT ISZERO PUSH3 0x488 JUMPI PUSH1 0x0 DUP1 REVERT JUMPDEST PUSH1 0x0 PUSH3 0x498 DUP11 DUP3 DUP12 ADD PUSH3 0x455 JUMP JUMPDEST SWAP8 POP POP PUSH1 0x20 DUP9 ADD MLOAD PUSH8 0xFFFFFFFFFFFFFFFF DUP2 GT ISZERO PUSH3 0x4B6 JUMPI PUSH1 0x0 DUP1 REVERT JUMPDEST PUSH3 0x4C4 DUP11 DUP3 DUP12 ADD PUSH3 0x428 JUMP JUMPDEST SWAP7 POP POP PUSH1 0x40 DUP9 ADD MLOAD PUSH8 0xFFFFFFFFFFFFFFFF DUP2 GT ISZERO PUSH3 0x4E2 JUMPI PUSH1 0x0 DUP1 REVERT JUMPDEST PUSH3 0x4F0 DUP11 DUP3 DUP12 ADD PUSH3 0x428 JUMP JUMPDEST SWAP6 POP POP PUSH1 0x60 PUSH3 0x503 DUP11 DUP3 DUP12 ADD PUSH3 0x411 JUMP JUMPDEST SWAP5 POP POP PUSH1 0x80 PUSH3 0x516 DUP11 DUP3 DUP12 ADD PUSH3 0x411 JUMP JUMPDEST SWAP4 POP POP PUSH1 0xA0 PUSH3 0x529 DUP11 DUP3 DUP12 ADD PUSH3 0x455 JUMP JUMPDEST SWAP3 POP POP PUSH1 0xC0 PUSH3 0x53C DUP11 DUP3 DUP12 ADD PUSH3 0x411 JUMP JUMPDEST SWAP2 POP POP SWAP3 SWAP6 SWAP9 SWAP2 SWAP5 SWAP8 POP SWAP3 SWAP6 POP JUMP JUMPDEST PUSH1 0x0 PUSH3 0x55A PUSH1 0x20 DUP4 PUSH3 0x621 JUMP JUMPDEST SWAP2 POP PUSH3 0x567 DUP3 PUSH3 0x80D JUMP JUMPDEST PUSH1 0x20 DUP3 ADD SWAP1 POP SWAP2 SWAP1 POP JUMP JUMPDEST PUSH3 0x57D DUP2 PUSH3 0x6C3 JUMP JUMPDEST DUP3 MSTORE POP POP JUMP JUMPDEST PUSH1 0x0 PUSH1 0x20 DUP3 ADD SWAP1 POP DUP2 DUP2 SUB PUSH1 0x0 DUP4 ADD MSTORE PUSH3 0x59E DUP2 PUSH3 0x54B JUMP JUMPDEST SWAP1 POP SWAP2 SWAP1 POP JUMP JUMPDEST PUSH1 0x0 PUSH1 0x20 DUP3 ADD SWAP1 POP PUSH3 0x5BC PUSH1 0x0 DUP4 ADD DUP5 PUSH3 0x572 JUMP JUMPDEST SWAP3 SWAP2 POP POP JUMP JUMPDEST PUSH1 0x0 PUSH3 0x5CE PUSH3 0x5E1 JUMP JUMPDEST SWAP1 POP PUSH3 0x5DC DUP3 DUP3 PUSH3 0x739 JUMP JUMPDEST SWAP2 SWAP1 POP JUMP JUMPDEST PUSH1 0x0 PUSH1 0x40 MLOAD SWAP1 POP SWAP1 JUMP JUMPDEST PUSH1 0x0 PUSH8 0xFFFFFFFFFFFFFFFF DUP3 GT ISZERO PUSH3 0x609 JUMPI PUSH3 0x608 PUSH3 0x7CD JUMP JUMPDEST JUMPDEST PUSH3 0x614 DUP3 PUSH3 0x7FC JUMP JUMPDEST SWAP1 POP PUSH1 0x20 DUP2 ADD SWAP1 POP SWAP2 SWAP1 POP JUMP JUMPDEST PUSH1 0x0 DUP3 DUP3 MSTORE PUSH1 0x20 DUP3 ADD SWAP1 POP SWAP3 SWAP2 POP POP JUMP JUMPDEST PUSH1 0x0 PUSH3 0x63F DUP3 PUSH3 0x6C3 JUMP JUMPDEST SWAP2 POP PUSH3 0x64C DUP4 PUSH3 0x6C3 JUMP JUMPDEST SWAP3 POP DUP3 PUSH32 0xFFFFFFFFFFFFFFFFFFFFFFFFFFFFFFFFFFFFFFFFFFFFFFFFFFFFFFFFFFFFFFFF SUB DUP3 GT ISZERO PUSH3 0x684 JUMPI PUSH3 0x683 PUSH3 0x76F JUMP JUMPDEST JUMPDEST DUP3 DUP3 ADD SWAP1 POP SWAP3 SWAP2 POP POP JUMP JUMPDEST PUSH1 0x0 PUSH3 0x69C DUP3 PUSH3 0x6A3 JUMP JUMPDEST SWAP1 POP SWAP2 SWAP1 POP JUMP JUMPDEST PUSH1 0x0 PUSH20 0xFFFFFFFFFFFFFFFFFFFFFFFFFFFFFFFFFFFFFFFF DUP3 AND SWAP1 POP SWAP2 SWAP1 POP JUMP JUMPDEST PUSH1 0x0 DUP2 SWAP1 POP SWAP2 SWAP1 POP JUMP JUMPDEST PUSH1 0x0 JUMPDEST DUP4 DUP2 LT ISZERO PUSH3 0x6ED JUMPI DUP1 DUP3 ADD MLOAD DUP2 DUP5 ADD MSTORE PUSH1 0x20 DUP2 ADD SWAP1 POP PUSH3 0x6D0 JUMP JUMPDEST DUP4 DUP2 GT ISZERO PUSH3 0x6FD JUMPI PUSH1 0x0 DUP5 DUP5 ADD MSTORE JUMPDEST POP POP POP POP JUMP JUMPDEST PUSH1 0x0 PUSH1 0x2 DUP3 DIV SWAP1 POP PUSH1 0x1 DUP3 AND DUP1 PUSH3 0x71C JUMPI PUSH1 0x7F DUP3 AND SWAP2 POP JUMPDEST PUSH1 0x20 DUP3 LT DUP2 EQ ISZERO PUSH3 0x733 JUMPI PUSH3 0x732 PUSH3 0x79E JUMP JUMPDEST JUMPDEST POP SWAP2 SWAP1 POP JUMP JUMPDEST PUSH3 0x744 DUP3 PUSH3 0x7FC JUMP JUMPDEST DUP2 ADD DUP2 DUP2 LT PUSH8 0xFFFFFFFFFFFFFFFF DUP3 GT OR ISZERO PUSH3 0x766 JUMPI PUSH3 0x765 PUSH3 0x7CD JUMP JUMPDEST JUMPDEST DUP1 PUSH1 0x40 MSTORE POP POP POP JUMP JUMPDEST PUSH32 0x4E487B7100000000000000000000000000000000000000000000000000000000 PUSH1 0x0 MSTORE PUSH1 0x11 PUSH1 0x4 MSTORE PUSH1 0x24 PUSH1 0x0 REVERT JUMPDEST PUSH32 0x4E487B7100000000000000000000000000000000000000000000000000000000 PUSH1 0x0 MSTORE PUSH1 0x22 PUSH1 0x4 MSTORE PUSH1 0x24 PUSH1 0x0 REVERT JUMPDEST PUSH32 0x4E487B7100000000000000000000000000000000000000000000000000000000 PUSH1 0x0 MSTORE PUSH1 0x41 PUSH1 0x4 MSTORE PUSH1 0x24 PUSH1 0x0 REVERT JUMPDEST PUSH1 0x0 PUSH1 0x1F NOT PUSH1 0x1F DUP4 ADD AND SWAP1 POP SWAP2 SWAP1 POP JUMP JUMPDEST PUSH32 0x4C45524332303A206D696E7420746F20746865207A65726F2061646472657373 PUSH1 0x0 DUP3 ADD MSTORE POP JUMP JUMPDEST PUSH3 0x841 DUP2 PUSH3 0x68F JUMP JUMPDEST DUP2 EQ PUSH3 0x84D JUMPI PUSH1 0x0 DUP1 REVERT JUMPDEST POP JUMP JUMPDEST PUSH3 0x85B DUP2 PUSH3 0x6C3 JUMP JUMPDEST DUP2 EQ PUSH3 0x867 JUMPI PUSH1 0x0 DUP1 REVERT JUMPDEST POP JUMP JUMPDEST PUSH2 0x2A9B DUP1 PUSH3 0x87A PUSH1 0x0 CODECOPY PUSH1 0x0 RETURN INVALID PUSH1 0x80 PUSH1 0x40 MSTORE CALLVALUE DUP1 ISZERO PUSH2 0x10 JUMPI PUSH1 0x0 DUP1 REVERT JUMPDEST POP PUSH1 0x4 CALLDATASIZE LT PUSH2 0x173 JUMPI PUSH1 0x0 CALLDATALOAD PUSH1 0xE0 SHR DUP1 PUSH4 0x6E9960C3 GT PUSH2 0xDE JUMPI DUP1 PUSH4 0xA9059CBB GT PUSH2 0x97 JUMPI DUP1 PUSH4 0xCCFA214F GT PUSH2 0x71 JUMPI DUP1 PUSH4 0xCCFA214F EQ PUSH2 0x42A JUMPI DUP1 PUSH4 0xD6E242B8 EQ PUSH2 0x448 JUMPI DUP1 PUSH4 0xDD62ED3E EQ PUSH2 0x452 JUMPI DUP1 PUSH4 0xF851A440 EQ PUSH2 0x482 JUMPI PUSH2 0x173 JUMP JUMPDEST DUP1 PUSH4 0xA9059CBB EQ PUSH2 0x3D4 JUMPI DUP1 PUSH4 0xB38FE957 EQ PUSH2 0x404 JUMPI DUP1 PUSH4 0xB5C22877 EQ PUSH2 0x40E JUMPI PUSH2 0x173 JUMP JUMPDEST DUP1 PUSH4 0x6E9960C3 EQ PUSH2 0x300 JUMPI DUP1 PUSH4 0x70A08231 EQ PUSH2 0x31E JUMPI DUP1 PUSH4 0x93310FFE EQ PUSH2 0x34E JUMPI DUP1 PUSH4 0x936AF911 EQ PUSH2 0x36A JUMPI DUP1 PUSH4 0x95D89B41 EQ PUSH2 0x386 JUMPI DUP1 PUSH4 0xA457C2D7 EQ PUSH2 0x3A4 JUMPI PUSH2 0x173 JUMP JUMPDEST DUP1 PUSH4 0x313CE567 GT PUSH2 0x130 JUMPI DUP1 PUSH4 0x313CE567 EQ PUSH2 0x24E JUMPI DUP1 PUSH4 0x34F6EBF5 EQ PUSH2 0x26C JUMPI DUP1 PUSH4 0x39509351 EQ PUSH2 0x28A JUMPI DUP1 PUSH4 0x5B8A194A EQ PUSH2 0x2BA JUMPI DUP1 PUSH4 0x5F6529A3 EQ PUSH2 0x2C4 JUMPI DUP1 PUSH4 0x61086B00 EQ PUSH2 0x2E2 JUMPI PUSH2 0x173 JUMP JUMPDEST DUP1 PUSH4 0x6FDDE03 EQ PUSH2 0x178 JUMPI DUP1 PUSH4 0x95EA7B3 EQ PUSH2 0x196 JUMPI DUP1 PUSH4 0x18160DDD EQ PUSH2 0x1C6 JUMPI DUP1 PUSH4 0x23B872DD EQ PUSH2 0x1E4 JUMPI DUP1 PUSH4 0x2BAA3C9E EQ PUSH2 0x214 JUMPI DUP1 PUSH4 0x2ECAF675 EQ PUSH2 0x230 JUMPI JUMPDEST PUSH1 0x0 DUP1 REVERT JUMPDEST PUSH2 0x180 PUSH2 0x4A0 JUMP JUMPDEST PUSH1 0x40 MLOAD PUSH2 0x18D SWAP2 SWAP1 PUSH2 0x2227 JUMP JUMPDEST PUSH1 0x40 MLOAD DUP1 SWAP2 SUB SWAP1 RETURN JUMPDEST PUSH2 0x1B0 PUSH1 0x4 DUP1 CALLDATASIZE SUB DUP2 ADD SWAP1 PUSH2 0x1AB SWAP2 SWAP1 PUSH2 0x1E2A JUMP JUMPDEST PUSH2 0x532 JUMP JUMPDEST PUSH1 0x40 MLOAD PUSH2 0x1BD SWAP2 SWAP1 PUSH2 0x21F1 JUMP JUMPDEST PUSH1 0x40 MLOAD DUP1 SWAP2 SUB SWAP1 RETURN JUMPDEST PUSH2 0x1CE PUSH2 0x602 JUMP JUMPDEST PUSH1 0x40 MLOAD PUSH2 0x1DB SWAP2 SWAP1 PUSH2 0x2409 JUMP JUMPDEST PUSH1 0x40 MLOAD DUP1 SWAP2 SUB SWAP1 RETURN JUMPDEST PUSH2 0x1FE PUSH1 0x4 DUP1 CALLDATASIZE SUB DUP2 ADD SWAP1 PUSH2 0x1F9 SWAP2 SWAP1 PUSH2 0x1D9F JUMP JUMPDEST PUSH2 0x60C JUMP JUMPDEST PUSH1 0x40 MLOAD PUSH2 0x20B SWAP2 SWAP1 PUSH2 0x21F1 JUMP JUMPDEST PUSH1 0x40 MLOAD DUP1 SWAP2 SUB SWAP1 RETURN JUMPDEST PUSH2 0x22E PUSH1 0x4 DUP1 CALLDATASIZE SUB DUP2 ADD SWAP1 PUSH2 0x229 SWAP2 SWAP1 PUSH2 0x1D3A JUMP JUMPDEST PUSH2 0x7C3 JUMP JUMPDEST STOP JUMPDEST PUSH2 0x238 PUSH2 0x972 JUMP JUMPDEST PUSH1 0x40 MLOAD PUSH2 0x245 SWAP2 SWAP1 PUSH2 0x2409 JUMP JUMPDEST PUSH1 0x40 MLOAD DUP1 SWAP2 SUB SWAP1 RETURN JUMPDEST PUSH2 0x256 PUSH2 0x978 JUMP JUMPDEST PUSH1 0x40 MLOAD PUSH2 0x263 SWAP2 SWAP1 PUSH2 0x2424 JUMP JUMPDEST PUSH1 0x40 MLOAD DUP1 SWAP2 SUB SWAP1 RETURN JUMPDEST PUSH2 0x274 PUSH2 0x981 JUMP JUMPDEST PUSH1 0x40 MLOAD PUSH2 0x281 SWAP2 SWAP1 PUSH2 0x220C JUMP JUMPDEST PUSH1 0x40 MLOAD DUP1 SWAP2 SUB SWAP1 RETURN JUMPDEST PUSH2 0x2A4 PUSH1 0x4 DUP1 CALLDATASIZE SUB DUP2 ADD SWAP1 PUSH2 0x29F SWAP2 SWAP1 PUSH2 0x1E2A JUMP JUMPDEST PUSH2 0x9A7 JUMP JUMPDEST PUSH1 0x40 MLOAD PUSH2 0x2B1 SWAP2 SWAP1 PUSH2 0x21F1 JUMP JUMPDEST PUSH1 0x40 MLOAD DUP1 SWAP2 SUB SWAP1 RETURN JUMPDEST PUSH2 0x2C2 PUSH2 0xB05 JUMP JUMPDEST STOP JUMPDEST PUSH2 0x2CC PUSH2 0xC3D JUMP JUMPDEST PUSH1 0x40 MLOAD PUSH2 0x2D9 SWAP2 SWAP1 PUSH2 0x215A JUMP JUMPDEST PUSH1 0x40 MLOAD DUP1 SWAP2 SUB SWAP1 RETURN JUMPDEST PUSH2 0x2EA PUSH2 0xC63 JUMP JUMPDEST PUSH1 0x40 MLOAD PUSH2 0x2F7 SWAP2 SWAP1 PUSH2 0x2409 JUMP JUMPDEST PUSH1 0x40 MLOAD DUP1 SWAP2 SUB SWAP1 RETURN JUMPDEST PUSH2 0x308 PUSH2 0xC69 JUMP JUMPDEST PUSH1 0x40 MLOAD PUSH2 0x315 SWAP2 SWAP1 PUSH2 0x215A JUMP JUMPDEST PUSH1 0x40 MLOAD DUP1 SWAP2 SUB SWAP1 RETURN JUMPDEST PUSH2 0x338 PUSH1 0x4 DUP1 CALLDATASIZE SUB DUP2 ADD SWAP1 PUSH2 0x333 SWAP2 SWAP1 PUSH2 0x1D3A JUMP JUMPDEST PUSH2 0xC93 JUMP JUMPDEST PUSH1 0x40 MLOAD PUSH2 0x345 SWAP2 SWAP1 PUSH2 0x2409 JUMP JUMPDEST PUSH1 0x40 MLOAD DUP1 SWAP2 SUB SWAP1 RETURN JUMPDEST PUSH2 0x368 PUSH1 0x4 DUP1 CALLDATASIZE SUB DUP2 ADD SWAP1 PUSH2 0x363 SWAP2 SWAP1 PUSH2 0x1DEE JUMP JUMPDEST PUSH2 0xCDB JUMP JUMPDEST STOP JUMPDEST PUSH2 0x384 PUSH1 0x4 DUP1 CALLDATASIZE SUB DUP2 ADD SWAP1 PUSH2 0x37F SWAP2 SWAP1 PUSH2 0x1E66 JUMP JUMPDEST PUSH2 0xE01 JUMP JUMPDEST STOP JUMPDEST PUSH2 0x38E PUSH2 0x10AD JUMP JUMPDEST PUSH1 0x40 MLOAD PUSH2 0x39B SWAP2 SWAP1 PUSH2 0x2227 JUMP JUMPDEST PUSH1 0x40 MLOAD DUP1 SWAP2 SUB SWAP1 RETURN JUMPDEST PUSH2 0x3BE PUSH1 0x4 DUP1 CALLDATASIZE SUB DUP2 ADD SWAP1 PUSH2 0x3B9 SWAP2 SWAP1 PUSH2 0x1E2A JUMP JUMPDEST PUSH2 0x113F JUMP JUMPDEST PUSH1 0x40 MLOAD PUSH2 0x3CB SWAP2 SWAP1 PUSH2 0x21F1 JUMP JUMPDEST PUSH1 0x40 MLOAD DUP1 SWAP2 SUB SWAP1 RETURN JUMPDEST PUSH2 0x3EE PUSH1 0x4 DUP1 CALLDATASIZE SUB DUP2 ADD SWAP1 PUSH2 0x3E9 SWAP2 SWAP1 PUSH2 0x1E2A JUMP JUMPDEST PUSH2 0x12E6 JUMP JUMPDEST PUSH1 0x40 MLOAD PUSH2 0x3FB SWAP2 SWAP1 PUSH2 0x21F1 JUMP JUMPDEST PUSH1 0x40 MLOAD DUP1 SWAP2 SUB SWAP1 RETURN JUMPDEST PUSH2 0x40C PUSH2 0x13B6 JUMP JUMPDEST STOP JUMPDEST PUSH2 0x428 PUSH1 0x4 DUP1 CALLDATASIZE SUB DUP2 ADD SWAP1 PUSH2 0x423 SWAP2 SWAP1 PUSH2 0x1EAB JUMP JUMPDEST PUSH2 0x1529 JUMP JUMPDEST STOP JUMPDEST PUSH2 0x432 PUSH2 0x1718 JUMP JUMPDEST PUSH1 0x40 MLOAD PUSH2 0x43F SWAP2 SWAP1 PUSH2 0x21F1 JUMP JUMPDEST PUSH1 0x40 MLOAD DUP1 SWAP2 SUB SWAP1 RETURN JUMPDEST PUSH2 0x450 PUSH2 0x172B JUMP JUMPDEST STOP JUMPDEST PUSH2 0x46C PUSH1 0x4 DUP1 CALLDATASIZE SUB DUP2 ADD SWAP1 PUSH2 0x467 SWAP2 SWAP1 PUSH2 0x1D63 JUMP JUMPDEST PUSH2 0x18A5 JUMP JUMPDEST PUSH1 0x40 MLOAD PUSH2 0x479 SWAP2 SWAP1 PUSH2 0x2409 JUMP JUMPDEST PUSH1 0x40 MLOAD DUP1 SWAP2 SUB SWAP1 RETURN JUMPDEST PUSH2 0x48A PUSH2 0x192C JUMP JUMPDEST PUSH1 0x40 MLOAD PUSH2 0x497 SWAP2 SWAP1 PUSH2 0x215A JUMP JUMPDEST PUSH1 0x40 MLOAD DUP1 SWAP2 SUB SWAP1 RETURN JUMPDEST PUSH1 0x60 PUSH1 0x3 DUP1 SLOAD PUSH2 0x4AF SWAP1 PUSH2 0x2600 JUMP JUMPDEST DUP1 PUSH1 0x1F ADD PUSH1 0x20 DUP1 SWAP2 DIV MUL PUSH1 0x20 ADD PUSH1 0x40 MLOAD SWAP1 DUP2 ADD PUSH1 0x40 MSTORE DUP1 SWAP3 SWAP2 SWAP1 DUP2 DUP2 MSTORE PUSH1 0x20 ADD DUP3 DUP1 SLOAD PUSH2 0x4DB SWAP1 PUSH2 0x2600 JUMP JUMPDEST DUP1 ISZERO PUSH2 0x528 JUMPI DUP1 PUSH1 0x1F LT PUSH2 0x4FD JUMPI PUSH2 0x100 DUP1 DUP4 SLOAD DIV MUL DUP4 MSTORE SWAP2 PUSH1 0x20 ADD SWAP2 PUSH2 0x528 JUMP JUMPDEST DUP3 ADD SWAP2 SWAP1 PUSH1 0x0 MSTORE PUSH1 0x20 PUSH1 0x0 KECCAK256 SWAP1 JUMPDEST DUP2 SLOAD DUP2 MSTORE SWAP1 PUSH1 0x1 ADD SWAP1 PUSH1 0x20 ADD DUP1 DUP4 GT PUSH2 0x50B JUMPI DUP3 SWAP1 SUB PUSH1 0x1F AND DUP3 ADD SWAP2 JUMPDEST POP POP POP POP POP SWAP1 POP SWAP1 JUMP JUMPDEST PUSH1 0x0 DUP3 DUP3 PUSH1 0xB PUSH1 0x0 SWAP1 SLOAD SWAP1 PUSH2 0x100 EXP SWAP1 DIV PUSH1 0xFF AND ISZERO PUSH2 0x5E4 JUMPI PUSH1 0xB PUSH1 0x1 SWAP1 SLOAD SWAP1 PUSH2 0x100 EXP SWAP1 DIV PUSH20 0xFFFFFFFFFFFFFFFFFFFFFFFFFFFFFFFFFFFFFFFF AND PUSH20 0xFFFFFFFFFFFFFFFFFFFFFFFFFFFFFFFFFFFFFFFF AND PUSH4 0x47ABF3BE PUSH2 0x591 PUSH2 0x1952 JUMP JUMPDEST DUP5 DUP5 PUSH1 0x40 MLOAD DUP5 PUSH4 0xFFFFFFFF AND PUSH1 0xE0 SHL DUP2 MSTORE PUSH1 0x4 ADD PUSH2 0x5B1 SWAP4 SWAP3 SWAP2 SWAP1 PUSH2 0x21BA JUMP JUMPDEST PUSH1 0x0 PUSH1 0x40 MLOAD DUP1 DUP4 SUB DUP2 PUSH1 0x0 DUP8 DUP1 EXTCODESIZE ISZERO DUP1 ISZERO PUSH2 0x5CB JUMPI PUSH1 0x0 DUP1 REVERT JUMPDEST POP GAS CALL ISZERO DUP1 ISZERO PUSH2 0x5DF JUMPI RETURNDATASIZE PUSH1 0x0 DUP1 RETURNDATACOPY RETURNDATASIZE PUSH1 0x0 REVERT JUMPDEST POP POP POP POP JUMPDEST PUSH2 0x5F6 PUSH2 0x5EF PUSH2 0x1952 JUMP JUMPDEST DUP7 DUP7 PUSH2 0x195A JUMP JUMPDEST PUSH1 0x1 SWAP3 POP POP POP SWAP3 SWAP2 POP POP JUMP JUMPDEST PUSH1 0x0 PUSH1 0x2 SLOAD SWAP1 POP SWAP1 JUMP JUMPDEST PUSH1 0x0 DUP4 DUP4 DUP4 PUSH1 0xB PUSH1 0x0 SWAP1 SLOAD SWAP1 PUSH2 0x100 EXP SWAP1 DIV PUSH1 0xFF AND ISZERO PUSH2 0x6C1 JUMPI PUSH1 0xB PUSH1 0x1 SWAP1 SLOAD SWAP1 PUSH2 0x100 EXP SWAP1 DIV PUSH20 0xFFFFFFFFFFFFFFFFFFFFFFFFFFFFFFFFFFFFFFFF AND PUSH20 0xFFFFFFFFFFFFFFFFFFFFFFFFFFFFFFFFFFFFFFFF AND PUSH4 0x379F5C69 PUSH2 0x66C PUSH2 0x1952 JUMP JUMPDEST DUP6 DUP6 DUP6 PUSH1 0x40 MLOAD DUP6 PUSH4 0xFFFFFFFF AND PUSH1 0xE0 SHL DUP2 MSTORE PUSH1 0x4 ADD PUSH2 0x68E SWAP5 SWAP4 SWAP3 SWAP2 SWAP1 PUSH2 0x2175 JUMP JUMPDEST PUSH1 0x0 PUSH1 0x40 MLOAD DUP1 DUP4 SUB DUP2 PUSH1 0x0 DUP8 DUP1 EXTCODESIZE ISZERO DUP1 ISZERO PUSH2 0x6A8 JUMPI PUSH1 0x0 DUP1 REVERT JUMPDEST POP GAS CALL ISZERO DUP1 ISZERO PUSH2 0x6BC JUMPI RETURNDATASIZE PUSH1 0x0 DUP1 RETURNDATACOPY RETURNDATASIZE PUSH1 0x0 REVERT JUMPDEST POP POP POP POP JUMPDEST PUSH1 0x0 PUSH1 0x1 PUSH1 0x0 DUP10 PUSH20 0xFFFFFFFFFFFFFFFFFFFFFFFFFFFFFFFFFFFFFFFF AND PUSH20 0xFFFFFFFFFFFFFFFFFFFFFFFFFFFFFFFFFFFFFFFF AND DUP2 MSTORE PUSH1 0x20 ADD SWAP1 DUP2 MSTORE PUSH1 0x20 ADD PUSH1 0x0 KECCAK256 PUSH1 0x0 PUSH2 0x70C PUSH2 0x1952 JUMP JUMPDEST PUSH20 0xFFFFFFFFFFFFFFFFFFFFFFFFFFFFFFFFFFFFFFFF AND PUSH20 0xFFFFFFFFFFFFFFFFFFFFFFFFFFFFFFFFFFFFFFFF AND DUP2 MSTORE PUSH1 0x20 ADD SWAP1 DUP2 MSTORE PUSH1 0x20 ADD PUSH1 0x0 KECCAK256 SLOAD SWAP1 POP DUP6 DUP2 LT ISZERO PUSH2 0x78C JUMPI PUSH1 0x40 MLOAD PUSH32 0x8C379A000000000000000000000000000000000000000000000000000000000 DUP2 MSTORE PUSH1 0x4 ADD PUSH2 0x783 SWAP1 PUSH2 0x22A9 JUMP JUMPDEST PUSH1 0x40 MLOAD DUP1 SWAP2 SUB SWAP1 REVERT JUMPDEST PUSH2 0x797 DUP9 DUP9 DUP9 PUSH2 0x1A45 JUMP JUMPDEST PUSH2 0x7B4 DUP9 PUSH2 0x7A3 PUSH2 0x1952 JUMP JUMPDEST DUP9 DUP5 PUSH2 0x7AF SWAP2 SWAP1 PUSH2 0x2507 JUMP JUMPDEST PUSH2 0x195A JUMP JUMPDEST PUSH1 0x1 SWAP5 POP POP POP POP POP SWAP4 SWAP3 POP POP POP JUMP JUMPDEST PUSH1 0x5 PUSH1 0x0 SWAP1 SLOAD SWAP1 PUSH2 0x100 EXP SWAP1 DIV PUSH20 0xFFFFFFFFFFFFFFFFFFFFFFFFFFFFFFFFFFFFFFFF AND PUSH20 0xFFFFFFFFFFFFFFFFFFFFFFFFFFFFFFFFFFFFFFFF AND PUSH2 0x804 PUSH2 0x1952 JUMP JUMPDEST PUSH20 0xFFFFFFFFFFFFFFFFFFFFFFFFFFFFFFFFFFFFFFFF AND EQ PUSH2 0x85A JUMPI PUSH1 0x40 MLOAD PUSH32 0x8C379A000000000000000000000000000000000000000000000000000000000 DUP2 MSTORE PUSH1 0x4 ADD PUSH2 0x851 SWAP1 PUSH2 0x2369 JUMP JUMPDEST PUSH1 0x40 MLOAD DUP1 SWAP2 SUB SWAP1 REVERT JUMPDEST PUSH1 0x8 PUSH1 0x0 SWAP1 SLOAD SWAP1 PUSH2 0x100 EXP SWAP1 DIV PUSH20 0xFFFFFFFFFFFFFFFFFFFFFFFFFFFFFFFFFFFFFFFF AND PUSH20 0xFFFFFFFFFFFFFFFFFFFFFFFFFFFFFFFFFFFFFFFF AND DUP2 PUSH20 0xFFFFFFFFFFFFFFFFFFFFFFFFFFFFFFFFFFFFFFFF AND EQ ISZERO PUSH2 0x8EB JUMPI PUSH1 0x40 MLOAD PUSH32 0x8C379A000000000000000000000000000000000000000000000000000000000 DUP2 MSTORE PUSH1 0x4 ADD PUSH2 0x8E2 SWAP1 PUSH2 0x2249 JUMP JUMPDEST PUSH1 0x40 MLOAD DUP1 SWAP2 SUB SWAP1 REVERT JUMPDEST DUP1 PUSH20 0xFFFFFFFFFFFFFFFFFFFFFFFFFFFFFFFFFFFFFFFF AND PUSH32 0x71614071B88DEE5E0B2AE578A9DD7B2EBBE9AE832BA419DC0242CD065A290B6C PUSH1 0x40 MLOAD PUSH1 0x40 MLOAD DUP1 SWAP2 SUB SWAP1 LOG2 DUP1 PUSH1 0x8 PUSH1 0x0 PUSH2 0x100 EXP DUP2 SLOAD DUP2 PUSH20 0xFFFFFFFFFFFFFFFFFFFFFFFFFFFFFFFFFFFFFFFF MUL NOT AND SWAP1 DUP4 PUSH20 0xFFFFFFFFFFFFFFFFFFFFFFFFFFFFFFFFFFFFFFFF AND MUL OR SWAP1 SSTORE POP POP JUMP JUMPDEST PUSH1 0x9 SLOAD DUP2 JUMP JUMPDEST PUSH1 0x0 PUSH1 0x12 SWAP1 POP SWAP1 JUMP JUMPDEST PUSH1 0xB PUSH1 0x1 SWAP1 SLOAD SWAP1 PUSH2 0x100 EXP SWAP1 DIV PUSH20 0xFFFFFFFFFFFFFFFFFFFFFFFFFFFFFFFFFFFFFFFF AND DUP2 JUMP JUMPDEST PUSH1 0x0 DUP3 DUP3 PUSH1 0xB PUSH1 0x0 SWAP1 SLOAD SWAP1 PUSH2 0x100 EXP SWAP1 DIV PUSH1 0xFF AND ISZERO PUSH2 0xA59 JUMPI PUSH1 0xB PUSH1 0x1 SWAP1 SLOAD SWAP1 PUSH2 0x100 EXP SWAP1 DIV PUSH20 0xFFFFFFFFFFFFFFFFFFFFFFFFFFFFFFFFFFFFFFFF AND PUSH20 0xFFFFFFFFFFFFFFFFFFFFFFFFFFFFFFFFFFFFFFFF AND PUSH4 0xCF5961BB PUSH2 0xA06 PUSH2 0x1952 JUMP JUMPDEST DUP5 DUP5 PUSH1 0x40 MLOAD DUP5 PUSH4 0xFFFFFFFF AND PUSH1 0xE0 SHL DUP2 MSTORE PUSH1 0x4 ADD PUSH2 0xA26 SWAP4 SWAP3 SWAP2 SWAP1 PUSH2 0x21BA JUMP JUMPDEST PUSH1 0x0 PUSH1 0x40 MLOAD DUP1 DUP4 SUB DUP2 PUSH1 0x0 DUP8 DUP1 EXTCODESIZE ISZERO DUP1 ISZERO PUSH2 0xA40 JUMPI PUSH1 0x0 DUP1 REVERT JUMPDEST POP GAS CALL ISZERO DUP1 ISZERO PUSH2 0xA54 JUMPI RETURNDATASIZE PUSH1 0x0 DUP1 RETURNDATACOPY RETURNDATASIZE PUSH1 0x0 REVERT JUMPDEST POP POP POP POP JUMPDEST PUSH2 0xAF9 PUSH2 0xA64 PUSH2 0x1952 JUMP JUMPDEST DUP7 DUP7 PUSH1 0x1 PUSH1 0x0 PUSH2 0xA72 PUSH2 0x1952 JUMP JUMPDEST PUSH20 0xFFFFFFFFFFFFFFFFFFFFFFFFFFFFFFFFFFFFFFFF AND PUSH20 0xFFFFFFFFFFFFFFFFFFFFFFFFFFFFFFFFFFFFFFFF AND DUP2 MSTORE PUSH1 0x20 ADD SWAP1 DUP2 MSTORE PUSH1 0x20 ADD PUSH1 0x0 KECCAK256 PUSH1 0x0 DUP11 PUSH20 0xFFFFFFFFFFFFFFFFFFFFFFFFFFFFFFFFFFFFFFFF AND PUSH20 0xFFFFFFFFFFFFFFFFFFFFFFFFFFFFFFFFFFFFFFFF AND DUP2 MSTORE PUSH1 0x20 ADD SWAP1 DUP2 MSTORE PUSH1 0x20 ADD PUSH1 0x0 KECCAK256 SLOAD PUSH2 0xAF4 SWAP2 SWAP1 PUSH2 0x24B1 JUMP JUMPDEST PUSH2 0x195A JUMP JUMPDEST PUSH1 0x1 SWAP3 POP POP POP SWAP3 SWAP2 POP POP JUMP JUMPDEST PUSH1 0x5 PUSH1 0x0 SWAP1 SLOAD SWAP1 PUSH2 0x100 EXP SWAP1 DIV PUSH20 0xFFFFFFFFFFFFFFFFFFFFFFFFFFFFFFFFFFFFFFFF AND PUSH20 0xFFFFFFFFFFFFFFFFFFFFFFFFFFFFFFFFFFFFFFFF AND PUSH2 0xB46 PUSH2 0x1952 JUMP JUMPDEST PUSH20 0xFFFFFFFFFFFFFFFFFFFFFFFFFFFFFFFFFFFFFFFF AND EQ PUSH2 0xB9C JUMPI PUSH1 0x40 MLOAD PUSH32 0x8C379A000000000000000000000000000000000000000000000000000000000 DUP2 MSTORE PUSH1 0x4 ADD PUSH2 0xB93 SWAP1 PUSH2 0x2369 JUMP JUMPDEST PUSH1 0x40 MLOAD DUP1 SWAP2 SUB SWAP1 REVERT JUMPDEST PUSH1 0xB PUSH1 0x0 SWAP1 SLOAD SWAP1 PUSH2 0x100 EXP SWAP1 DIV PUSH1 0xFF AND ISZERO PUSH2 0xBEC JUMPI PUSH1 0x40 MLOAD PUSH32 0x8C379A000000000000000000000000000000000000000000000000000000000 DUP2 MSTORE PUSH1 0x4 ADD PUSH2 0xBE3 SWAP1 PUSH2 0x2389 JUMP JUMPDEST PUSH1 0x40 MLOAD DUP1 SWAP2 SUB SWAP1 REVERT JUMPDEST PUSH1 0x0 PUSH1 0xA DUP2 SWAP1 SSTORE POP PUSH1 0x1 PUSH1 0xB PUSH1 0x0 PUSH2 0x100 EXP DUP2 SLOAD DUP2 PUSH1 0xFF MUL NOT AND SWAP1 DUP4 ISZERO ISZERO MUL OR SWAP1 SSTORE POP PUSH32 0x1BA3B66404043DA8297D0B876FA6464F2CB127EDFC6626308046D4503028322B PUSH1 0x40 MLOAD PUSH1 0x40 MLOAD DUP1 SWAP2 SUB SWAP1 LOG1 JUMP JUMPDEST PUSH1 0x5 PUSH1 0x0 SWAP1 SLOAD SWAP1 PUSH2 0x100 EXP SWAP1 DIV PUSH20 0xFFFFFFFFFFFFFFFFFFFFFFFFFFFFFFFFFFFFFFFF AND DUP2 JUMP JUMPDEST PUSH1 0xA SLOAD DUP2 JUMP JUMPDEST PUSH1 0x0 PUSH1 0x8 PUSH1 0x0 SWAP1 SLOAD SWAP1 PUSH2 0x100 EXP SWAP1 DIV PUSH20 0xFFFFFFFFFFFFFFFFFFFFFFFFFFFFFFFFFFFFFFFF AND SWAP1 POP SWAP1 JUMP JUMPDEST PUSH1 0x0 DUP1 PUSH1 0x0 DUP4 PUSH20 0xFFFFFFFFFFFFFFFFFFFFFFFFFFFFFFFFFFFFFFFF AND PUSH20 0xFFFFFFFFFFFFFFFFFFFFFFFFFFFFFFFFFFFFFFFF AND DUP2 MSTORE PUSH1 0x20 ADD SWAP1 DUP2 MSTORE PUSH1 0x20 ADD PUSH1 0x0 KECCAK256 SLOAD SWAP1 POP SWAP2 SWAP1 POP JUMP JUMPDEST PUSH1 0x5 PUSH1 0x0 SWAP1 SLOAD SWAP1 PUSH2 0x100 EXP SWAP1 DIV PUSH20 0xFFFFFFFFFFFFFFFFFFFFFFFFFFFFFFFFFFFFFFFF AND PUSH20 0xFFFFFFFFFFFFFFFFFFFFFFFFFFFFFFFFFFFFFFFF AND PUSH2 0xD1C PUSH2 0x1952 JUMP JUMPDEST PUSH20 0xFFFFFFFFFFFFFFFFFFFFFFFFFFFFFFFFFFFFFFFF AND EQ PUSH2 0xD72 JUMPI PUSH1 0x40 MLOAD PUSH32 0x8C379A000000000000000000000000000000000000000000000000000000000 DUP2 MSTORE PUSH1 0x4 ADD PUSH2 0xD69 SWAP1 PUSH2 0x2369 JUMP JUMPDEST PUSH1 0x40 MLOAD DUP1 SWAP2 SUB SWAP1 REVERT JUMPDEST DUP2 PUSH1 0x6 PUSH1 0x0 PUSH2 0x100 EXP DUP2 SLOAD DUP2 PUSH20 0xFFFFFFFFFFFFFFFFFFFFFFFFFFFFFFFFFFFFFFFF MUL NOT AND SWAP1 DUP4 PUSH20 0xFFFFFFFFFFFFFFFFFFFFFFFFFFFFFFFFFFFFFFFF AND MUL OR SWAP1 SSTORE POP DUP1 PUSH1 0x7 DUP2 SWAP1 SSTORE POP DUP2 PUSH20 0xFFFFFFFFFFFFFFFFFFFFFFFFFFFFFFFFFFFFFFFF AND PUSH32 0x6C591DA8DA2F6E69746D7D9AE61C27EE29FBE303798141B4942AE2AEF54274B1 PUSH1 0x40 MLOAD PUSH1 0x40 MLOAD DUP1 SWAP2 SUB SWAP1 LOG2 POP POP JUMP JUMPDEST PUSH1 0xB PUSH1 0x1 SWAP1 SLOAD SWAP1 PUSH2 0x100 EXP SWAP1 DIV PUSH20 0xFFFFFFFFFFFFFFFFFFFFFFFFFFFFFFFFFFFFFFFF AND PUSH20 0xFFFFFFFFFFFFFFFFFFFFFFFFFFFFFFFFFFFFFFFF AND PUSH2 0xE42 PUSH2 0x1952 JUMP JUMPDEST PUSH20 0xFFFFFFFFFFFFFFFFFFFFFFFFFFFFFFFFFFFFFFFF AND EQ PUSH2 0xE98 JUMPI PUSH1 0x40 MLOAD PUSH32 0x8C379A000000000000000000000000000000000000000000000000000000000 DUP2 MSTORE PUSH1 0x4 ADD PUSH2 0xE8F SWAP1 PUSH2 0x23C9 JUMP JUMPDEST PUSH1 0x40 MLOAD DUP1 SWAP2 SUB SWAP1 REVERT JUMPDEST PUSH1 0x0 DUP3 DUP3 SWAP1 POP SWAP1 POP PUSH1 0x0 DUP1 JUMPDEST DUP3 DUP2 LT ISZERO PUSH2 0x102F JUMPI PUSH1 0x0 DUP6 DUP6 DUP4 DUP2 DUP2 LT PUSH2 0xEE7 JUMPI PUSH32 0x4E487B7100000000000000000000000000000000000000000000000000000000 PUSH1 0x0 MSTORE PUSH1 0x32 PUSH1 0x4 MSTORE PUSH1 0x24 PUSH1 0x0 REVERT JUMPDEST SWAP1 POP PUSH1 0x20 MUL ADD PUSH1 0x20 DUP2 ADD SWAP1 PUSH2 0xEFC SWAP2 SWAP1 PUSH2 0x1D3A JUMP JUMPDEST SWAP1 POP PUSH1 0x0 DUP1 PUSH1 0x0 DUP4 PUSH20 0xFFFFFFFFFFFFFFFFFFFFFFFFFFFFFFFFFFFFFFFF AND PUSH20 0xFFFFFFFFFFFFFFFFFFFFFFFFFFFFFFFFFFFFFFFF AND DUP2 MSTORE PUSH1 0x20 ADD SWAP1 DUP2 MSTORE PUSH1 0x20 ADD PUSH1 0x0 KECCAK256 SLOAD SWAP1 POP PUSH1 0x0 DUP1 PUSH1 0x0 DUP5 PUSH20 0xFFFFFFFFFFFFFFFFFFFFFFFFFFFFFFFFFFFFFFFF AND PUSH20 0xFFFFFFFFFFFFFFFFFFFFFFFFFFFFFFFFFFFFFFFF AND DUP2 MSTORE PUSH1 0x20 ADD SWAP1 DUP2 MSTORE PUSH1 0x20 ADD PUSH1 0x0 KECCAK256 DUP2 SWAP1 SSTORE POP DUP1 DUP5 PUSH2 0xF91 SWAP2 SWAP1 PUSH2 0x24B1 JUMP JUMPDEST SWAP4 POP PUSH1 0xB PUSH1 0x1 SWAP1 SLOAD SWAP1 PUSH2 0x100 EXP SWAP1 DIV PUSH20 0xFFFFFFFFFFFFFFFFFFFFFFFFFFFFFFFFFFFFFFFF AND PUSH20 0xFFFFFFFFFFFFFFFFFFFFFFFFFFFFFFFFFFFFFFFF AND DUP3 PUSH20 0xFFFFFFFFFFFFFFFFFFFFFFFFFFFFFFFFFFFFFFFF AND PUSH32 0xDDF252AD1BE2C89B69C2B068FC378DAA952BA7F163C4A11628F55A4DF523B3EF DUP4 PUSH1 0x40 MLOAD PUSH2 0x1012 SWAP2 SWAP1 PUSH2 0x2409 JUMP JUMPDEST PUSH1 0x40 MLOAD DUP1 SWAP2 SUB SWAP1 LOG3 POP POP DUP1 DUP1 PUSH2 0x1027 SWAP1 PUSH2 0x2663 JUMP JUMPDEST SWAP2 POP POP PUSH2 0xEA4 JUMP JUMPDEST POP DUP1 PUSH1 0x0 DUP1 PUSH1 0xB PUSH1 0x1 SWAP1 SLOAD SWAP1 PUSH2 0x100 EXP SWAP1 DIV PUSH20 0xFFFFFFFFFFFFFFFFFFFFFFFFFFFFFFFFFFFFFFFF AND PUSH20 0xFFFFFFFFFFFFFFFFFFFFFFFFFFFFFFFFFFFFFFFF AND PUSH20 0xFFFFFFFFFFFFFFFFFFFFFFFFFFFFFFFFFFFFFFFF AND DUP2 MSTORE PUSH1 0x20 ADD SWAP1 DUP2 MSTORE PUSH1 0x20 ADD PUSH1 0x0 KECCAK256 PUSH1 0x0 DUP3 DUP3 SLOAD PUSH2 0x10A0 SWAP2 SWAP1 PUSH2 0x24B1 JUMP JUMPDEST SWAP3 POP POP DUP2 SWAP1 SSTORE POP POP POP POP POP JUMP JUMPDEST PUSH1 0x60 PUSH1 0x4 DUP1 SLOAD PUSH2 0x10BC SWAP1 PUSH2 0x2600 JUMP JUMPDEST DUP1 PUSH1 0x1F ADD PUSH1 0x20 DUP1 SWAP2 DIV MUL PUSH1 0x20 ADD PUSH1 0x40 MLOAD SWAP1 DUP2 ADD PUSH1 0x40 MSTORE DUP1 SWAP3 SWAP2 SWAP1 DUP2 DUP2 MSTORE PUSH1 0x20 ADD DUP3 DUP1 SLOAD PUSH2 0x10E8 SWAP1 PUSH2 0x2600 JUMP JUMPDEST DUP1 ISZERO PUSH2 0x1135 JUMPI DUP1 PUSH1 0x1F LT PUSH2 0x110A JUMPI PUSH2 0x100 DUP1 DUP4 SLOAD DIV MUL DUP4 MSTORE SWAP2 PUSH1 0x20 ADD SWAP2 PUSH2 0x1135 JUMP JUMPDEST DUP3 ADD SWAP2 SWAP1 PUSH1 0x0 MSTORE PUSH1 0x20 PUSH1 0x0 KECCAK256 SWAP1 JUMPDEST DUP2 SLOAD DUP2 MSTORE SWAP1 PUSH1 0x1 ADD SWAP1 PUSH1 0x20 ADD DUP1 DUP4 GT PUSH2 0x1118 JUMPI DUP3 SWAP1 SUB PUSH1 0x1F AND DUP3 ADD SWAP2 JUMPDEST POP POP POP POP POP SWAP1 POP SWAP1 JUMP JUMPDEST PUSH1 0x0 DUP3 DUP3 PUSH1 0xB PUSH1 0x0 SWAP1 SLOAD SWAP1 PUSH2 0x100 EXP SWAP1 DIV PUSH1 0xFF AND ISZERO PUSH2 0x11F1 JUMPI PUSH1 0xB PUSH1 0x1 SWAP1 SLOAD SWAP1 PUSH2 0x100 EXP SWAP1 DIV PUSH20 0xFFFFFFFFFFFFFFFFFFFFFFFFFFFFFFFFFFFFFFFF AND PUSH20 0xFFFFFFFFFFFFFFFFFFFFFFFFFFFFFFFFFFFFFFFF AND PUSH4 0x568C75A9 PUSH2 0x119E PUSH2 0x1952 JUMP JUMPDEST DUP5 DUP5 PUSH1 0x40 MLOAD DUP5 PUSH4 0xFFFFFFFF AND PUSH1 0xE0 SHL DUP2 MSTORE PUSH1 0x4 ADD PUSH2 0x11BE SWAP4 SWAP3 SWAP2 SWAP1 PUSH2 0x21BA JUMP JUMPDEST PUSH1 0x0 PUSH1 0x40 MLOAD DUP1 DUP4 SUB DUP2 PUSH1 0x0 DUP8 DUP1 EXTCODESIZE ISZERO DUP1 ISZERO PUSH2 0x11D8 JUMPI PUSH1 0x0 DUP1 REVERT JUMPDEST POP GAS CALL ISZERO DUP1 ISZERO PUSH2 0x11EC JUMPI RETURNDATASIZE PUSH1 0x0 DUP1 RETURNDATACOPY RETURNDATASIZE PUSH1 0x0 REVERT JUMPDEST POP POP POP POP JUMPDEST PUSH1 0x0 PUSH1 0x1 PUSH1 0x0 PUSH2 0x11FF PUSH2 0x1952 JUMP JUMPDEST PUSH20 0xFFFFFFFFFFFFFFFFFFFFFFFFFFFFFFFFFFFFFFFF AND PUSH20 0xFFFFFFFFFFFFFFFFFFFFFFFFFFFFFFFFFFFFFFFF AND DUP2 MSTORE PUSH1 0x20 ADD SWAP1 DUP2 MSTORE PUSH1 0x20 ADD PUSH1 0x0 KECCAK256 PUSH1 0x0 DUP8 PUSH20 0xFFFFFFFFFFFFFFFFFFFFFFFFFFFFFFFFFFFFFFFF AND PUSH20 0xFFFFFFFFFFFFFFFFFFFFFFFFFFFFFFFFFFFFFFFF AND DUP2 MSTORE PUSH1 0x20 ADD SWAP1 DUP2 MSTORE PUSH1 0x20 ADD PUSH1 0x0 KECCAK256 SLOAD SWAP1 POP DUP5 DUP2 LT ISZERO PUSH2 0x12BC JUMPI PUSH1 0x40 MLOAD PUSH32 0x8C379A000000000000000000000000000000000000000000000000000000000 DUP2 MSTORE PUSH1 0x4 ADD PUSH2 0x12B3 SWAP1 PUSH2 0x23E9 JUMP JUMPDEST PUSH1 0x40 MLOAD DUP1 SWAP2 SUB SWAP1 REVERT JUMPDEST PUSH2 0x12D9 PUSH2 0x12C7 PUSH2 0x1952 JUMP JUMPDEST DUP8 DUP8 DUP5 PUSH2 0x12D4 SWAP2 SWAP1 PUSH2 0x2507 JUMP JUMPDEST PUSH2 0x195A JUMP JUMPDEST PUSH1 0x1 SWAP4 POP POP POP POP SWAP3 SWAP2 POP POP JUMP JUMPDEST PUSH1 0x0 DUP3 DUP3 PUSH1 0xB PUSH1 0x0 SWAP1 SLOAD SWAP1 PUSH2 0x100 EXP SWAP1 DIV PUSH1 0xFF AND ISZERO PUSH2 0x1398 JUMPI PUSH1 0xB PUSH1 0x1 SWAP1 SLOAD SWAP1 PUSH2 0x100 EXP SWAP1 DIV PUSH20 0xFFFFFFFFFFFFFFFFFFFFFFFFFFFFFFFFFFFFFFFF AND PUSH20 0xFFFFFFFFFFFFFFFFFFFFFFFFFFFFFFFFFFFFFFFF AND PUSH4 0x1FFB811F PUSH2 0x1345 PUSH2 0x1952 JUMP JUMPDEST DUP5 DUP5 PUSH1 0x40 MLOAD DUP5 PUSH4 0xFFFFFFFF AND PUSH1 0xE0 SHL DUP2 MSTORE PUSH1 0x4 ADD PUSH2 0x1365 SWAP4 SWAP3 SWAP2 SWAP1 PUSH2 0x21BA JUMP JUMPDEST PUSH1 0x0 PUSH1 0x40 MLOAD DUP1 DUP4 SUB DUP2 PUSH1 0x0 DUP8 DUP1 EXTCODESIZE ISZERO DUP1 ISZERO PUSH2 0x137F JUMPI PUSH1 0x0 DUP1 REVERT JUMPDEST POP GAS CALL ISZERO DUP1 ISZERO PUSH2 0x1393 JUMPI RETURNDATASIZE PUSH1 0x0 DUP1 RETURNDATACOPY RETURNDATASIZE PUSH1 0x0 REVERT JUMPDEST POP POP POP POP JUMPDEST PUSH2 0x13AA PUSH2 0x13A3 PUSH2 0x1952 JUMP JUMPDEST DUP7 DUP7 PUSH2 0x1A45 JUMP JUMPDEST PUSH1 0x1 SWAP3 POP POP POP SWAP3 SWAP2 POP POP JUMP JUMPDEST PUSH1 0x5 PUSH1 0x0 SWAP1 SLOAD SWAP1 PUSH2 0x100 EXP SWAP1 DIV PUSH20 0xFFFFFFFFFFFFFFFFFFFFFFFFFFFFFFFFFFFFFFFF AND PUSH20 0xFFFFFFFFFFFFFFFFFFFFFFFFFFFFFFFFFFFFFFFF AND PUSH2 0x13F7 PUSH2 0x1952 JUMP JUMPDEST PUSH20 0xFFFFFFFFFFFFFFFFFFFFFFFFFFFFFFFFFFFFFFFF AND EQ PUSH2 0x144D JUMPI PUSH1 0x40 MLOAD PUSH32 0x8C379A000000000000000000000000000000000000000000000000000000000 DUP2 MSTORE PUSH1 0x4 ADD PUSH2 0x1444 SWAP1 PUSH2 0x2369 JUMP JUMPDEST PUSH1 0x40 MLOAD DUP1 SWAP2 SUB SWAP1 REVERT JUMPDEST PUSH1 0x0 PUSH1 0xA SLOAD EQ ISZERO PUSH2 0x1493 JUMPI PUSH1 0x40 MLOAD PUSH32 0x8C379A000000000000000000000000000000000000000000000000000000000 DUP2 MSTORE PUSH1 0x4 ADD PUSH2 0x148A SWAP1 PUSH2 0x22E9 JUMP JUMPDEST PUSH1 0x40 MLOAD DUP1 SWAP2 SUB SWAP1 REVERT JUMPDEST TIMESTAMP PUSH1 0xA SLOAD GT ISZERO PUSH2 0x14D8 JUMPI PUSH1 0x40 MLOAD PUSH32 0x8C379A000000000000000000000000000000000000000000000000000000000 DUP2 MSTORE PUSH1 0x4 ADD PUSH2 0x14CF SWAP1 PUSH2 0x2269 JUMP JUMPDEST PUSH1 0x40 MLOAD DUP1 SWAP2 SUB SWAP1 REVERT JUMPDEST PUSH1 0x0 PUSH1 0xB PUSH1 0x0 PUSH2 0x100 EXP DUP2 SLOAD DUP2 PUSH1 0xFF MUL NOT AND SWAP1 DUP4 ISZERO ISZERO MUL OR SWAP1 SSTORE POP PUSH1 0x0 PUSH1 0xA DUP2 SWAP1 SSTORE POP PUSH32 0x3EB72350C9C7928D31E9AB450BFFF2C159434AA4B82658A7D8EAE7F109CB4E7B PUSH1 0x40 MLOAD PUSH1 0x40 MLOAD DUP1 SWAP2 SUB SWAP1 LOG1 JUMP JUMPDEST PUSH1 0x6 PUSH1 0x0 SWAP1 SLOAD SWAP1 PUSH2 0x100 EXP SWAP1 DIV PUSH20 0xFFFFFFFFFFFFFFFFFFFFFFFFFFFFFFFFFFFFFFFF AND PUSH20 0xFFFFFFFFFFFFFFFFFFFFFFFFFFFFFFFFFFFFFFFF AND PUSH2 0x156A PUSH2 0x1952 JUMP JUMPDEST PUSH20 0xFFFFFFFFFFFFFFFFFFFFFFFFFFFFFFFFFFFFFFFF AND EQ PUSH2 0x15C0 JUMPI PUSH1 0x40 MLOAD PUSH32 0x8C379A000000000000000000000000000000000000000000000000000000000 DUP2 MSTORE PUSH1 0x4 ADD PUSH2 0x15B7 SWAP1 PUSH2 0x2329 JUMP JUMPDEST PUSH1 0x40 MLOAD DUP1 SWAP2 SUB SWAP1 REVERT JUMPDEST PUSH1 0x7 SLOAD DUP2 DUP1 MLOAD SWAP1 PUSH1 0x20 ADD KECCAK256 EQ PUSH2 0x160B JUMPI PUSH1 0x40 MLOAD PUSH32 0x8C379A000000000000000000000000000000000000000000000000000000000 DUP2 MSTORE PUSH1 0x4 ADD PUSH2 0x1602 SWAP1 PUSH2 0x22C9 JUMP JUMPDEST PUSH1 0x40 MLOAD DUP1 SWAP2 SUB SWAP1 REVERT JUMPDEST PUSH1 0x6 PUSH1 0x0 SWAP1 SLOAD SWAP1 PUSH2 0x100 EXP SWAP1 DIV PUSH20 0xFFFFFFFFFFFFFFFFFFFFFFFFFFFFFFFFFFFFFFFF AND PUSH20 0xFFFFFFFFFFFFFFFFFFFFFFFFFFFFFFFFFFFFFFFF AND PUSH32 0xB94BBA6936EC7F75EE931DADF6E1A4D66B43D09B6FA0178FB13DF9B77FB5841F PUSH1 0x40 MLOAD PUSH1 0x40 MLOAD DUP1 SWAP2 SUB SWAP1 LOG2 PUSH1 0x6 PUSH1 0x0 SWAP1 SLOAD SWAP1 PUSH2 0x100 EXP SWAP1 DIV PUSH20 0xFFFFFFFFFFFFFFFFFFFFFFFFFFFFFFFFFFFFFFFF AND PUSH1 0x5 PUSH1 0x0 PUSH2 0x100 EXP DUP2 SLOAD DUP2 PUSH20 0xFFFFFFFFFFFFFFFFFFFFFFFFFFFFFFFFFFFFFFFF MUL NOT AND SWAP1 DUP4 PUSH20 0xFFFFFFFFFFFFFFFFFFFFFFFFFFFFFFFFFFFFFFFF AND MUL OR SWAP1 SSTORE POP PUSH1 0x0 PUSH1 0x6 PUSH1 0x0 PUSH2 0x100 EXP DUP2 SLOAD DUP2 PUSH20 0xFFFFFFFFFFFFFFFFFFFFFFFFFFFFFFFFFFFFFFFF MUL NOT AND SWAP1 DUP4 PUSH20 0xFFFFFFFFFFFFFFFFFFFFFFFFFFFFFFFFFFFFFFFF AND MUL OR SWAP1 SSTORE POP POP JUMP JUMPDEST PUSH1 0xB PUSH1 0x0 SWAP1 SLOAD SWAP1 PUSH2 0x100 EXP SWAP1 DIV PUSH1 0xFF AND DUP2 JUMP JUMPDEST PUSH1 0x5 PUSH1 0x0 SWAP1 SLOAD SWAP1 PUSH2 0x100 EXP SWAP1 DIV PUSH20 0xFFFFFFFFFFFFFFFFFFFFFFFFFFFFFFFFFFFFFFFF AND PUSH20 0xFFFFFFFFFFFFFFFFFFFFFFFFFFFFFFFFFFFFFFFF AND PUSH2 0x176C PUSH2 0x1952 JUMP JUMPDEST PUSH20 0xFFFFFFFFFFFFFFFFFFFFFFFFFFFFFFFFFFFFFFFF AND EQ PUSH2 0x17C2 JUMPI PUSH1 0x40 MLOAD PUSH32 0x8C379A000000000000000000000000000000000000000000000000000000000 DUP2 MSTORE PUSH1 0x4 ADD PUSH2 0x17B9 SWAP1 PUSH2 0x2369 JUMP JUMPDEST PUSH1 0x40 MLOAD DUP1 SWAP2 SUB SWAP1 REVERT JUMPDEST PUSH1 0x0 PUSH1 0xA SLOAD EQ PUSH2 0x1807 JUMPI PUSH1 0x40 MLOAD PUSH32 0x8C379A000000000000000000000000000000000000000000000000000000000 DUP2 MSTORE PUSH1 0x4 ADD PUSH2 0x17FE SWAP1 PUSH2 0x2349 JUMP JUMPDEST PUSH1 0x40 MLOAD DUP1 SWAP2 SUB SWAP1 REVERT JUMPDEST PUSH1 0xB PUSH1 0x0 SWAP1 SLOAD SWAP1 PUSH2 0x100 EXP SWAP1 DIV PUSH1 0xFF AND PUSH2 0x1856 JUMPI PUSH1 0x40 MLOAD PUSH32 0x8C379A000000000000000000000000000000000000000000000000000000000 DUP2 MSTORE PUSH1 0x4 ADD PUSH2 0x184D SWAP1 PUSH2 0x23A9 JUMP JUMPDEST PUSH1 0x40 MLOAD DUP1 SWAP2 SUB SWAP1 REVERT JUMPDEST PUSH1 0x9 SLOAD TIMESTAMP PUSH2 0x1864 SWAP2 SWAP1 PUSH2 0x24B1 JUMP JUMPDEST PUSH1 0xA DUP2 SWAP1 SSTORE POP PUSH32 0x6CA688E6E3DDD707280140B2BF0106AFE883689B6C74E68CBD517576DD9C245A PUSH1 0xA SLOAD PUSH1 0x40 MLOAD PUSH2 0x189B SWAP2 SWAP1 PUSH2 0x2409 JUMP JUMPDEST PUSH1 0x40 MLOAD DUP1 SWAP2 SUB SWAP1 LOG1 JUMP JUMPDEST PUSH1 0x0 PUSH1 0x1 PUSH1 0x0 DUP5 PUSH20 0xFFFFFFFFFFFFFFFFFFFFFFFFFFFFFFFFFFFFFFFF AND PUSH20 0xFFFFFFFFFFFFFFFFFFFFFFFFFFFFFFFFFFFFFFFF AND DUP2 MSTORE PUSH1 0x20 ADD SWAP1 DUP2 MSTORE PUSH1 0x20 ADD PUSH1 0x0 KECCAK256 PUSH1 0x0 DUP4 PUSH20 0xFFFFFFFFFFFFFFFFFFFFFFFFFFFFFFFFFFFFFFFF AND PUSH20 0xFFFFFFFFFFFFFFFFFFFFFFFFFFFFFFFFFFFFFFFF AND DUP2 MSTORE PUSH1 0x20 ADD SWAP1 DUP2 MSTORE PUSH1 0x20 ADD PUSH1 0x0 KECCAK256 SLOAD SWAP1 POP SWAP3 SWAP2 POP POP JUMP JUMPDEST PUSH1 0x8 PUSH1 0x0 SWAP1 SLOAD SWAP1 PUSH2 0x100 EXP SWAP1 DIV PUSH20 0xFFFFFFFFFFFFFFFFFFFFFFFFFFFFFFFFFFFFFFFF AND DUP2 JUMP JUMPDEST PUSH1 0x0 CALLER SWAP1 POP SWAP1 JUMP JUMPDEST DUP1 PUSH1 0x1 PUSH1 0x0 DUP6 PUSH20 0xFFFFFFFFFFFFFFFFFFFFFFFFFFFFFFFFFFFFFFFF AND PUSH20 0xFFFFFFFFFFFFFFFFFFFFFFFFFFFFFFFFFFFFFFFF AND DUP2 MSTORE PUSH1 0x20 ADD SWAP1 DUP2 MSTORE PUSH1 0x20 ADD PUSH1 0x0 KECCAK256 PUSH1 0x0 DUP5 PUSH20 0xFFFFFFFFFFFFFFFFFFFFFFFFFFFFFFFFFFFFFFFF AND PUSH20 0xFFFFFFFFFFFFFFFFFFFFFFFFFFFFFFFFFFFFFFFF AND DUP2 MSTORE PUSH1 0x20 ADD SWAP1 DUP2 MSTORE PUSH1 0x20 ADD PUSH1 0x0 KECCAK256 DUP2 SWAP1 SSTORE POP DUP2 PUSH20 0xFFFFFFFFFFFFFFFFFFFFFFFFFFFFFFFFFFFFFFFF AND DUP4 PUSH20 0xFFFFFFFFFFFFFFFFFFFFFFFFFFFFFFFFFFFFFFFF AND PUSH32 0x8C5BE1E5EBEC7D5BD14F71427D1E84F3DD0314C0F7B2291E5B200AC8C7C3B925 DUP4 PUSH1 0x40 MLOAD PUSH2 0x1A38 SWAP2 SWAP1 PUSH2 0x2409 JUMP JUMPDEST PUSH1 0x40 MLOAD DUP1 SWAP2 SUB SWAP1 LOG3 POP POP POP JUMP JUMPDEST PUSH1 0x0 PUSH20 0xFFFFFFFFFFFFFFFFFFFFFFFFFFFFFFFFFFFFFFFF AND DUP4 PUSH20 0xFFFFFFFFFFFFFFFFFFFFFFFFFFFFFFFFFFFFFFFF AND EQ ISZERO PUSH2 0x1AB5 JUMPI PUSH1 0x40 MLOAD PUSH32 0x8C379A000000000000000000000000000000000000000000000000000000000 DUP2 MSTORE PUSH1 0x4 ADD PUSH2 0x1AAC SWAP1 PUSH2 0x2309 JUMP JUMPDEST PUSH1 0x40 MLOAD DUP1 SWAP2 SUB SWAP1 REVERT JUMPDEST PUSH1 0x0 DUP1 PUSH1 0x0 DUP6 PUSH20 0xFFFFFFFFFFFFFFFFFFFFFFFFFFFFFFFFFFFFFFFF AND PUSH20 0xFFFFFFFFFFFFFFFFFFFFFFFFFFFFFFFFFFFFFFFF AND DUP2 MSTORE PUSH1 0x20 ADD SWAP1 DUP2 MSTORE PUSH1 0x20 ADD PUSH1 0x0 KECCAK256 SLOAD SWAP1 POP DUP2 DUP2 LT ISZERO PUSH2 0x1B3B JUMPI PUSH1 0x40 MLOAD PUSH32 0x8C379A000000000000000000000000000000000000000000000000000000000 DUP2 MSTORE PUSH1 0x4 ADD PUSH2 0x1B32 SWAP1 PUSH2 0x2289 JUMP JUMPDEST PUSH1 0x40 MLOAD DUP1 SWAP2 SUB SWAP1 REVERT JUMPDEST DUP2 DUP2 PUSH2 0x1B47 SWAP2 SWAP1 PUSH2 0x2507 JUMP JUMPDEST PUSH1 0x0 DUP1 DUP7 PUSH20 0xFFFFFFFFFFFFFFFFFFFFFFFFFFFFFFFFFFFFFFFF AND PUSH20 0xFFFFFFFFFFFFFFFFFFFFFFFFFFFFFFFFFFFFFFFF AND DUP2 MSTORE PUSH1 0x20 ADD SWAP1 DUP2 MSTORE PUSH1 0x20 ADD PUSH1 0x0 KECCAK256 DUP2 SWAP1 SSTORE POP DUP2 PUSH1 0x0 DUP1 DUP6 PUSH20 0xFFFFFFFFFFFFFFFFFFFFFFFFFFFFFFFFFFFFFFFF AND PUSH20 0xFFFFFFFFFFFFFFFFFFFFFFFFFFFFFFFFFFFFFFFF AND DUP2 MSTORE PUSH1 0x20 ADD SWAP1 DUP2 MSTORE PUSH1 0x20 ADD PUSH1 0x0 KECCAK256 PUSH1 0x0 DUP3 DUP3 SLOAD PUSH2 0x1BD7 SWAP2 SWAP1 PUSH2 0x24B1 JUMP JUMPDEST SWAP3 POP POP DUP2 SWAP1 SSTORE POP DUP3 PUSH20 0xFFFFFFFFFFFFFFFFFFFFFFFFFFFFFFFFFFFFFFFF AND DUP5 PUSH20 0xFFFFFFFFFFFFFFFFFFFFFFFFFFFFFFFFFFFFFFFF AND PUSH32 0xDDF252AD1BE2C89B69C2B068FC378DAA952BA7F163C4A11628F55A4DF523B3EF DUP5 PUSH1 0x40 MLOAD PUSH2 0x1C3B SWAP2 SWAP1 PUSH2 0x2409 JUMP JUMPDEST PUSH1 0x40 MLOAD DUP1 SWAP2 SUB SWAP1 LOG3 POP POP POP POP JUMP JUMPDEST PUSH1 0x0 PUSH2 0x1C5C PUSH2 0x1C57 DUP5 PUSH2 0x2464 JUMP JUMPDEST PUSH2 0x243F JUMP JUMPDEST SWAP1 POP DUP3 DUP2 MSTORE PUSH1 0x20 DUP2 ADD DUP5 DUP5 DUP5 ADD GT ISZERO PUSH2 0x1C74 JUMPI PUSH1 0x0 DUP1 REVERT JUMPDEST PUSH2 0x1C7F DUP5 DUP3 DUP6 PUSH2 0x25BE JUMP JUMPDEST POP SWAP4 SWAP3 POP POP POP JUMP JUMPDEST PUSH1 0x0 DUP2 CALLDATALOAD SWAP1 POP PUSH2 0x1C96 DUP2 PUSH2 0x2A20 JUMP JUMPDEST SWAP3 SWAP2 POP POP JUMP JUMPDEST PUSH1 0x0 DUP1 DUP4 PUSH1 0x1F DUP5 ADD SLT PUSH2 0x1CAE JUMPI PUSH1 0x0 DUP1 REVERT JUMPDEST DUP3 CALLDATALOAD SWAP1 POP PUSH8 0xFFFFFFFFFFFFFFFF DUP2 GT ISZERO PUSH2 0x1CC7 JUMPI PUSH1 0x0 DUP1 REVERT JUMPDEST PUSH1 0x20 DUP4 ADD SWAP2 POP DUP4 PUSH1 0x20 DUP3 MUL DUP4 ADD GT ISZERO PUSH2 0x1CDF JUMPI PUSH1 0x0 DUP1 REVERT JUMPDEST SWAP3 POP SWAP3 SWAP1 POP JUMP JUMPDEST PUSH1 0x0 DUP2 CALLDATALOAD SWAP1 POP PUSH2 0x1CF5 DUP2 PUSH2 0x2A37 JUMP JUMPDEST SWAP3 SWAP2 POP POP JUMP JUMPDEST PUSH1 0x0 DUP3 PUSH1 0x1F DUP4 ADD SLT PUSH2 0x1D0C JUMPI PUSH1 0x0 DUP1 REVERT JUMPDEST DUP2 CALLDATALOAD PUSH2 0x1D1C DUP5 DUP3 PUSH1 0x20 DUP7 ADD PUSH2 0x1C49 JUMP JUMPDEST SWAP2 POP POP SWAP3 SWAP2 POP POP JUMP JUMPDEST PUSH1 0x0 DUP2 CALLDATALOAD SWAP1 POP PUSH2 0x1D34 DUP2 PUSH2 0x2A4E JUMP JUMPDEST SWAP3 SWAP2 POP POP JUMP JUMPDEST PUSH1 0x0 PUSH1 0x20 DUP3 DUP5 SUB SLT ISZERO PUSH2 0x1D4C JUMPI PUSH1 0x0 DUP1 REVERT JUMPDEST PUSH1 0x0 PUSH2 0x1D5A DUP5 DUP3 DUP6 ADD PUSH2 0x1C87 JUMP JUMPDEST SWAP2 POP POP SWAP3 SWAP2 POP POP JUMP JUMPDEST PUSH1 0x0 DUP1 PUSH1 0x40 DUP4 DUP6 SUB SLT ISZERO PUSH2 0x1D76 JUMPI PUSH1 0x0 DUP1 REVERT JUMPDEST PUSH1 0x0 PUSH2 0x1D84 DUP6 DUP3 DUP7 ADD PUSH2 0x1C87 JUMP JUMPDEST SWAP3 POP POP PUSH1 0x20 PUSH2 0x1D95 DUP6 DUP3 DUP7 ADD PUSH2 0x1C87 JUMP JUMPDEST SWAP2 POP POP SWAP3 POP SWAP3 SWAP1 POP JUMP JUMPDEST PUSH1 0x0 DUP1 PUSH1 0x0 PUSH1 0x60 DUP5 DUP7 SUB SLT ISZERO PUSH2 0x1DB4 JUMPI PUSH1 0x0 DUP1 REVERT JUMPDEST PUSH1 0x0 PUSH2 0x1DC2 DUP7 DUP3 DUP8 ADD PUSH2 0x1C87 JUMP JUMPDEST SWAP4 POP POP PUSH1 0x20 PUSH2 0x1DD3 DUP7 DUP3 DUP8 ADD PUSH2 0x1C87 JUMP JUMPDEST SWAP3 POP POP PUSH1 0x40 PUSH2 0x1DE4 DUP7 DUP3 DUP8 ADD PUSH2 0x1D25 JUMP JUMPDEST SWAP2 POP POP SWAP3 POP SWAP3 POP SWAP3 JUMP JUMPDEST PUSH1 0x0 DUP1 PUSH1 0x40 DUP4 DUP6 SUB SLT ISZERO PUSH2 0x1E01 JUMPI PUSH1 0x0 DUP1 REVERT JUMPDEST PUSH1 0x0 PUSH2 0x1E0F DUP6 DUP3 DUP7 ADD PUSH2 0x1C87 JUMP JUMPDEST SWAP3 POP POP PUSH1 0x20 PUSH2 0x1E20 DUP6 DUP3 DUP7 ADD PUSH2 0x1CE6 JUMP JUMPDEST SWAP2 POP POP SWAP3 POP SWAP3 SWAP1 POP JUMP JUMPDEST PUSH1 0x0 DUP1 PUSH1 0x40 DUP4 DUP6 SUB SLT ISZERO PUSH2 0x1E3D JUMPI PUSH1 0x0 DUP1 REVERT JUMPDEST PUSH1 0x0 PUSH2 0x1E4B DUP6 DUP3 DUP7 ADD PUSH2 0x1C87 JUMP JUMPDEST SWAP3 POP POP PUSH1 0x20 PUSH2 0x1E5C DUP6 DUP3 DUP7 ADD PUSH2 0x1D25 JUMP JUMPDEST SWAP2 POP POP SWAP3 POP SWAP3 SWAP1 POP JUMP JUMPDEST PUSH1 0x0 DUP1 PUSH1 0x20 DUP4 DUP6 SUB SLT ISZERO PUSH2 0x1E79 JUMPI PUSH1 0x0 DUP1 REVERT JUMPDEST PUSH1 0x0 DUP4 ADD CALLDATALOAD PUSH8 0xFFFFFFFFFFFFFFFF DUP2 GT ISZERO PUSH2 0x1E93 JUMPI PUSH1 0x0 DUP1 REVERT JUMPDEST PUSH2 0x1E9F DUP6 DUP3 DUP7 ADD PUSH2 0x1C9C JUMP JUMPDEST SWAP3 POP SWAP3 POP POP SWAP3 POP SWAP3 SWAP1 POP JUMP JUMPDEST PUSH1 0x0 PUSH1 0x20 DUP3 DUP5 SUB SLT ISZERO PUSH2 0x1EBD JUMPI PUSH1 0x0 DUP1 REVERT JUMPDEST PUSH1 0x0 DUP3 ADD CALLDATALOAD PUSH8 0xFFFFFFFFFFFFFFFF DUP2 GT ISZERO PUSH2 0x1ED7 JUMPI PUSH1 0x0 DUP1 REVERT JUMPDEST PUSH2 0x1EE3 DUP5 DUP3 DUP6 ADD PUSH2 0x1CFB JUMP JUMPDEST SWAP2 POP POP SWAP3 SWAP2 POP POP JUMP JUMPDEST PUSH2 0x1EF5 DUP2 PUSH2 0x253B JUMP JUMPDEST DUP3 MSTORE POP POP JUMP JUMPDEST PUSH2 0x1F04 DUP2 PUSH2 0x254D JUMP JUMPDEST DUP3 MSTORE POP POP JUMP JUMPDEST PUSH2 0x1F13 DUP2 PUSH2 0x259A JUMP JUMPDEST DUP3 MSTORE POP POP JUMP JUMPDEST PUSH1 0x0 PUSH2 0x1F24 DUP3 PUSH2 0x2495 JUMP JUMPDEST PUSH2 0x1F2E DUP2 DUP6 PUSH2 0x24A0 JUMP JUMPDEST SWAP4 POP PUSH2 0x1F3E DUP2 DUP6 PUSH1 0x20 DUP7 ADD PUSH2 0x25CD JUMP JUMPDEST PUSH2 0x1F47 DUP2 PUSH2 0x2739 JUMP JUMPDEST DUP5 ADD SWAP2 POP POP SWAP3 SWAP2 POP POP JUMP JUMPDEST PUSH1 0x0 PUSH2 0x1F5F PUSH1 0x1F DUP4 PUSH2 0x24A0 JUMP JUMPDEST SWAP2 POP PUSH2 0x1F6A DUP3 PUSH2 0x274A JUMP JUMPDEST PUSH1 0x20 DUP3 ADD SWAP1 POP SWAP2 SWAP1 POP JUMP JUMPDEST PUSH1 0x0 PUSH2 0x1F82 PUSH1 0x1D DUP4 PUSH2 0x24A0 JUMP JUMPDEST SWAP2 POP PUSH2 0x1F8D DUP3 PUSH2 0x2773 JUMP JUMPDEST PUSH1 0x20 DUP3 ADD SWAP1 POP SWAP2 SWAP1 POP JUMP JUMPDEST PUSH1 0x0 PUSH2 0x1FA5 PUSH1 0x27 DUP4 PUSH2 0x24A0 JUMP JUMPDEST SWAP2 POP PUSH2 0x1FB0 DUP3 PUSH2 0x279C JUMP JUMPDEST PUSH1 0x40 DUP3 ADD SWAP1 POP SWAP2 SWAP1 POP JUMP JUMPDEST PUSH1 0x0 PUSH2 0x1FC8 PUSH1 0x29 DUP4 PUSH2 0x24A0 JUMP JUMPDEST SWAP2 POP PUSH2 0x1FD3 DUP3 PUSH2 0x27EB JUMP JUMPDEST PUSH1 0x40 DUP3 ADD SWAP1 POP SWAP2 SWAP1 POP JUMP JUMPDEST PUSH1 0x0 PUSH2 0x1FEB PUSH1 0x13 DUP4 PUSH2 0x24A0 JUMP JUMPDEST SWAP2 POP PUSH2 0x1FF6 DUP3 PUSH2 0x283A JUMP JUMPDEST PUSH1 0x20 DUP3 ADD SWAP1 POP SWAP2 SWAP1 POP JUMP JUMPDEST PUSH1 0x0 PUSH2 0x200E PUSH1 0x1C DUP4 PUSH2 0x24A0 JUMP JUMPDEST SWAP2 POP PUSH2 0x2019 DUP3 PUSH2 0x2863 JUMP JUMPDEST PUSH1 0x20 DUP3 ADD SWAP1 POP SWAP2 SWAP1 POP JUMP JUMPDEST PUSH1 0x0 PUSH2 0x2031 PUSH1 0x26 DUP4 PUSH2 0x24A0 JUMP JUMPDEST SWAP2 POP PUSH2 0x203C DUP3 PUSH2 0x288C JUMP JUMPDEST PUSH1 0x40 DUP3 ADD SWAP1 POP SWAP2 SWAP1 POP JUMP JUMPDEST PUSH1 0x0 PUSH2 0x2054 PUSH1 0x19 DUP4 PUSH2 0x24A0 JUMP JUMPDEST SWAP2 POP PUSH2 0x205F DUP3 PUSH2 0x28DB JUMP JUMPDEST PUSH1 0x20 DUP3 ADD SWAP1 POP SWAP2 SWAP1 POP JUMP JUMPDEST PUSH1 0x0 PUSH2 0x2077 PUSH1 0x20 DUP4 PUSH2 0x24A0 JUMP JUMPDEST SWAP2 POP PUSH2 0x2082 DUP3 PUSH2 0x2904 JUMP JUMPDEST PUSH1 0x20 DUP3 ADD SWAP1 POP SWAP2 SWAP1 POP JUMP JUMPDEST PUSH1 0x0 PUSH2 0x209A PUSH1 0x1E DUP4 PUSH2 0x24A0 JUMP JUMPDEST SWAP2 POP PUSH2 0x20A5 DUP3 PUSH2 0x292D JUMP JUMPDEST PUSH1 0x20 DUP3 ADD SWAP1 POP SWAP2 SWAP1 POP JUMP JUMPDEST PUSH1 0x0 PUSH2 0x20BD PUSH1 0x1B DUP4 PUSH2 0x24A0 JUMP JUMPDEST SWAP2 POP PUSH2 0x20C8 DUP3 PUSH2 0x2956 JUMP JUMPDEST PUSH1 0x20 DUP3 ADD SWAP1 POP SWAP2 SWAP1 POP JUMP JUMPDEST PUSH1 0x0 PUSH2 0x20E0 PUSH1 0x1C DUP4 PUSH2 0x24A0 JUMP JUMPDEST SWAP2 POP PUSH2 0x20EB DUP3 PUSH2 0x297F JUMP JUMPDEST PUSH1 0x20 DUP3 ADD SWAP1 POP SWAP2 SWAP1 POP JUMP JUMPDEST PUSH1 0x0 PUSH2 0x2103 PUSH1 0x1E DUP4 PUSH2 0x24A0 JUMP JUMPDEST SWAP2 POP PUSH2 0x210E DUP3 PUSH2 0x29A8 JUMP JUMPDEST PUSH1 0x20 DUP3 ADD SWAP1 POP SWAP2 SWAP1 POP JUMP JUMPDEST PUSH1 0x0 PUSH2 0x2126 PUSH1 0x26 DUP4 PUSH2 0x24A0 JUMP JUMPDEST SWAP2 POP PUSH2 0x2131 DUP3 PUSH2 0x29D1 JUMP JUMPDEST PUSH1 0x40 DUP3 ADD SWAP1 POP SWAP2 SWAP1 POP JUMP JUMPDEST PUSH2 0x2145 DUP2 PUSH2 0x2583 JUMP JUMPDEST DUP3 MSTORE POP POP JUMP JUMPDEST PUSH2 0x2154 DUP2 PUSH2 0x258D JUMP JUMPDEST DUP3 MSTORE POP POP JUMP JUMPDEST PUSH1 0x0 PUSH1 0x20 DUP3 ADD SWAP1 POP PUSH2 0x216F PUSH1 0x0 DUP4 ADD DUP5 PUSH2 0x1EEC JUMP JUMPDEST SWAP3 SWAP2 POP POP JUMP JUMPDEST PUSH1 0x0 PUSH1 0x80 DUP3 ADD SWAP1 POP PUSH2 0x218A PUSH1 0x0 DUP4 ADD DUP8 PUSH2 0x1EEC JUMP JUMPDEST PUSH2 0x2197 PUSH1 0x20 DUP4 ADD DUP7 PUSH2 0x1EEC JUMP JUMPDEST PUSH2 0x21A4 PUSH1 0x40 DUP4 ADD DUP6 PUSH2 0x1EEC JUMP JUMPDEST PUSH2 0x21B1 PUSH1 0x60 DUP4 ADD DUP5 PUSH2 0x213C JUMP JUMPDEST SWAP6 SWAP5 POP POP POP POP POP JUMP JUMPDEST PUSH1 0x0 PUSH1 0x60 DUP3 ADD SWAP1 POP PUSH2 0x21CF PUSH1 0x0 DUP4 ADD DUP7 PUSH2 0x1EEC JUMP JUMPDEST PUSH2 0x21DC PUSH1 0x20 DUP4 ADD DUP6 PUSH2 0x1EEC JUMP JUMPDEST PUSH2 0x21E9 PUSH1 0x40 DUP4 ADD DUP5 PUSH2 0x213C JUMP JUMPDEST SWAP5 SWAP4 POP POP POP POP JUMP JUMPDEST PUSH1 0x0 PUSH1 0x20 DUP3 ADD SWAP1 POP PUSH2 0x2206 PUSH1 0x0 DUP4 ADD DUP5 PUSH2 0x1EFB JUMP JUMPDEST SWAP3 SWAP2 POP POP JUMP JUMPDEST PUSH1 0x0 PUSH1 0x20 DUP3 ADD SWAP1 POP PUSH2 0x2221 PUSH1 0x0 DUP4 ADD DUP5 PUSH2 0x1F0A JUMP JUMPDEST SWAP3 SWAP2 POP POP JUMP JUMPDEST PUSH1 0x0 PUSH1 0x20 DUP3 ADD SWAP1 POP DUP2 DUP2 SUB PUSH1 0x0 DUP4 ADD MSTORE PUSH2 0x2241 DUP2 DUP5 PUSH2 0x1F19 JUMP JUMPDEST SWAP1 POP SWAP3 SWAP2 POP POP JUMP JUMPDEST PUSH1 0x0 PUSH1 0x20 DUP3 ADD SWAP1 POP DUP2 DUP2 SUB PUSH1 0x0 DUP4 ADD MSTORE PUSH2 0x2262 DUP2 PUSH2 0x1F52 JUMP JUMPDEST SWAP1 POP SWAP2 SWAP1 POP JUMP JUMPDEST PUSH1 0x0 PUSH1 0x20 DUP3 ADD SWAP1 POP DUP2 DUP2 SUB PUSH1 0x0 DUP4 ADD MSTORE PUSH2 0x2282 DUP2 PUSH2 0x1F75 JUMP JUMPDEST SWAP1 POP SWAP2 SWAP1 POP JUMP JUMPDEST PUSH1 0x0 PUSH1 0x20 DUP3 ADD SWAP1 POP DUP2 DUP2 SUB PUSH1 0x0 DUP4 ADD MSTORE PUSH2 0x22A2 DUP2 PUSH2 0x1F98 JUMP JUMPDEST SWAP1 POP SWAP2 SWAP1 POP JUMP JUMPDEST PUSH1 0x0 PUSH1 0x20 DUP3 ADD SWAP1 POP DUP2 DUP2 SUB PUSH1 0x0 DUP4 ADD MSTORE PUSH2 0x22C2 DUP2 PUSH2 0x1FBB JUMP JUMPDEST SWAP1 POP SWAP2 SWAP1 POP JUMP JUMPDEST PUSH1 0x0 PUSH1 0x20 DUP3 ADD SWAP1 POP DUP2 DUP2 SUB PUSH1 0x0 DUP4 ADD MSTORE PUSH2 0x22E2 DUP2 PUSH2 0x1FDE JUMP JUMPDEST SWAP1 POP SWAP2 SWAP1 POP JUMP JUMPDEST PUSH1 0x0 PUSH1 0x20 DUP3 ADD SWAP1 POP DUP2 DUP2 SUB PUSH1 0x0 DUP4 ADD MSTORE PUSH2 0x2302 DUP2 PUSH2 0x2001 JUMP JUMPDEST SWAP1 POP SWAP2 SWAP1 POP JUMP JUMPDEST PUSH1 0x0 PUSH1 0x20 DUP3 ADD SWAP1 POP DUP2 DUP2 SUB PUSH1 0x0 DUP4 ADD MSTORE PUSH2 0x2322 DUP2 PUSH2 0x2024 JUMP JUMPDEST SWAP1 POP SWAP2 SWAP1 POP JUMP JUMPDEST PUSH1 0x0 PUSH1 0x20 DUP3 ADD SWAP1 POP DUP2 DUP2 SUB PUSH1 0x0 DUP4 ADD MSTORE PUSH2 0x2342 DUP2 PUSH2 0x2047 JUMP JUMPDEST SWAP1 POP SWAP2 SWAP1 POP JUMP JUMPDEST PUSH1 0x0 PUSH1 0x20 DUP3 ADD SWAP1 POP DUP2 DUP2 SUB PUSH1 0x0 DUP4 ADD MSTORE PUSH2 0x2362 DUP2 PUSH2 0x206A JUMP JUMPDEST SWAP1 POP SWAP2 SWAP1 POP JUMP JUMPDEST PUSH1 0x0 PUSH1 0x20 DUP3 ADD SWAP1 POP DUP2 DUP2 SUB PUSH1 0x0 DUP4 ADD MSTORE PUSH2 0x2382 DUP2 PUSH2 0x208D JUMP JUMPDEST SWAP1 POP SWAP2 SWAP1 POP JUMP JUMPDEST PUSH1 0x0 PUSH1 0x20 DUP3 ADD SWAP1 POP DUP2 DUP2 SUB PUSH1 0x0 DUP4 ADD MSTORE PUSH2 0x23A2 DUP2 PUSH2 0x20B0 JUMP JUMPDEST SWAP1 POP SWAP2 SWAP1 POP JUMP JUMPDEST PUSH1 0x0 PUSH1 0x20 DUP3 ADD SWAP1 POP DUP2 DUP2 SUB PUSH1 0x0 DUP4 ADD MSTORE PUSH2 0x23C2 DUP2 PUSH2 0x20D3 JUMP JUMPDEST SWAP1 POP SWAP2 SWAP1 POP JUMP JUMPDEST PUSH1 0x0 PUSH1 0x20 DUP3 ADD SWAP1 POP DUP2 DUP2 SUB PUSH1 0x0 DUP4 ADD MSTORE PUSH2 0x23E2 DUP2 PUSH2 0x20F6 JUMP JUMPDEST SWAP1 POP SWAP2 SWAP1 POP JUMP JUMPDEST PUSH1 0x0 PUSH1 0x20 DUP3 ADD SWAP1 POP DUP2 DUP2 SUB PUSH1 0x0 DUP4 ADD MSTORE PUSH2 0x2402 DUP2 PUSH2 0x2119 JUMP JUMPDEST SWAP1 POP SWAP2 SWAP1 POP JUMP JUMPDEST PUSH1 0x0 PUSH1 0x20 DUP3 ADD SWAP1 POP PUSH2 0x241E PUSH1 0x0 DUP4 ADD DUP5 PUSH2 0x213C JUMP JUMPDEST SWAP3 SWAP2 POP POP JUMP JUMPDEST PUSH1 0x0 PUSH1 0x20 DUP3 ADD SWAP1 POP PUSH2 0x2439 PUSH1 0x0 DUP4 ADD DUP5 PUSH2 0x214B JUMP JUMPDEST SWAP3 SWAP2 POP POP JUMP JUMPDEST PUSH1 0x0 PUSH2 0x2449 PUSH2 0x245A JUMP JUMPDEST SWAP1 POP PUSH2 0x2455 DUP3 DUP3 PUSH2 0x2632 JUMP JUMPDEST SWAP2 SWAP1 POP JUMP JUMPDEST PUSH1 0x0 PUSH1 0x40 MLOAD SWAP1 POP SWAP1 JUMP JUMPDEST PUSH1 0x0 PUSH8 0xFFFFFFFFFFFFFFFF DUP3 GT ISZERO PUSH2 0x247F JUMPI PUSH2 0x247E PUSH2 0x270A JUMP JUMPDEST JUMPDEST PUSH2 0x2488 DUP3 PUSH2 0x2739 JUMP JUMPDEST SWAP1 POP PUSH1 0x20 DUP2 ADD SWAP1 POP SWAP2 SWAP1 POP JUMP JUMPDEST PUSH1 0x0 DUP2 MLOAD SWAP1 POP SWAP2 SWAP1 POP JUMP JUMPDEST PUSH1 0x0 DUP3 DUP3 MSTORE PUSH1 0x20 DUP3 ADD SWAP1 POP SWAP3 SWAP2 POP POP JUMP JUMPDEST PUSH1 0x0 PUSH2 0x24BC DUP3 PUSH2 0x2583 JUMP JUMPDEST SWAP2 POP PUSH2 0x24C7 DUP4 PUSH2 0x2583 JUMP JUMPDEST SWAP3 POP DUP3 PUSH32 0xFFFFFFFFFFFFFFFFFFFFFFFFFFFFFFFFFFFFFFFFFFFFFFFFFFFFFFFFFFFFFFFF SUB DUP3 GT ISZERO PUSH2 0x24FC JUMPI PUSH2 0x24FB PUSH2 0x26AC JUMP JUMPDEST JUMPDEST DUP3 DUP3 ADD SWAP1 POP SWAP3 SWAP2 POP POP JUMP JUMPDEST PUSH1 0x0 PUSH2 0x2512 DUP3 PUSH2 0x2583 JUMP JUMPDEST SWAP2 POP PUSH2 0x251D DUP4 PUSH2 0x2583 JUMP JUMPDEST SWAP3 POP DUP3 DUP3 LT ISZERO PUSH2 0x2530 JUMPI PUSH2 0x252F PUSH2 0x26AC JUMP JUMPDEST JUMPDEST DUP3 DUP3 SUB SWAP1 POP SWAP3 SWAP2 POP POP JUMP JUMPDEST PUSH1 0x0 PUSH2 0x2546 DUP3 PUSH2 0x2563 JUMP JUMPDEST SWAP1 POP SWAP2 SWAP1 POP JUMP JUMPDEST PUSH1 0x0 DUP2 ISZERO ISZERO SWAP1 POP SWAP2 SWAP1 POP JUMP JUMPDEST PUSH1 0x0 DUP2 SWAP1 POP SWAP2 SWAP1 POP JUMP JUMPDEST PUSH1 0x0 PUSH20 0xFFFFFFFFFFFFFFFFFFFFFFFFFFFFFFFFFFFFFFFF DUP3 AND SWAP1 POP SWAP2 SWAP1 POP JUMP JUMPDEST PUSH1 0x0 DUP2 SWAP1 POP SWAP2 SWAP1 POP JUMP JUMPDEST PUSH1 0x0 PUSH1 0xFF DUP3 AND SWAP1 POP SWAP2 SWAP1 POP JUMP JUMPDEST PUSH1 0x0 PUSH2 0x25A5 DUP3 PUSH2 0x25AC JUMP JUMPDEST SWAP1 POP SWAP2 SWAP1 POP JUMP JUMPDEST PUSH1 0x0 PUSH2 0x25B7 DUP3 PUSH2 0x2563 JUMP JUMPDEST SWAP1 POP SWAP2 SWAP1 POP JUMP JUMPDEST DUP3 DUP2 DUP4 CALLDATACOPY PUSH1 0x0 DUP4 DUP4 ADD MSTORE POP POP POP JUMP JUMPDEST PUSH1 0x0 JUMPDEST DUP4 DUP2 LT ISZERO PUSH2 0x25EB JUMPI DUP1 DUP3 ADD MLOAD DUP2 DUP5 ADD MSTORE PUSH1 0x20 DUP2 ADD SWAP1 POP PUSH2 0x25D0 JUMP JUMPDEST DUP4 DUP2 GT ISZERO PUSH2 0x25FA JUMPI PUSH1 0x0 DUP5 DUP5 ADD MSTORE JUMPDEST POP POP POP POP JUMP JUMPDEST PUSH1 0x0 PUSH1 0x2 DUP3 DIV SWAP1 POP PUSH1 0x1 DUP3 AND DUP1 PUSH2 0x2618 JUMPI PUSH1 0x7F DUP3 AND SWAP2 POP JUMPDEST PUSH1 0x20 DUP3 LT DUP2 EQ ISZERO PUSH2 0x262C JUMPI PUSH2 0x262B PUSH2 0x26DB JUMP JUMPDEST JUMPDEST POP SWAP2 SWAP1 POP JUMP JUMPDEST PUSH2 0x263B DUP3 PUSH2 0x2739 JUMP JUMPDEST DUP2 ADD DUP2 DUP2 LT PUSH8 0xFFFFFFFFFFFFFFFF DUP3 GT OR ISZERO PUSH2 0x265A JUMPI PUSH2 0x2659 PUSH2 0x270A JUMP JUMPDEST JUMPDEST DUP1 PUSH1 0x40 MSTORE POP POP POP JUMP JUMPDEST PUSH1 0x0 PUSH2 0x266E DUP3 PUSH2 0x2583 JUMP JUMPDEST SWAP2 POP PUSH32 0xFFFFFFFFFFFFFFFFFFFFFFFFFFFFFFFFFFFFFFFFFFFFFFFFFFFFFFFFFFFFFFFF DUP3 EQ ISZERO PUSH2 0x26A1 JUMPI PUSH2 0x26A0 PUSH2 0x26AC JUMP JUMPDEST JUMPDEST PUSH1 0x1 DUP3 ADD SWAP1 POP SWAP2 SWAP1 POP JUMP JUMPDEST PUSH32 0x4E487B7100000000000000000000000000000000000000000000000000000000 PUSH1 0x0 MSTORE PUSH1 0x11 PUSH1 0x4 MSTORE PUSH1 0x24 PUSH1 0x0 REVERT JUMPDEST PUSH32 0x4E487B7100000000000000000000000000000000000000000000000000000000 PUSH1 0x0 MSTORE PUSH1 0x22 PUSH1 0x4 MSTORE PUSH1 0x24 PUSH1 0x0 REVERT JUMPDEST PUSH32 0x4E487B7100000000000000000000000000000000000000000000000000000000 PUSH1 0x0 MSTORE PUSH1 0x41 PUSH1 0x4 MSTORE PUSH1 0x24 PUSH1 0x0 REVERT JUMPDEST PUSH1 0x0 PUSH1 0x1F NOT PUSH1 0x1F DUP4 ADD AND SWAP1 POP SWAP2 SWAP1 POP JUMP JUMPDEST PUSH32 0x4C45524332303A2043616E6E6F74207365742073616D65206164647265737300 PUSH1 0x0 DUP3 ADD MSTORE POP JUMP JUMPDEST PUSH32 0x4C45524332303A2054696D65206C6F636B20696E2070726F6772657373000000 PUSH1 0x0 DUP3 ADD MSTORE POP JUMP JUMPDEST PUSH32 0x4C45524332303A207472616E7366657220616D6F756E74206578636565647320 PUSH1 0x0 DUP3 ADD MSTORE PUSH32 0x62616C616E636500000000000000000000000000000000000000000000000000 PUSH1 0x20 DUP3 ADD MSTORE POP JUMP JUMPDEST PUSH32 0x4C45524332303A207472616E7366657220616D6F756E74206578636565647320 PUSH1 0x0 DUP3 ADD MSTORE PUSH32 0x616C6C6F77616E63650000000000000000000000000000000000000000000000 PUSH1 0x20 DUP3 ADD MSTORE POP JUMP JUMPDEST PUSH32 0x4C45524332303A20496E76616C6964206B657900000000000000000000000000 PUSH1 0x0 DUP3 ADD MSTORE POP JUMP JUMPDEST PUSH32 0x4C45524332303A205475726E4F6666206E6F742070726F706F73656400000000 PUSH1 0x0 DUP3 ADD MSTORE POP JUMP JUMPDEST PUSH32 0x4C45524332303A207472616E736665722066726F6D20746865207A65726F2061 PUSH1 0x0 DUP3 ADD MSTORE PUSH32 0x6464726573730000000000000000000000000000000000000000000000000000 PUSH1 0x20 DUP3 ADD MSTORE POP JUMP JUMPDEST PUSH32 0x4C45524332303A204D7573742062652063616E64697461746500000000000000 PUSH1 0x0 DUP3 ADD MSTORE POP JUMP JUMPDEST PUSH32 0x4C45524332303A205475726E4F666620616C72656164792070726F706F736564 PUSH1 0x0 DUP3 ADD MSTORE POP JUMP JUMPDEST PUSH32 0x4C45524332303A204D757374206265207265636F766572792061646D696E0000 PUSH1 0x0 DUP3 ADD MSTORE POP JUMP JUMPDEST PUSH32 0x4C45524332303A204C6F73736C65737320616C7265616479206F6E0000000000 PUSH1 0x0 DUP3 ADD MSTORE POP JUMP JUMPDEST PUSH32 0x4C45524332303A204C6F73736C65737320616C7265616479206F666600000000 PUSH1 0x0 DUP3 ADD MSTORE POP JUMP JUMPDEST PUSH32 0x4C45524332303A204F6E6C79206C6F73736C65737320636F6E74726163740000 PUSH1 0x0 DUP3 ADD MSTORE POP JUMP JUMPDEST PUSH32 0x4C45524332303A2064656372656173656420616C6C6F77616E63652062656C6F PUSH1 0x0 DUP3 ADD MSTORE PUSH32 0x77207A65726F0000000000000000000000000000000000000000000000000000 PUSH1 0x20 DUP3 ADD MSTORE POP JUMP JUMPDEST PUSH2 0x2A29 DUP2 PUSH2 0x253B JUMP JUMPDEST DUP2 EQ PUSH2 0x2A34 JUMPI PUSH1 0x0 DUP1 REVERT JUMPDEST POP JUMP JUMPDEST PUSH2 0x2A40 DUP2 PUSH2 0x2559 JUMP JUMPDEST DUP2 EQ PUSH2 0x2A4B JUMPI PUSH1 0x0 DUP1 REVERT JUMPDEST POP JUMP JUMPDEST PUSH2 0x2A57 DUP2 PUSH2 0x2583 JUMP JUMPDEST DUP2 EQ PUSH2 0x2A62 JUMPI PUSH1 0x0 DUP1 REVERT JUMPDEST POP JUMP INVALID LOG2 PUSH5 0x6970667358 0x22 SLT KECCAK256 0xFC SHL 0xDB COINBASE 0x5D 0xD1 0xFC 0xD8 EXTCODESIZE LOG2 PUSH24 0x8FAD486EA2BDBE11C5B876507578CACC533F67F09D64736F PUSH13 0x63430008040033000000000000 "
				},
				"gasEstimates": {
					"creation": {
						"codeDepositCost": "2181400",
						"executionCost": "infinite",
						"totalCost": "infinite"
					},
					"external": {
						"acceptRecoveryAdminOwnership(bytes)": "infinite",
						"admin()": "1324",
						"allowance(address,address)": "infinite",
						"approve(address,uint256)": "infinite",
						"balanceOf(address)": "1586",
						"decimals()": "366",
						"decreaseAllowance(address,uint256)": "infinite",
						"executeLosslessTurnOff()": "29425",
						"executeLosslessTurnOn()": "28652",
						"getAdmin()": "1245",
						"increaseAllowance(address,uint256)": "infinite",
						"isLosslessOn()": "1215",
						"lossless()": "1352",
						"losslessTurnOffTimestamp()": "1262",
						"name()": "infinite",
						"proposeLosslessTurnOff()": "infinite",
						"recoveryAdmin()": "1325",
						"setLosslessAdmin(address)": "24374",
						"symbol()": "infinite",
						"timelockPeriod()": "1263",
						"totalSupply()": "1205",
						"transfer(address,uint256)": "infinite",
						"transferFrom(address,address,uint256)": "infinite",
						"transferOutBlacklistedFunds(address[])": "infinite",
						"transferRecoveryAdminOwnership(address,bytes32)": "43642"
					},
					"internal": {
						"_approve(address,address,uint256)": "infinite",
						"_burn(address,uint256)": "infinite",
						"_mint(address,uint256)": "infinite",
						"_transfer(address,address,uint256)": "infinite"
					}
				},
				"methodIdentifiers": {
					"acceptRecoveryAdminOwnership(bytes)": "b5c22877",
					"admin()": "f851a440",
					"allowance(address,address)": "dd62ed3e",
					"approve(address,uint256)": "095ea7b3",
					"balanceOf(address)": "70a08231",
					"decimals()": "313ce567",
					"decreaseAllowance(address,uint256)": "a457c2d7",
					"executeLosslessTurnOff()": "b38fe957",
					"executeLosslessTurnOn()": "5b8a194a",
					"getAdmin()": "6e9960c3",
					"increaseAllowance(address,uint256)": "39509351",
					"isLosslessOn()": "ccfa214f",
					"lossless()": "34f6ebf5",
					"losslessTurnOffTimestamp()": "61086b00",
					"name()": "06fdde03",
					"proposeLosslessTurnOff()": "d6e242b8",
					"recoveryAdmin()": "5f6529a3",
					"setLosslessAdmin(address)": "2baa3c9e",
					"symbol()": "95d89b41",
					"timelockPeriod()": "2ecaf675",
					"totalSupply()": "18160ddd",
					"transfer(address,uint256)": "a9059cbb",
					"transferFrom(address,address,uint256)": "23b872dd",
					"transferOutBlacklistedFunds(address[])": "936af911",
					"transferRecoveryAdminOwnership(address,bytes32)": "93310ffe"
				}
			},
			"storageLayout": {
				"storage": [
					{
						"astId": 1266,
						"contract": "Lossless_create2-main/contracts/utils/LERC20.sol:LERC20",
						"label": "_balances",
						"offset": 0,
						"slot": "0",
						"type": "t_mapping(t_address,t_uint256)"
					},
					{
						"astId": 1272,
						"contract": "Lossless_create2-main/contracts/utils/LERC20.sol:LERC20",
						"label": "_allowances",
						"offset": 0,
						"slot": "1",
						"type": "t_mapping(t_address,t_mapping(t_address,t_uint256))"
					},
					{
						"astId": 1274,
						"contract": "Lossless_create2-main/contracts/utils/LERC20.sol:LERC20",
						"label": "_totalSupply",
						"offset": 0,
						"slot": "2",
						"type": "t_uint256"
					},
					{
						"astId": 1276,
						"contract": "Lossless_create2-main/contracts/utils/LERC20.sol:LERC20",
						"label": "_name",
						"offset": 0,
						"slot": "3",
						"type": "t_string_storage"
					},
					{
						"astId": 1278,
						"contract": "Lossless_create2-main/contracts/utils/LERC20.sol:LERC20",
						"label": "_symbol",
						"offset": 0,
						"slot": "4",
						"type": "t_string_storage"
					},
					{
						"astId": 1280,
						"contract": "Lossless_create2-main/contracts/utils/LERC20.sol:LERC20",
						"label": "recoveryAdmin",
						"offset": 0,
						"slot": "5",
						"type": "t_address"
					},
					{
						"astId": 1282,
						"contract": "Lossless_create2-main/contracts/utils/LERC20.sol:LERC20",
						"label": "recoveryAdminCandidate",
						"offset": 0,
						"slot": "6",
						"type": "t_address"
					},
					{
						"astId": 1284,
						"contract": "Lossless_create2-main/contracts/utils/LERC20.sol:LERC20",
						"label": "recoveryAdminKeyHash",
						"offset": 0,
						"slot": "7",
						"type": "t_bytes32"
					},
					{
						"astId": 1287,
						"contract": "Lossless_create2-main/contracts/utils/LERC20.sol:LERC20",
						"label": "admin",
						"offset": 0,
						"slot": "8",
						"type": "t_address"
					},
					{
						"astId": 1289,
						"contract": "Lossless_create2-main/contracts/utils/LERC20.sol:LERC20",
						"label": "timelockPeriod",
						"offset": 0,
						"slot": "9",
						"type": "t_uint256"
					},
					{
						"astId": 1291,
						"contract": "Lossless_create2-main/contracts/utils/LERC20.sol:LERC20",
						"label": "losslessTurnOffTimestamp",
						"offset": 0,
						"slot": "10",
						"type": "t_uint256"
					},
					{
						"astId": 1294,
						"contract": "Lossless_create2-main/contracts/utils/LERC20.sol:LERC20",
						"label": "isLosslessOn",
						"offset": 0,
						"slot": "11",
						"type": "t_bool"
					},
					{
						"astId": 1297,
						"contract": "Lossless_create2-main/contracts/utils/LERC20.sol:LERC20",
						"label": "lossless",
						"offset": 1,
						"slot": "11",
						"type": "t_contract(ILssController)380"
					}
				],
				"types": {
					"t_address": {
						"encoding": "inplace",
						"label": "address",
						"numberOfBytes": "20"
					},
					"t_bool": {
						"encoding": "inplace",
						"label": "bool",
						"numberOfBytes": "1"
					},
					"t_bytes32": {
						"encoding": "inplace",
						"label": "bytes32",
						"numberOfBytes": "32"
					},
					"t_contract(ILssController)380": {
						"encoding": "inplace",
						"label": "contract ILssController",
						"numberOfBytes": "20"
					},
					"t_mapping(t_address,t_mapping(t_address,t_uint256))": {
						"encoding": "mapping",
						"key": "t_address",
						"label": "mapping(address => mapping(address => uint256))",
						"numberOfBytes": "32",
						"value": "t_mapping(t_address,t_uint256)"
					},
					"t_mapping(t_address,t_uint256)": {
						"encoding": "mapping",
						"key": "t_address",
						"label": "mapping(address => uint256)",
						"numberOfBytes": "32",
						"value": "t_uint256"
					},
					"t_string_storage": {
						"encoding": "bytes",
						"label": "string",
						"numberOfBytes": "32"
					},
					"t_uint256": {
						"encoding": "inplace",
						"label": "uint256",
						"numberOfBytes": "32"
					}
				}
			},
			"userdoc": {
				"kind": "user",
				"methods": {},
				"version": 1
			}
		}
	}
}